:1000000048370020E93A0100173B01008939010017
:1000100089390100893901008939010089390100D4
:10002000893901008939010089390100B53701009A
:1000300089390100893901005937010089390100E6
:10004000B13A010057220100B13A0100B13A010072
:10005000B13A0100B13A0100B13A0100B13A0100F0
:10006000B13A0100B13A0100B13A0100B13A0100E0
:10007000B13A0100B13A0100B13A0100B13A0100D0
:10008000B13A0100B13A0100B13A0100B13A0100C0
:10009000B13A0100B13A0100B13A0100B13A0100B0
:1000A000B13A0100B13A010000000000B5140000AF
:1000B00000000000013901000000000001390100CA
:1000C00000000000013901000000000001390100BA
:1000D0000000000001390100640900200112000045
:1000E000000000000139010000000000013901009A
:1000F000000000000139010000000000013901008A
:10010000000000001522010000000000013901007C
:10011000000000004F220100000000000139010032
:100120000000000001390100000000000139010059
:1001300000000000A90F00000000000001390100CC
:100140000000000001390100000000000139010039
:100150000000000001390100000000000139010029
:1001600000000000013901000000000045220100EC
:10017000000000000139010002B47146490849003D
:10018000095C49008E4402BC7047C04603B4714606
:10019000490840004900095A49008E4403BC704791
:1001A000002243088B4274D303098B425FD3030AB6
:1001B0008B4244D3030B8B4228D3030C8B420DD3C9
:1001C000FF22090212BA030C8B4202D31212090257
:1001D00065D0030B8B4219D300E0090AC30B8B4295
:1001E00001D3CB03C01A5241830B8B4201D38B0343
:1001F000C01A5241430B8B4201D34B03C01A5241E8
:10020000030B8B4201D30B03C01A5241C30A8B422A
:1002100001D3CB02C01A5241830A8B4201D38B0215
:10022000C01A5241430A8B4201D34B02C01A5241B9
:10023000030A8B4201D30B02C01A5241CDD2C3092B
:100240008B4201D3CB01C01A524183098B4201D3A7
:100250008B01C01A524143098B4201D34B01C01A92
:10026000524103098B4201D30B01C01A5241C3080A
:100270008B4201D3CB00C01A524183088B4201D379
:100280008B00C01A524143088B4201D34B00C01A65
:100290005241411A00D20146524110467047FFE7D1
:1002A00001B5002000F0F0F802BDC0460029F7D0EB
:1002B00076E7704703460B437FD4002243088B4206
:1002C00074D303098B425FD3030A8B4244D3030BDD
:1002D0008B4228D3030C8B420DD3FF22090212BAA2
:1002E000030C8B4202D31212090265D0030B8B421E
:1002F00019D300E0090AC30B8B4201D3CB03C01A08
:100300005241830B8B4201D38B03C01A5241430BE2
:100310008B4201D34B03C01A5241030B8B4201D3D2
:100320000B03C01A5241C30A8B4201D3CB02C01A3D
:100330005241830A8B4201D38B02C01A5241430AB5
:100340008B4201D34B02C01A5241030A8B4201D3A4
:100350000B02C01A5241CDD2C3098B4201D3CB014B
:10036000C01A524183098B4201D38B01C01A5241FA
:1003700043098B4201D34B01C01A524103098B42FE
:1003800001D30B01C01A5241C3088B4201D3CB00E9
:10039000C01A524183088B4201D38B00C01A5241CC
:1003A00043088B4201D34B00C01A5241411A00D27C
:1003B00001465241104670475DE0CA0F00D04942E5
:1003C000031000D34042534000229C4603098B4255
:1003D0002DD3030A8B4212D3FC22890112BA030ADD
:1003E0008B420CD3890192118B4208D3890192115F
:1003F0008B4204D389013AD0921100E08909C309E4
:100400008B4201D3CB01C01A524183098B4201D3E5
:100410008B01C01A524143098B4201D34B01C01AD0
:10042000524103098B4201D30B01C01A5241C30848
:100430008B4201D3CB00C01A524183088B4201D3B7
:100440008B00C01A5241D9D243088B4201D34B00D2
:10045000C01A5241411A00D20146634652415B1014
:10046000104601D34042002B00D5494270476346F5
:100470005B1000D3404201B5002000F005F802BD3A
:100480000029F8D016E770477047C046002B11D1FD
:10049000002A0FD1002900D1002802D00021C94331
:1004A000081C07B4024802A14018029003BDC046D0
:1004B000D9FFFFFF03B4684601B5029800F056F873
:1004C000019B9E4602B00CBC7047C046F0B54F463B
:1004D0004646C0B41604360C9946330005042C0C6D
:1004E000070C150C63437E436F4365431C0CAD1929
:1004F00064199C46A64203D980235B029846474470
:100500006346250CEF191D044B464A4343432D0C0B
:10051000240464199918C91920000CBC9046994606
:10052000F0BDC04610B50023002802D000F0EAF864
:10053000431C180010BDC046094B42081A40821ADD
:100540001000084B920818401340C01803091818EF
:10055000054B1840030218180304C018000E70471A
:1005600055555555333333330F0F0F0FF0B54D46F7
:10057000564644465F46F0B4924683B004000D00F0
:1005800099468B422FD82CD04946504600F0AEF801
:1005900029000600200000F0A9F8331A9846203BF5
:1005A0009B4600D574E053465A4693401F0053467D
:1005B000424693401E00AF4229D826D05B46A41B7A
:1005C000BD41002B00DA79E0002200230092019364
:1005D00001235A46934001930123424693400093DE
:1005E00019E08242D0D900220023009201930C9B93
:1005F000002B01D01C605D600098019903B03CBCE9
:1006000090469946A246AB46F0BDA342D6D90022F9
:100610000023009201934346002BE8D0FB077208A9
:100620001A4346467B080EE0AB4201D1A2420CD8E9
:10063000A41A9D41012024196D410021013E241876
:100640004D41002E06D0AB42EED9013E24196D413A
:10065000002EF8D15B460098019900196941002BE2
:1006600022DB2B005A46D3402A004446E2401C00BD
:100670005B461500002B2CDB26009E403300260035
:100680004746BE403200801A994100900191AEE782
:10069000424620239B1A5246DA40414613004A46FE
:1006A0008A4017001F4382E7424620239B1A2A00F4
:1006B00046469A402300F3401343D5E742462023A1
:1006C00000219B1A0022009101920122DA4001923E
:1006D00082E74246202326009B1ADE402F00B446C4
:1006E000974066463B003343C9E7C04610B5002932
:1006F00003D100F027F8203002E0081C00F022F8B7
:1007000010BDC046414208401C2101231B049842F1
:1007100001D3000C10391B0A984201D3000A083992
:100720001B09984201D30009043902A2105C401A47
:100730007047C0461B1C1D1D1E1E1E1E1F1F1F1F97
:100740001F1F1F1F1C2101231B04984201D3000CF3
:1007500010391B0A984201D3000A08391B09984234
:1007600001D30009043902A2105C40187047C0464A
:10077000040302020101010100000000000000006A
:1007800002394B424B41014A13707047A00A0020C6
:1007900010B50549002A00D10449054801F0F0F8D8
:1007A0000022044B1A7010BDD4500100D950010032
:1007B000E1500100600A002010B5024801F0E0F8A5
:1007C00010BDC046F050010010B5002903D0044808
:1007D00001F0D6F802E0034801F0D2F810BDC0469F
:1007E0000A5101002651010010B50C00110002AAA7
:1007F0001088E2681C00C318042B04DC10182200C7
:1008000000F09BFA01E007246442200010BD70B59F
:100810000D00110004AA108805AA12780024D2073E
:100820000BD41C00C3184A2B05DCEB6822001818F7
:1008300000F083FA01E007246442200070BD10B587
:100840000C00110002AA1088E2681C00C318062BD5
:1008500004DC1018220000F070FA01E00724644262
:10086000200010BD30B5042585B008AC2488029561
:10087000CD680094019506F01BFC05B030BD30B585
:100880004A2585B008AC24880295CD68009401956E
:1008900006F00EFC05B030BDF0B5CD6887B006009F
:1008A000059328000CAB1F880C00049200F01BFA83
:1008B00080B2029001950097059B049A21003000B8
:1008C00006F0F6FB07B0F0BD30B5050087B0002894
:1008D00002D00100184826E0184801F051F8012024
:1008E00000F0ECF800F076F900F0BEF91449154874
:1008F00000F04AF903AC144806F0E0FC0C22290091
:10090000200000F044FAA0220123628050322370BC
:10091000A2800E490093ED3A0D4B200003F0CEFC6F
:10092000011E03D00B4801F02BF802E00A4801F049
:1009300027F807B030BDC0463151010051510100C8
:100940006851010075510100F4010020BC50010004
:100950006452010083510100A951010070B5037870
:1009600088B004000E0006AD002B03D0012B06D189
:100970000F4900E00F49280000F0ACF904E00E4AEE
:100980000721280001F008F86278A3790492A27880
:1009900005950392E2781B210292227930000192A0
:1009A00062790092054A00F0F7FF08B070BDC046BA
:1009B000D2510100CB510100D9510100E051010099
:1009C00010B50C0088B004F00CFA01A9FFF7C6FFBF
:1009D000220001A9024800F0D3FF08B010BDC046B4
:1009E0000352010000B589B004F0FBF901A9FFF73B
:1009F000B5FF01A9024800F0C3FF09B000BDC04621
:100A00001952010070B5184803F0D6FB011E03D03F
:100A1000164800F0B5FF70BD154803F08FFE15486D
:100A200004F04EFB0125FA20800013F09FFE00F039
:100A30003DF900F04FF800F0D5F80F4B1B78002B74
:100A4000F1D00E4C20780028EDD10D4B0D49283304
:100A50008B610D4B0C62CB618D8406F0F7FC002896
:100A6000E1D12570DFE7C046C9080000315101001F
:100A7000E8000020A8020020A00A0020600A002050
:100A800004010020780A00209107000001394B4240
:100A90004B41014A13707047A80A002030B5012568
:100AA00085B008AC24880295034D0094019506F0AA
:100AB000FFFA05B030BDC046A90A002010B5034BAF
:100AC0001870034806F0FAFB10BDC046A90A0020C2
:100AD0009404002010B50C4B1B78002B12D00B4B4C
:100AE0001A780132D2B2A02A00D15A2206211A70F5
:100AF000074A1B78117007495370283102230020E0
:100B000006F084FC10BDC046A80A0020E2020020C6
:100B1000AA0A0020F0020020F0B587B01E000CAB3E
:100B20001F880A4B05001C6804912000059200F004
:100B3000DAF880B20290019400973300059A049984
:100B4000280006F0B5FA07B0F0BDC046C00A002084
:100B5000F0B587B01E000CAB1F880A4B05001C685F
:100B600004912000059200F0BEF880B2029001943A
:100B700000973300059A0499280006F099FA07B007
:100B8000F0BDC046C40A002010B5044B1860044BE9
:100B90000448196006F092FB10BDC046C40A00204C
:100BA000C00A0020A004002001394B424B41014AF9
:100BB00013707047DC0A002030B5012585B008AC01
:100BC00024880295CD680094019506F071FA05B06D
:100BD00030BD000010B5024806F070FB10BDC046E5
:100BE000B004002010B5094B1B78002B0DD0084A2B
:100BF0001378013BDBB2002B00D16423054913704D
:100C000028310123002006F001FC10BDDC0A002081
:100C1000AC040020F40300207047000010B50C0065
:100C2000110002AA1088E2681C00C3180A2B07DC16
:100C30001018220000F081F80122034B1A7001E025
:100C400007246442200010BDE70A002030B50A25C1
:100C500085B008AC24880295CD680094019506F013
:100C600027FA05B030BD000013B56B460C4C991D3A
:100C70000C4B022220000B8000F05FF80523A370CC
:100C80001933E370A3710C221D3BE3710023227121
:100C90002132627123726372034806F00FFB13BDA9
:100CA000DD0A0020DF070000BC04002010B5064B61
:100CB0001A78002A07D0002004491870044A0A2331
:100CC0003C3106F0A3FB10BDE70A002044040020DD
:100CD000DD0A002003000A781A70002A02D00133CE
:100CE0000131F8E77047020003001978981A0029CB
:100CF00001D00133F9E7704703780A78934205D1B0
:100D0000002B02D001300131F6E71A00981A704723
:100D10000300002010B582420ED0013A9A18934287
:100D200003D11B780878181A06E01C7808788442EA
:100D3000F7D101330131F2E710BD30B504000323D0
:100D40004C401C4202D00400002319E004001D00A6
:100D500023002B4007D0002A18D00B78013A2370CB
:100D600001310134F4E7D51A032D03D9CD58E550EC
:100D70000433F8E793089B00D21AE418C918E3E794
:100D80009A4203D0CD5CE5540133F9E730BDF0B5AC
:100D900003000326CCB21D00334205D0002A1AD02E
:100DA0001C70013A0133F6E7FF27CEB23F02090279
:100DB000394031430E0431431600032E02D902C3D9
:100DC000043EFAE793089B00EB18AA18934202D05E
:100DD0001C700133FAE7F0BD70B50400074D0A2816
:100DE00004D128680D2143685B6898472868E1B200
:100DF00043685B689847200070BDC046FC0A00202D
:100E000010B5024800F084FC10BDC046D90D0000AA
:100E100010B5044812F0D0FE034B1860FFF7F0FF46
:100E2000002010BD6C520100FC0A002003689B6882
:100E30001B681A00FC32D068002806D00020D06061
:100E4000A322D2009B580B7001E001204042704762
:100E50000368064A9B681B689950FC331A6A002A8B
:100E6000FCD0002208001A627047C0461C05000032
:100E7000036800209B681B681A00FC32926A824259
:100E800003D09022D200985898500F2318407047F2
:100E9000F8B5036805009B6818481C6812F08CFEC2
:100EA000436806001F6802230A22FF330021B84767
:100EB000736830001F6800230B221900B8470A220C
:100EC0000F4BEB21E2500F4B0132E250E122AB68B5
:100ED00052021A602B6849049B6800201A680A4B6A
:100EE000D1500422243BE2502300FC331862D86026
:100EF0000123A3602360054B6B60F8BD73520100B2
:100F00000C05000014050000240500009C5201009F
:100F1000A822084BD2009850074A9B58C01A0002DA
:100F2000000A064B0238984203D98022044B9202F1
:100F30005A6070470010014004050000FDFF7F006B
:100F4000FCE100E0134B144A70B5D058A323134DB5
:100F50005B002C68001B0002000A984213D948214C
:100F6000FF31FFF71DF90E4B1B68984200D918009E
:100F70004823FF3343431C1924020A4B240A2C60E4
:100F8000186013F01BFD28684830FF30FFF7C0FFE2
:100F900070BDC0460405000000100140000B002099
:100FA000040B002024090020002210B5024B5A64D3
:100FB000FFF7C8FF10BDC046FC100140074B10B53D
:100FC000984200D91800064B18604823FF33584355
:100FD000044B1B68C018FFF79BFF10BD3564000071
:100FE000040B0020000B00200022074B10B58021CD
:100FF0005A64C023054A5B008902D150FFF7A2FF63
:101000000122034B1A6010BDFC10014000E100E01A
:10101000040B002070B51A4812F0CEFD00282CD029
:1010200000240126436801211B689847154B48227C
:101030001C60154B154D1E60A123DB00EC50FF32E8
:101040003833EA508023FE325B02FF32AB50403A25
:10105000AB500F4B80215C64C0230E4A5B008902B9
:10106000D15011202200310012F018FC112012F092
:10107000F5FBAE6020002E6001E00120404270BD13
:101080007A520100000B0020040B002000100140E8
:10109000FC10014000E100E0036870B59B68012589
:1010A0009A681F2683680020DC682300C3402B4217
:1010B00008D003004533FF339B009B581B0A334085
:1010C0008B4203D001300428EFD1173870BD30B502
:1010D00015000268A2209268C000146822580029F6
:1010E00002D1EA4001310A4000201A6030BD000000
:1010F000006880680068002909D101319140002B07
:1011000002D0A123DB0000E0034BC15001E0034A01
:10111000835000207047C0460C0500000405000005
:1011200010B58368002A07D01A680A605A681960E7
:10113000002A19D1596017E01868002814D081429C
:101140000FD15C680868002A04D11860A14205D15B
:10115000586003E01060A14200D15A6000230B6088
:1011600002E002000068E8E7002010BDF8B503685F
:101170000C009B6817009D688668002914D1110037
:10118000FFF78AFF021E11DB01231900B940B06886
:1011900093400143B1601100C122403189009200A7
:1011A0004C512000AB5001E023204042F8BDF8B57F
:1011B00003680C009B6816009F688568002910D1A1
:1011C0001100FFF769FF031E0DDB01231A00B24077
:1011D000A96883409143C2229200A960BB502300BA
:1011E00001E023235B421800F8BD10B50022012165
:1011F000062012F053FB062012F030FB002010BD39
:101200000368F7B59B6804009B68012701930023DE
:101210001A0085680198990041180800FC3046685A
:10122000002E0AD000264660A220C00009581F20C8
:10123000090A01403800884002430133042BE9D1F8
:10124000AE680620164012F013FB2D68002D03D166
:10125000062012F003FBF7BDAB683342F5D0320035
:10126000290020006B689847EFE70000F0B5060002
:101270001400026885B09268B5689068176803909A
:10128000002901D0232069E00321981308401A1394
:101290000A400190FD31C0208C4680001840F4398E
:1012A000604504D02F494018414241418900012046
:1012B00092000292034213D00C2903D1A122A04034
:1012C000D20003E0042902D1A040274AB850029876
:1012D000019A82182548920012580320024305E023
:1012E0000298019A82182148920012581143220054
:1012F0000220C132FF329200D15118402FD09A06FD
:10130000C0D55A0603D480275B0703D400E0C0276A
:10131000BF0200E07F02E868FFF70EF904281CD046
:1013200030002100FFF7B8FEEE68002803DAF04332
:10133000FFF7F8F801380122130083401E43F82319
:1013400024025B011C4045301443FF30039B8000A6
:101350002743EE60C750002001E00520404205B061
:10136000F0BDC04600FEFFFF0C050000D852010092
:1013700010B5EFF3108172B6154A1078002804D129
:10138000002920D162B6453821E0431EDBB213703C
:10139000002B04D00020814219D162B617E00D4B1A
:1013A0001C78002C04D0107000290ED162B60CE01D
:1013B00001221A70002900D162B680210020C905DF
:1013C0004A60187003E0452000E00B20404210BD49
:1013D000180B0020190B0020002210B5100001216D
:1013E00012F05CFA002012F039FA002010BD000063
:1013F00070B5EFF3108372B6294A1078441C14704C
:10140000002803D0002B3FD162B63DE0254C257863
:10141000002D04D01070002B3FD162B63DE00122B8
:101420002270002B00D162B680251F4EED050029E9
:1014300025D0002012F01CFA0023C1227360920014
:101440000133A958AB502B607368002B03D120BF28
:1014500040BF20BFF8E70022134B5A600123194216
:1014600004D1C22280219200C9058B50C0230121E2
:101470000E4A5B00D150002012F0F0F902E0012387
:1014800071602B60002323708022094BD205D35852
:101490000020DB0303D4443801E00B20404270BD40
:1014A000180B0020190B0020FC00004000E100E0B8
:1014B0000C040000F7B5244C8023E268DB05944659
:1014C000C1229200995801220A40204905005E5825
:1014D00000926768A0682169626901926246002AE9
:1014E00001D00022E260002F01D000276760009A3F
:1014F000002A06D0F20304D5C2260122B6009A5172
:101500001A61002801D00023A360002908D000211F
:1015100028002161FFF72CFF80230122DB055A619F
:10152000019B002B0ED00021C12380226161012488
:101530009B00D205D4502800FFF75AFF002801D1A4
:10154000034B5C60F7BDC046FC0000400C0400008B
:10155000FCE100E0F8B580258323ED05DB00EC58C5
:101560008023070000205B020E001C4084424DD106
:10157000200012F07DF9C1220220254B92009C60D0
:10158000A958A850A322D200AE5001221C00AA6084
:10159000A368002B03D120BF40BF20BFF8E7002283
:1015A0001B4B9A600223194204D1C222802192006F
:1015B000C9058B50C0230125164A5B00D550002079
:1015C00012F04CF98023C22218209200DB059850BB
:1015D0000321002231402261626191420ED1A72293
:1015E0001024D2009C50C122920098509D50380087
:1015F000FFF7FEFE002801D1074B5D6083238022A8
:101600000120DB00D205D3581B0C9843F8BDC0461F
:10161000FC00004000E100E0FCE100E00020704739
:101620000B6810B501330B60014B1B68984710BD68
:10163000CC040020F0B587B003930C9B0700029107
:10164000002B01DC01230C9320230593039B012B2A
:1016500001D12F3305930A2301930023160001249F
:101660001F4D0493049B002B01D1B5420AD2691C83
:101670003000FEF795FD02993030B8470123013460
:1016800004930AE00C9B019A934206DB039B022B16
:1016900003D802990598B8470134019B691C013BA6
:1016A00030000193FEF702FE28000E000A21FEF72B
:1016B00077FD019B0500012BD4D130000299303019
:1016C000B847039B032B08D10C9B1C1B002C04DD8B
:1016D00002992020B847013CF8E707B0F0BDC046AA
:1016E000FFC99A3B0A6830B58B68002A02D04C6863
:1016F000A34202DB01338B6009E0651EAB4203D1DC
:101700008C600021D15402E05C1C8C60D05430BD50
:10171000014B18607047C046CC040020F0B51C0097
:1017200000238DB00593013B0493002305000E00B8
:101730001F0007920393079B1878002800D10FE140
:10174000002F05D1252800D1FBE03100A84703E197
:10175000642850D016D8392809D8312836D22D28F7
:101760002AD030282AD0252800D0E1E0E5E058280A
:101770007BD0632800D0DBE02068271D3100A8471C
:101780003C00DCE0702866D007D8692833D06C288C
:101790002DD0682800D0CBE0D9E0752846D005D8F8
:1017A000732800D0C4E0271D2468B7E078285CD0F7
:1017B0007A2800D1CBE0BBE00323C7E0049B002BD9
:1017C00007DA039B002B00D1C3E006E0049B002B4B
:1017D00003DB0A23049A53431818039B3038049000
:1017E0000127002B00D0B7E002330393B4E0059B40
:1017F00001330593ABE0059B012B02DC2768043421
:1018000006E007342300072293431C001F680834B6
:10181000002F06DA31002D20A847049B7F42013BB0
:101820000493049B3A000093039B0FE0059B012B5C
:1018300002DC2268043406E00734230007229343C5
:101840001C001A680834049B0093039B3100280095
:10185000FFF7F0FE73E031003020A8473100782018
:10186000A84708230493073B0393059B012B03DC44
:1018700023680434099307E00734230007229343C5
:101880001C001B68083409930823069300230827CB
:1018900008930B93013F0998BB00D8400F231840D1
:1018A00005D10B9B002B07D1002F11D104E057234A
:1018B000092802D8273B00E03023C0183100A84790
:1018C000089B01330893069B0A9301230B9312E0B4
:1018D000069B069A013B0A93049B93420BDB039BF6
:1018E000012B02D13100302004E0039B022B02D1F6
:1018F00031002020A847002F02D00A9B0693C9E799
:10190000039B032B28D1049B5F00089BFF1A002F29
:1019100015DD31002020A847013FF8E72078002896
:1019200003D031000134A847F8E73C00070013E07A
:1019300031002520A847079B18783100A8470027C9
:101940000AE001235B4204933B00059703930127C0
:1019500002E001231F000393079B01330793EAE68C
:101960000DB0F0BD07B50B00002102000191034846
:1019700001A9FFF7D3FE01980EBDC0462116000055
:101980000FB407B504A901C90191FFF7EBFF03B03C
:1019900008BC04B0184700000CB430B5002585B071
:1019A00008AB04CB01900291040001A90748009301
:1019B0000395FFF7B3FE0398029B984200DA255483
:1019C00005B030BC08BC02B01847C046E5160000A0
:1019D000704770B50D001C0011000023AC4203D805
:1019E0002200FFF7AAF92300180070BD10B5FFF719
:1019F000CEF910BD1B23C209534340005840C0B26A
:101A000070470B681A0E0378534003700B681A0C6A
:101A10004378534043700B681A0A837853408370AD
:101A20000A68C3785340C3704B681A0E0379534059
:101A300003714B681A0C4379534043714B681A0A7F
:101A40008379534083714A68C3795340C3718B686B
:101A50001A0E037A534003728B681A0C437A534070
:101A600043728B681A0A837A534083728A68C37AF6
:101A70005340C372CB681A0E037B53400373CB6889
:101A80001A0C437B53404373CB681A0A837B534041
:101A90008373CA68C37B5340C37370470B681A0EC5
:101AA0000378534003700B681A0C4378534043701B
:101AB0000B681A0A8378534083700A68C3785340CE
:101AC000C3704B681A0E0379534003714B681A0CAC
:101AD0004379534043714B681A0A837953408371A9
:101AE0004A68C3795340C3718B681A0E037A534016
:101AF00003728B681A0C437A534043728B681A0A3C
:101B0000837A534083728A68C37A5340C372CB6826
:101B10001A0E037B53400373CB681A0C437B53406C
:101B20004373CB681A0A837B53408373CA68C37BB1
:101B30005340C3737047F0B587B0009008780E002B
:101B4000FFF758FFFFF756FFFFF754FF0700307805
:101B5000FFF750FFFFF74EFF01903078FFF74AFF85
:101B600002907078FFF746FFFFF744FFFFF742FF50
:101B700003907078FFF73EFF0490B0787478FFF719
:101B800039FFFFF737FFFFF735FF0590B078FFF714
:101B900031FFFFF72FFFB3780500F0785C40FFF7C7
:101BA00029FFFFF727FFFFF725FFF3785C40019B34
:101BB00067407B401F00029B7B401F00039B7B40D4
:101BC0001F00049B7B401F00059B7B405D40009BEA
:101BD000684018703078FFF70DFFFFF70BFFFFF735
:101BE00009FF029070783478FFF704FFFFF702FFD7
:101BF000FFF700FF07007078FFF7FCFEFFF7FAFE23
:101C000003907078FFF7F6FE0490B078FFF7F2FECD
:101C1000FFF7F0FEFFF7EEFE0590B078FFF7EAFE63
:101C2000B37805005C40F0780194FFF7E3FEFFF71E
:101C3000E1FEFFF7DFFE0400F078FFF7DBFEFFF7C1
:101C4000D9FEF378019A5340029A5A40039B5740B9
:101C50007B401F00049B7B401F00059B7B405D4039
:101C60006C40009B604058703078FFF7C3FEFFF770
:101C7000C1FEFFF7BFFE02903078FFF7BBFEFFF713
:101C8000B9FE070070783478FFF7B4FEFFF7B2FEB4
:101C9000FFF7B0FE737803905C40B0780194FFF7D3
:101CA000A9FEFFF7A7FEFFF7A5FE0490B078FFF7A7
:101CB000A1FEFFF79FFE0590B078FFF79BFE0500A1
:101CC000F078FFF797FEFFF795FEFFF793FE04000D
:101CD000F078FFF78FFEF378019A5340029A5A404A
:101CE000039B57407B401F00049B7B401F00059BCC
:101CF0007B405D406C40009B604098703078FFF7FF
:101D000079FEFFF777FEFFF775FE07003078FFF7E3
:101D100071FE3378029070780193FFF76BFEFFF746
:101D200069FEFFF767FE05007078FFF763FEFFF7B7
:101D300061FE7378019A04005A40B0780192FFF76F
:101D400059FEFFF757FEFFF755FE019AB37853404F
:101D50005F40029B7B405D406C404440F078FFF761
:101D600049FEFFF747FEFFF745FE0500F078FFF755
:101D700041FEFFF73FFE0700F078FFF73BFEE4B2BD
:101D80006C406740009B7840D87007B0F0BDF8B554
:101D9000060008780C00FFF72DFE05006078FFF7BD
:101DA00029FE6278A3785340E27853406B40584054
:101DB000307060782778FFF71DFE0500A078FFF7E8
:101DC00019FEA378E2787B4053406B405840707016
:101DD00063782778A0785F40FFF70CFE0500E07875
:101DE000FFF708FEE3787B406B405840B0702078E6
:101DF000FFF700FE637825785D40A3785D4068407A
:101E0000C5B2E078FFF7F6FD4540F570F8BD1FB5A7
:101E10006A460378137043795370837A9370C37B57
:101E2000D37003791371437A5371837B9371C378B1
:101E3000D371037A1372437B537283789372C3799D
:101E4000D372037B13734378537383799373C37A89
:101E5000D37310231900FFF7BCFD05B000BD0000CF
:101E6000F0B58DB001AC2200244BE0CBE0C2E0CB5A
:101E7000E0C2E0CBE0C260CB60C2031E3AD00B1ED2
:101E800038D00E00050010360B781A064B781B046C
:101E90001343CA7813438A7804311202134308C5E6
:101EA0008E42F1D1182304229C46FF26144D0321B3
:101EB000C3680A4216D16146CB41190E6F5C190006
:101EC0003140695C3F060F43190C31401B0A695CC5
:101ED0003340EB5C09041B023943194393089B0010
:101EE000E3584B40016801324B40036104302C2A17
:101EF000DDD1012318000DB0F0BDC04640500100F7
:101F000030530100F0B507008BB0140000285BD0FF
:101F1000081E59D0101E57D010230A0002A819001D
:101F2000FFF757FD210002A8FFF7B8FD23002600A8
:101F3000A033103601930025244B02AAAA5C02A903
:101F40009A5C6A540135102DF7D10800FFF75FFF46
:101F500002A906A8FFF71BFF03A907A8FFF717FFB1
:101F600004A908A8FFF713FF05A909A8FFF70FFFA9
:101F70002B0006AA290002A8FFF72BFD310002A8BA
:101F8000FFF78CFD019B1036B342D4D100250F4AD8
:101F900002ABEB5C02A9D35C6B540135102DF7D179
:101FA0000800FFF734FF210002A8A031FFF776FDFB
:101FB0002B0002AA29003800FFF70BFD02A82A0017
:101FC0000021FFF713FD01200BB0F0BD30530100DD
:101FD0000A7810B587237F2A00D800230F228C5C53
:101FE000640063408354002A03D08B5C013ADB0910
:101FF000F5E710BD10B5031E04D058220021FFF7ED
:10200000F5FC0123180010BD10B5041E11D01022DC
:102010000021FFF7EBFC2000102230300021FFF7F9
:10202000E5FC002363648023002201205B0222651B
:10203000636510BD70B504000D001600002824D0A3
:10204000081E22D0582200212000FFF7CFFC2900D3
:102050002500A6643000FFF703FF102200212000B6
:10206000FFF7C4FC1035A26C21002000FFF74AFFE7
:1020700021002800FFF7ACFF200029002030FFF7E7
:10208000A7FF2000FFF7C0FF012070BDF7B50400D7
:102090000E001500071E5DD0002A5AD00F1E59D021
:1020A000416D006D002703000B43BB4252D001225B
:1020B0005242D31712184B41606C22656365B842D7
:1020C0002AD010231B1A3030019320189D4209D2C8
:1020D0002B0029003200FFF77CFC636C01375D198F
:1020E000656437E0019B32001900FFF772FC019B29
:1020F0002100ED1AF6182300676410311A003032FF
:1021000010781A7842401A7001338B42F6D1A26CD3
:1021100021002000FFF7F6FE2F00EA1BB218102F57
:102120000ED90023E05CD15C4140E1540133102B17
:10213000F8D1A26C21002000FFF7E4FE103FECE78D
:10214000002F06D020003B0030303900FFF741FC63
:10215000676401273800FEBD70B505000C0000283B
:1021600028D0081E26D0486C103110280DD010221F
:10217000121A303000212018FFF738FC802221008D
:10218000636C2031E31830331A7000231800E65CCA
:10219000CA5C3030205C72404240E2540133102B64
:1021A000F4D1A26C21002800FFF7ACFE2000FFF75D
:1021B00021FF012070BD0000F0B5EFF3108372B66F
:1021C0008122134E134D34786243AA18032501343B
:1021D0002C403470002B00D162B6402900D9402138
:1021E00003000F2710000C4D5E18B3420AD01C7874
:1021F00024092C5D04701C7801333C402C5D447034
:102200000230F2E70023490010008B54F0BDC046B5
:10221000540D00201A0B00203054010070B51B250E
:102220001849194A0B7888B05D43551901220133CA
:1022300013400B700378040006AE002B03D09342CA
:1022400006D1124900E012493000FEF743FD04E0D8
:10225000104A07213000FFF79FFB6278A3790492B0
:10226000A27805960392E2781B2102922279280037
:10227000019262790092084AFFF78EFB280008B0AD
:1022800070BDC046550D00201E0D0020D25101002A
:10229000CB510100D9510100E051010030B585B0AA
:1022A0000400150068460322FEF747FD6B460D2229
:1022B0000021D81CFEF76BFD20006A46694609F034
:1022C0002DFF041E04D1032269462800FEF735FDC8
:1022D000200005B030BD13B50C0001AA0331FFF793
:1022E000DDFF03000020834207D1032201A9200063
:1022F000FEF70EFD43425841C0B216BD70B5CD1C6D
:1023000006000C002800032109F0EAFE00280AD18B
:102310003F23627929001340402213436371220056
:102320003000FFF7BBFF70BD70B5037805000C00EF
:10233000012B13D0002B07D0022B1CD1010011223E
:102340002000FEF7FAFC16E011220B492000FEF7F0
:10235000F4FC6B8863731B0AA3730CE0112206491B
:102360002000FEF7EAFC6B681A0A63731B0CE37328
:102370001B0AA273237470BDD378010010B50278D4
:102380000B788AB00C0093420CD06946FFF7CCFF63
:1023900005A92000FFF7C8FF15216B4610226944EC
:1023A000581C10E0012B0AD0002B05D0022B0DD1B8
:1023B00001310130102206E04388488801E043687B
:1023C0004868181A04E0FEF7A3FC01E0162040421A
:1023D0000AB010BDC389C018032313309843704757
:1023E00070B58AB06A46094B694670CB70C270CB33
:1023F00070C270CB70C21B681360054B092801D8EE
:102400008000435818000AB070BDC0466C500100EF
:102410007C5401004B099B0010B5C0180C0011F052
:1024200096FB1F231C4020411E3B184010BD4B094A
:102430009B0010B5C0180C0011F089FB1F231C4035
:1024400020411E3B184010BD13B5837A0400002BB9
:1024500002D10133037224E0C06F00280DD0083090
:102460000021FFF7D7FF002807D0E36F9B899B0669
:1024700001D5042302E0032300E002232372627AE1
:10248000237A9A420DD9074B07490193074B084A13
:1024900000930848084BFFF773FA0521200002F06B
:1024A000A3FC13BDC45401008B540100C9540100A6
:1024B000845401008E540100A07A0100F0B505009B
:1024C00087B090790E00140010F0DEFF1A4FB8426A
:1024D00011D0A479200010F0D7FF184B029004937C
:1024E000174B039700930194164B174A1749184846
:1024F000FFF746FA1EE02000FFF76CFF43889D427D
:102500000BD00E4A02930E4B0392009301950D4B94
:102510000D4A0E490F48FFF733FA2000FFF75AFF24
:102520004368002B06D046702000FFF753FF406839
:1025300012F0D4F907B0F0BDF4090020C454010032
:102540000F550100E1790100D15401008B540100C5
:10255000D8540100175501000100002210B5C378BE
:102560008031934200D0024A024812F0D1FC10BDE3
:102570008813000058230020030A10705370000CC9
:102580000B0A1171090C90709171000A090AD07040
:102590005371D17170470000F8B50E00012105009C
:1025A00049420F4810F078FF0400002110F0D4FFDA
:1025B0002000FFF70FFF002707702000FFF70AFF3A
:1025C00045802000FFF706FF476020000321083008
:1025D00010F0F8FF05702D0A457086702000F8BDD8
:1025E000F409002070B50C0086B01500002903D155
:1025F000FFF7D2FF041E29D001AE012200213000D6
:1026000012F064F92000FFF7E5FE4660200010F0AC
:10261000D5FF10482100C43010F0A3FF0E49300050
:1026200012F098F92000FFF7D5FE4078002804D07A
:10263000200010F0A5FF052009E0002D01D02C603E
:1026400006E0200010F09CFF280001E03720404207
:1026500006B070BDD00400201027000070B5012125
:1026600005001248FFF798FF041E1AD00830012118
:10267000002D00D1290010F0B6FF210000220B48E8
:10268000FFF7B0FF041E0ED109486C30002D03D0B7
:10269000202111F068FA06E02121494211F06EFA7A
:1026A00001E037246442200070BDC0460A200000CB
:1026B000D0040020F8B5144E062237000837390040
:1026C0000500FEF725FB041E1BD006210F48FFF76F
:1026D00063FF041E13D006222900083010F079FF92
:1026E000210000220948FFF77DFF041E09D10622C0
:1026F00029003800FEF721FB0123F37101E03724A4
:1027000064422000F8BDC046D0040020052000002F
:1027100073B5114D0A212E006C363000FFF77AFE9A
:102720000024A04216D128006946DC30FFF7E6FD00
:10273000041E09D16846FFF7BDFF041E04D18021A5
:102740003000C90011F00FFA2900044AEC310448A6
:1027500012F0DEFB200076BDD0040020A0BB0D00EF
:102760005823002070B50F4C0F4925006C35280008
:1027700011F004FA05212800FFF74CFE002807D0CD
:102780000020FFF76BFFFFF7C3FF0120FFF766FF95
:10279000200009216C30FFF73DFE002801D0FFF733
:1027A000B7FF70BDD0040020FFFBFFFF10B5012074
:1027B00010F082F9034B04491A68044812F0A8FB90
:1027C00010BDC04640230020B8220020582300201E
:1027D00073B51C4D07216C352800FFF71BFE002840
:1027E0002BD002211848FFF7D7FE041E27D0022164
:1027F000083010F0E7FE022200210600FEF7C7FABB
:10280000002301AA7370337021000F48FFF7EAFE1E
:10281000002816D1019B9B681C78002C08D18121CF
:102820002800494211F0AAF90849280011F0A6F938
:10283000019810F0A5FE200003E0452000E03720BD
:10284000404276BDD00400200C200000FFFDFFFFB9
:10285000F7B50C00202100900192FFF79DFE061EA7
:1028600037D02021083010F0ADFE202200210500D5
:102870000027FEF78CFA019B9F4224D028786378CA
:102880001B1802331F2B04DD300010F079FE1620D8
:1028900020E0431CDBB22B70627829180230013231
:1028A000C0B24A7028702278EB185A7028186278E3
:1028B00061680130FEF741FA63782A780137D3184E
:1028C0002B700834D7E7002231000098FFF78AFE0A
:1028D00001E037204042FEBD30B501884388020048
:1028E0000020994219D8052917D9C82109018B421E
:1028F00013D8F4249188FF34A1420ED8D288074D12
:1029000014000A3CA4B2AC4207D801314B439200F8
:1029100001219A4200DC011CC8B230BD760C0000D7
:1029200010B5094C08216C342000FFF773FD002816
:1029300001D0002007E007212000FFF76BFD0028F1
:10294000F7D0FFF745FF10BDD0040020012310B5DC
:10295000062104000370C01809F0C2FB002804D14E
:102960004022A37952421343A37110BDF0B597B032
:102970000FAE32000021D048FFF734FE051E67D1AC
:102980000F9B9B681B78002B06D1CC48CC4A0121B9
:102990006C30136011F0DDF80F9810F0F1FD32008B
:1029A0000021C848FFF71EFE0700051E50D1C34C8A
:1029B0000F9B20009968082201311630FEF7BDF9FF
:1029C0000F9810F0DDFD39003200BF48FFF70AFE16
:1029D0000700051E3CD10F9883685A78A273DA78F5
:1029E000997812020A4322821A79E2731A7AD97903
:1029F00012020A4362825A799B791B021343A38213
:102A000010F0BEFD39003200B048FFF7EBFD0700C3
:102A1000051E1DD10F9B06229968601C0131FEF72F
:102A20008CF90F98277010F0ABFD32003900A848E0
:102A3000FFF7D8FD051E0BD120000F9B402299689F
:102A40001E300131FEF779F90F9810F099FD02E080
:102A5000002D00D0AAE2994CA37E5B060BD49D4BBF
:102A60009D4A01939D4B9E4900939E489E4BFEF7C5
:102A700087FF132545E00DAA00219C48FFF7B2FD12
:102A80000700051E00D0E1E020000D9B0822996898
:102A900070300131FEF751F90D9810F071FD0DAA5B
:102AA00039009348FFF79EFD051E00D0CEE00D9B38
:102AB00099688B784A781B02134322008032138076
:102AC000002B0AD0CB78191C022B00D90221200040
:102AD000C9B284300A0011F0F9FE0D9810F050FDD3
:102AE0002023A57E1D4005D023003A331B781B0709
:102AF0003ED517E002217F48FFF74EFD071E02D1A9
:102B000037256D4252E20221083010F05BFD0123AF
:102B1000457003702A0039007648FFF763FD0028EE
:102B2000E2D092E00DAA00217348FFF75BFD051E7D
:102B300000D08BE00D9883685D1C59789B78AF7846
:102B40001B020B433F041A003B00EF7813433F0680
:102B50006A791F432B7912021A43AB791B04134382
:102B60001A00EB79A7671B061343E36710F008FD13
:102B7000230070331B789B0631D5320000215F485B
:102B8000FFF730FD051E61D10F9883689A78597858
:102B900012020A430692DA781B791B021343079349
:102BA00010F0EEFC04215648FFF7F6FC071EA7D0F4
:102BB0000421083010F006FD6B461B7E2A000370CE
:102BC000069B39001B0A43706B461B7F8370079B73
:102BD0001B0AC3704A48FFF705FD002835D10821BC
:102BE0004848FFF7D9FC051E8AD00821401810F08C
:102BF000E9FC23007033197802000F23880700D501
:102C00002033880601D54020034320007130077827
:102C10000920074202D0802000010343C90701D5E3
:102C200010210B432100403108780621014006297C
:102C300002D17B31FF310B4318000021FFF79CFCD0
:102C4000002229002F48FFF7CDFC0500002D00D001
:102C5000ACE1A37E9B0606D508212B48FFF79CFC20
:102C6000051E55D14CE7270080373B88002BF3D158
:102C7000290032002548FFF7B5FC051E00D095E17C
:102C80003B88002B14D10F9B9B689A7859781202CD
:102C90000A433A801A795B791B021343191C022BF1
:102CA00000D90221200089B284300A0011F00EFE02
:102CB0000F9810F065FCCFE7030C0000D004002053
:102CC000A00D0020031000000110000009100000FA
:102CD00002100000C454010084540100C9540100D2
:102CE0008B5401005A5501008B790100032000002C
:102CF000022000006D0C00001C2000002F200000AE
:102D00002420000001200000010C0000051000003C
:102D10000821401810F056FC230070331B78020085
:102D2000DB0702D5A348A44902E08021A348890516
:102D3000FFF722FC29000022A148FFF753FC051EE3
:102D400000D033E1010007220BA8FEF720F807228C
:102D50000BA92000FDF7DCFF002804D1994B1B686C
:102D6000002B0ED115E098490722283109A8FDF75C
:102D7000E4FF072209A92000FDF7CAFF0028EDD0D3
:102D80006EE000211F68220007230800B8470728CB
:102D900046D08E4B19681A004B1C05D18C4B8D49BF
:102DA0001B689BB28B4217D08B4B196801231942C9
:102DB00012D0237013681A0AA270402263701B0C91
:102DC000E3701B0A2371824B52421B6863719BB2F2
:102DD0001B0A1343A37123E02000FFF7B7FD00286F
:102DE00000D0CAE0774B1B68002B0FD05F68220031
:102DF00007230100B847072812D0784B784A01937F
:102E0000784B794900937948794B07E0734B794ABD
:102E10000193794B744900937848754BFEF7B0FDE8
:102E20002378012B04D13F22A3799343C02B0CD0EC
:102E300016256A4B6A4A01936A4B6B4900937048A6
:102E40006B4BFEF79DFD6D4298E0601CFFF732FC76
:102E5000002800D091E0200004216C3010F083FEA7
:102E60002378002B03D0012B06D1664900E0664988
:102E70000DA8FDF72FFF04E0644A07210DA8FEF717
:102E80008BFD0DAAA379059262781B210492A2788A
:102E900030000392E27802922279019262790092E4
:102EA0005B4AFEF779FD5B4F5B4B5C4A4E490196EE
:102EB000029700975A48FEF763FDA67B3000FFF7A4
:102EC0008FFA0597A38A554A0493238A46490393A8
:102ED0000296514B019000975248FEF751FDE67B58
:102EE0003000FFF77DFA0497638A4C4A0393019000
:102EF000494B3D49029600974B48FEF741FD02F0D1
:102F0000F5F8394B0693002835D12E4A474E136801
:102F10001700002B08D13400DC341021200009F008
:102F2000DFF8002809D026E0220001211C68DC32ED
:102F30001023A0471028EED12BE03B68002B0FD0C8
:102F40005F68220010230121B847102821D0234BAD
:102F5000234A0193234B069900933548354B07E0EC
:102F60001E4B244A0193244B069900933248314B5F
:102F7000FEF706FD0DE0050018E00500174B184AA6
:102F80000193184B184900932C482D4BFEF7F8FC81
:102F90000CE030002B49EC3011F06CFF30000221C6
:102FA0006C3010F0E0FD0020FFF7BAFC280017B0ED
:102FB000F0BDC0469088000200800020108800020A
:102FC000010C0000542200206C500100A4000010ED
:102FD000A8000010FFFF0000A0000010C454010072
:102FE00084540100C95401008B5401008E55010026
:102FF0000E790100D15401000F550100BD550100AB
:10300000F3550100D2510100CB510100D95101000B
:10301000E051010050510100A8790100345601002F
:103020003B56010058560100A6560100D00400206E
:10303000DD560100B6790100015701002557010056
:10304000677A01006527000010B5FFF78FFC034B7E
:103050001B68002B00D0984710BDC0469C0D002077
:10306000034B10B5D8331B68DB68984710BDC046CA
:10307000D004002030B5050085B00C1E03D1FFF749
:103080008BFA041E20D0124B9D4216D12000FFF770
:10309000E7FF05000020854218D00E4B0E4A029330
:1030A0000E4B0F49009301950E4B0F48FEF768FC3D
:1030B000200010F065FA280008E00C482100C43018
:1030C00010F04FFA002001E03720404205B030BD3B
:1030D000350C0000C454010084540100C95401009F
:1030E0008B540100907A010054570100D004002055
:1030F00070B5072104000E48FFF74EFA051E14D0E4
:103100000721083010F05EFA2388002403701B0AA0
:10311000437002238470C370037144718471290069
:103120000348FFF7A7FF200001E03720404270BDB1
:1031300032200000F7B5070001AA00211648FFF76A
:1031400051FA002826D1019883689D785A781C7915
:103150002D021543DA782402144310F011FA0621E7
:103160000E48FFF719FA061E12D00621083010F09B
:1031700029FA3B88857003702D0A1B0A0471240A02
:103180004370C570447131000448FFF773FF01E0DC
:1031900037204042FEBDC0462F2000002220000004
:1031A00070B504000E000B480321FFF7F5F9051E6A
:1031B0000CD00321083010F005FA0470240A447082
:1031C000867029000348FFF755FF01E03720404291
:1031D00070BDC04621200000F0B587B0534C544B61
:1031E000200062680C301340636001F055FC01223E
:1031F000431C524219002000059310F05FFF002885
:1032000001D108344FE04B4B4B4A01934B4B4C4997
:1032100000934C484C4B65E028000121983049420E
:10322000AC3511F097FB2B68002B0DD0414B424A77
:103230000193424B424900934448454BFEF7A0FBA3
:10324000286810F09DF92E60380010F0B7F9414E53
:103250003500AC3528603800FFF702FF00281ED08B
:10326000344B354A0293354B3549019000933A4827
:10327000374BFEF785FB3000983011F02FFB3800FC
:10328000FFF7A8F8002240881F21FFF717F92868E8
:1032900010F076F9002338002B6010F071F9059BCF
:1032A0000C34013B05932200059B083A002B3AD0D1
:1032B0005368DB03DB0E022BF1D0082B17D11679F4
:1032C000002E22D1234D31002800C43010F02CF9FB
:1032D000071EA1D1174B184A0193184B18490093A8
:1032E0001E481B4BFEF74CFB62B6042002DF002B8E
:1032F000D5D0104A01931A4B02920093194A1A4BE7
:103300000F491A48FEF73CFBC9E7012E04D120689B
:103310001C3801F009FBC2E7022EC0D1206830380A
:1033200001F068FEBBE711F005FA57E7E805002059
:10333000FF0FFEFFC454010084540100C954010072
:103340008B5401008657010000790100D557010018
:103350007F7A0100D004002054570100B0570100CB
:103360000F550100D1540100F1780100005801000F
:10337000F0B5070093B0807910F086F8438B032BEB
:103380000AD8C64BC64A0193C64BC7490093C748E3
:10339000C74BFEF7F5FA8AE03800FFF71BF8037811
:1033A000012B49D0032B00D076E0BB68DC789A78FB
:1033B0005D781978240214432A020A4313051B0D71
:1033C0004380380004210830150010F01CF9BB8937
:1033D0009C420CD0B14A0193B24B039200930294E9
:1033E000B44BAF4AB049B448FEF7CAFA4EE03800D1
:1033F000FEF7F0FF408801F07BFC041E14D138007A
:10340000FEF7E8FFA54BA64A02934388A64901931D
:10341000A44BAA480093A74BFEF7B2FA380010F06D
:10342000AFF8200000F0A0FD2A0B390001F08EF962
:10343000200001F0D1FC2CE0BC682278132A11D8BE
:1034400093408C22120313420CD0944B944A019364
:10345000944B954900939A489A4BFEF791FA62B6BD
:10346000042002DF3B00083302211800079310F00C
:10347000CAF82478082C21D041D8052C00D0C7E008
:10348000BD682B780793002B00D184E0380010F042
:1034900077F8002000F068FD804A0193814B02928A
:1034A00000937F4A824B80498748FEF769FA3800CB
:1034B00010F066F81620404200F056FDBE68B57860
:1034C00073782D021D43280001F012FC041E06D162
:1034D000724B01950293734B00937C4B23E033783E
:1034E0008278002B04D0002A44D1037A437241E051
:1034F000F3788372002A25D1002B20D01CE0302CD9
:1035000000D083E0BE68B57873782D021D43280093
:1035100001F0EEFB041E00D08DE0604B019502939C
:10352000604B00936A4B5E4A5F496A48FEF728FA8F
:10353000ACE78378002B05D1200005F027FD2000A3
:10354000FEF782FF2000317801F0DBFE200001F061
:10355000C3F80FE00300EA7850331A7010F074FBE0
:103560000799200001F00AFB6B46A5789B8B23800E
:10357000002D25D020000BE02100079801F070F805
:10358000002800D018E21E213000FFF709FE07983E
:1035900001F022FC7AE7AE786B7836021E433000E9
:1035A00001F0A6FB041ED5D13C4B019602933D4B86
:1035B0003B4A00933C49484B4648FEF7E1F90FE08F
:1035C000201D2900FEF726FF002806D0200001213B
:1035D00001F0D4FA2800FFF7A3F9200001F0FCFB6A
:1035E0003E4C06216C342000FEF714FF002800D169
:1035F0004CE705212000FEF70DFF002800D045E72D
:10360000FFF786F80120FFF729F83FE73E2C19D095
:10361000BD89B8682900FEF7CFFD204B03900493C5
:103620002F4B304A00932049264B2F480295019496
:10363000FEF7A6F92AE73178002900D179E701F0F1
:1036400060FE23E7BC68012107980FF0DCFF2478B7
:10365000601E0B2801D900F073FCFCF797FD0C00ED
:10366000A7030501320144027C01D6015B037E03FE
:1036700071047104F201BD682B78002B36D0022151
:10368000002001F085FB041E00D1FFE603002A782C
:1036900050331A70002101F071FA6BE7C454010035
:1036A00084540100C95401008B54010031580100B9
:1036B000887A0100BF7901005A5801008E58010034
:1036C000115A0100F8790100ED590100147A010046
:1036D0001E790100C058010093790100D004002038
:1036E0000F550100D1540100BB590100AB786A7835
:1036F0001B02134307932B1D1800089305F050FD80
:103700002E1D002800D006000221300001F040FBF1
:10371000EB780400012B0BD12121D24849426C30B7
:1037200010F02CFA002C10D1300001F0F5F9040053
:10373000002C0AD1CC4BCD4A0293079BCC49019374
:10374000CC4BCD480093CD4BF0E66B4620009B8BD5
:103750000722238031005430FDF7EFFA2B7BEA7A01
:103760001B02134322006A321380AB7B6A7B1B026D
:1037700013432200703213802B7CEA7B1B0213431D
:10378000220072321380EB7807936B461B7FE37045
:10379000079B012B1BD120000722291D5B30FDF761
:1037A000CCFA2000AF4E0722F11D6230FDF7C5FABA
:1037B000300006216C30FEF72DFE002807D0F36F95
:1037C0005B0604D5FEF7A4FF0798FEF747FF032129
:1037D000200001F0D3F9230051331B78032B3CD197
:1037E000EB78002B04D09F4B70331B781B0712D54E
:1037F0000221A348FEF7D0FE051E0CD0022108309E
:103800000FF0E0FE2388290003701B0A43709C48D8
:10381000FFF730FC21E0934B1A00713212781D0043
:10382000D30707D52000FFF763FC002802D1201D35
:1038300080210CE02B0070331B789B060AD52000FA
:10384000FFF778FC002805D18021201D490010F0E9
:103850008AF902E02000FEF77FFE200001F0BCFAAA
:103860000020FFF75DF811E6BC68A37866781B02BC
:103870001E43300001F03CFA051E06D17A4B01963A
:1038800002937C4B00937F4B2BE02378002B00D0DE
:103890003EE22379E2781B02134302006A3213806E
:1038A000A37962791B021343020070321380237ADA
:1038B000E2791B02134302007232138000F0B6FE5D
:1038C00026E2BD68AB786E781B021E43300001F023
:1038D0000FFA041E09D1644B01960293654B0093C5
:1038E000694B624A6249694820E62B78002B04D173
:1038F000E91C08227430FDF720FA5A4B1A00713285
:10390000117801221D0011420CD0230075331B7861
:10391000134207D02000FFF7EBFB002802D1201D47
:10392000802115E02B0070331A7820231A4200D131
:10393000D5E02200743212781A4200D1CFE0200084
:10394000FFF7F8FB002800D0C9E08021201D4900C6
:1039500010F009F90EE6BB680EAC5E781A783602F4
:103960001643DA78997812020A4322805A79197933
:1039700012020A436280DA79997912020A43A2801C
:103980001A7A5B7A30001B021343E38001F0B0F92E
:103990000790002800D0EFE5334B01960293354B9A
:1039A000324A009332493A4B3848FDF7E9FF022189
:1039B0003000FFF7F5FB69E50E213648FEF7ECFD18
:1039C0000890002800D1E2E50E2108300FF0FAFD42
:1039D00005000E220021FDF7DAF923782E70AB7076
:1039E0006378360A6E70EB70A37808992B71E378D0
:1039F00028486B712379AB716379EB71A3792B72D2
:103A0000E3796B72FFF736FBC1E5BA685478137837
:103A100024021C43200001F06BF9051E06D1124B55
:103A200001940293134B00931B4B5AE704301B493C
:103A300010F0A4F8C30500D46AE12800FEF78CFD5D
:103A400066E1BA68957853782D021D43280001F08D
:103A50004FF9041E26D1044B01950293054B0093A8
:103A60000F4B3EE7D0040020C454010084540100F1
:103A70008B540100C9540100F6580100277A010057
:103A80001620000073790100387A01002B590100DB
:103A90003F7901002020000060790100FFFEFFFF58
:103AA000507A01008121051D4942280010F066F876
:103AB000030600D45EE5B14B70331A7820231A4216
:103AC0000DD02200743212781A4208D02000FFF77D
:103AD00031FB002803D180212800490038E720006D
:103AE000FEF73AFD46E5BC68637826781B021E4364
:103AF000300001F0FDF8051E06D1A14B019602939E
:103B0000A04B0093A04BECE6E278A0782679120255
:103B1000024336041100320063790A431B06134343
:103B2000E2791E00A079237A120202431B04134398
:103B30001A00637A1B06134333432CD1E37AA27A2B
:103B40001B02134327D10EA9280005F09DFA002877
:103B500021D012218D48FEF71FFD061E0AD1884B89
:103B60008B4A0193874B8B4900938B48864BFDF71B
:103B700007FFCDE0122108300FF024FD6378227892
:103B80001B02134303701B0A437010220EA902305C
:103B9000FDF7D3F8A3E0EB6F002B00D0E2E12E009D
:103BA00054363100202005F0D7FAE867002800D00D
:103BB000D8E13100013005F0CFFAE867002800D1E4
:103BC00090E081898B0640D5E278A37812021A43EF
:103BD00023791B0413431A0063791B061343E2790C
:103BE0009C46A37912021A43237A1B0413431A003A
:103BF000637A1B0613436246134326D1E67AA37AFF
:103C000036021E43079620D112216048FEF7C4FCFD
:103C1000061EA4D0122108300FF0D4FC637822785D
:103C20001B02134303701B0A4370E96F841CCA799B
:103C300020001A31FDF781F8EB6FD8790F284ED8A4
:103C400010220799121A201847E0CB074AD5E378CB
:103C5000A1781B020B431A002379A6791B04134396
:103C6000627912061A439446E279237A12023243A9
:103C70001B0413431A00637A1B061343026F624549
:103C800030D1426F9A422DD17830E37AA27A0188FE
:103C90001B021343994225D112213C48FEF77CFCBC
:103CA000061E00D15BE7122108300FF08BFC637811
:103CB00022781B02134303701B0A4370E96F841CB4
:103CC000CA7920007A31FDF738F8EB6FD8790F28E0
:103CD00005D810220021121A2018FDF758F83100DB
:103CE0002A4813E002212D48FEF756FC061E00D19B
:103CF00035E7022108300FF065FC31006378227847
:103D00001B02134303701B0A43702448FFF7B2F9E8
:103D100028003DE41121194DBC686C35494228004A
:103D20000FF02CFF2378002B08D1611C40221C4887
:103D3000FDF703F8082128000FF015FF194B1D6847
:103D4000002D01D1FFF7A2FB002022782B688242D0
:103D500000D1601C98476D68F2E7134CBA6823687D
:103D6000002B01D1FFF792FB00201178814200D196
:103D7000501C984700232360FFF788FBD0040020E5
:103D8000C4540100C9540100517901001A200000F7
:103D9000845401008B5401005F5901001B20000076
:103DA000560D0020980D0020A40D002007980FF05C
:103DB00032FC0B900B9B002B01D1FFF767FBBB681C
:103DC0000921079808930FF01EFC089B089A1B7A9C
:103DD000D3185D7A1300013318000A9305F0E0F957
:103DE0000A9C002800D00400604E3368002B18D0D5
:103DF00007980FF023FC0990BB8969B20C93089BCC
:103E000036681B7A2000BB81089B1A78079BB04755
:103E10006B469A8C3B0010339B18BB606B461B8E25
:103E2000BB81534D089B280008216C301E78FEF79B
:103E3000F1FA002879D1012E77D82000012100F075
:103E4000A7FF041E71D0FEF7C3FC00285FD1FEF768
:103E50005FFC099000285AD123005B33E91D07223B
:103E600018000D93FCF769FF2300623307220A99BB
:103E700018000C93FCF761FF19213E48FEF78CFBFC
:103E8000051E44D0192108300FF09CFB1922099916
:103E90000600FCF77CFF242160236A463370521829
:103EA000B3706B4612785B1872700A001B781D3A6B
:103EB000F3700C99701DFCF740FF0D9B099A1B785D
:103EC0002900337323006C331B882A4873731B0A41
:103ED000B37323006E331B88F3731B0A3374230000
:103EE00070331B8873741B0AB374230072331B88EE
:103EF000F3741B0A3375FEF775FB002807D1200009
:103F0000022100F03BFE200000F066FF0DE02300E0
:103F10001F2250331A700021200000F02FFE2000D5
:103F200000F05AFF0020FEF7FBFC089B0798197A67
:103F300001310FF068FB0B9B013BDBB20B9339E7C0
:103F4000BD89B8682900FEF737F90B4B039004933D
:103F50000A4B029500930194094B0A4A0A490B48FF
:103F6000FFF766FBE86F2CE613B0F0BDA00D002054
:103F7000D00400200D200000C45401000F550100A2
:103F8000027A0100D15401008B54010086590100CE
:103F9000F0B589B004008568FEF71CFA0378012BA0
:103FA00008D06D4B6D4A01936D4B6E4900936E487E
:103FB0006E4B0AE0A289012A0CD8674B674A01932D
:103FC000674B684900936A48684BFDF7D9FC62B6B5
:103FD000042002DF2A78132A04D893408C2212038B
:103FE000134208D15C4B5D4A01935D4B5D490093E0
:103FF00060485E4BE9E726000836022130000FF0EA
:1040000002FB2B780F2B18D1A5680421EF78AB7831
:104010003F021F436B78300004930FF0F4FA2978C5
:1040200022003800FEF74AFA049B002B00D18DE0F5
:104030005148983010F052FC88E0132B57D1A368F8
:1040400005931B780693002304936B46069A1B8AFC
:10405000934200D37AE0049B059A9B00D3189F7883
:104060005A781D793F021743DA782D0215430795D8
:10407000EFF3108572B6380000F03AFE061E0ED13E
:10408000354B01970293364B344A009335493B4BED
:104090003B48FDF775FC002D26D162B624E0002DCB
:1040A00000D162B6079D002D1BD0EFF3108372B6CE
:1040B0007169002906D00A68B0697261814237D1FE
:1040C000B26135E0002B02D162B6002932D1224B19
:1040D000224A0193224B234900932A48274BFDF79C
:1040E0004FFC300000F078FE049B0133ACE70E2B50
:1040F00012D1A36803219D785A782D023000154310
:104100001F780FF080FAA368220019782800FEF7C4
:10411000D5F9002F1AD08BE720000FF031FA0E4BA3
:104120000E4A01930E4B0F49009317480F4B4CE773
:10413000002BC9D030001C3010F062F9300000F0C4
:1041400071FA013D10F0CAFBADB2ACE720000FF0F0
:1041500017FA002009B0F0BDC454010084540100D6
:10416000C95401008B540100505A0100E478010049
:10417000945A0100445B0100D0040020C77901007B
:10418000CE5A0100FA5A0100215B0100094AD832D7
:104190001368002B08D18168002907D0C168002965
:1041A00004D01060180003E0452000E016204042D3
:1041B0007047C046D0040020F0B52D4D89B02E00C8
:1041C000D83633680790002B0BD12A4B2A4A01932B
:1041D0002A4B2B4900932B482B4BFDF7D1FB132483
:1041E00041E0280001216C300FF0BDFC0127384070
:1041F000041E37D1254B079A25491A600923EB2263
:104200005B42059004900393029001900090214B33
:104210009200214810F054FD33689B689847061EB1
:104220000CD0144B01900293144B134A0093144981
:10423000154B1A48FDF7A4FB340015E0079B002B33
:1042400003D1FEF793FB04000EE02800390068302C
:104250000FF089FC384207D129001148603110F075
:10426000CFF801E045246442200009B0F0BDC0460B
:10427000D0040020C454010084540100C95401003A
:104280008B540100825B0100EE7901009C0D00203F
:10429000C0290020D9310000A80D0020AB5B01002F
:1042A0005823002010B504F0ADFF031E02D083890F
:1042B000581E83410120184010BD0000F0B585B0A4
:1042C00001920278029305000F004388D20707D4B9
:1042D000484A927B082A03D89F2B01D8162426E04F
:1042E000AA889342FAD81F2BF8D98023DB019A427F
:1042F000F4D8404E052130006C30FEF78BF8039661
:10430000041E71D1019A39003B48FEF7A1FA00283A
:1043100068D1029B002B0CD12B78DB0709D40F212D
:104320003648FEF739F9019000280AD13724644253
:104330005CE00A9A02993248FEF78AFA0028EED029
:1043400050E001980F2108300FF03CF907000F22D0
:104350000021FCF71CFDAB7801223B70EB787B70F1
:104360002B79BB706B79FB7007237B732B7813421F
:1043700007D0FEF7CDF9061E11D1012338717B71EC
:104380001BE0A868002806D03F2243799343A5D1BB
:10439000FEF790F901E0FEF7BBF9061E04D0019884
:1043A0000FF0EEF8340021E001237B71029B002B1B
:1043B00001D0022300E003233B71002201990F4842
:1043C000FEF710F900280DD10130FEF747F900285B
:1043D00008D12B789B0709D4039840216C300FF04B
:1043E000C2FB03E0040001E04524A0E7200005B083
:1043F000F0BDC046D00400200820000006200000C8
:104400000920000070B5050006480FF045F8041EAD
:1044100006D000210FF0A0F82000FDF7DBFF0570AB
:10442000200070BD180A002010B50100EFF31082C3
:1044300072B600200C4BAC331C681860824200D16D
:1044400062B6002C0BD02000FDF7C4FF0123002131
:1044500003702000A1810FF07FF8200002E001200E
:10446000FFF7D0FF10BDC046D0040020F0B5284DA6
:1044700085B02B0040331A78062307001340062B23
:104480000CD0244B244A0193244B25490093254802
:10449000254BFDF775FA2320404237E0234E6C355B
:1044A000336810214360306028000FF05CFB10235C
:1044B0001840041E01D0002028E0092128004942AC
:1044C0000FF05CFB220021001948FEF78BF80390E7
:1044D000002811D00F4B174A0193174B1049009336
:1044E0001648114BFDF74CFA1121280049420FF0F4
:1044F00045FB3460039809E03468002CDBD0BC42F3
:1045000002D00020236898476468F6E705B0F0BD44
:10451000D0040020C4540100D15401000F55010003
:104520008B540100D75B0100707A0100980D0020C8
:104530002520000084540100C9540100065C0100DC
:10454000F7B51B4D01902B680F00002B01D01024F4
:104550002AE0184E04216C363000FDF75BFF041E84
:10456000F5D103213000FDF755FF00281BD0402175
:1045700011482F60FEF710F8061E02D12860373C64
:1045800013E0402108300FF01DF840220199FCF79C
:10459000D4FB220031000848FEF724F8002804D09C
:1045A0002C60040001E0312464422000FEBDC046BE
:1045B000A40D0020D00400202620000070B50500C6
:1045C000074B1C68002C09D02368002B04D02A005C
:1045D0005032117828009847A469F3E770BDC046AF
:1045E0002C0E002010B583890400002B05D0006933
:1045F0000EF0C6FF00232361A38110BD10B5040097
:104600002000002130300EF08FFF002802D00EF085
:10461000B7FFF5E72000FFF7E5FF20004C300FF073
:104620008BFA10BD004870475405002070B5050096
:104630000A4B1C68002C0FD0E668002E0AD02B0015
:104640002A002900723370326A311B881288098867
:104650002800B047A469EDE770BDC0462C0E0020CD
:10466000F8B5070008000E00FEF736F9051E01D167
:10467000002513E00A4B1C68002C0FD0A368002B08
:1046800001D1A469F8E73100380098470028EFD03D
:104690003000FEF721F90028F3D1E9E72800F8BD42
:1046A0002C0E002070B50600C37804005B36002B8A
:1046B00000D10736074B1D68002D09D02B69002B50
:1046C00004D022003100543220009847AD69F3E74E
:1046D00070BDC0462C0E002070B50500064B1C684E
:1046E000002C07D06369002B02D0297A2800984754
:1046F000A469F5E770BDC0462C0E0020030010B57C
:1047000051331B780400032B15D1037A8B4201D35C
:10471000002012E0437A8B42FAD2C3784172012B17
:1047200004D104F055FB002802D1F1E716204042E5
:10473000237A637201E03920404210BD024B1A68AF
:10474000186082617047C0462C0E00207FB50400BF
:104750000D00012A1FD0022A5AD18A685678137890
:1047600036021E438389002B0CD0404B404A0193F4
:10477000404B414900934148414BFDF701F920006E
:10478000FFF730FFAB890436F31A9BB2A381002BED
:104790004DD0256168E08389002B08D1334B344A22
:1047A0000193344B344900933648354B0AE08E89E7
:1047B000B3420AD22D4B2E4A01932E4B2E49009321
:1047C00031482F4BFDF7DCF82DE0006908300EF082
:1047D0003AFF864208D9254B254A0193254B2649A5
:1047E00000932A48264BEDE72069AA89A96808307A
:1047F0000EF0EFFEA389AA8928009B1AA3810EF070
:10480000BFFEA389002B2FD12569A38123610EE070
:10481000164B01920293174B154A00931649184BF9
:104820001B48FDF7ADF82000FFF7DCFE14E0AB6895
:104830001A785B781B021343AA89191D91420FD085
:104840000A4901930B4B039102920093084A0C4BC7
:1048500009491048FDF794F828000EF091FE03E096
:104860002900200000F032FE7FBDC046C454010084
:1048700084540100C95401008B540100695C01009B
:10488000F07A0100965C0100C45C0100E85C010064
:104890001F5D01004D5D010073B5050088790C00B6
:1048A00016000EF0F1FD438B032B0ED8174B184A60
:1048B0000193184B184900931848194BFDF760F8FD
:1048C00020000EF05DFE162012E02B0051331A7806
:1048D000032A0FD00D4B0E4A01930E4B0E49009345
:1048E00010480F4BFDF74CF820000EF049FE392020
:1048F00040420AE02800E3893030E3181333934341
:104900001E6021000EF02DFE002076BDC454010073
:1049100084540100C95401008B5401003158010036
:10492000B17A0100795D010070B505002800002111
:104930001C300FF0B5FD041E0FD06368002B01D0B2
:104940002800984700236360044B1A6822605A6865
:104950001C60002AEAD15C60E8E770BD180E0020F8
:10496000F0B50E000121050087B049424248059389
:1049700017000FF0EFFF2800FFF7D6FF2B00513391
:104980001C78032C6BD13000042108300EF033FE6C
:1049900002222B883F031F43BFB207703F0A4770B4
:1049A000B389043B9BB283701B0AC370F389F3186D
:1049B0001333A34319681A70304B1C685868226877
:1049C0001A60844200D15A606160EFF3108272B6BF
:1049D00000232360AB69002B02D1AC616C6101E064
:1049E0001C60AC61002A00D162B63000FEF738FBD3
:1049F000012700283DD0224B01900293214B224AEF
:104A000000932249224B2348FCF7BAFFEFF31080B2
:104A100072B600226B69002B14D09C420FD1236820
:104A2000A969002A04D16B618C4205D1AB6103E016
:104A300013608C4200D1AA610023236002E01A00B7
:104A40001B68E8E7002800D162B6002363600B4BC7
:104A50001A6822605A681C60002A00D15C60002736
:104A600005480FF03BFF059BBB4202D030000EF023
:104A700087FD380007B0F0BD54050020180E002057
:104A8000C4540100C9540100845401008B54010036
:104A9000E67A01005457010000221D4B70B5012138
:104AA00005005A600FF0ECFA1A4C20004C300FF061
:104AB0004EF8260000280ED0230051331B78002B1F
:104AC0000BD14121201D49420FF058F8430604D56F
:104AD0002000FFF793FD012019E0330051331C78CB
:104AE000032CF8D13300280030330C30002204218D
:104AF0000FF0C6FA022328002B74330018301C3341
:104B0000002204210FF0BCFA012320002B7770BD96
:104B1000200E0020300E0020F8B5164C07002600AD
:104B20004C3630000FF013F805000020002D20D186
:104B3000A82229002000FCF72AF9012130000FF0FB
:104B400008F82000072239005430FCF7F6F801235A
:104B500023726372230018226C331A802300200012
:104B60006E3310328030A5701A80034910F082F93C
:104B70002000F8BD300E0020354F0000F0B50700D2
:104B800051373D7885B004000E008D420AD14D4B5F
:104B90004D4A01934D4B4E4900934E484E4BFCF706
:104BA000EFFE8DE03970002D02D14C300EF0B9FFD0
:104BB0003878042865D8FBF7DFFA1C838303830069
:104BC000A378022B7CD0200030300FF0CDFB2000EA
:104BD0001C300FF0C9FB002140480FF033FB0023CD
:104BE00020006364A36400F037FB2000FFF7E6FCBD
:104BF00066E0A378022B37D0EB1E012B2FD82000C4
:104C000000F064FB364B1D68002D1BD06B68002B39
:104C100004D022005032117820009847AD69F3E7A4
:104C2000002A3AD162B6002B37D000225A602D4AB2
:104C30001168196051681360002900D153602A4837
:104C40000FF04CFEEFF3108272B66369002BE7D0D1
:104C50001968A069616183422FD1A1612DE0022D05
:104C600007D12000FFF7AAFC20004C300EF064FFB3
:104C700026E0012D24D1230050331B78002BF3D0E4
:104C8000EFE7104B01960293104B0F4A0093104927
:104C9000114B1648FCF774FE12E0A378002B03D1E9
:104CA0002000803010F0FCF8201D40210EF05BFF4A
:104CB00000210A480FF0C6FA02E0002AB5D1B1E798
:104CC00005B0F0BDC4540100D15401000F550100DE
:104CD0008B540100985D0100D47A0100200E002061
:104CE0002C0E0020180E002054050020B65D010097
:104CF00070B50C4C060025004C3528000EF027FF3F
:104D0000002290420CD0230051331B78033B012B2F
:104D100006D82388B34203D128000EF002FF2200F8
:104D2000100070BD300E002070B50D0001000400B1
:104D3000543107222800FBF7EBFF00280AD0E37864
:104D40002100002B01D1623100E05B3107222800F5
:104D5000FBF7DEFF70BD000070B50C4C06002500AF
:104D60004C3528000EF0F3FE00280DD0A378002B60
:104D70000AD131002000FFF7D7FF002804D1280016
:104D80000EF0CFFE200000E0002070BD300E0020AD
:104D900070B5104C050020004C300E000EF0D7FE10
:104DA000002815D0A378002B12D1002D0AD12300A2
:104DB00051331B78B3420BD120004C300EF0B1FEC2
:104DC000200006E029002000FFF7AEFF0028EED00B
:104DD000002070BD300E002010B54C300EF0ACFE3F
:104DE00010BD543070470000030070B5513305000A
:104DF00018780C000138032803D8FBF7BDF9042903
:104E00000F29392427E02B00503319702800002186
:104E1000FFF7B4FE0020FDF783FD19E003210F48E2
:104E2000FDF7BAFB061E15D0032108300EF0CAFBB1
:104E30002B78310003706B78847043700748FEF75D
:104E400019F9041E08D104212800FFF797FE03E09A
:104E5000002401E037246442200070BD06040000F5
:104E6000F8B507000D0015480E21FDF795FB061E4D
:104E700021D00E2108300EF0A5FB04000E220021E7
:104E8000FBF785FF3B78310023707B780B4863701C
:104E90002B78A3706B78E370AB782371EB78637138
:104EA0002B79A3716B79E371AB792372EB79637220
:104EB000FEF7E0F801E037204042F8BD1320000083
:104EC000030070B56A331B880A8804000D009A42FB
:104ED0000ED84A889A420BD3030070331A888B8805
:104EE0009A4205D1030072331A88CB889A421BD0AC
:104EF000200080300FF0D4FF0D4B70331A7802235E
:104F00001A4204D02200743212781A4202D1E37895
:104F1000002B04D129002000FFF7A2FF06E02900A2
:104F2000200000F01BFB01E04520404270BDC04660
:104F3000D004002007B503006946143B1B8802001B
:104F40000B800300123B1B88803A4B800300103B10
:104F50001B888B8003000E3B1B881000CB80FFF763
:104F6000AFFF07BD70B50C00002800D10548012136
:104F700049420EF091FA0500211D0EF0EDFA2800CD
:104F800070BDC046D0090020F7B50F000021050014
:104F90000800FFF7E7FF2A780400032A03D00EF089
:104FA000EFFA002022E0C3890600C31813339343AD
:104FB00000220F4D1A6080352B880836300001938F
:104FC0000EF041FB019B834201D22D8803E03000AB
:104FD0000EF039FB85B22A00B96830000EF0F9FAFC
:104FE0003800290008300EF00EFB2000FEBDC04640
:104FF000D0040020F7B5070051373B780500002B9F
:105000000AD14121043049420EF0B8FD430603D5D0
:105010002800FFF7F3FA44E02800002130300EF0BA
:1050200083FA041E0CD11F4B1F4A01931F4B2049CA
:1050300000932048204BFCF7A3FC62B6042002DF5B
:105040001E4E8289330080331B889A4202D8002387
:105050001A001DE001003800FFF796FF011E1DD069
:10506000012300222800FFF77BFC002816D0330024
:105070008033A2891B889A4208D921003800FFF7A3
:1050800083FF011E0AD001231A00EBE7002301224F
:1050900021002800FFF764FC002802D120000EF058
:1050A0006FFAF7BDC454010084540100C9540100D3
:1050B0008B540100B0570100C17A0100D0040020D8
:1050C000002802D1084B18600DE0C368002B06D001
:1050D000054A1368002B04D11060180003E0162065
:1050E00000E0452040427047402200200C4A0D4B12
:1050F000116810B519605168002900D153605168DA
:105100009B6008331360002900D1536001F016FD45
:1051100003F0E4FF041E01D100F05EFA200010BD90
:10512000180E0020080E0020704700001FB50C4A22
:105130001368002B04D10B4850600A6018000CE083
:10514000094B01900293094B094A009309490A4B04
:105150000A48FCF715FC0C20404205B000BDC046D3
:10516000E00E002024060020C4540100C9540100B0
:10517000845401008B540100FD7A0100E25D0100BE
:1051800070470000002302008360054B0832596815
:10519000002902D15A601A6001E00A605A60704723
:1051A000D80E0020436C30B5002B20D00022083BE5
:1051B000002B1CD08B4211D10D008B680835846CFC
:1051C000002A04D14364A54205D1836403E013603F
:1051D000A54200D1826400238B6008E01A000832E7
:1051E000002A04D09B68002B01D0083BE0E730BDCB
:1051F000036810B50400002B06D043685B68002BE1
:1052000000D0984700232360E368002B01D02000E2
:10521000984710BD1FB510380400094B094A029386
:10522000094B019000930949094B0A48FCF7A8FB78
:1052300021002068FFF7B6FF2000FFF7D9FF1FBD50
:10524000C454010084540100C95401008B5401006E
:10525000157B0100195E01001A4B73B51B6806002F
:105260001C00083C002B2BD0002C29D001A93000B9
:105270006368984700281EDB019D23882A002800C8
:1052800054322B871049138010300FF0F3FD2A00A1
:105290000023B16C0832AB60994202D1B2647264EF
:1052A00001E00A60B2640198EB6043682E601B68FD
:1052B000002B00D09847A468002C01D0083CD3E70D
:1052C00073BDC046D80E002015520000436C10B5C7
:1052D000002B15D018000838002811D01B681C00BE
:1052E000083C002B0AD0FFF783FF002C08D0A368EE
:1052F0002000002B02D0083B1C00F4E7FFF778FFEA
:1053000010BD436C70B51C000D00083C002B0DD087
:10531000002C0BD063689B68002B02D02900200072
:105320009847A468002C01D0083CF1E770BD10B587
:105330000431FFF717FE10BDF8B506001000150088
:105340000C00083004211F000EF055F9AB89847061
:10535000043B9BB20370240A1B0A4370C4703A00DA
:1053600029003000FFF798FAF8BD0000F0B58B89EE
:1053700085B007000E00032B08D8364B364A019340
:10538000364B374900933748374B34E008008C6878
:105390000830E578A3782D0204211D430EF033F97F
:1053A000B3899D420CD02B4A01932C4B039200935E
:1053B00002952D4B284A2A492C48FCF7E1FA47E090
:1053C0006378002B08D1234B234A0193234B2449B4
:1053D00000932748244B0EE02378012B38D0132B61
:1053E0000CD1012D34D81B4B1B4A01931B4B1C497C
:1053F00000932048204BFCF7C3FA29E0154A01939B
:105400001E4B029200931E4A174B15491D48FCF78C
:10541000B7FA042100203E686478FFF7A3FD070077
:1054200008370500042138000EF0CCF80123447041
:105430000221002403708170C47038000EF0C2F89D
:105440002300047044702A0005213000FFF774FF28
:1054500005B0F0BDC454010084540100C9540100DA
:105460008B540100395E01000A7B0100675E010078
:10547000985E0100C95E0100357B01000F550100F7
:10548000D1540100F55E0100436C181E0DD0083B9D
:105490001800002809D0030054331B888B4204D025
:1054A0008068002801D00838F3E77047436C181E65
:1054B0000BD0083B1800002807D0038F8B4204D084
:1054C0008068002801D00838F5E770477FB58B89E0
:1054D00006000C00032B0AD8174B184A0193184BEF
:1054E000184900931848194BFCF74AFA1FE02000AE
:1054F0008B680830DD789A782D02154304210EF070
:1055000082F829003000FFF7D1FF00280BD10A4BA9
:10551000019502930E4B0F4A00930A490B4B0E481C
:10552000FCF72EFA03E0436821001B69984720002E
:105530000EF026F87FBDC046C4540100845401001B
:10554000C95401008B540100235F0100277B010037
:105550000F550100D1540100505F0100F7B51D4BFC
:105560000C001A780190511CC9B2002901D01970A1
:1055700001E002321A70042100201D78FFF7F2FCCE
:10558000070008370600042138000EF01BF812232C
:105590004570082100250370C570817038000EF039
:1055A00011F8237832000370637805214370A378E3
:1055B0008370E378C3702379037163794371A379AE
:1055C0008371E379C3712B000198FFF7B5FE2800C2
:1055D000FEBDC046700F002010B50248FFF7D2FD97
:1055E00010BDC04618060020002310B50849DA0097
:1055F000545C844202D18A18937806E001331B2B55
:10560000F5D10023420600D40633180010BDC04671
:10561000547B01007FB5124D0E002C68002C0FD179
:105620002800104B21006B6090300EF092FA02229D
:1056300028001100C8300FF049F9356020000CE057
:10564000094B01900293094B094A009309490A4BFF
:105650000A48FCF795F90C20404204B070BDC046E2
:10566000740F002044060020C4540100C9540100F6
:10567000845401008B540100EE7C0100855F010021
:1056800010B504000069002801D00DF079FFA3686F
:10569000002B01D020009847182200212000FBF7A2
:1056A00076FB10BD10B5083108000DF0BCFF0020DE
:1056B00010BD8B6870B505000C000E68002B0CD176
:1056C0004868012108300DF07DFF2B68A0601A7832
:1056D000534253410222D31A0370A3681B78012B53
:1056E00002D0022B1BD03AE000202B681B788342AB
:1056F00036D16068042108300DF064FFE0602B7C37
:10570000563603706B7C43702B689A788270DB7816
:105710006268C37033889089181A04231BE02B68D1
:1057200000201B78022B1BD16068122108300DF07D
:1057300049FFE0602B7C296803706B7C102243706A
:10574000E3680131981CFBF7F8FA62685636338833
:105750009089181A122383428041404200E00020C1
:1057600070BD0000F0B50E6887B033680027039362
:10577000A02305000C009B0104A900680F704B805A
:10578000FCF7FCFDB84218D0304B05A928680F7013
:105790004B80FCF7F3FDB8420FD023690120BB42D8
:1057A00051D0D97898782A8A0902014301208A4287
:1057B00049D99A70120ADA7045E061682868FCF7E6
:1057C000DDFD002802D0002323613BE0E36856366C
:1057D0001A78A068002A06D0338881895B1A934220
:1057E00001DA00202FE0042108300DF0EBFE002745
:1057F00020612B8AA168DAB21B0A027043708270A2
:10580000C3708A89338889689B1A9BB28A1800976B
:1058100029006E680398B0470100B842E1DBE068F8
:105820000B1D0278BA4201D1037006E09A4204D0FF
:10583000A2689389043B9381D3E7A36808331800D7
:105840000DF0C0FE012007B0F0BDC04601280000E9
:10585000F0B500270E688BB0336805000393294B21
:105860000C00006804A90F704B80FCF787FDB8425C
:1058700002D10023A36041E0A02305A99B01286871
:105880000F704B80FCF77AFD00280ED0A36801262C
:10589000002B34D0D97898782A8A090201438A42A9
:1058A0002DD99A70120ADA7029E0330062685633F3
:1058B0001B88928906009B1A032B20D9009006AA08
:1058C0001023290003986F68B847021ED1DB237CA0
:1058D0009842CED106A9E068FBF71AFA0028C8D191
:1058E00060686674083004210DF06CFEA0602B8A9D
:1058F000DAB21B0A027043708270C3700126300056
:105900000BB0F0BD0128000010B50400DC300EF033
:105910002BFD22001723200056321380064963878F
:10592000A0300FF0A7FA2300002298331A605A60C3
:10593000206801F095FD10BDD95D000030B5040070
:105940008B7CD00706D5152502202B421CD04D6834
:10595000002D19D0900706D52A2503202B4213D0FD
:105960008968002910D01A4030231A4203D0237AC4
:105970000520022B08D90C231A40101E04D0002049
:10598000A37A834200D10F3030BDF0B50B6885B0EB
:1059900002931B6806000C00006849680393FCF73B
:1059A000EDFC0125071E51D1152231000398FFF7A8
:1059B000C5FF051E207506D0E3681D78002D45D073
:1059C00027753D0042E02075A068022108300DF0E7
:1059D000F9FD2061337C029F0370737CA1684370E2
:1059E00056378A893B88896800959B1A8A1871689E
:1059F0009BB28C46039831006646B047011E08DA18
:105A00000B00FF330E20FE2B01D84942C8B220758F
:105A10001CE0E0688B1C0278002A01D1037006E0CC
:105A20009A4204D0A2689389023B93810EE0A06859
:105A3000012508300DF0C6FDA2683B8892899B1AAB
:105A4000E2681278934200DC0025EDB2280005B030
:105A5000F0BD000010B50078FFF7C6FD0138C3B2F5
:105A60000348042B02D8034A9B00985810BDC04637
:105A7000B95E00000C7D010010B58B890400022B7B
:105A800009D0102B10D1022303708A890130896854
:105A9000FBF753F906E000230831037008000DF00E
:105AA000C2FD6080012000E0002010BD10B504217F
:105AB000FFF7EAFC0400C8300EF010FF2300943317
:105AC0001B68002B05D02100024AA03102480FF0CC
:105AD0001FFA10BD307500005823002010B5036870
