:1000000040330020292C0100572C0100C92A01008F
:10001000C92A0100C92A0100C92A0100C92A010010
:10002000C92A0100C92A0100C92A0100F5280100D6
:10003000C92A0100C92A010099280100C92A010022
:10004000F12B010033180100F12B0100F12B01000D
:10005000F12B0100F12B0100F12B0100F12B01002C
:10006000F12B0100F12B0100F12B0100F12B01001C
:10007000F12B0100F12B0100F12B0100F12B01000C
:10008000F12B0100F12B0100F12B0100F12B0100FC
:10009000F12B0100F12B0100F12B0100F12B0100EC
:1000A000F12B0100F12B0100000000007111000094
:1000B00000000000412A010000000000412A010068
:1000C00000000000412A010000000000412A010058
:1000D00000000000412A0100DC060020BD0E0000E7
:1000E00000000000412A010000000000412A010038
:1000F00000000000412A010000000000412A010028
:1001000000000000F117010000000000412A01007A
:10011000000000002B18010000000000412A01002F
:1001200000000000412A010000000000412A0100F7
:1001300000000000650C000000000000412A0100E2
:1001400000000000412A010000000000412A0100D7
:1001500000000000412A010000000000412A0100C7
:1001600000000000412A01000000000021180100E9
:1001700000000000412A010002B47146490849000C
:10018000095C49008E4402BC7047C04603B4714606
:10019000490840004900095A49008E4403BC704791
:1001A000002243088B4274D303098B425FD3030AB6
:1001B0008B4244D3030B8B4228D3030C8B420DD3C9
:1001C000FF22090212BA030C8B4202D31212090257
:1001D00065D0030B8B4219D300E0090AC30B8B4295
:1001E00001D3CB03C01A5241830B8B4201D38B0343
:1001F000C01A5241430B8B4201D34B03C01A5241E8
:10020000030B8B4201D30B03C01A5241C30A8B422A
:1002100001D3CB02C01A5241830A8B4201D38B0215
:10022000C01A5241430A8B4201D34B02C01A5241B9
:10023000030A8B4201D30B02C01A5241CDD2C3092B
:100240008B4201D3CB01C01A524183098B4201D3A7
:100250008B01C01A524143098B4201D34B01C01A92
:10026000524103098B4201D30B01C01A5241C3080A
:100270008B4201D3CB00C01A524183088B4201D379
:100280008B00C01A524143088B4201D34B00C01A65
:100290005241411A00D20146524110467047FFE7D1
:1002A00001B5002000F0F0F802BDC0460029F7D0EB
:1002B00076E7704703460B437FD4002243088B4206
:1002C00074D303098B425FD3030A8B4244D3030BDD
:1002D0008B4228D3030C8B420DD3FF22090212BAA2
:1002E000030C8B4202D31212090265D0030B8B421E
:1002F00019D300E0090AC30B8B4201D3CB03C01A08
:100300005241830B8B4201D38B03C01A5241430BE2
:100310008B4201D34B03C01A5241030B8B4201D3D2
:100320000B03C01A5241C30A8B4201D3CB02C01A3D
:100330005241830A8B4201D38B02C01A5241430AB5
:100340008B4201D34B02C01A5241030A8B4201D3A4
:100350000B02C01A5241CDD2C3098B4201D3CB014B
:10036000C01A524183098B4201D38B01C01A5241FA
:1003700043098B4201D34B01C01A524103098B42FE
:1003800001D30B01C01A5241C3088B4201D3CB00E9
:10039000C01A524183088B4201D38B00C01A5241CC
:1003A00043088B4201D34B00C01A5241411A00D27C
:1003B00001465241104670475DE0CA0F00D04942E5
:1003C000031000D34042534000229C4603098B4255
:1003D0002DD3030A8B4212D3FC22890112BA030ADD
:1003E0008B420CD3890192118B4208D3890192115F
:1003F0008B4204D389013AD0921100E08909C309E4
:100400008B4201D3CB01C01A524183098B4201D3E5
:100410008B01C01A524143098B4201D34B01C01AD0
:10042000524103098B4201D30B01C01A5241C30848
:100430008B4201D3CB00C01A524183088B4201D3B7
:100440008B00C01A5241D9D243088B4201D34B00D2
:10045000C01A5241411A00D20146634652415B1014
:10046000104601D34042002B00D5494270476346F5
:100470005B1000D3404201B5002000F005F802BD3A
:100480000029F8D016E770477047C046002B11D1FD
:10049000002A0FD1002900D1002802D00021C94331
:1004A000081C07B4024802A14018029003BDC046D0
:1004B000D9FFFFFF03B4684601B5029800F056F873
:1004C000019B9E4602B00CBC7047C046F0B54F463B
:1004D0004646C0B41604360C9946330005042C0C6D
:1004E000070C150C63437E436F4365431C0CAD1929
:1004F00064199C46A64203D980235B029846474470
:100500006346250CEF191D044B464A4343432D0C0B
:10051000240464199918C91920000CBC9046994606
:10052000F0BDC04610B50023002802D000F0EAF864
:10053000431C180010BDC046094B42081A40821ADD
:100540001000084B920818401340C01803091818EF
:10055000054B1840030218180304C018000E70471A
:1005600055555555333333330F0F0F0FF0B54D46F7
:10057000564644465F46F0B4924683B004000D00F0
:1005800099468B422FD82CD04946504600F0AEF801
:1005900029000600200000F0A9F8331A9846203BF5
:1005A0009B4600D574E053465A4693401F0053467D
:1005B000424693401E00AF4229D826D05B46A41B7A
:1005C000BD41002B00DA79E0002200230092019364
:1005D00001235A46934001930123424693400093DE
:1005E00019E08242D0D900220023009201930C9B93
:1005F000002B01D01C605D600098019903B03CBCE9
:1006000090469946A246AB46F0BDA342D6D90022F9
:100610000023009201934346002BE8D0FB077208A9
:100620001A4346467B080EE0AB4201D1A2420CD8E9
:10063000A41A9D41012024196D410021013E241876
:100640004D41002E06D0AB42EED9013E24196D413A
:10065000002EF8D15B460098019900196941002BE2
:1006600022DB2B005A46D3402A004446E2401C00BD
:100670005B461500002B2CDB26009E403300260035
:100680004746BE403200801A994100900191AEE782
:10069000424620239B1A5246DA40414613004A46FE
:1006A0008A4017001F4382E7424620239B1A2A00F4
:1006B00046469A402300F3401343D5E742462023A1
:1006C00000219B1A0022009101920122DA4001923E
:1006D00082E74246202326009B1ADE402F00B446C4
:1006E000974066463B003343C9E7C04610B5002932
:1006F00003D100F027F8203002E0081C00F022F8B7
:1007000010BDC046414208401C2101231B049842F1
:1007100001D3000C10391B0A984201D3000A083992
:100720001B09984201D30009043902A2105C401A47
:100730007047C0461B1C1D1D1E1E1E1E1F1F1F1F97
:100740001F1F1F1F1C2101231B04984201D3000CF3
:1007500010391B0A984201D3000A08391B09984234
:1007600001D30009043902A2105C40187047C0464A
:10077000040302020101010100000000000000006A
:1007800010B5064800F0F0FF054C2068002803D0A3
:1007900004F05BF90023236010BDC046FC4101005A
:1007A000E41E002010B5002903D0064800F0DCFF4D
:1007B00006E004F043F9044B1860044800F0D4FF4D
:1007C00010BDC04616420100E41E00203242010066
:1007D00030B5050087B0002802D00100154821E09F
:1007E000154800F0C1FF012000F0A6F803AC00F0AE
:1007F0002FF91249124800F005F90C2229002000B7
:1008000000F0DAFDA0220123628050322370A28022
:100810000C490093EE3A0C4B200003F0ABFB011E99
:1008200003D00A4800F0A0FF02E0094800F09CFF56
:1008300007B030BD3D4201005D420100744201003D
:100840008142010048430100404301008F42010002
:10085000B542010030B591B004F0FCF80378040013
:1008600007AD002B03D0012B06D1114900E011493F
:10087000280000F031FD04E00F4A0721280000F0B5
:100880007FFFA379059562781B210492A27809A8BD
:100890000392E27802922279019262790092074AE9
:1008A00000F06EFF09A9064800F05EFF11B030BDF0
:1008B000DE420100D7420100E5420100EC420100A6
:1008C0000F43010010B50C4803F0D2FA011E03D00B
:1008D0000A4800F049FF10BD094803F085FD0948AA
:1008E00004F026FAFA20800012F0E0FF00F030F861
:1008F00000F0B6F8F6E7C046D10700003D4201001F
:10090000100000204000002001394B424B41014AB9
:1009100013707047B807002030B5012585B008ACCA
:1009200024880295034D0094019506F0DBF805B08C
:1009300030BDC046B907002010B5034B18700348FE
:1009400006F0D4F910BDC046B90700204C020020C3
:1009500010B50C4B1B78002B12D00B4B1A780132C0
:10096000D2B2A02A00D15A2206211A70074A1B7857
:1009700011700749537028310223002006F04CFA09
:1009800010BDC046B807002054000020BA07002060
:10099000F4000020F0B587B01E000CAB1F880A4B96
:1009A00005001C6804912000059200F09EFC80B2B6
:1009B0000290019400973300059A0499280006F0EC
:1009C00091F807B0F0BDC046C8070020F0B587B069
:1009D0001E000CAB1F880A4B05001C680491200008
:1009E000059200F082FC80B20290019400973300DF
:1009F000059A0499280006F075F807B0F0BDC046C6
:100A0000CC07002010B5044B1860044B0448196053
:100A100006F06CF910BDC046CC070020C8070020C6
:100A20005802002001394B424B41014A1370704774
:100A3000DC07002030B5012585B008AC248802957C
:100A4000CD680094019506F04DF805B030BD00006A
:100A500010B5024806F04AF910BDC04668020020F1
:100A600010B5094B1B78002B0DD0084A1378013BB9
:100A7000DBB2002B00D16423054913702831012318
:100A8000002006F0C9F910BDDC0700206402002038
:100A9000F801002070B50400074D0A2804D1286829
:100AA0000D2143685B6898472868E1B243685B683A
:100AB0009847200070BDC046E007002010B50248EE
:100AC00000F01AFD10BDC046950A000010B504489C
:100AD00012F012F9034B1860FFF7F0FF002010BD71
:100AE00058430100E007002003689B681B681A0058
:100AF000FC32D068002806D00020D060A322D200AB
:100B00009B580B7001E00120404270470368064A81
:100B10009B681B689950FC331A6A002AFCD000229B
:100B200008001A627047C0461C05000003680020D8
:100B30009B681B681A00FC32926A824203D09022A2
:100B4000D200985898500F2318407047F8B50368A2
:100B500005009B6818481C6812F0CEF84368060030
:100B60001F6802230922FF330021B8477368300051
:100B70001F6800230B221900B84709220F4BEB21F5
:100B8000E2500F4B0232E250E122AB6852021A608F
:100B90002B6849049B6800201A680A4BD150042234
:100BA000243BE2502300FC331862D8600123A36089
:100BB0002360054B6B60F8BD5F4301000C0500002E
:100BC000140500002405000088430100A822084BFA
:100BD000D2009850074A9B58C01A0002000A064BE0
:100BE0000238984203D98022044B92025A6070471F
:100BF0000010014004050000FDFF7F00FCE100E063
:100C0000134B144A70B5D058A323134D5B002C68C6
:100C1000001B0002000A984213D94821FF31FFF758
:100C2000BFFA0E4B1B68984200D918004823FF33C7
:100C300043431C1924020A4B240A2C60186012F04A
:100C40005DFF28684830FF30FFF7C0FF70BDC04629
:100C50000405000000100140E4070020E807002020
:100C60009C060020002210B5024B5A64FFF7C8FF13
:100C700010BDC046FC100140074B10B5984200D98A
:100C80001800064B18604823FF335843044B1B6879
:100C9000C018FFF79BFF10BD35640000E807002077
:100CA000E40700200022074B10B580215A64C023BE
:100CB000054A5B008902D150FFF7A2FF0122034BD6
:100CC0001A6010BDFC10014000E100E0E8070020C0
:100CD00070B51A4812F010F800282CD00024012614
:100CE000436801211B689847154B48221C60154B2F
:100CF000154D1E60A123DB00EC50FF323833EA5063
:100D00008023FE325B02FF32AB50403AAB500F4BB8
:100D100080215C64C0230E4A5B008902D1501120FF
:100D20002200310011F05AFE112011F037FEAE60A2
:100D300020002E6001E00120404270BD66430100AA
:100D4000E4070020E807002000100140FC100140EB
:100D500000E100E0036870B59B6801259A681F26D2
:100D600083680020DC682300C3402B4208D00300C6
:100D70004533FF339B009B581B0A33408B4203D003
:100D800001300428EFD1173870BD30B51500026866
:100D9000A2209268C00014682258002902D1EA40BB
:100DA00001310A4000201A6030BD000000688068F0
:100DB0000068002909D101319140002B02D0A12304
:100DC000DB0000E0034BC15001E0034A83500020E8
:100DD0007047C0460C0500000405000010B583688C
:100DE000002A07D01A680A605A681960002A19D1C7
:100DF000596017E01868002814D081420FD15C6850
:100E00000868002A04D11860A14205D1586003E0A7
:100E10001060A14200D15A6000230B6002E0020082
:100E20000068E8E7002010BDF8B503680C009B6877
:100E300017009D688668002914D11100FFF78AFF0A
:100E4000021E11DB01231900B940B0689340014331
:100E5000B1601100C1224031890092004C51200044
:100E6000AB5001E023204042F8BDF8B503680C0008
:100E70009B6816009F688568002910D11100FFF754
:100E800069FF031E0DDB01231A00B240A9688340ED
:100E90009143C2229200A960BB50230001E02323AA
:100EA0005B421800F8BD10B500220121062011F0A8
:100EB00095FD062011F072FD002010BD0368F7B506
:100EC0009B6804009B680127019300231A00856832
:100ED0000198990041180800FC304668002E0AD09D
:100EE00000264660A220C00009581F20090A0140C0
:100EF0003800884002430133042BE9D1AE68062054
:100F0000164011F055FD2D68002D03D1062011F07B
:100F100045FDF7BDAB683342F5D032002900200013
:100F20006B689847EFE70000F0B506001400026810
:100F300085B09268B568906817680390002901D061
:100F4000232069E00321981308401A130A400190F6
:100F5000FD31C0208C4680001840F439604504D033
:100F60002F494018414241418900012092000292DC
:100F7000034213D00C2903D1A122A040D20003E0E8
:100F8000042902D1A040274AB8500298019A821839
:100F90002548920012580320024305E00298019A66
:100FA0008218214892001258114322000220C132B7
:100FB000FF329200D15118402FD09A06C0D55A0660
:100FC00003D480275B0703D400E0C027BF0200E002
:100FD0007F02E868FFF7B0FA04281CD03000210037
:100FE000FFF7B8FEEE68002803DAF043FFF79AFA3D
:100FF00001380122130083401E43F82324025B01C1
:101000001C4045301443FF30039B80002743EE60B3
:10101000C750002001E00520404205B0F0BDC046A9
:1010200000FEFFFF0C050000C443010010B5EFF304
:10103000108172B6154A1078002804D1002920D1F9
:1010400062B6453821E0431EDBB21370002B04D09A
:101050000020814219D162B617E00D4B1C78002C9C
:1010600004D0107000290ED162B60CE001221A7073
:10107000002900D162B680210020C9054A6018709D
:1010800003E0452000E00B20404210BDFC0700209B
:10109000FD070020002210B51000012111F09EFC78
:1010A000002011F07BFC002010BD000070B5EFF3B4
:1010B000108372B6294A1078441C1470002803D09B
:1010C000002B3FD162B63DE0254C2578002D04D0A1
:1010D0001070002B3FD162B63DE001222270002B40
:1010E00000D162B680251F4EED05002925D00020D5
:1010F00011F05EFC0023C122736092000133A958F5
:10110000AB502B607368002B03D120BF40BF20BFC2
:10111000F8E70022134B5A600123194204D1C2227E
:1011200080219200C9058B50C02301210E4A5B002B
:10113000D150002011F032FC02E0012371602B60DD
:10114000002323708022094BD205D3580020DB03F3
:1011500003D4443801E00B20404270BDFC0700205E
:10116000FD070020FC00004000E100E00C0400004E
:10117000F7B5244C8023E268DB059446C122920037
:10118000995801220A40204905005E58009267687C
:10119000A0682169626901926246002A01D000229A
:1011A000E260002F01D000276760009A002A06D075
:1011B000F20304D5C2260122B6009A511A61002812
:1011C00001D00023A360002908D00021280021615C
:1011D000FFF72CFF80230122DB055A61019B002BC6
:1011E0000ED00021C1238022616101249B00D20521
:1011F000D4502800FFF75AFF002801D1034B5C6050
:10120000F7BDC046FC0000400C040000FCE100E01B
:10121000F8B580258323ED05DB00EC58802307001B
:1012200000205B020E001C4084424DD1200011F0D2
:10123000BFFBC1220220254B92009C60A958A850F8
:10124000A322D200AE5001221C00AA60A368002B8A
:1012500003D120BF40BF20BFF8E700221B4B9A609C
:101260000223194204D1C22280219200C9058B5069
:10127000C0230125164A5B00D550002011F08EFBDB
:101280008023C22218209200DB05985003210022FF
:1012900031402261626191420ED1A7221024D20016
:1012A0009C50C122920098509D503800FFF7FEFEDE
:1012B000002801D1074B5D60832380220120DB00E1
:1012C000D205D3581B0C9843F8BDC046FC00004023
:1012D00000E100E0FCE100E003000A781A70002A57
:1012E00002D001330131F8E770470200030019789A
:1012F000981A002901D00133F9E7704703780A787A
:10130000934205D1002B02D001300131F6E71A00DB
:10131000981A70470300002010B582420ED0013A9F
:101320009A18934203D11B780878181A06E01C78A3
:1013300008788442F7D101330131F2E710BD10B5CE
:10134000431A934201D3002305E0013A8B5C835496
:10135000002AFAD105E09A4203D0CC5CC454013390
:10136000F9E710BD30B5040003234C401C4202D005
:101370000400002319E004001D0023002B4007D0C7
:10138000002A18D00B78013A237001310134F4E7B8
:10139000D51A032D03D9CD58E5500433F8E7930847
:1013A0009B00D21AE418C918E3E79A4203D0CD5C37
:1013B000E5540133F9E730BDF0B503000326CCB2A4
:1013C0001D00334205D0002A1AD01C70013A0133A7
:1013D000F6E7FF27CEB23F020902394031430E043F
:1013E00031431600032E02D902C3043EFAE79308E4
:1013F0009B00EB18AA18934202D01C700133FAE745
:10140000F0BD0020704700000B6810B501330B6081
:10141000014B1B68984710BD78020020F0B587B0DB
:1014200003930C9B07000291002B01DC01230C931A
:1014300020230593039B012B01D12F3305930A230E
:1014400001930023160001241F4D0493049B002BDD
:1014500001D1B5420AD2691C3000FEF7A1FE029903
:101460003030B8470123013404930AE00C9B019A01
:10147000934206DB039B022B03D802990598B847D9
:101480000134019B691C013B30000193FEF70EFF04
:1014900028000E000A21FEF783FE019B0500012BA8
:1014A000D4D1300002993030B847039B032B08D1C8
:1014B0000C9B1C1B002C04DD02992020B847013C2A
:1014C000F8E707B0F0BDC046FFC99A3B0A6830B5DF
:1014D0008B68002A02D04C68A34202DB01338B6088
:1014E00009E0651EAB4203D18C600021D15402E0BB
:1014F0005C1C8C60D05430BD014B18607047C046F6
:1015000078020020F0B51C0000238DB00593013B4C
:101510000493002305000E001F0007920393079B0E
:101520001878002800D10FE1002F05D1252800D11F
:10153000FBE03100A84703E1642850D016D83928D1
:1015400009D8312836D22D282AD030282AD025286B
:1015500000D0E1E0E5E058287BD0632800D0DBE054
:101560002068271D3100A8473C00DCE0702866D0C9
:1015700007D8692833D06C282DD0682800D0CBE05C
:10158000D9E0752846D005D8732800D0C4E0271DBF
:101590002468B7E078285CD07A2800D1CBE0BBE0A3
:1015A0000323C7E0049B002B07DA039B002B00D129
:1015B000C3E006E0049B002B03DB0A23049A534399
:1015C0001818039B303804900127002B00D0B7E097
:1015D00002330393B4E0059B01330593ABE0059B15
:1015E000012B02DC2768043406E0073423000722BD
:1015F00093431C001F680834002F06DA31002D20A9
:10160000A847049B7F42013B0493049B3A0000934C
:10161000039B0FE0059B012B02DC2268043406E0EB
:1016200007342300072293431C001A680834049BE4
:101630000093039B31002800FFF7F0FE73E03100B8
:101640003020A84731007820A84708230493073B9F
:101650000393059B012B03DC23680434099307E003
:1016600007342300072293431C001B6808340993A6
:10167000082306930023082708930B93013F09983A
:10168000BB00D8400F23184005D10B9B002B07D17E
:10169000002F11D104E05723092802D8273B00E08E
:1016A0003023C0183100A847089B01330893069BDC
:1016B0000A9301230B9312E0069B069A013B0A93BF
:1016C000049B93420BDB039B012B02D131003020A2
:1016D00004E0039B022B02D131002020A847002FF9
:1016E00002D00A9B0693C9E7039B032B28D1049BD6
:1016F0005F00089BFF1A002F15DD31002020A8474E
:10170000013FF8E72078002803D031000134A847D2
:10171000F8E73C00070013E031002520A847079BAD
:1017200018783100A84700270AE001235B420493A0
:101730003B0005970393012702E001231F00039359
:10174000079B01330793EAE60DB0F0BD07B50B0028
:10175000002102000191034801A9FFF7D3FE01987F
:101760000EBDC046091400000FB407B504A901C995
:101770000191FFF7EBFF03B008BC04B0184700006D
:101780000CB430B5002585B008AB04CB01900291B4
:10179000040001A9074800930395FFF7B3FE0398DF
:1017A000029B984200DA255405B030BC08BC02B058
:1017B0001847C046CD140000704770B50D001C00DE
:1017C00011000023AC4203D82200FFF7CBFD230019
:1017D000180070BD10B5FFF7EFFD10BD1B23C20947
:1017E000534340005840C0B270470B681A0E03784C
:1017F000534003700B681A0C4378534043700B68D6
:101800001A0A8378534083700A68C3785340C370C0
:101810004B681A0E0379534003714B681A0C4379D5
:10182000534043714B681A0A8379534083714A6865
:10183000C3795340C3718B681A0E037A5340037205
:101840008B681A0C437A534043728B681A0A837A66
:10185000534083728A68C37A5340C372CB681A0EAE
:10186000037B53400373CB681A0C437B5340437391
:10187000CB681A0A837B53408373CA68C37B534087
:10188000C37370470B681A0E0378534003700B68DC
:101890001A0C4378534043700B681A0A83785340FC
:1018A00083700A68C3785340C3704B681A0E03797B
:1018B000534003714B681A0C4379534043714B6892
:1018C0001A0A8379534083714A68C3795340C371BC
:1018D0008B681A0E037A534003728B681A0C437A92
:1018E000534043728B681A0A837A534083728A6822
:1018F000C37A5340C372CB681A0E037B5340037301
:10190000CB681A0C437B53404373CB681A0A837B22
:1019100053408373CA68C37B5340C3737047F0B5A9
:1019200087B0009008780E00FFF758FFFFF756FFCA
:10193000FFF754FF07003078FFF750FFFFF74EFF27
:1019400001903078FFF74AFF02907078FFF746FF6A
:10195000FFF744FFFFF742FF03907078FFF73EFF69
:101960000490B0787478FFF739FFFFF737FFFFF77F
:1019700035FF0590B078FFF731FFFFF72FFFB37801
:101980000500F0785C40FFF729FFFFF727FFFFF71E
:1019900025FFF3785C40019B67407B401F00029B62
:1019A0007B401F00039B7B401F00049B7B401F006C
:1019B000059B7B405D40009B684018703078FFF7C6
:1019C0000DFFFFF70BFFFFF709FF029070783478E7
:1019D000FFF704FFFFF702FFFFF700FF0700707833
:1019E000FFF7FCFEFFF7FAFE03907078FFF7F6FEB4
:1019F0000490B078FFF7F2FEFFF7F0FEFFF7EEFE7F
:101A00000590B078FFF7EAFEB37805005C40F07807
:101A10000194FFF7E3FEFFF7E1FEFFF7DFFE0400AE
:101A2000F078FFF7DBFEFFF7D9FEF378019A534019
:101A3000029A5A40039B57407B401F00049B7B4007
:101A40001F00059B7B405D406C40009B60405870D0
:101A50003078FFF7C3FEFFF7C1FEFFF7BFFE02902D
:101A60003078FFF7BBFEFFF7B9FE070070783478D7
:101A7000FFF7B4FEFFF7B2FEFFF7B0FE73780390F6
:101A80005C40B0780194FFF7A9FEFFF7A7FEFFF7CF
:101A9000A5FE0490B078FFF7A1FEFFF79FFE05902A
:101AA000B078FFF79BFE0500F078FFF797FEFFF791
:101AB00095FEFFF793FE0400F078FFF78FFEF378B2
:101AC000019A5340029A5A40039B57407B401F00A3
:101AD000049B7B401F00059B7B405D406C40009B4E
:101AE000604098703078FFF779FEFFF777FEFFF7D8
:101AF00075FE07003078FFF771FE3378029070783A
:101B00000193FFF76BFEFFF769FEFFF767FE050025
:101B10007078FFF763FEFFF761FE7378019A0400A7
:101B20005A40B0780192FFF759FEFFF757FEFFF7D2
:101B300055FE019AB37853405F40029B7B405D4065
:101B40006C404440F078FFF749FEFFF747FEFFF78F
:101B500045FE0500F078FFF741FEFFF73FFE070066
:101B6000F078FFF73BFEE4B26C406740009B7840A2
:101B7000D87007B0F0BDF8B5060008780C00FFF784
:101B80002DFE05006078FFF729FE6278A3785340A8
:101B9000E27853406B405840307060782778FFF708
:101BA0001DFE0500A078FFF719FEA378E2787B40C0
:101BB00053406B405840707063782778A0785F403E
:101BC000FFF70CFE0500E078FFF708FEE3787B40A6
:101BD0006B405840B0702078FFF700FE637825789E
:101BE0005D40A3785D406840C5B2E078FFF7F6FD40
:101BF0004540F570F8BD1FB56A4603781370437908
:101C00005370837A9370C37BD37003791371437AD3
:101C10005371837B9371C378D371037A1372437BBF
:101C2000537283789372C379D372037B13734378AF
:101C3000537383799373C37AD37310231900FFF717
:101C4000BCFD05B000BD0000F0B58DB001AC2200B8
:101C5000244BE0CBE0C2E0CBE0C2E0CBE0C260CB03
:101C600060C2031E3AD00B1E38D00E00050010369D
:101C70000B781A064B781B041343CA7813438A78EF
:101C800004311202134308C58E42F1D118230422F5
:101C90009C46FF26144D0321C3680A4216D16146B3
:101CA000CB41190E6F5C19003140695C3F060F4350
:101CB000190C31401B0A695C3340EB5C09041B02C0
:101CC0003943194393089B00E3584B4001680132A4
:101CD0004B40036104302C2ADDD1012318000DB0E4
:101CE000F0BDC046804101001C440100F0B5070072
:101CF0008BB0140000285BD0081E59D0101E57D09E
:101D000010230A0002A81900FFF757FD210002A8BE
:101D1000FFF7B8FD23002600A033103601930025FD
:101D2000244B02AAAA5C02A99A5C6A540135102DC0
:101D3000F7D10800FFF75FFF02A906A8FFF71BFF16
:101D400003A907A8FFF717FF04A908A8FFF713FFC7
:101D500005A909A8FFF70FFF2B0006AA290002A872
:101D6000FFF72BFD310002A8FFF78CFD019B103619
:101D7000B342D4D100250F4A02ABEB5C02A9D35C7D
:101D80006B540135102DF7D10800FFF734FF210007
:101D900002A8A031FFF776FD2B0002AA2900380027
:101DA000FFF70BFD02A82A000021FFF713FD012019
:101DB0000BB0F0BD1C4401000A7810B587237F2AC0
:101DC00000D800230F228C5C640063408354002AF7
:101DD00003D08B5C013ADB09F5E710BD10B5031E9B
:101DE00004D058220021FFF7F5FC0123180010BD94
:101DF00010B5041E11D010220021FFF7EBFC2000CB
:101E0000102230300021FFF7E5FC002363648023BB
:101E1000002201205B022265636510BD70B50400DD
:101E20000D001600002824D0081E22D058220021C0
:101E30002000FFF7CFFC29002500A6643000FFF743
:101E400003FF102200212000FFF7C4FC1035A26C14
:101E500021002000FFF74AFF21002800FFF7ACFF18
:101E6000200029002030FFF7A7FF2000FFF7C0FF68
:101E7000012070BDF7B504000E001500071E5DD0EF
:101E8000002A5AD00F1E59D0416D006D0027030063
:101E90000B43BB4252D001225242D31712184B417E
:101EA000606C22656365B8422AD010231B1A30305B
:101EB000019320189D4209D22B0029003200FFF720
:101EC0007CFC636C01375D19656437E0019B32006F
:101ED0001900FFF772FC019B2100ED1AF618230090
:101EE000676410311A00303210781A7842401A7044
:101EF00001338B42F6D1A26C21002000FFF7F6FEE1
:101F00002F00EA1BB218102F0ED90023E05CD15C21
:101F10004140E1540133102BF8D1A26C2100200084
:101F2000FFF7E4FE103FECE7002F06D020003B0057
:101F300030303900FFF741FC676401273800FEBDEF
:101F400070B505000C00002828D0081E26D0486C6B
:101F5000103110280DD01022121A30300021201814
:101F6000FFF738FC80222100636C2031E318303306
:101F70001A7000231800E65CCA5C3030205C7240A6
:101F80004240E2540133102BF4D1A26C210028000E
:101F9000FFF7ACFE2000FFF721FF012070BD00001D
:101FA000F0B5EFF3108372B68122134E134D3478DF
:101FB0006243AA18032501342C403470002B00D151
:101FC00062B6402900D9402103000F2710000C4DB4
:101FD0005E18B3420AD01C7824092C5D04701C786A
:101FE00001333C402C5D44700230F2E7002349008D
:101FF00010008B54F0BDC046020A0020FE070020EE
:102000001C45010070B51B251849194A0B7888B08A
:102010005D4355190122013313400B70037804000E
:1020200006AE002B03D0934206D1124900E01249BC
:102030003000FFF751F904E0104A07213000FFF7A4
:102040009FFB6278A3790492A27805960392E278C6
:102050001B21029222792800019262790092084A9B
:10206000FFF78EFB280008B070BDC046030A0020B1
:10207000040A0020DE420100D7420100E5420100CF
:10208000EC42010030B585B004001500684603221B
:10209000FFF768F96B460D220021D81CFFF78CF979
:1020A00020006A46694609F009FB041E04D1032298
:1020B00069462800FFF756F9200005B030BD13B57A
:1020C0000C0001AA0331FFF7DDFF0300002083426B
:1020D00007D1032201A92000FFF71CF94342584110
:1020E000C0B216BD70B5CD1C06000C00280003213F
:1020F00009F0C6FA00280AD13F236279290013406B
:1021000040221343637122003000FFF7BBFF70BD14
:1021100070B5037805000C00012B13D0002B07D0FD
:10212000022B1CD1010011222000FFF71BF916E041
:1021300011220B492000FFF715F96B8863731B0A06
:10214000A3730CE0112206492000FFF70BF96B681E
:102150001A0A63731B0CE3731B0AA273237470BD0A
:10216000F666010010B502780B788AB00C00934235
:102170000CD06946FFF7CCFF05A92000FFF7C8FF88
:1021800015216B4610226944581C10E0012B0AD01F
:10219000002B05D0022B0DD101310130102206E0B9
:1021A0004388488801E043684868181A04E0FFF74C
:1021B000B1F801E0162040420AB010BDC389C01832
:1021C000032313309843704770B58AB06A46094BB1
:1021D000694670CB70C270CB70C270CB70C21B6886
:1021E0001360054B092801D88000435818000AB035
:1021F00070BDC046AC410100684501004B099B0021
:1022000010B5C0180C0010F042FD1F231C402041E7
:102210001E3B184010BD4B099B0010B5C0180C00A8
:1022200010F035FD1F231C4020411E3B184010BDFF
:102230000100002210B5C3788031934200D0024AD9
:10224000024811F005FF10BD881300000020002097
:1022500013B5837A0400002B02D10133037224E00A
:10226000C06F00280DD008300021FFF7C7FF0028FD
:1022700007D0E36F9B899B0601D5042302E003236B
:1022800000E002232372627A237A9A420DD9074B27
:1022900007490193074B084A00930848084BFFF78A
:1022A00063FA0521200002F0D7FB13BDB045010001
:1022B00077450100B5450100704501007A450100F0
:1022C00045670100F0B5050087B090790E00140055
:1022D00010F07AF91A4FB84211D0A479200010F00A
:1022E00073F9184B02900493174B039700930194D2
:1022F000164B174A17491848FFF736FA1EE0200018
:10230000FFF75CFF43889D420BD00E4A02930E4BB1
:102310000392009301950D4B0D4A0E490F48FFF7AC
:1023200023FA2000FFF74AFF4368002B06D04670CF
:102330002000FFF743FF406811F070FB07B0F0BDCD
:102340006C070020B0450100FB4501008F670100CC
:10235000BD45010077450100C44501000346010069
:10236000030A10705370000C0B0A1171090C907065
:102370009171000A090AD0705371D1717047000041
:10238000F8B50E000121050049420F4810F024F96C
:102390000400002110F080F92000FFF70FFF002754
:1023A00007702000FFF70AFF45802000FFF706FFB7
:1023B000476020000321083010F0A4F905702D0AB1
:1023C000457086702000F8BD6C07002070B50C00C9
:1023D00086B01500002903D1FFF7D2FF041E29D0D3
:1023E00001AE01220021300011F010FB2000FFF7A8
:1023F000E5FE4660200010F081F910482100C4304D
:1024000010F04FF90E49300011F044FB2000FFF7A7
:10241000D5FE4078002804D0200010F051F90520A6
:1024200009E0002D01D02C6006E0200010F048F9F2
:10243000280001E03720404206B070BDB002002005
:1024400010270000F8B5144E06223700083739006F
:102450000500FEF75FFF041E1BD006210F48FFF7A3
:102460008FFF041E13D006222900083010F051F906
:10247000210000220948FFF7A9FF041E09D1062206
:1024800029003800FEF76EFF0123F37101E03724C5
:1024900064422000F8BDC046B002002005200000C4
:1024A00007B50621684609F0EBF8002808D16B460D
:1024B0005A793F2313406A4668465371FFF7C2FFBB
:1024C0000EBD000073B51C4D07216C352800FFF7C9
:1024D00095FE00282BD002211848FFF751FF041E5B
:1024E00027D00221083010F00DF902220021060049
:1024F000FEF762FF002301AA7370337021000F48BA
:10250000FFF764FF002816D1019B9B681C78002C04
:1025100008D181212800494210F0D0FB0849280049
:1025200010F0CCFB019810F0CBF8200003E0452020
:1025300000E03720404276BDB00200200C200000B1
:10254000FFFDFFFF70B5012105001248FFF718FFDE
:10255000041E1AD008300121002D00D1290010F0EE
:10256000E2F8210000220B48FFF730FF041E0ED1D5
:1025700009486C30002D03D0202110F094FB06E0B8
:102580002121494210F09AFB01E0372464422000E7
:1025900070BDC0460A200000B0020020F7B50C0054
:1025A000202100900192FFF7EBFE061E37D020217C
:1025B000083010F0A7F82022002105000027FEF7C0
:1025C000FBFE019B9F4224D0287863781B180233BE
:1025D0001F2B04DD300010F073F8162020E0431CA0
:1025E000DBB22B706278291802300132C0B24A7017
:1025F00028702278EB185A702818627861680130C8
:10260000FEF7B0FE63782A780137D3182B700834B0
:10261000D7E7002231000098FFF7D8FE01E037200D
:102620004042FEBD30B50188438802000020994237
:1026300019D8052917D9C82109018B4213D8F424C8
:102640009188FF34A1420ED8D288074D14000A3C6D
:10265000A4B2AC4207D801314B43920001219A4207
:1026600000DC011CC8B230BD760C000010B5094C6E
:1026700008216C342000FFF7C1FD002801D00020A4
:1026800007E007212000FFF7B9FD0028F7D0FFF78A
:1026900019FF10BDB0020020012310B5062104006F
:1026A0000370C01808F0ECFF002804D14022A37981
:1026B00052421343A37110BDF0B597B00FAE320074
:1026C0000021D048FFF782FE041E67D10F9B9B6854
:1026D0001B78002B06D1CC48CC4A01216C3013600A
:1026E00010F0D7FA0F980FF0EBFF32000021C84826
:1026F000FFF76CFE0700041E50D1C34D0F9B28004E
:102700009968082201311630FEF72CFE0F980FF061
:10271000D7FF39003200BF48FFF758FE0700041EFC
:102720003CD10F9883685A78AA73DA7899781202A4
:102730000A432A821A79EA731A7AD97912020A4369
:102740006A825A799B791B021343AB820FF0B8FF60
:1027500039003200B048FFF739FE0700041E1DD1D2
:102760000F9B06229968681C0131FEF7FBFD0F984C
:102770002F700FF0A5FF32003900A848FFF726FEA2
:10278000041E0BD128000F9B402299681E30013196
:10279000FEF7E8FD0F980FF093FF02E0002C00D049
:1027A0006FE2994DAB7E5B060BD49D4B9D4A019326
:1027B0009D4B9E4900939E489E4BFEF7D5FF1324E8
:1027C0005EE20DAA00219C48FFF700FE0700041EF0
:1027D00000D0E1E028000D9B08229968703001319B
:1027E000FEF7C0FD0D980FF06BFF0DAA390093485E
:1027F000FFF7ECFD041E00D0CEE00D9B99688B78AE
:102800004A781B0213432A0080321380002B0AD01F
:10281000CB78191C022B00D902212800C9B28430C0
:102820000A0011F0F3F80D980FF04AFF2023AC7E58
:102830001C4005D02B003A331B781B073CD515E014
:1028400002217F48FFF79CFD071E00D117E20221FD
:1028500008300FF057FF0123447003702200390045
:102860007748FFF7B3FD0028E4D094E00DAA0021DB
:102870007448FFF7ABFD041E00D08DE00D9883680F
:102880005C1C59789B78A7781B020B433F041A0005
:102890003B00E77813433F0662791F432379120216
:1028A0001A43A3791B0413431A00E379AF671B068D
:1028B0001343EB670FF004FF2B0070331B789B066C
:1028C00032D5320000216048FFF780FD041E63D13D
:1028D0000F9883689A78597812020A430692DA7838
:1028E0001B791B02134307930FF0EAFE042157489C
:1028F000FFF746FD071E00D1C1E1042108300FF0AB
:1029000001FF6B461B7E22000370069B39001B0AE9
:1029100043706B461B7F8370079B1B0AC3704B4839
:10292000FFF754FD002836D108214948FFF728FD5C
:10293000041E00D1A3E1082140180FF0E3FE2B0094
:102940007033197802000F23880700D520338806DA
:1029500001D5402003432800713007780920074241
:1029600002D0802000010343C90701D510210B4389
:1029700029004031087806210140062902D17B3127
:10298000FF310B4318000021FFF7EAFC0022210071
:102990002F48FFF71BFD0400002C00D071E1AB7E37
:1029A0009B0606D508212B48FFF7EAFC041E55D1EB
:1029B00065E12F0080373B88002BF3D121003200E6
:1029C0002548FFF703FD041E00D05AE13B88002B89
:1029D00014D10F9B9B689A78597812020A433A8067
:1029E0001A795B791B021343191C022B00D90221AF
:1029F000280089B284300A0011F008F80F980FF00F
:102A00005FFECFE7030C0000B0020020480A002060
:102A10000310000001100000091000000210000067
:102A2000B045010070450100B54501007745010042
:102A3000464601003D67010003200000022000001F
:102A40006D0C00001C2000002F200000242000003E
:102A500001200000010C00000510000008214018B2
:102A60000FF050FE2B0070331B780200DB0702D5FD
:102A70008548864902E0802185488905FFF770FC7A
:102A8000210000228348FFF7A1FC041E00D0F8E0DB
:102A9000010007220BA8FEF78FFC07220BA92800D4
:102AA000FEF738FC002805D17B4B7C4F1B68002BC0
:102AB0000ED115E07A490722283109A8FEF752FC09
:102AC000072209A92800FEF725FC0028ECD06DE0BC
:102AD00000211C682A0007230800A047072846D0C9
:102AE000704B19681A004B1C05D16F4B6F491B685E
:102AF0009BB28B4217D06E4B19680123194212D03A
:102B00002B7013681A0AAA7040226B701B0CEB70B2
:102B10001B0A2B71644B52421B686B719BB21B0AE0
:102B20001343AB7123E02800FFF7B6FD002800D067
:102B300099E0594B1B68002B0FD05C682A000723D3
:102B40000100A047072812D05A4B5B4A01935B4B08
:102B5000390000935A485B4B07E03900554B5A4AFD
:102B600001935A4B5A480093564BFEF7FDFD2B78C4
:102B7000012B04D13F22AB799343C02B0CD01624F8
:102B80004C4B4D4A01934D4B3900009351484D4BEE
:102B9000FEF7EAFD644267E0681CFFF753FC041E81
:102BA00062D1280004216C3010F07DF82B78002BC6
:102BB00003D0012B06D1484900E048490DA8FEF793
:102BC0008BFB04E0464A07210DA8FEF7D9FD0DAAAC
:102BD000AB7905926A781B210492AA78300003929F
:102BE000EA7802922A7901926A7900923D4AFEF7C8
:102BF000C7FD3D4C3D4F3E4A3B002849029401969B
:102C000000943C48FEF7B0FDAE7B3000FFF7DCFAE5
:102C10000594AB8A364A04932B8A20490393029683
:102C20003B00019000943448FEF79EFDEE7B30009F
:102C3000FFF7CAFA04946B8A2D4A0393019000941B
:102C40003B00164902962D48FEF78EFD02F086F8ED
:102C5000041E16D1280002216C3010F024F8200048
:102C6000FFF704FD0DE00400124B134A0193134BD0
:102C7000390000932248234BFEF776FD01E037240C
:102C80006442200017B0F0BD908800020080002050
:102C900010880002010C0000FC1E00207745010096
:102CA000AC410100A4000010A8000010FFFF0000CC
:102CB000A0000010B045010070450100B5450100BD
:102CC0007A460100AD670100BD450100FB450100EA
:102CD000A9460100DF460100DE420100D7420100A3
:102CE000E5420100EC4201005C420100276801005E
:102CF0002047010027470100444701009247010097
:102D0000C94701003568010010B5FFF7D5FC034B3A
:102D10001B68002B00D0984710BDC046440A002015
:102D2000034B10B5D8331B68DB68984710BDC0460D
:102D3000B002002030B5050085B00C1E03D1FFF7AE
:102D40001FFB041E20D0124B9D4216D12000FFF71E
:102D5000E7FF05000020854218D00E4B0E4A029373
:102D60000E4B0F49009301950E4B0F48FEF7FCFCEC
:102D700020000FF0A5FC280008E00C482100C4301A
:102D80000FF08FFC002001E03720404205B030BD3D
:102D9000350C0000B045010070450100B54501004B
:102DA0007745010093680100F8470100B002002058
:102DB00070B5072104000E48FFF7E2FA051E14D093
:102DC000072108300FF09EFC2388002403701B0AA3
:102DD000437002238470C3700371447184712900AD
:102DE0000348FFF7A7FF200001E03720404270BDF5
:102DF00032200000F7B5070001AA00211648FFF7AE
:102E0000E5FA002826D1019883689D785A781C79C4
:102E10002D021543DA78240214430FF051FC0621E9
:102E20000E48FFF7ADFA061E12D0062108300FF04B
:102E300069FC3B88857003702D0A1B0A0471240A03
:102E40004370C570447131000448FFF773FF01E01F
:102E500037204042FEBDC0462F2000002220000047
:102E600070B504000E000B480321FFF789FA051E18
:102E70000CD0032108300FF045FC0470240A447084
:102E8000867029000348FFF755FF01E037204042D4
:102E900070BDC04621200000F0B587B0534C544BA4
:102EA000200062680C301340636001F027FC0122AF
:102EB000431C524219002000059310F09FF900288E
:102EC00001D108344FE04B4B4B4A01934B4B4C49DB
:102ED00000934C484C4B65E0280001219830494252
:102EE000AC3510F0D7FD2B68002B0DD0414B424A7A
:102EF0000193424B424900934448454BFEF734FC52
:102F000028680FF0DDFB2E6038000FF0F7FB414E14
:102F10003500AC3528603800FFF702FF00281ED0CE
:102F2000344B354A0293354B3549019000933A486A
:102F3000374BFEF719FC3000983010F06FFD380069
:102F4000FFF73CF9002240881F21FFF7BBF92868F2
:102F50000FF0B6FB002338002B600FF0B1FB059B90
:102F60000C34013B05932200059B083A002B3AD014
:102F70005368DB03DB0E022BF1D0082B17D1167937
:102F8000002E22D1234D31002800C4300FF06CFBFD
:102F9000071EA1D1174B184A0193184B18490093EB
:102FA0001E481B4BFEF7E0FB62B6042002DF002B3D
:102FB000D5D0104A01931A4B02920093194A1A4B2A
:102FC0000F491A48FEF7D0FBC9E7012E04D120684B
:102FD0001C3801F0FFFAC2E7022EC0D12068303859
:102FE00001F040FEBBE710F045FC57E77C020020F3
:102FF000FF0FFEFFB045010070450100B54501001F
:10300000774501002A480100B568010079480100B0
:103010007B680100B0020020F8470100544801001D
:10302000FB450100BD45010084680100A448010082
:10303000F0B5070091B080790FF0C6FA438B032BEF
:103040000AD8C54BC54A0193C54BC6490093C6482B
:10305000C64BFEF789FB8AE03800FFF7AFF803782C
:10306000012B49D0032B00D076E0BB68DC789A783E
:103070005D781978240214432A020A4313051B0DB4
:10308000438038000421083015000FF05CFBBB8939
:103090009C420CD0B04A0193B14B0392009302942E
:1030A000B34BAE4AAF49B348FEF75EFB4EE0380083
:1030B000FFF784F8408801F04DFC041E14D138005D
:1030C000FFF77CF8A44BA54A02934388A5490193D6
:1030D000A34BA9480093A64BFEF746FB38000FF020
:1030E000EFFA200000F09BFD2A0B390001F084F973
:1030F000200001F0AAFC2CE0BC682278132A11D829
:1031000093408C22120313420CD0934B934A0193A9
:10311000934B944900939948994BFEF725FB62B66F
:10312000042002DF3B0008330221180006930FF051
:103130000AFB2478082C21D041D8052C00D0C5E00A
:10314000BD682B780693002B00D184E038000FF087
:10315000B7FA002000F063FD7F4A0193804B029292
:1031600000937E4A814B7F498648FEF7FDFA38007E
:103170000FF0A6FA1620404200F051FDBE68B57867
:1031800073782D021D43280001F0E4FB041E06D1D4
:10319000714B01950293724B00937B4B23E0337884
:1031A0008278002B04D0002A44D1037A437241E094
:1031B000F3788372002A25D1002B20D01CE0302C1C
:1031C00000D081E0BE68B57873782D021D432800D9
:1031D00001F0C0FB041E00D08BE05F4B0195029311
:1031E0005F4B0093694B5D4A5E496948FEF7BCFA44
:1031F000ACE78378002B05D1200005F01DFA2000F4
:10320000FFF726F82000317801F0B3FE200001F02E
:10321000B9F80FE00300EA7850331A700FF0B4FDEC
:103220000699200001F0DCFA6B46A5781B8B238001
:10323000002D25D020000BE02100069801F066F853
:10324000002800D014E21E213000FFF709FE069886
:1032500001F0FBFB7AE7AE786B7836021E43300054
:1032600001F078FB041ED5D13B4B019602933C4BF9
:103270003A4A00933B49474B4548FEF775FA0FE041
:10328000201D2900FEF7BAFF002806D020000121EA
:1032900001F0A6FA2800FFF7E9F9200001F0D5FBBC
:1032A0003D4C06216C342000FEF7A8FF002800D119
:1032B0004CE705212000FEF7A1FF002800D045E7DC
:1032C0000130FFF73FF941E73E2C19D0BD89B868BE
:1032D0002900FEF765FE204B039004932F4B304AE4
:1032E00000932049264B2F4802950194FEF73CFAA3
:1032F0002CE73178002900D17BE701F03AFE25E781
:10330000BC68012106980FF01EFA2478601E0B2875
:1033100001D900F070FCFCF739FF0C00A503030194
:10332000300142027A01D40159037C036E046E0419
:10333000F001BD682B78002B36D00221002001F06F
:1033400059FB041E00D101E703002A7850331A709C
:10335000002101F045FA6DE7B0450100704501001C
:10336000B545010077450100D54801005E670100C1
:1033700056670100FE48010032490100B54A0100CC
:103380001D680100914A01003E680100C368010008
:1033900064490100F0670100B0020020FB45010014
:1033A000BD4501005F4A0100AB786A781B021343F8
:1033B00006932B1D1800079305F048FA2E1D0028D0
:1033C00000D006000221300001F014FBEB7804006D
:1033D000012B0BD12121D14849426C300FF06EFCFA
:1033E000002C10D1300001F0C9F90400002C0AD1E2
:1033F000CB4BCC4A0293069BCB490193CB4BCC4899
:103400000093CC4BF2E66B4620001B8B07222380F7
:1034100031005430FDF7A6FF2B7BEA7A1B021343E1
:1034200022006A321380AB7B6A7B1B0213432200AB
:10343000703213802B7CEA7B1B0213432200723212
:103440001380EB7806936B461B7EE370069B012B83
:1034500019D120000722291D5B30FDF783FF2000D2
:10346000AE4E072231006230FDF77CFF30000621AE
:103470006C30FEF7C3FE002805D0F36F5B0602D563
:103480000698FFF75FF80321200001F0A9F9230057
:1034900051331B78032B3CD1EB78002B04D09F4B8E
:1034A00070331B781B0712D50221A348FEF768FF73
:1034B000051E0CD0022108300FF024F923882900C2
:1034C00003701B0A43709C48FFF734FC21E0934BC8
:1034D0001A00713212781D00D30707D52000FFF7BC
:1034E00067FC002802D1201D80210CE02B007033E6
:1034F0001B789B060AD52000FFF77CFC002805D12D
:103500008021201D49000FF0CEFB02E02000FEF7D5
:103510008FFE200001F099FA0020FFF7A7F815E6CA
:10352000BC68A37866781B021E43300001F012FAD3
:10353000051E06D17A4B019602937C4B00937F4B7C
:103540002BE02378002B00D03EE22379E2781B02A7
:10355000134302006A321380A37962791B0213437A
:10356000020070321380237AE2791B0213430200B7
:103570007232138000F0B0FE26E2BD68AB786E7840
:103580001B021E43300001F0E5F9041E09D1644B13
:1035900001960293654B0093694B624A6249694800
:1035A00024E62B78002B04D1E91C08227430FDF7A7
:1035B000D9FE5A4B1A007132117801221D001142B6
:1035C0000CD0230075331B78134207D02000FFF77F
:1035D000EFFB002802D1201D802115E02B00703365
:1035E0001A7820231A4200D1D5E0220074321278D2
:1035F0001A4200D1CFE02000FFF7FCFB002800D0EA
:10360000C9E08021201D49000FF04DFB12E6BB6888
:103610000CAC5E781A7836021643DA789978120282
:103620000A4322805A79197912020A436280DA79B0
:10363000997912020A43A2801A7A5B7A30001B023F
:103640001343E38001F086F90690002800D0F3E5EB
:10365000334B01960293354B324A009332493A4B31
:103660003848FEF781F802213000FFF7F9FB6DE5DD
:103670000E213648FEF784FE0790002800D1E6E5CB
:103680000E2108300FF03EF805000E220021FDF754
:1036900093FE23782E70AB706378360A6E70EB70F1
:1036A000A37807992B71E37828486B712379AB7164
:1036B0006379EB71A3792B72E3796B72FFF73AFBB5
:1036C000C5E5BA685478137824021C43200001F041
:1036D00041F9051E06D1124B01940293134B00933E
:1036E0001B4B5AE704301B490FF0E8FAC30500D41E
:1036F0006AE12800FEF79CFD66E1BA689578537888
:103700002D021D43280001F025F9041E26D1044B8B
:1037100001950293054B00930F4B3EE7B00200204A
:10372000B04501007045010077450100B545010035
:103730009A4901009C6701001620000025670100DE
:1037400005680100CF4901007D67010020200000CD
:1037500051680100FFFEFFFF646801008121051D23
:10376000494228000FF0AAFA030600D462E5B14BE3
:1037700070331A7820231A420DD022007432127846
:103780001A4208D02000FFF735FB002803D1802122
:103790002800490038E72000FEF74AFD4AE5BC68EA
:1037A000637826781B021E43300001F0D3F8051E13
:1037B00006D1A14B01960293A04B0093A04BECE6DF
:1037C000E278A07826791202024336041100320012
:1037D00063790A431B061343E2791E00A079237A1A
:1037E000120202431B0413431A00637A1B0613439D
:1037F00033432CD1E37AA27A1B02134327D10CA9BD
:10380000280004F097FF002821D012218D48FEF7F0
:10381000B7FD061E0AD1884B8B4A0193874B8B4913
:1038200000938B48864BFDF79FFFCDE012210830B7
:103830000EF068FF637822781B02134303701B0AA3
:10384000437010220CA90230FDF78CFDA3E0EB6F52
:10385000002B00D0E1E12E0054363100202004F08E
:10386000D1FFE867002800D0D7E13100013004F033
:10387000C9FFE867002800D190E081898B0640D518
:10388000E278A37812021A4323791B0413431A0027
:1038900063791B061343E2799C46A37912021A430B
:1038A000237A1B0413431A00637A1B0613436246F0
:1038B000134326D1E67AA37A36021E43069620D118
:1038C00012216048FEF75CFD061EA4D012210830CC
:1038D0000EF018FF637822781B02134303701B0A53
:1038E0004370E96F841CCA7920001A31FDF73AFD54
:1038F000EB6FD8790F284ED810220699121A20188B
:1039000047E0CB074AD5E378A1781B020B431A00A6
:103910002379A6791B041343627912061A4394464D
:10392000E279237A120232431B0413431A00637AAA
:103930001B061343826C624530D1C26C9A422DD172
:103940005030E37AA27A01881B021343994225D1B1
:1039500012213C48FEF714FD061E00D15BE7122140
:1039600008300EF0CFFE637822781B0213430370F9
:103970001B0A4370E96F841CCA7920005231FDF79D
:10398000F1FCEB6FD8790F2805D810220021121A0C
:103990002018FDF711FD31002A4813E002212D48BF
:1039A000FEF7EEFC061E00D135E7022108300EF0CE
:1039B000A9FE3100637822781B02134303701B0AAF
:1039C00043702448FFF7B6F9280041E41121194D4E
:1039D000BC686C35494228000FF070F92378002B41
:1039E00008D1611C40221C48FDF7BCFC08212800BE
:1039F0000FF059F9194B1D68002D01D1FFF7A6FBF7
:103A0000002022782B68824200D1601C98476D68A4
:103A1000F2E7134CBA682368002B01D1FFF796FB3D
:103A200000201178814200D1501C98470023236068
:103A3000FFF78CFBB0020020B0450100B545010046
:103A4000076701001A20000070450100774501005A
:103A5000034A01001B2000004C0A0020400A0020FD
:103A60003C0A002006980EF076FE0A900A9B002B76
:103A700001D1FFF76BFBBB680921069807930EF095
:103A800062FE079B079A1B7AD3185D7A13000133F5
:103A90001800089304F0DAFE089B0993002800D070
:103AA0000990604E3368002B17D006980EF066FE22
:103AB000BB8904000B93079B69B21B7A3668BB81F4
:103AC000079B09981A78069BB0473B00A4B21033B5
:103AD0001C196B469B8DBC60BB81534E079B340009
:103AE0006C34082120001D78FEF788FB002877D170
:103AF000012D75D80121099800F07CFF051E6FD0BB
:103B0000FEF7E0FC00285DD102212000FEF776FBE5
:103B1000002802D0701CFEF795FC2B005B330722B7
:103B2000414918000B93FDF71DFC2B00623307225F
:103B3000089918000993FDF715FC19213B48FEF779
:103B40001FFC061E3ED0192108300EF0DBFD1922A5
:103B500000210400FDF730FC602300222370A370D5
:103B600000236270E37007220999601DFDF7FAFBDC
:103B70000B9B00221B78310023732B006C331B88B6
:103B80002A4863731B0AA3732B006E331B88E373ED
:103B90001B0A23742B0070331B8863741B0AA374E5
:103BA0002B0072331B88E3741B0A2375FEF70EFC8F
:103BB000002807D12800022100F012FE280000F0A2
:103BC00044FF0DE02B001F2250331A700021280003
:103BD00000F006FE280000F038FF0020FEF746FD4A
:103BE000079B0698197A01310EF0ADFD0A9B013B47
:103BF000DBB20A933AE7BD89B8682900FEF7D0F92D
:103C00000B4B039004930B4B0295009301940A4BCA
:103C10000A4A0B490B48FFF769FBE86F2DE611B024
:103C2000F0BDC046480A0020B00200200D20000070
:103C3000B0450100FB450100A3680100BD4501003E
:103C4000774501002A4A0100F0B589B00400856873
:103C5000FEF7B4FA0378012B08D06D4B6D4A01933F
:103C60006D4B6E4900936E486E4B0AE0A289012AA3
:103C70000CD8674B674A0193674B684900936A48C1
:103C8000684BFDF771FD62B6042002DF2A78132A23
:103C900004D893408C221203134208D15C4B5D4A36
:103CA00001935D4B5D49009360485E4BE9E7260058
:103CB0000836022130000EF046FD2B780F2B18D16C
:103CC000A5680421EF78AB783F021F436B78300082
:103CD00004930EF038FD297822003800FEF7F2FA3E
:103CE000049B002B00D18DE0514898300FF096FED8
:103CF00088E0132B57D1A36805931B780693002304
:103D000004936B46069A1B8A934200D37AE0049B85
:103D1000059A9B00D3189F785A781D793F02174364
:103D2000DA782D0215430795EFF3108572B6380047
:103D300000F010FE061E0ED1354B01970293364B54
:103D4000344A009335493B4B3B48FDF70DFD002DB0
:103D500026D162B624E0002D00D162B6079D002D69
:103D60001BD0EFF3108372B67169002906D00A6880
:103D7000B0697261814237D1B26135E0002B02D166
:103D800062B6002932D1224B224A0193224B2349A9
:103D900000932A48274BFDF7E7FC300000F055FE62
:103DA000049B0133ACE70E2B12D1A36803219D784D
:103DB0005A782D02300015431F780EF0C4FCA3681A
:103DC000220019782800FEF77DFA002F1AD08BE721
:103DD00020000EF075FC0E4B0E4A01930E4B0F495E
:103DE000009317480F4B4CE7002BC9D030001C3014
:103DF0000FF0A6FB300000F06BFA013D0FF00EFE55
:103E0000ADB2ACE720000EF05BFC002009B0F0BDC5
:103E1000B045010070450100B5450100774501003E
:103E2000F44A010070670100384B0100E84B0100C3
:103E3000B0020020D6670100724B01009E4B0100CA
:103E4000C54B0100094AD8321368002B08D181689C
:103E5000002907D0C168002904D01060180003E0D1
:103E6000452000E0162040427047C046B0020020C6
:103E7000F0B52D4D89B02E00D83633680790002B51
:103E80000BD12A4B2A4A01932A4B2B4900932B48EA
:103E90002B4BFDF769FC132441E0280001216C3015
:103EA0000EF001FF01273840041E37D1254B079A39
:103EB00025491A600923EB225B4205900490039385
:103EC000029001900090214B920021480FF098FF42
:103ED00033689B689847061E0CD0144B01900293E0
:103EE000144B134A00931449154B1A48FDF73CFC38
:103EF000340015E0079B002B03D1FEF7DDFB040027
:103F00000EE02800390068300EF0CDFE384207D1AF
:103F10002900114860310FF013FB01E04524644291
:103F2000200009B0F0BDC046B0020020B04501003D
:103F300070450100B545010077450100264C0100A0
:103F400066670100440A002088270020992E00009F
:103F50008C0A00204F4C01000020002010B504F016
:103F6000A7FC031E02D08389581E834101201840FC
:103F700010BD0000F7B517000278019304000D0092
:103F80004388D20707D4464A927B082A03D89F2B3E
:103F900001D8162524E0A2889342FAD81F2BF8D91D
:103FA0008023DB019A42F4D83D4E052130006C306D
:103FB000FEF724F900286FD129003A003948FEF7AE
:103FC000EDFA051E6AD1019B002B0BD12378DB078C
:103FD00008D40F213448FEF7D3F9071E0AD137253C
:103FE0006D425BE0089A01993048FEF7D7FA051E4A
:103FF000EFD053E00F2108300EF084FB05000F22B4
:104000000021FDF7D9F9A3782B70E3786B70237941
:10401000AB706379EB7007236B732378DB070DD5E7
:10402000300002216C30FEF7E9F8002802D0701C45
:10403000FEF708FA33786B7100231AE0A0680028B5
:1040400006D03F2243799343A3D1FEF7FBF901E069
:10405000FEF726FA041E04D038000EF031FB2500CE
:104060001CE001236B71019B002B01D0022300E0B7
:1040700003232B71002239000B48FEF7A7F9051E18
:104080000CD10120FEF75EFA051E07D13000402159
:104090006C300EF008FE01E04525A1E72800FEBDCA
:1040A000B0020020082000000620000009200000C7
:1040B00070B5050006480EF08FFA041E06D00021E8
:1040C0000EF0EAFA2000FEF779F80570200070BDC6
:1040D0009007002010B50100EFF3108272B60020A7
:1040E0000C4BAC331C681860824200D162B6002CC5
:1040F0000BD02000FEF762F801230021037020009E
:10410000A1810EF0C9FA200002E00120FFF7D0FFE4
:1041100010BDC046B0020020F0B5284D85B02B0080
:1041200040331A78062307001340062B0CD0244B8B
:10413000244A0193244B254900932548254BFDF73C
:1041400013FB2320404237E0234E6C3533681021A7
:104150004360306028000EF0A6FD10231840041EB6
:1041600001D0002028E00921280049420EF0A6FDD8
:10417000220021001948FEF729F90390002811D0E8
:104180000F4B174A0193174B104900931648114BD8
:10419000FDF7EAFA1121280049420EF08FFD346044
:1041A000039809E03468002CDBD0BC4202D0002028
:1041B000236898476468F6E705B0F0BDB0020020B8
:1041C000B0450100BD450100FB45010077450100F8
:1041D0007B4C010016670100400A002025200000EA
:1041E00070450100B5450100AA4C0100F7B51B4D13
:1041F00001902B680F00002B01D010242AE0184EEC
:1042000004216C363000FDF7F9FF041EF5D10321BF
:104210003000FDF7F3FF00281BD0402111482F602C
:10422000FEF7AEF8061E02D12860373C13E04021AD
:1042300008300EF067FA40220199FDF793F822004A
:1042400031000848FEF7C2F8002804D02C600400B2
:1042500001E0312464422000FEBDC0463C0A00203B
:10426000B00200202620000070B50500074B1C6836
:10427000002C09D02368002B04D02A00503211787A
:1042800028009847A469F3E770BDC046100B0020D2
:1042900010B583890400002B05D000690EF010FAD8
:1042A00000232361A38110BD10B50400200000216C
:1042B00030300EF0D9F9002802D00EF001FAF5E7FF
:1042C0002000FFF7E5FF20004C300EF0D5FC10BDBC
:1042D000004870473403002070B505000A4B1C6885
:1042E000002C0FD0E668002E0AD02B002A002900EF
:1042F000723370326A311B88128809882800B047EF
:10430000A469EDE770BDC046100B0020F8B50700AA
:1043100008000E00FEF786F9051E01D1002513E006
:104320000A4B1C68002C0FD0A368002B01D1A46994
:10433000F8E73100380098470028EFD03000FEF74A
:1043400071F90028F3D1E9E72800F8BD100B00202F
:1043500070B50600C37804005B36002B00D1073629
:10436000074B1D68002D09D02B69002B04D02200BB
:104370003100543220009847AD69F3E770BDC04664
:10438000100B002070B50500064B1C68002C07D0F0
:104390006369002B02D0297A28009847A469F5E7C1
:1043A00070BDC046100B0020030010B551331B78C0
:1043B0000400032B15D1037A8B4201D3002012E0B5
:1043C000437A8B42FAD2C3784172012B04D104F0B4
:1043D000C9F8002802D1F1E716204042237A63721F
:1043E00001E03920404210BD024B1A68186082611A
:1043F0007047C046100B00207FB504000D00012A55
:104400001FD0022A5AD18A685678137836021E4382
:104410008389002B0CD0404B404A0193404B4149CB
:1044200000934148414BFDF79FF92000FFF730FF13
:10443000AB890436F31A9BB2A381002B4DD02561C2
:1044400068E08389002B08D1334B344A0193344B05
:10445000344900933648354B0AE08E89B3420AD27C
:104460002D4B2E4A01932E4B2E49009331482F4B52
:10447000FDF77AF92DE0006908300EF084F98642E4
:1044800008D9254B254A0193254B264900932A48F4
:10449000264BEDE72069AA89A96808300EF039F9A2
:1044A000A389AA8928009B1AA3810EF009F9A38980
:1044B000002B2FD12569A38123610EE0164B0192B9
:1044C0000293174B154A00931649184B1B48FDF7EA
:1044D0004BF92000FFF7DCFE14E0AB681A785B783C
:1044E0001B021343AA89191D91420FD00A49019357
:1044F0000B4B039102920093084A0C4B0949104858
:10450000FDF732F928000EF0DBF803E02900200067
:1045100000F014FE7FBDC046B045010070450100AB
:10452000B5450100774501000D4D010024690100EA
:104530003A4D0100684D01008C4D0100C34D010052
:10454000F14D010073B5050088790C0016000EF0DE
:104550003BF8438B032B0ED8174B184A0193184B8B
:10456000184900931848194BFDF7FEF820000EF08B
:10457000A7F8162012E02B0051331A78032A0FD027
:104580000D4B0E4A01930E4B0E49009310480F4BF2
:10459000FDF7EAF820000EF093F8392040420AE0D7
:1045A0002800E3893030E318133393431E60210061
:1045B0000EF077F8002076BDB0450100704501008F
:1045C000B545010077450100D5480100316901007A
:1045D0001D4E010070B50500280000211C300EF0B2
:1045E000FFFF041E0FD06368002B01D028009847FE
:1045F00000236360044B1A6822605A681C60002A1A
:10460000EAD15C60E8E770BDEC0A0020F0B50D006F
:1046100001210400314E87B04942300005930492D5
:104620000FF038FA2000FFF7D5FF230051331F7831
:10463000032F45D12800042108300EF07CF8049B9C
:1046400022881B03134302229BB203701B0A437090
:10465000AB89043B9BB283701B0AC370EB892800B3
:10466000EB181333BB431F681A70FEF759FB002881
:104670000BD01B4B019002931A4B1B4A00931B4912
:104680001B4B1C48FDF770F81AE01B4A1368506872
:1046900019681160834200D151605F60EFF31081AF
:1046A00072B600221A60A269002A02D1A361636176
:1046B00001E01360A361012400290BD162B609E077
:1046C000002430000FF0AAF9059BA34202D0280075
:1046D0000DF0F6FF200007B0F0BDC0463403002007
:1046E000B0450100B5450100704501007745010066
:1046F0001A690100F8470100EC0A002000221D4B56
:1047000070B5012105005A600EF05AFD1A4C2000C8
:104710004C300EF0BCFA260000280ED02300513396
:104720001B78002B0BD14121201D49420EF0C6FA07
:10473000430604D52000FFF7B7FD012019E0330040
:1047400051331C78032CF8D13300280030330C305F
:10475000002204210EF034FD022328002B743300C4
:1047600018301C33002204210EF02AFD0123200002
:104770002B7770BDF40A0020140B0020F8B5164CFE
:10478000070026004C3630000EF081FA05000020AC
:10479000002D20D1A82229002000FCF70DFE0121C8
:1047A00030000EF076FA2000072239005430FCF772
:1047B000D9FD012323726372230018226C331A80FF
:1047C000230020006E3310328030A5701A80034918
:1047D0000FF0F0FB2000F8BD140B0020A54B0000EB
:1047E000F0B5070051373D7885B004000E008D42CA
:1047F0000AD14D4B4D4A01934D4B4E4900934E48C3
:104800004E4BFCF7B1FF8DE03970002D02D14C30DA
:104810000EF027FA3878042865D8FBF7ADFC1C8326
:1048200083038300A378022B7CD0200030300EF06D
:104830003BFE20001C300EF037FE002140480EF0F9
:10484000A1FD002320006364A36400F03DFB200071
:10485000FFF70AFD66E0A378022B37D0EB1E012B91
:104860002FD8200000F06AFB364B1D68002D1BD0AE
:104870006B68002B04D0220050321178200098473A
:10488000AD69F3E7002A3AD162B6002B37D0002297
:104890005A602D4A1168196051681360002900D1CF
:1048A00053602A480FF0BAF8EFF3108272B66369CA
:1048B000002BE7D01968A069616183422FD1A16103
:1048C0002DE0022D07D12000FFF7CEFC20004C3058
:1048D0000EF0D2F926E0012D24D1230050331B78AD
:1048E000002BF3D0EFE7104B01960293104B0F4AC9
:1048F00000931049114B1648FCF736FF12E0A378DD
:10490000002B03D1200080300FF06AFB201D4021D6
:104910000EF0C9F900210A480EF034FD02E0002A29
:10492000B5D1B1E705B0F0BDB0450100BD4501000E
:10493000FB450100774501003C4E0100E4680100A1
:10494000F40A0020100B0020EC0A002034030020A1
:104950005A4E010070B50C4C060025004C3528005D
:104960000EF095F9002290420CD0230051331B78B1
:10497000033B012B06D82388B34203D128000EF055
:1049800070F92200100070BD140B002070B50D00EE
:1049900001000400543107222800FCF7BBFC00286A
:1049A0000AD0E3782100002B01D1623100E05B31B5
:1049B00007222800FCF7AEFC70BD000070B50C4C5F
:1049C000060025004C3528000EF061F900280DD0B6
:1049D000A378002B0AD131002000FFF7D7FF002871
:1049E00004D128000EF03DF9200000E0002070BD49
:1049F000140B002070B5104C050020004C300E0048
:104A00000EF045F9002815D0A378002B12D1002D07
:104A10000AD1230051331B78B3420BD120004C3014
:104A20000EF01FF9200006E029002000FFF7AEFF7E
:104A30000028EED0002070BD140B002010B504003B
:104A40004C300EF00EF9200010BD10B54C300EF0B9
:104A500013F910BD54307047030070B55133050091
:104A600018780C000138032803D8FBF785FB0429CC
:104A70000F29392427E02B0050331970280000211A
:104A8000FFF7AEFE0020FDF7F1FD19E003210F480E
:104A9000FDF776FC061E15D0032108300DF032FE1E
:104AA0002B78310003706B78847043700748FEF7F1
:104AB00041F9041E08D104212800FFF791FE03E00C
:104AC000002401E037246442200070BD0604000089
:104AD000F8B507000D0015480E21FDF751FC061E24
:104AE00021D00E2108300DF00DFE04000E22002111
:104AF000FCF762FC3B78310023707B780B486370D5
:104B00002B78A3706B78E370AB782371EB786371CB
:104B10002B79A3716B79E371AB792372EB796372B3
:104B2000FEF708F901E037204042F8BD13200000ED
:104B3000030070B56A331B880A8804000D009A428E
:104B40000ED84A889A420BD3030070331A888B8898
:104B50009A4205D1030072331A88CB889A421BD03F
:104B6000200080300FF03CFA0D4B70331A7802238E
:104B70001A4204D02200743212781A4202D1E37829
:104B8000002B04D129002000FFF7A2FF06E0290036
:104B9000200000F01BFB01E04520404270BDC046F4
:104BA000B002002007B503006946143B1B880200D1
:104BB0000B800300123B1B88803A4B800300103BA4
:104BC0001B888B8003000E3B1B881000CB80FFF7F7
:104BD000AFFF07BD70B50C00002800D105480121CA
:104BE00049420DF0F9FC0500211D0DF055FD28008E
:104BF00070BDC04648070020F7B50F000021050032
:104C00000800FFF7E7FF2A780400032A03D00DF01D
:104C100057FD002022E0C3890600C31813339343D5
:104C200000220F4D1A6080352B8808363000019322
:104C30000DF0A9FD019B834201D22D8803E03000D5
:104C40000DF0A1FD85B22A00B96830000DF061FDBC
:104C50003800290008300DF076FD2000FEBDC0466A
:104C6000B0020020F7B5070051373B780500002B54
:104C70000AD14121043049420EF020F8430603D501
:104C80002800FFF711FB44E02800002130300DF030
:104C9000EBFC041E0CD11F4B1F4A01931F4B2049F4
:104CA00000932048204BFCF75FFD62B6042002DF32
:104CB0001E4E8289330080331B889A4202D800231B
:104CC0001A001DE001003800FFF796FF011E1DD0FD
:104CD000012300222800FFF799FC002816D033009A
:104CE0008033A2891B889A4208D921003800FFF737
:104CF00083FF011E0AD001231A00EBE700230122E3
:104D000021002800FFF782FC002802D120000DF0CE
:104D1000D7FCF7BDB045010070450100B545010065
:104D20007745010054480100F6680100B0020020F8
:104D3000002802D1084B18600DE0C368002B06D094
:104D4000054A1368002B04D11060180003E01620F8
:104D500000E0452040427047E81E00200C4A0D4B01
:104D6000116810B519605168002900D1536051686D
:104D70009B6008331360002900D1536001F0F8FBF9
:104D800003F002FD041E01D100F05EFA200010BD08
:104D9000EC0A0020000B0020704700001FB50C4AF1
:104DA0001368002B04D10B4850600A6018000CE017
:104DB000094B01900293094B094A009309490A4B98
:104DC0000A48FCF7D1FC0C20404205B000BDC046AB
:104DD000C40B00209C030020B0450100B545010034
:104DE000704501007745010083690100864E01008E
:104DF00070470000002302008360054B08325968A9
:104E0000002902D15A601A6001E00A605A607047B6
:104E1000BC0B0020436C30B5002B20D00022083B97
:104E2000002B1CD08B4211D10D008B680835846C8F
:104E3000002A04D14364A54205D1836403E01360D2
:104E4000A54200D1826400238B6008E01A0008327A
:104E5000002A04D09B68002B01D0083BE0E730BD5E
:104E6000036810B50400002B06D043685B68002B74
:104E700000D0984700232360E368002B01D0200076
:104E8000984710BD1FB510380400094B094A02931A
:104E9000094B019000930949094B0A48FCF764FC4F
:104EA00021002068FFF7B6FF2000FFF7D9FF1FBDE4
:104EB000B045010070450100B5450100774501008E
:104EC00041690100BD4E01001A4B73B51B68060015
:104ED0001C00083C002B2BD0002C29D001A930004D
:104EE0006368984700281EDB019D23882A0028005C
:104EF00054322B871049138010300FF05BF82A00D2
:104F00000023B16C0832AB60994202D1B264726482
:104F100001E00A60B2640198EB6043682E601B6890
:104F2000002B00D09847A468002C01D0083CD3E7A0
:104F300073BDC046BC0B0020854E0000436C10B50D
:104F4000002B15D018000838002811D01B681C0051
:104F5000083C002B0AD0FFF783FF002C08D0A36881
:104F60002000002B02D0083B1C00F4E7FFF778FF7D
:104F700010BD436C70B51C000D00083C002B0DD01B
:104F8000002C0BD063689B68002B02D02900200006
:104F90009847A468002C01D0083CF1E770BD10B51B
:104FA0000431FFF717FE10BDF8B50600100015001C
:104FB0000C00083004211F000DF0BDFBAB8984708C
:104FC000043B9BB20370240A1B0A4370C4703A006E
:104FD00029003000FFF7B6FAF8BD0000F0B58B8964
:104FE00085B007000E00032B08D8364B364A0193D4
:104FF000364B374900933748374B34E008008C680C
:105000000830E578A3782D0204211D430DF09BFBA9
:10501000B3899D420CD02B4A01932C4B03920093F1
:1050200002952D4B284A2A492C48FCF79DFB47E066
:105030006378002B08D1234B234A0193234B244947
:1050400000932748244B0EE02378012B38D0132BF4
:105050000CD1012D34D81B4B1B4A01931B4B1C490F
:1050600000932048204BFCF77FFB29E0154A019371
:105070001E4B029200931E4A174B15491D48FCF720
:1050800073FB042100203E686478FFF7A3FD07004E
:1050900008370500042138000DF034FB012344706B
:1050A0000221002403708170C47038000DF02AFBC7
:1050B0002300047044702A0005213000FFF774FFBC
:1050C00005B0F0BDB045010070450100B5450100D7
:1050D00077450100DD4E0100906901000B4F010092
:1050E0003C4F01006D4F010063690100FB45010069
:1050F000BD450100994F0100436C181E0DD0083BBF
:105100001800002809D0030054331B888B4204D0B8
:105110008068002801D00838F3E77047436C181EF8
:105120000BD0083B1800002807D0038F8B4204D017
:105130008068002801D00838F5E770477FB58B8973
:1051400006000C00032B0AD8174B184A0193184B82
:10515000184900931848194BFCF706FB1FE0200084
:105160008B680830DD789A782D02154304210DF004
:10517000EAFA29003000FFF7D1FF00280BD10A4BD3
:10518000019502930E4B0F4A00930A490B4B0E48B0
:10519000FCF7EAFA03E0436821001B699847200006
:1051A0000DF08EFA7FBDC046B0450100704501008C
:1051B000B545010077450100C74F01007569010041
:1051C000FB450100BD450100F44F0100F7B51D4B43
:1051D0000C001A780190511CC9B2002901D0197035
:1051E00001E002321A70042100201D78FFF7F2FC62
:1051F000070008370600042138000DF083FA122357
:105200004570082100250370C570817038000DF0CD
:1052100079FA237832000370637805214370A3780C
:105220008370E378C3702379037163794371A37941
:105230008371E379C3712B000198FFF7B5FE280055
:10524000FEBDC046540C002010B50248FFF7D2FD49
:1052500010BDC0469003002006207047002310B503
:105260000849DA00545C844202D18A18937806E037
:1052700001331B2BF5D10023420600D4063318005E
:1052800010BDC046C46901007FB5124D0E002C68E8
:10529000002C0FD12800104B21006B6090300DF0D6
:1052A000F8FC022228001100C8300EF0AFFB356078
:1052B00020000CE0094B01900293094B094A00932E
:1052C00009490A4B0A48FCF74FFA0C20404204B047
:1052D00070BDC046580C0020BC030020B045010042
:1052E000B54501007045010077450100376B0100AD
:1052F0002950010010B504000069002801D00DF00C
:10530000DFF9A368002B01D0200098471822002164
:105310002000FCF751F810BD10B5083108000DF061
:1053200022FA002010BD0000F0B50E6887B0336887
:1053300000270393A02305000C009B0104A900682B
:105340000F704B80FCF70EFFB84218D0304B05A908
:1053500028680F704B80FCF705FFB8420FD0236917
:105360000120BB4251D0D97898782A8A090201439A
:1053700001208A4249D99A70120ADA7045E06168C0
:105380002868FCF7EFFE002802D0002323613BE0F1
:10539000E36856361A78A068002A06D033888189D7
:1053A0005B1A934201DA00202FE0042108300DF04F
:1053B000A9F9002720612B8AA168DAB21B0A0270C2
:1053C00043708270C3708A89338889689B1A9BB244
:1053D0008A18009729006E680398B0470100B84208
:1053E000E1DBE0680B1D0278BA4201D1037006E0F0
:1053F0009A4204D0A2689389043B9381D3E7A368BF
:10540000083318000DF07EF9012007B0F0BDC0464A
:10541000012800008B6870B505000C000E68002B99
:105420000CD14868012108300DF06CF92B68A060A0
:105430001A78534253410222D31A0370A3681B788F
:10544000012B02D0022B1BD03AE000202B681B78E6
:10545000834236D16068042108300DF053F9E060D2
:105460002B7C563603706B7C43702B689A78827065
:10547000DB786268C37033889089181A04231BE0B4
:105480002B6800201B78022B1BD16068122108308A
:105490000DF038F9E0602B7C296803706B7C1022DA
:1054A0004370E3680131981CFBF75CFF6268563675
:1054B00033889089181A122383428041404200E0C9
:1054C000002070BDF0B500270E688BB03368050072
:1054D0000393294B0C00006804A90F704B80FCF764
:1054E00041FEB84202D10023A36041E0A02305A9F8
:1054F0009B0128680F704B80FCF734FE00280ED00B
:10550000A3680126002B34D0D97898782A8A09021A
:1055100001438A422DD99A70120ADA7029E03300C9
:10552000626856331B88928906009B1A032B20D988
:10553000009006AA1023290003986F68B847021E3E
:10554000D1DB237C9842CED106A9E068FBF7E2FECE
:105550000028C8D160686674083004210DF0D2F8C4
:10556000A0602B8ADAB21B0A027043708270C3708B
:10557000012630000BB0F0BD012800000200172307
:1055800010B504005632138006494387A0300EF050
:1055900011FD2300002298331A605A60206801F040
:1055A0005BFC10BD2D5A000030B504008B7CD00789
:1055B00006D5152502202B421CD04D68002D19D090
:1055C000900706D52A2503202B4213D0896800298D
:1055D00010D01A4030231A4203D0237A0520022B20
:1055E00008D90C231A40101E04D00020A37A83424D
:1055F00000D10F3030BDF0B50B6885B002931B6849
:1056000006000C00006849680393FCF7ABFD012518
:10561000071E51D1152231000398FFF7C5FF051E63
:10562000207506D0E3681D78002D45D027753D0014
:1056300042E02075A068022108300DF063F8206177
:10564000337C029F0370737CA168437056378A894C
:105650003B88896800959B1A8A1871689BB28C46B2
:10566000039831006646B047011E08DA0B00FF338D
:105670000E20FE2B01D84942C8B220751CE0E0681C
:105680008B1C0278002A01D1037006E09A4204D0F4
:10569000A2689389023B93810EE0A068012508303F
:1056A0000DF030F8A2683B8892899B1AE268127864
:1056B000934200DC0025EDB2280005B0F0BD0000EB
:1056C00010B50078FFF7CAFD0138C3B20348042BB8
:1056D00002D8034A9B00985810BDC046115B0000D9
:1056E000646B010010B58B890400022B09D0102BCC
:1056F00010D1022303708A8901308968FBF732FEDA
:1057000006E000230831037008000DF02CF86080DB
:10571000012000E0002010BD10B50421FFF7ECFCD3
:105720000400C8300EF07AF9230094331B68002B74
:1057300005D02100024AA03102480EF089FC10BDBC
:10574000307500000020002010B50368012451339B
:105750001B78032B04D190300DF099FA801084430C
:10576000200010BD030073B59433060019600C00CF
:1057700001210500C836494230000EF08BF928009F
:10578000FFF7E2FF00280FD1144B154A0193154B88
:10579000154900931548164BFBF7E6FF30000EF055
:1057A0003DF93920404217E02669300008300CF0FE
:1057B000E5FFA081B3892069E3812D680CF09EFF8D
:1057C000236906009868FFF77BFF3200030004217D
:1057D0002800FFF7E9FB002076BDC046B045010078
:1057E000BD450100FB450100774501005E50010009
:1057F000A7690100F0B50400250085B0A0309435FC
:105800000393029117000EF0EBFB2B68002B0AD1DB
:105810001B4B1C4A01931C4B1C4900931C481D4BFD
:10582000FBF7A2FF1AE01869002804D00CF048FF2B
:1058300000222B681A612B6800265A68206894465B
:105840005E60029A009303993B006746B847286858
:105850004368B34201D1FFF74DFD2E60230098331A
:105860001968002908D00A6858681A60814200D176
:105870005A602000FFF776FF002005B0F0BDC0465B
:10588000B0450100BD450100FB4501007745010021
:105890007B500100B469010010B500238A89896832
:1058A000FFF7A8FF10BD10B5FFF7F6FF10BD10B54C
:1058B000FFF7F2FF10BD10B5FFF7EEFF10BD10B5FA
:1058C000FFF7EAFF10BD10B5FFF7E6FF10BD10B5FA
:1058D000FFF7E2FF10BD10B5FFF7DEFF10BD10B5FA
:1058E000FFF7DAFF10BD10B5FFF7D6FF10BD10B5FA
:1058F00003000C00002817D089684B780A781B0237
:105900001343162B03D800220423110009E01A1CAC
:10591000412B00D941220300563342871A800023CD
:10592000A289FFF767FF0300180010BD70B50500DE
:105930002E00943633688868002B2AD01A69002A12
:1059400006D014009989103461189160D989918129
:105950001B7DC478002B1DD12868052C05D00F2C89
:1059600018D1037A012B09D914E0037A012B05D948
:10597000022B05D00421032B03D00BE0022100E011
:105980000321FEF711FD002804D1012233681A75A6
:1059900006E00E240022230011002800FFF72AFF52
:1059A00070BDF0B505002C002E0085B00421C83470
:1059B00090300DF078F920000EF030F89836200085
:1059C0000EF02CF834680396002C0ED10021039BB6
:1059D000196059602B0094331B688B4217D00E233B
:1059E0000A002800FFF706FF11E0276863681E1E03
:1059F00005D0002300941A000E211800B0472000A3
:105A0000FFF778FC002FE1D03C003F68EEE705B0DF
:105A1000F0BD10B50400FFF7C4FF206801F028FABC
:105A2000DC2200212000FBF7C7FC10BD13B50400E9
:105A3000094B0A4A01930A4B0A49A03C00930A48C1
:105A40000A4BFBF791FE2000FFF7ABFF206801F047
:105A50000FFA0023236013BDB0450100704501001B
:105A6000B545010077450100A2500100786B0100A7
:105A7000F0B585B004000391002905D0002205236C
:105A80001100FFF7B7FE33E00668337A012B2FD001
:105A9000050094352B68002B2AD01B7D002B27D0C6
:105AA00007000121C837494238000DF0F3FF2000FC
:105AB000FFF74AFE00280DD10E4B0F4A01930F4B02
:105AC0000F4900930F48104BFBF74EFE38000DF0C6
:105AD000A5FF0DE02B681C69A068FFF7F1FD22000F
