:10000000341F0020198C0000478C0000318B000049
:10001000318B0000318B0000318B0000318B0000F0
:10002000318B0000318B0000318B00009D89000076
:10003000318B0000318B000041890000318B0000C2
:10004000E18B000003800000E18B0000E18B0000E9
:10005000E18B0000E18B0000E18B0000E18B0000F0
:10006000E18B0000E18B0000E18B0000E18B0000E0
:10007000E18B0000E18B0000E18B0000E18B0000D0
:10008000E18B0000E18B0000E18B0000E18B0000C0
:10009000E18B0000E18B0000E18B0000E18B0000B0
:1000A000E18B0000E18B0000000000007D0D0000EE
:1000B00000000000A98A000000000000A98A0000DA
:1000C00000000000A98A000000000000A98A0000CA
:1000D00000000000A98A000070020020C90A000088
:1000E00000000000A98A000000000000A98A0000AA
:1000F00000000000A98A000000000000A98A00009A
:1001000000000000C17F000000000000A98A00007C
:1001100000000000FB7F000000000000A98A000032
:1001200000000000A98A000000000000A98A000069
:10013000000000007108000000000000A98A000013
:1001400000000000A98A000000000000A98A000049
:1001500000000000A98A000000000000A98A000039
:1001600000000000A98A000000000000F17F0000EC
:1001700000000000A98A000002B471464908490045
:10018000095C49008E4402BC7047C04603B4714606
:10019000490840004900095A49008E4403BC704791
:1001A000002243088B4274D303098B425FD3030AB6
:1001B0008B4244D3030B8B4228D3030C8B420DD3C9
:1001C000FF22090212BA030C8B4202D31212090257
:1001D00065D0030B8B4219D300E0090AC30B8B4295
:1001E00001D3CB03C01A5241830B8B4201D38B0343
:1001F000C01A5241430B8B4201D34B03C01A5241E8
:10020000030B8B4201D30B03C01A5241C30A8B422A
:1002100001D3CB02C01A5241830A8B4201D38B0215
:10022000C01A5241430A8B4201D34B02C01A5241B9
:10023000030A8B4201D30B02C01A5241CDD2C3092B
:100240008B4201D3CB01C01A524183098B4201D3A7
:100250008B01C01A524143098B4201D34B01C01A92
:10026000524103098B4201D30B01C01A5241C3080A
:100270008B4201D3CB00C01A524183088B4201D379
:100280008B00C01A524143088B4201D34B00C01A65
:100290005241411A00D20146524110467047FFE7D1
:1002A00001B5002000F0F0F802BDC0460029F7D0EB
:1002B00076E7704703460B437FD4002243088B4206
:1002C00074D303098B425FD3030A8B4244D3030BDD
:1002D0008B4228D3030C8B420DD3FF22090212BAA2
:1002E000030C8B4202D31212090265D0030B8B421E
:1002F00019D300E0090AC30B8B4201D3CB03C01A08
:100300005241830B8B4201D38B03C01A5241430BE2
:100310008B4201D34B03C01A5241030B8B4201D3D2
:100320000B03C01A5241C30A8B4201D3CB02C01A3D
:100330005241830A8B4201D38B02C01A5241430AB5
:100340008B4201D34B02C01A5241030A8B4201D3A4
:100350000B02C01A5241CDD2C3098B4201D3CB014B
:10036000C01A524183098B4201D38B01C01A5241FA
:1003700043098B4201D34B01C01A524103098B42FE
:1003800001D30B01C01A5241C3088B4201D3CB00E9
:10039000C01A524183088B4201D38B00C01A5241CC
:1003A00043088B4201D34B00C01A5241411A00D27C
:1003B00001465241104670475DE0CA0F00D04942E5
:1003C000031000D34042534000229C4603098B4255
:1003D0002DD3030A8B4212D3FC22890112BA030ADD
:1003E0008B420CD3890192118B4208D3890192115F
:1003F0008B4204D389013AD0921100E08909C309E4
:100400008B4201D3CB01C01A524183098B4201D3E5
:100410008B01C01A524143098B4201D34B01C01AD0
:10042000524103098B4201D30B01C01A5241C30848
:100430008B4201D3CB00C01A524183088B4201D3B7
:100440008B00C01A5241D9D243088B4201D34B00D2
:10045000C01A5241411A00D20146634652415B1014
:10046000104601D34042002B00D5494270476346F5
:100470005B1000D3404201B5002000F005F802BD3A
:100480000029F8D016E770477047C046002B11D1FD
:10049000002A0FD1002900D1002802D00021C94331
:1004A000081C07B4024802A14018029003BDC046D0
:1004B000D9FFFFFF03B4684601B5029800F056F873
:1004C000019B9E4602B00CBC7047C046F0B54F463B
:1004D0004646C0B41604360C9946330005042C0C6D
:1004E000070C150C63437E436F4365431C0CAD1929
:1004F00064199C46A64203D980235B029846474470
:100500006346250CEF191D044B464A4343432D0C0B
:10051000240464199918C91920000CBC9046994606
:10052000F0BDC04610B50023002802D000F0EAF864
:10053000431C180010BDC046094B42081A40821ADD
:100540001000084B920818401340C01803091818EF
:10055000054B1840030218180304C018000E70471A
:1005600055555555333333330F0F0F0FF0B54D46F7
:10057000564644465F46F0B4924683B004000D00F0
:1005800099468B422FD82CD04946504600F0AEF801
:1005900029000600200000F0A9F8331A9846203BF5
:1005A0009B4600D574E053465A4693401F0053467D
:1005B000424693401E00AF4229D826D05B46A41B7A
:1005C000BD41002B00DA79E0002200230092019364
:1005D00001235A46934001930123424693400093DE
:1005E00019E08242D0D900220023009201930C9B93
:1005F000002B01D01C605D600098019903B03CBCE9
:1006000090469946A246AB46F0BDA342D6D90022F9
:100610000023009201934346002BE8D0FB077208A9
:100620001A4346467B080EE0AB4201D1A2420CD8E9
:10063000A41A9D41012024196D410021013E241876
:100640004D41002E06D0AB42EED9013E24196D413A
:10065000002EF8D15B460098019900196941002BE2
:1006600022DB2B005A46D3402A004446E2401C00BD
:100670005B461500002B2CDB26009E403300260035
:100680004746BE403200801A994100900191AEE782
:10069000424620239B1A5246DA40414613004A46FE
:1006A0008A4017001F4382E7424620239B1A2A00F4
:1006B00046469A402300F3401343D5E742462023A1
:1006C00000219B1A0022009101920122DA4001923E
:1006D00082E74246202326009B1ADE402F00B446C4
:1006E000974066463B003343C9E7C04610B5002932
:1006F00003D100F027F8203002E0081C00F022F8B7
:1007000010BDC046414208401C2101231B049842F1
:1007100001D3000C10391B0A984201D3000A083992
:100720001B09984201D30009043902A2105C401A47
:100730007047C0461B1C1D1D1E1E1E1E1F1F1F1F97
:100740001F1F1F1F1C2101231B04984201D3000CF3
:1007500010391B0A984201D3000A08391B09984234
:1007600001D30009043902A2105C40187047C0464A
:10077000040302020101010100000000000000006A
:10078000F8B5134808F09AFA0400436807221D6878
:1007900000210123A847636807225D680021012327
:1007A00020000227A84700257F420A4B2B4002D594
:1007B000013B3B4301336268002156682000072259
:1007C000B047FA208000013508F03AFFEDE7C04657
:1007D000789D000001000080A822084BD2009850AC
:1007E000074A9B58C01A0002000A064B023898427A
:1007F00003D98022044B92025A60704700100140D6
:1008000004050000FDFF7F00FCE100E0134B144AEB
:1008100070B5D058A323134D5B002C68001B000259
:10082000000A984213D94821FF31FFF7B9FC0E4B5B
:100830001B68984200D918004823FF3343431C1912
:1008400024020A4B240A2C60186009F00DF828686D
:100850004830FF30FFF7C0FF70BDC0460405000000
:1008600000100140180300201C0300203C0200205F
:10087000002210B5024B5A64FFF7C8FF10BDC046F6
:10088000FC100140074B10B5984200D91800064BE8
:1008900018604823FF335843044B1B68C018FFF708
:1008A0009BFF10BD356400001C03002018030020CE
:1008B0000022074B10B580215A64C023054A5B0013
:1008C0008902D150FFF7A2FF0122034B1A6010BD2D
:1008D000FC10014000E100E01C03002070B51A4844
:1008E00008F0ECF900282CD00024012643680121EF
:1008F0001B689847154B48221C60154B154D1E6010
:10090000A123DB00EC50FF323833EA508023FE3263
:100910005B02FF32AB50403AAB500F4B80215C641E
:10092000C0230E4A5B008902D15011202200310001
:1009300008F088F8112008F065F8AE6020002E60FD
:1009400001E00120404270BD7F9D0000180300209F
:100950001C03002000100140FC10014000E100E0F9
:10096000036870B59B6801259A681F26836800207C
:10097000DC682300C3402B4208D003004533FF331B
:100980009B009B581B0A33408B4203D00130042844
:10099000EFD1173870BD30B515000268A2209268FB
:1009A000C00014682258002902D1EA4001310A40EF
:1009B00000201A6030BD00000068806800680029CF
:1009C00009D101319140002B02D0A123DB0000E0CE
:1009D000034BC15001E0034A835000207047C046DA
:1009E0000C0500000405000010B58368002A07D03C
:1009F0001A680A605A681960002A19D1596017E00C
:100A00001868002814D081420FD15C680868002A59
:100A100004D11860A14205D1586003E01060A142E2
:100A200000D15A6000230B6002E002000068E8E792
:100A3000002010BDF8B503680C009B6817009D6886
:100A40008668002914D11100FFF78AFF021E11DB0E
:100A500001231900B940B06893400143B16011000F
:100A6000C1224031890092004C512000AB5001E07E
:100A700023204042F8BDF8B503680C009B681600BF
:100A80009F688568002910D11100FFF769FF031ED8
:100A90000DDB01231A00B240A96883409143C222B2
:100AA0009200A960BB50230001E023235B421800A1
:100AB000F8BD10B500220121062007F0C3FF062073
:100AC00007F0A0FF002010BD0368F7B59B68040085
:100AD0009B680127019300231A00856801989900FB
:100AE00041180800FC304668002E0AD000264660F7
:100AF000A220C00009581F20090A01403800884080
:100B000002430133042BE9D1AE680620164007F0FA
:100B100083FF2D68002D03D1062007F073FFF7BD7A
:100B2000AB683342F5D03200290020006B6898474B
:100B3000EFE70000F0B506001400026885B0926887
:100B4000B568906817680390002901D0232069E0F8
:100B50000321981308401A130A400190FD31C02068
:100B60008C4680001840F439604504D02F49401865
:100B7000414241418900012092000292034213D078
:100B80000C2903D1A122A040D20003E0042902D104
:100B9000A040274AB8500298019A8218254892002E
:100BA00012580320024305E00298019A8218214856
:100BB00092001258114322000220C132FF329200EB
:100BC000D15118402FD09A06C0D55A0603D4802799
:100BD0005B0703D400E0C027BF0200E07F02E868A3
:100BE000FFF7AAFC04281CD030002100FFF7B8FE54
:100BF000EE68002803DAF043FFF794FC0138012285
:100C0000130083401E43F82324025B011C4045303F
:100C10001443FF30039B80002743EE60C750002041
:100C200001E00520404205B0F0BDC04600FEFFFFD8
:100C30000C050000C89D000010B5EFF3108172B6DE
:100C4000154A1078002804D1002920D162B6453811
:100C500021E0431EDBB21370002B04D00020814240
:100C600019D162B617E00D4B1C78002C04D010701F
:100C700000290ED162B60CE001221A70002900D1C1
:100C800062B680210020C9054A60187003E0452043
:100C900000E00B20404210BD300300203103002053
:100CA000002210B51000012107F0CCFE002007F053
:100CB000A9FE002010BD000070B5EFF3108372B6DE
:100CC000294A1078441C1470002803D0002B3FD10F
:100CD00062B63DE0254C2578002D04D01070002B25
:100CE0003FD162B63DE001222270002B00D162B6F6
:100CF00080251F4EED05002925D0002007F08CFE31
:100D00000023C122736092000133A958AB502B60BD
:100D10007368002B03D120BF40BF20BFF8E700223B
:100D2000134B5A600123194204D1C2228021920040
:100D3000C9058B50C02301210E4A5B00D150002011
:100D400007F060FE02E0012371602B600023237036
:100D50008022094BD205D3580020DB0303D444384A
:100D600001E00B20404270BD300300203103002021
:100D7000FC00004000E100E00C040000F7B5244C4A
:100D80008023E268DB059446C12292009958012233
:100D90000A40204905005E5800926768A0682169F2
:100DA000626901926246002A01D00022E260002FAF
:100DB00001D000276760009A002A06D0F20304D50C
:100DC000C2260122B6009A511A61002801D00023E0
:100DD000A360002908D0002128002161FFF72CFF23
:100DE00080230122DB055A61019B002B0ED00021DC
:100DF000C1238022616101249B00D205D4502800C8
:100E0000FFF75AFF002801D1034B5C60F7BDC046D5
:100E1000FC0000400C040000FCE100E0F8B5802577
:100E20008323ED05DB00EC588023070000205B02E4
:100E30000E001C4084424DD1200007F0EDFDC12280
:100E40000220254B92009C60A958A850A322D200F2
:100E5000AE5001221C00AA60A368002B03D120BF62
:100E600040BF20BFF8E700221B4B9A6002231942C3
:100E700004D1C22280219200C9058B50C0230125D4
:100E8000164A5B00D550002007F0BCFD8023C2222B
:100E900018209200DB059850032100223140226186
:100EA000626191420ED1A7221024D2009C50C1222F
:100EB000920098509D503800FFF7FEFE002801D1A7
:100EC000074B5D60832380220120DB00D205D358CD
:100ED0001B0C9843F8BDC046FC00004000E100E058
:100EE000FCE100E003000A781A70002A02D0013306
:100EF0000131F8E7704703780A78934205D1002B57
:100F000002D001300131F6E71A00981A7047030049
:100F1000002010B582420ED0013A9A18934203D1B4
:100F20001B780878181A06E01C7808788442F7D1F4
:100F300001330131F2E710BD30B5040003234C400A
:100F40001C4202D00400002319E004001D0023000D
:100F50002B4007D0002A18D00B78013A23700131BA
:100F60000134F4E7D51A032D03D9CD58E5500433E5
:100F7000F8E793089B00D21AE418C918E3E79A42ED
:100F800003D0CD5CE5540133F9E730BDF0B5030083
:100F90000326CCB21D00334205D0002A1AD01C70A3
:100FA000013A0133F6E7FF27CEB23F02090239408A
:100FB00031430E0431431600032E02D902C3043E0E
:100FC000FAE793089B00EB18AA18934202D01C7012
:100FD0000133FAE7F0BD7047C389C018032313300B
:100FE0009843704770B5050088790C0007F07CFBCA
:100FF000084B98420CD12000FFF7EEFF4368002B0E
:1010000006D045702000FFF7E7FF406808F0D0FBEE
:1010100070BDC046D0020020F8B50E0001210500C9
:1010200049420F4807F068FB0400002107F0ACFBC1
:101030002000FFF7D1FF002707702000FFF7CCFF4B
:1010400045802000FFF7C8FF4760200003210830DB
:1010500007F0D0FB05702D0A457086702000F8BDA2
:10106000D002002070B50C0086B01500002903D115
:10107000FFF7D2FF041E29D001AE0122002130006B
:1010800008F08EFB2000FFF7A7FF4660200007F066
:10109000ADFB10482100AC3007F07BFB0E4930005F
:1010A00008F0C2FB2000FFF797FF4078002804D02B
:1010B000200007F07DFB052009E0002D01D02C6009
:1010C00006E0200007F074FB280001E037204042D2
:1010D00006B070BD0000002010270000F8B5144EC7
:1010E00006223700083739000500FFF710FF041EFD
:1010F0001BD006210F48FFF78FFF041E13D00622D6
:101100002900083007F07DFB210000220948FFF785
:10111000A9FF041E09D1062229003800FFF70CFFA1
:101120000123F37101E0372464422000F8BDC0467A
:10113000000000200520000073B51C4D6C35280010
:1011400007F087FD03062BD502211948FFF764FF3E
:10115000041E27D00221083007F04CFB0222002198
:101160000600FFF713FF002301AA737033702100FC
:101170000F48FFF777FF002816D1019B9B681C786A
:10118000002C08D181212800494207F079FD094946
:10119000280007F075FD019807F00AFB200003E026
:1011A000452000E03720404276BDC04600000020C8
:1011B0000C200000FFFDFFFF70B5094C01256C34C9
:1011C000200007F046FDC30501D5002007E0200000
:1011D00007F03FFDC0112842F7D0FFF7ADFF70BD0B
:1011E00000000020012310B5062104000370C01880
:1011F00002F014FC002804D14022A3795242134388
:10120000A37110BDF0B585B002AA0021BF48FFF759
:1012100029FF041E64D1029B9B681B78002B06D11A
:10122000BB48BC4A01216C30136007F014FD0298E2
:1012300007F0BEFA02AA0021B748FFF713FF041E09
:101240004ED1B34D029B2800996808220131163017
:10125000FFF772FE029807F0ABFA210002AAAF482E
:10126000FFF700FF041E3BD1029883685A78AA73E7
:10127000DA78997812020A432A821A79EA731A7A7A
:10128000D97912020A436A825A799B791B02134365
:10129000AB8207F08DFA210002AAA148FFF7E2FE17
:1012A000041E1DD1029B06229968681C0131FFF7BC
:1012B00043FE02982C7007F07BFA210002AA99489D
:1012C000FFF7D0FE041E0BD12800029B4022996834
:1012D0001E300131FFF730FE029807F069FA02E094
:1012E000002C00D00FE18A4DAB7E5B067AD502AAB6
:1012F00000218D48FFF7B6FE002875D12800029B1B
:101300000822996870300131FFF716FE029807F045
:101310004FFA2023AE7E1E4005D02B003A331B78B7
:101320001B0716D43AE002218048FFF775FE071E1E
:1013300000D1E2E00221083007F05CFA012344709A
:101340000370320039007948FFF78CFE0028E4D0A2
:101350004AE002AA00217648FFF784FE041E44D129
:10136000029883685F1C59789B78BE781B020B43F8
:1013700036041A003300FE78134336067A793C7936
:101380001E43BB79120222431B0413431A00FB794C
:10139000AE671B061343EB6707F00AFA082165489E
:1013A000FFF73AFE041E00D1A7E00821401807F01D
:1013B00021FA2B0040331A7806231A40043B062AF0
:1013C00001D18133FF33002203701B0A4370827006
:1013D000C270027142718271C27121005548FFF7DB
:1013E00041FE01E013248BE00400002C00D08AE0D1
:1013F00008215148FFF710FE061E7ED00821083054
:1014000007F0F8F9802343707E3BC3701E330470ED
:101410008470047144718471C371220031004648A4
:10142000FFF720FE041E6ED1010007226846FFF779
:10143000ADFD072269462800FFF769FD002804D1A9
:101440003E4E3368002B0DD114E007223C4902A820
:10145000FFF772FD072202A92800FFF758FD0028B8
:10146000EED050E000211F682A0007230800B8478B
:1014700007282FD0334B19681A004B1C05D1324B6B
:1014800032491B689BB28B4217D0314B196801233C
:10149000194212D02B7013681A0AAA7040226B707E
:1014A0001B0CEB701B0A2B71274B52421B686B7194
:1014B0009BB21B0A1343AB710CE02800FFF792FEAE
:1014C00000281FD13368002B04D05E682A00072350
:1014D0000100B0472B78012B11D13F22AB79934308
:1014E000C02B0CD1681CFFF7F9FD00280AD1280099
:1014F00004216C3007F0B9FB05E0372400E0162426
:10150000644200E00400200005B0F0BD030C0000C0
:1015100000000020800300200310000001100000E4
:101520000910000002100000032000006D0C0000F4
:101530001C20000001200000010C0000C00F002052
:10154000509D0000A4000010A8000010FFFF000044
:10155000A00000100120054B054940421860596069
:101560001F200021034B186059607047C8000020FD
:10157000FF1F0000D000002010B5FFF743FE041E3F
:1015800007D1074802216C3007F06FFB2000FFF7FE
:1015900013FE044B1B68002B01D02000984710BDA0
:1015A000000000207C030020F0B5040085B08079A5
:1015B00007F09AF8438B2000032B0DD9FFF70CFDA1
:1015C0000678012E07D1A7683B780E3B012B08D87F
:1015D00062B6042002DF200007F0EAF8162040423D
:1015E0007EE0250008350221280007F014F93B7839
:1015F0003E2B71D1A7683100280007F00CF93F7825
:10160000082F08D0092F27D0022F65D1280007F016
:101610000AF900905DE01121324DA6686C3549420F
:10162000280007F02DFB3378002B08D1711C4022D5
:101630002D48FFF781FC3900280007F016FB2B4BE3
:101640001D68002D48D0002032782B68824200D1DE
:10165000701C98476D68F4E7254DA2682B68002B35
:101660003AD000201178814200D1501C98470023C5
:101670002B6031E009212800A66807F0CCF81D4F47
:101680003B68002B1CD0337A2800F3185B7A019357
:1016900007F0D1F8A38902900393337A0421A38140
:1016A0006B4632785956701C2B003F68B8476B4622
:1016B00022001B891032D318A3606B469B89A3813B
:1016C000317A2800013107F0A6F8009B013BDBB21C
:1016D0000093009B002BCDD1200007F069F800207B
:1016E00005B0F0BD00000020380300207803002082
:1016F0003403002080030020F8B504008668FFF75B
:101700006BFC0378012B14D1A389012B11D93378F9
:101710000E3B012B0DD8250008350221280007F0CB
:101720007AF833780E2B07D00F2B17D0200007F054
:101730003FF862B6042002DFA368032128001E7868
:1017400007F069F8A36821001878FFF74BFC002E1A
:1017500010D00B48803008F02BF80BE0A66804216D
:101760007778280007F057F830782100FFF73AFC27
:10177000002FEED1200007F01BF80020F8BDC04676
:1017800000000020094AC0321368002B08D181688C
:10179000002907D0C168002904D01060180003E0B8
:1017A000452000E0162040427047C046000000205F
:1017B00070B50500064806F09FFF041E06D0002104
:1017C00006F0E2FF2000FFF707FC0570200070BD67
:1017D000F402002010B50100EFF3108272B6002071
:1017E0000C4B94331C681860824200D162B6002C06
:1017F0000BD02000FFF7F0FB012300210370200035
:10180000A18106F0C1FF200002E00120FFF7D0FF18
:1018100010BDC0460000002070B508300D00022148
:10182000140006F0E7FF0570447070BD70B5050048
:1018300001204042FFF7CEFF040004220F21FFF7F2
:10184000EBFF20000421083006F0D4FF0123437091
:10185000034B05701A785B788270C370200070BDEE
:101860008403002070B5040001200D004042FFF702
:10187000B1FFEA1C2060D2B20E21FFF7CDFF206835
:101880000321083006F0B6FF01230370054B290041
:101890001A785B78427083702068083006F0AAFFDF
:1018A00070BDC0468403002070B5040015000132ED
:1018B0000E00D2B208343E21FFF7AEFF0121200016
:1018C00006F098FF29000670200006F093FF70BD17
:1018D000F8B51400104A070052680E00920019D59E
:1018E00008250E4A12682A4214D00B22042118003F
:1018F000FFF7DAFF4470EC40077084700330002F6C
:1019000004D1311D2A00FFF717FB03E02A00002154
:10191000FFF73CFBF8BDC046C8000020D000002007
:1019200007B5002803D0012805D1044900E0044987
:101930006846FFF7D7FA00200EBDC046279E00007C
:10194000209E000007B583789B0611D0C378DB0783
:101950000ED56A460378011D5B06DB0F13706B46DC
:101960000622581CFFF7E8FA6B461878FFF7D8FFF5
:1019700007BD30B542780300047880781202224314
:10198000000411000200D8780A43000610435A7977
:101990001D79997912022A43090414000A00D979A1
:1019A00022430906114330BD002330B593B00D9397
:1019B00004008089022801D8002091E1A368C44D69
:1019C0005A78197812020A432A809B788342F3D806
:1019D00020000321083006F01EFF2B88980A9D0581
:1019E0000138AD0D072800D96CE1FEF7CFFB0800E8
:1019F0006B01260041006B016B016B019800062D05
:101A00000AD01D2D00D05DE1A26850781378000245
:101A1000184305F0DBFF07E0A26850781378000256
:101A20009178184305F0E8FF0023984200D00C336A
:101A30001800FFF7FBFE0D9042E1012D10D0032DA1
:101A400000D03FE10120A349A34B404218605960F8
:101A50001F200021A14B1860596005F031FF1BE1E8
:101A6000A068FFF786FF9C4B18605960290014E1BD
:101A7000681E082800D925E1FEF788FB09001A0036
:101A800038002401240124012401240146000921F5
:101A90000DA8FFF7E7FE0023092203708370C370CF
:101AA000013B4270027143718371C371037207E19C
:101AB00041210DA8FFF7D6FE00210400017040224D
:101AC0000130FFF763FA20236370A033A371983BC2
:101AD000E373263B2374F533A3760833E376237749
:101AE000F03B637703342133E377E9E009210DA864
:101AF000FFF7B8FE00210400017008220130FFF753
:101B000045FA60236371DBE007210DA8FFF7AAFE09
:101B1000010000200870013106F03CFBD0E0681E97
:101B20001B2800D9CEE0FEF727FB0E1521CD33830D
:101B3000A4ACB2BDCDCDCDCD38434C50CDCDCDCD67
:101B40005467CDCDCD72A068FFF713FF634B1860CB
:101B50005960A1E004210DA8FFF784FE00231B219A
:101B60000370837002334170C370A9E009210DA88E
:101B7000FFF778FE002504000570082201302900D7
:101B8000FFF704FA0E2363703233A370E57097E019
:101B9000A168012006F016FB7EE002210DA8FFF7E8
:101BA00061FE00230370040006F01CFB607087E0F8
:101BB00001210DA8FFF756FE040006F015FB20706A
:101BC0007EE0A06806F026FB4CE0A06806F05EFB15
:101BD00048E0A0680EAA01000023103100F0B4FC18
:101BE00011210DA8FFF73EFE0023102203700EA95D
:101BF0000130FFF7A1F963E009210DA8FFF732FEDC
:101C0000002308210370013001F008FF58E009218A
:101C10000DA8FFF727FEFF23002243708370C370D7
:101C200003714371FC3B02708371C271027247E021
:101C3000A1684A7808781202024300200B790A90C2
:101C4000099008900790069005908C7B04944C7B3B
:101C50000394CC1D02948C79019449790091010080
:101C600006F06AFB040001210DA8FFF7FBFD0470DC
:101C700026E002210DA8FFF7F5FD00230370437055
:101C80001EE0A368591C187806F050FC04E0A36815
:101C9000591C187806F0A0FC01210DA8FFF7E2FD01
:101CA00000230CE0A368187806F0D2FC01210400A0
:101CB0000DA8FFF7D7FD00239C4200D00C33037022
:101CC0000D980DE001210DA8FFF7CCFD0123F6E7EB
:101CD00084030020FF1F0000C8000020D000002067
:101CE00013B030BDF7B50700040000790E000837C7
:101CF00001287FD00238032800D90FE1FEF73CFA13
:101D00000241414F072287496846FFF715F9864B84
:101D10005B689B0000D404E1844B1B689B0700D4E4
:101D2000FFE00F23227A00251340012B02D0657AB1
:101D3000063DEDB22A000B32D2B202213000FFF78D
:101D4000B3FD01236A4621000370237A06001B07B6
:101D50001B0FD35C0A314370237A06225B06DB0F2C
:101D600083700330FFF7E8F8390075720A360831DE
:101D70002A003000FFF7E0F8637AE418A37A73557D
:101D8000CFE00F23227A1340072B00D0C9E0637AFB
:101D9000002B00D1C5E03800FFF7D4FDC1E02500DD
:101DA000614B0A355B689B0003D5604B1B685B0386
:101DB0000FD46A46237A29005B06DB0F13706B464B
:101DC0000622581CFFF7B8F86B461878FFF7A8FDF5
:101DD000A7E0082213213000FFF766FD00230370FF
:101DE000237A06225B06DB0F437029000230FFF7DF
:101DF000A3F896E0E07AE58807380E2800D98DE050
:101E0000FEF7BAF9828C088C8C0D8C8C2D8C8C8C06
:101E10008C5555000B002A00390000207BE0424B16
:101E20001B681B0500D47CE007220C213000FFF763
:101E3000F3FC30000721083006F0DCFC002345707D
:101E40002D0A03708570237BC370A37B627B1B020A
:101E5000134303711B0A4371E37B837161E0324BCF
:101E60005B689B005DD5314B1B689B0659D50A22E8
:101E700006213000FFF718FD05702D0A4570637BC1
:101E8000227B1B02134383701B0AC370E37BA27B7C
:101E90001B02134303711B0A4371637C227C1B02E8
:101EA000134383711B0AC371A27CE37C26E01E4BA3
:101EB0005B689B0035D51D4B1B685B0631D50A223C
:101EC00007213000FFF7F0FC05702D0A4570637C98
:101ED000227C1B02134383701B0AC370E37CA27C29
:101EE0001B02134303711B0A4371637B227B1B029A
:101EF000134383711B0AC371A27BE37B1B02134351
:101F000003721B0A43720CE0237B0E2B09D10B00DA
:101F10002A0000211A20FFF7DBFC02E062B6042051
:101F200002DFF7BD579D0000C8000020D000002050
:101F30000379012B11D00A2B17D8012211009940E7
:101F40000B00B021C90002200B4210D13C2110002F
:101F50000B420CD19B09984308E00323007A1840F8
:101F6000033842425041181A01E0012040427047B4
:101F700010B50248FFF706FC002010BD3C9E000093
:101F800010B583890400002B12D00322C389C31823
:101F9000133393431B78002B0AD1FFF705FD00286C
:101FA00001D0FFF7A9FB200006F002FC002001E0B1
:101FB0001620404210BD000013B501211B484942C4
:101FC00007F0D8F9041E2DD0FFF7B2FFC3B2019479
:101FD000022B0ED80021012802D001210120494204
:101FE000FFF7E6FB041E07D001000198FFF77AFE19
:101FF00002E062B6042002DF019B0021D88805F0D0
:10200000B5FD0022019B01A81A6005F049FD002CD6
:1020100008D0A3892000002B02D0FFF7C5FA01E009
:1020200006F0C6FB07F0F0FAC7E7C046BC02002086
:1020300007B56B4601A8991C05F0F4FC0028F8D1FF
:10204000019B002B06D005F043FF0199044807F0DF
:1020500041F9EEE701210348494207F0E5FBE8E7D3
:10206000BC0200209402002010B5144886B006F08F
:1020700017F8041E1FD1FFF76DFA0A23E0225B4216
:10208000039352000E4B0F4905940494029401945B
:1020900000940D4807F06AFD092380225B420393F8
:1020A00005940494029401940094084BD2000849CA
:1020B000084807F05BFD200006B010BD9402002028
:1020C000312000005418002024100020B91F000007
:1020D000D4110020C40F0020F8B504250C27013DC1
:1020E000EDB2FF2D15D004243026013CE4B2FF2CC4
:1020F000F5D0330039006B436143C918054BA80084
:1021000059180019044BC0000A1D181800F078F97E
:10211000EBE7F8BD080400208803002070B50C250B
:1021200030242B004C4343430B4E1C193319002A17
:1021300008D01D7A5C7AAC4201D101341C7205F0E2
:1021400068FF07E09C7ADA7AA24203D101329A72E0
:1021500005F08AFF70BDC04608040020F8B50500F0
:102160000E001C00002A01D0012117E005F06DFFD0
:102170000028F9D03100280005F05AFF0028F3D0DC
:102180000C236B431A0030237343D3181D4AD31812
:102190009A7ADB7AD31A5A1E934119000322637884
:1021A0002778FF1A174010D000290AD00120874253
:1021B00026D01B18DBB223703100280005F054FF35
:1021C00008E00233DBB2237001E0002904D1E368A8
:1021D000A0689847002013E00133DBB223700C2283
:1021E00030236A437343D218064B61689A1804324D
:1021F000200000F008F92800310005F035FF380014
:10220000F8BDC046080400200023F0B505000424F2
:10221000302787B000930193013CE4B2FF2C70D0CB
:1022200000230C2205933B0062436B433B49D318C8
:10223000C81805AA5958406800F0ECF80600002EAE
:1022400042D00320059B5A781978891A08400290D9
:10225000012804D1013A5A709868DA689047059AC3
:102260001378DBB203935378039AD31A03221340F3
:10227000012B10D03B00093262436B43D318274A2D
:10228000D31819000022586800F0CFF86A46059B61
:10229000127B5E605A703B000C226B4362431F4905
:1022A000D318C81805AA5958406800F0B3F8029B23
:1022B0000600012BC3D1002C01D1002804D0290035
:1022C000280005F0D1FE27E03A000C206A43604365
:1022D000124B82189A18907AD67A1900864202D048
:1022E0000123D07201930C233A0063436A439B1885
:1022F000CB181A7A597A91428ED05A7201230093E0
:102300008AE7019B002B07D0009B002B04D11A0009
:102310002900280005F07DFE07B0F0BD080400206C
:1023200073B51400032205001860C31D601E80B23F
:10233000484393431C800E00281801320021FEF709
:1023400025FE023C084BA4B29C420BD0601C70439B
:102350002B18801B2818042201A90193013CFEF7C9
:10236000EBFDEFE773BDC046FFFF0000F7B5056862
:102370000600002D11D00327EB1DBB431C8804224F
:10238000290001A8FEF7D8FD019B013CA4B2002B57
:1023900002D0DA1DBA43148033602800FEBD0B68FA
:1023A00070B505000C001E1E03D0032207339343B3
:1023B0001E88280004222100FEF7BEFD0322EB1D2B
:1023C000013693431E80256070BD4A4380187047D4
:1023D000401A10B580B21100FDF7E2FE80B210BDC8
:1023E00010B5064B8918013A92B29A4204D00139CD
:1023F0000C7804700130F6E710BDC046FFFF000006
:10240000106008607047136819601368586008000E
:10241000116070470023814205D00B00002A02D0D2
:102420004B6813600B00180070470B68834204D0A0
:10243000002A05D05868106002E000231B68FFDE08
:102440001A6818000A60704702004118002010B591
:102450008A4209D01478002C04D0631E1C40431C0F
:10246000D8B2F8E70132F3E710BD0000A122002145
:10247000054BD2009950C022D121920289005A50B6
:1024800040395A507047C04600B00040054A01200C
:102490001378591C1170002B02D1034A10601800E8
:1024A0007047C046C804002000B00040084A1378B6
:1024B000002B02D162B6042002DF013BDBB21370B5
:1024C0000120002B02D1034A506018007047C0461B
:1024D000C804002000B00040014B024AD0587047A9
:1024E0000405000000B000405130024BFF30800076
:1024F000C150704700B000400121F0B50F4B104CA7
:102500000025104A5960170098506560A5600C4D71
:1025100019606E68002E05D1A668002E02D1DE5922
:10252000002EF6D1054E7160AD68002DE8D19A58A5
:10253000002AE5D0034BF550F0BDC04600E0004056
:10254000FCE000400405000070B50E008CB00100F6
:102550001500684610221C00FFF742FF04A8102255
:102560003100FFF73DFF6846FFF7C6FF002D04D09E
:10257000102208A92800FFF733FF002C04D01022F6
:1025800008A92000FEF7D8FC0CB070BD034B10B5B5
:102590001B68002B00D0984710BDC04624050020C2
:1025A000084B10B51860C1231021074A9B00D15079
:1025B000064A853B0E39FF3BD150012006F022FA36
:1025C00010BDC046240500200010004000E100E0DE
:1025D00010B5012006F020FA0021034A034BD15028
:1025E0000131D15010BDC04600100040FC0F00006A
:1025F0000123022800D00233A2220249D2008B50CC
:102600007047C04600100040014B024AD05070474E
:102610000C05000000100040A123024ADB00D0504E
:102620007047C04600100040014B024AD05070472E
:10263000540500000010004000220A490A4BCA500D
:1026400001320433CA50C278084BCA5083781A0644
:1026500043781B041343027812021343044A8B503D
:102660007047C046001000402C0500002405000003
:102670001C050000D30700D505200822F023121AFC
:102680001B0312041A400F2303408020400018430C
:102690001043044B044A9850044A1143A322D20029
:1026A000995070470010004014050000000003021C
:1026B000014B024AD0507047040500000010004052
:1026C000014B024AD0507047040500000010004042
:1026D0008C207047012070478A2070470320704784
:1026E0000122014B5A607047001000400122014B4B
:1026F0001A6070470010004080220021024B9200B7
:10270000995001221A617047001000400022034BCB
:102710005A609A60DA601A615A617047FC10004092
:10272000024B5868431E98417047C046FC10004059
:10273000024B1869431E98417047C046FC10004088
:10274000AA23034ADB00D058434258417047C04691
:102750000010004010B50424044B054AFF349C507F
:1027600004329850034A995010BDC04600100040F2
:10277000340500003C0500008023034ADB00D058EC
:10278000431E98417047C046001000400048704703
:10279000F404002000487047CC04002080230B2163
:1027A000014A9B00D1507047001000408023072150
:1027B000014A9B00D1507047001000408023032144
:1027C000014A9B00D15070470010004080228820B1
:1027D000034992008B58400003438B507047C0461A
:1027E00000100040A923024ADB00D0587047C046C1
:1027F000001000400022014B1A627047FC1000409C
:10280000024B186A431E98417047C046FC100040B6
:10281000C023F0B5DB00C42700269C46FF00547897
:10282000137824021C4393780D4D1B0423431C0092
:10283000D3781B062343B40064196546635153796A
:1028400015791B022B430136E3510632082EE6D1DF
:10285000C8230902024A0843DB00D050F0BDC0463D
:1028600000100040C822FF200249D2008B58834349
:102870008B507047001000400022024B9A61DA61D1
:102880007047C046FC100040024B9869431E9841B7
:102890007047C046FC100040AC228021044BD2009F
:1028A0009850402089005A5802435A507047C046F9
:1028B000001000408021D223044AC9029B00D1505D
:1028C000FF21034AC133FF33D150704700B00040AD
:1028D00000F00140014B024AD0507047440500000F
:1028E00000100040F7B5204B0C00D1181F4B019091
:1028F000994202D91E4B013CD2181E491000FDF727
:102900004FFC0122A225002604271B4BED00DA60B4
:102910001A4A02219E505F51A127FF00D951A921D7
:102920003837D851164FC9007E64164F7C5080212D
:10293000D124C902A4003951134C144FE664A326D4
:10294000134CF600A751134E0199A3510223124EC6
:10295000A350124B6651002901D0114D00E0114DDA
:10296000E5500123A350FEBDC0BDF0FFBFBDF07F09
:102970004AA9D10140420F00008000400405000038
:10298000FC80004000B00040FCB0004048B1004076
:1029900000F001401C0500004081004014050000CB
:1029A00000100040041000400122024B5A601A61DE
:1029B0007047C04600800040A9220C4BD2009850BE
:1029C0000022FC33DA64A622094B0A49D20099504E
:1029D00009490A4A99500A490432995009490A4A50
:1029E00099503021094A99507047C04600800040F4
:1029F00000F0014004110040488000403405000010
:102A000048810040101000403C0500000405000013
:102A1000A422084B0849D20099500849084A995005
:102A20000849043299500849084A99500C21084A2B
:102A30009950704700F00140001100404080004074
:102A40002405000004110040448000402C050000D3
:102A500004050000A821034A034BC900D35850586D
:102A6000181A70470080004044050000A922054B59
:102A70000549D20099500549054A99508021054AD7
:102A80009950704700F001400C1100404880004010
:102A90004C05000004050000A923024ADB00D058C1
:102AA0007047C0460080004070B5A0240022022577
:102AB000124BE400A1261A511D510124104DF600BD
:102AC0005C5198510F48104E9851043699510F4E51
:102AD0000F495E50802189005A501900FC314A602C
:102AE0008A60CA60A8210B4A0B4EC90056500B4E93
:102AF0000B495650402151511C6070BD00F0004000
:102B000004050000CC0400200C050000F80400209F
:102B10001405000000F001400411004004F00040E2
:102B20004405000030B5A024002202250D4BE4002E
:102B30001A511D510C4C1A51043418510B480C4CAD
:102B40001950A2210B48C90058500B495C508021F4
:102B5000012489005C501900FC314A608A60CA6017
:102B60001C6030BD00F00040040500000C050000B2
:102B7000F8040020CC04002014050000C123022129
:102B80000D4A9B00D1500D4A9368002B03D120BF02
:102B900040BF20BFF8E7C2230221074A9B00D15063
:102BA0008021074A893B0902FF3BD150034BD8687B
:102BB000434258417047C04600F00040FCF00040DE
:102BC00000E100E08023034ADB00D058431E984117
:102BD0007047C04600F00040A023012270B50E4CA3
:102BE0000E4DDB00E25008336051E1500C4B4020A9
:102BF0005A59A223DB00E25000220A4BE250FFF7B1
:102C00004BFEA822084B0949D2009950084A9C5013
:102C100040225A5170BDC04600F00040040500003B
:102C2000001000401405000000F001402811004091
:102C3000440500008023024ADB00D0587047C0469C
:102C400000F00040054BDA6A002A04D00021044A53
:102C500051609160D1600022DA627047FC10004040
:102C6000FCF000400020064BDB6A834206D0054B97
:102C70005A68824202D09868431E98417047C04605
:102C8000FC100040FCF00040042902D862B6042089
:102C900002DF0339017000210122074B81701860A7
:102CA0004170064B06481A5006484160C121890010
:102CB0005A501A607047C0462805002000D00040D6
:102CC00004050000FCD0004010B5144B1A6853787E
:102CD00000280FD094789C420CD0D318DB780138B0
:102CE0000B54537814780133DBB29C4200D100239B
:102CF0005370ECE705210139C9B200290DD0947851
:102D00009C4203D10122064B1A6006E0013314787D
:102D1000DBB29C42EFD10023EDE710BD2805002077
:102D200000D00040154970B54B68002B24D0144BDF
:102D30001A6890781478431CDBB2A34200D10023B8
:102D40005678104D9E4204D101236B6000234B60E6
:102D500012E0A126F600AD591018C570937001332A
:102D6000DBB200209C4200D10300486052789A42B6
:102D700002D10122034B5A6070BDC046FCD0004016
:102D80002805002000D000402423F0B5047E002553
:102D900022009C460668FF2A0AD063465343F31874
:102DA0001F788A4206D09B681400ED183A00F2E7BB
:102DB000002010E0944200D1077624225443187872
:102DC0009968A0551B78FF2B04D05A43B3189A6812
:102DD00052189A606818F0BD70B5551A8368848AD5
:102DE0002E0203D42A02120AD2180AE0891A090212
:102DF000090A5A1A8B4204D8E31A5B189CB20022C3
:102E000004E0A24202D9121B002302E0A31A00220E
:102E10009BB28260838270BD10B501000120FFF774
:102E200063FB10BD10B501000020FFF75DFB10BD76
:102E300010B50C00032821D8FDF79EF902080C19E3
:102E400001291BD10F4B0221002014E00E4B022957
:102E50000AD013E0012903D002290FD10B4B03E064
:102E600002210B4B080006E02100200003E00229AC
:102E700004D10320074BFFF771F910BD62B604209F
:102E800002DFC0463801002048010020D8000020A1
:102E900058010020F800002010B50C00032823D8AA
:102EA000FDF76AF902070D1A01291DD1104B002107
:102EB00010E0022918D10F4B0121002011E0012957
:102EC00004D0022910D10C4B012103E00B4B00214F
:102ED000200006E0080004E0022905D101210320BA
:102EE000074BFFF73BF910BD62B6042002DFC04676
:102EF000E8000020680100200801002018010020DF
:102F000028010020012806D0002806D0032805D07B
:102F100062B6042002DF022000E001207047012396
:102F2000F7B5067F04004377002E4BD1037EFF2BBD
:102F300001D1467746E0FFF7CFFA6369277EC51ACD
:102F40002D022B0A009323680193FF2F07D024231F
:102F50005F43019B009AD9198B68934204D9A27AE6
:102F6000E37A934222D11BE0FF20009AF618D21A8E
:102F700000928A784B780F789B1A0340012BE4D19A
:102F8000CB68013A8A701D1EDFD06369888A4A8B3C
:102F9000181A801900020B69000A096AA847D4E7C9
:102FA0000133DBB2022B00D10023E372E37A01226A
:102FB00002339B00E3185E60002302216377100058
:102FC000636A9847F7BD0000F0B5427F93B00700F1
:102FD000002A00D072E30123037743690593837AC3
:102FE000C17A994213D00133DBB2022B00D1130016
:102FF000BB7202339B00FB185B680193019A059B2F
:103000009B181B021B0A7B610123049301E00492BD
:1030100001923B7E08933B680A937B680C937B7A12
:103020000393FF23009300230B93039B002B00D1FA
:10303000E3E0039B0C9A013BDBB20393DB00D31864
:1030400002935B680D93029BD978029B9E788E4217
:10305000EBD02C2575430D9B029A5D191278731CD9
:10306000DBB29A4200D10023029A93702A78032A95
:10307000EBD9052A15D8242469780A9B4C431C19DE
:103080006378A0781B1ADBB2002B0AD0042A12D175
:103090006A68002A0FD1AA68002A0CD1EA681202D5
:1030A00009D100232B7001332B626B6A002BCAD02D
:1030B000A96A012096E0012B00D095E03800FFF7C7
:1030C00063FEA0602B780600042B00D078E07B69BB
:1030D0000693FFF701FA069A0790801A0002019BF7
:1030E000000AC318F01A9E4204D8A08A801BC01898
:1030F000A08200206368002B3DD0AB89002B3AD022
:10310000013BAB8163689C46844501D3CB4927E0F2
:10311000638B0993AA899A42F8D2216AC84AC74B9D
:103120008A18160000229E4203D9C64A8918012235
:103130002162216AE669099B891B6244013B216285
:10314000801A6383E0E7E669236A9B19BC4E9E19E7
:103150008E420AD92362002363440132C01862837D
:10316000628BAB899A42EED304E0B74E9B1923627F
:103170000123F1E72383AB88A28A1818A060EB88AB
:103180000699D318A382079A2000FFF725FEE28A4A
:103190002B89D3189BB2E3826A89934201D99B1A87
:1031A00000E00023E382AB7B002B00D0E3706B4692
:1031B0001B7823706B78009363780133637009E0A8
:1031C000A37863707A7E6B789A4203D1FF237B7673
:1031D00000237B8300206B6A28702862834200D121
:1031E00031E7A96A98472EE702217B6A012208008D
:1031F0009847029B9E70012316E73B7E089A9B1A14
:103200005A1E9341DBB20A93049B002B63D03B68A8
:103210000493039B02933E7EFF2E56D024247443D6
:10322000049B1C19A568019B9D4202D9ED1AA5605B
:103230004BE0029B5B1902937B8B9D4201D25B1B8F
:1032400002E0FF237B7600237B83E38A002B02D0FE
:103250007E76E38A7B8300222378A2603B766068D7
:1032600090422AD0238B0393744B9C46E169236AD6
:103270005B1873495918614502D92362002303E0A2
:1032800071495B18236201231B18D218039B013B71
:103290000393EBD2059BA260029A79699A182000E9
:1032A000FFF79AFD238B63830023E3706B461B7843
:1032B000237063780133637002E0A378009E63702B
:1032C000019B00965B1B0193A5E73B7E089A934206
:1032D00001D001230A933B680C937B6810937B7A9F
:1032E0000693069B002B00D128E1069B109A013B18
:1032F000DBB20693DB00D31809935B780493009B41
:10330000FF2B13D02424009B00255C430C9B1C192D
:10331000009B02932378009346E0002301202B704A
:103320006B6A2862002B01D0A96A9847099B049A0E
:103330009B789342D5D02C25049B5D43099B5B6809
:1033400001935D19049B0133DBB20493099B049A3A
:103350001B78934201D1002304932B78032BE5D1F2
:1033600024246B785C4302930C9B1C196378A67829
:103370009E1BF6B2002ED0D1EB68796963602B6991
:103380002000E361AB8A2383EB8AE382AB69E360CD
:10339000EB692361AB68A682A3606A68FFF71CFD36
:1033A000012326626683E370FF23029A2370DB3BCE
:1033B000534311933B680793079A119B94466344C8
:1033C0009C469B6803937A8B3B7E0592FF220D936C
:1033D0000192FF2B1AD024225A43079903988A1886
:1033E0009168884212D90398401A0390D08A002825
:1033F00002D00590019306E0059EB14202D2711AF7
:10340000059100E005900D931378E2E76246039979
:10341000D28A0E9250181A00FF2A18D02421514344
:10342000079E71188E680F9686420FD2CE8A002EA4
:103430000DD10F9A801A0A78EEE7C046592B177FF4
:103440005A2B17FF4AA9D101B6562EFEFF220E991C
:10345000002905D00599039888421FD3FF2A26D159
:1034600062460399137091600D9A934203D16A46A4
:10347000127A3A7606E0242168460D9A007A4A4389
:1034800007995054FF2B00D10FE124225343079A90
:103490000399D3189A68521A9A6006E1029B019A1E
:1034A000934200D101E1019BFF2B05D11AE0029B61
:1034B000934200D1F9E001922426019B5E430C9BCC
:1034C0009E19002E0ED0E278F3789A420AD901991B
:1034D0003800FFF759FCB378B06073706B461B7807
:1034E00033701AE06268002A1AD0E169236A5B1817
:1034F000734958187349884202D92362002303E0B4
:1035000071495B1823620123A1685218D318A36084
:10351000638B01336383009B0193019B009349E715
:103520000120002D00D1EAE600232B706B6A28628F
:10353000002B00D1E3E6A96A9847E0E63B7E089AB3
:10354000934203D10B9B002B62D105E00B9B002B18
:1035500000D0AFE001230A937B6803937B7A013BA1
:10356000DDB2FF2D54D0039BEC001C196378E27888
:103570009A424BD02C2253436268D3181A78012AFE
:1035800033D0022A39D1D9685A680191396800923A
:103590008C4600999A680978FF2904D010680600C3
:1035A0007869864204D07869397E1060002213E081
:1035B000242041436046019A415C12680CE02420BB
:1035C00048436044C68A049686680296049E002E8C
:1035D00005D1029952180178FF29F0D101E0029833
:1035E00012180098017001990A6000221A625A6A42
:1035F000002A02D0996A186A9047637822780133CA
:10360000DBB29A4200D100236370AFE76B1EA7E7DD
:1036100000233B770A9B002B3ED03B7EFF2B05D13E
:10362000FEF744FF002837D1788335E0089BFF2B55
:1036300007D1FEF751FF0400FEF728FF002800D154
:103640007C6124230A263A7E53433A68D3189B6848
:103650000093FEF741FF7A690500831A1B021B0ADB
:10366000DC1C009B9C4200D21C0014192402240A7A
:103670002000BB6A9847FEF72FFF401B0002000A9C
:10368000641B24020330240AA04205D9013E002E07
:10369000DFD162B6042002DF7B7F002B0ED0012237
:1036A0007B6A11000220984708E0A37800200133CC
:1036B000637036E76B461B7E3B77AEE713B0F0BD19
:1036C0005A2B17FF592B177FB6562EFE022804D00F
:1036D000032802D062B6042002DF7047F0B506006E
:1036E00005A880C80478002E09D0012E39D11E48C3
:1036F0001E4DC5641E4D05651E4D456506E01A4804
:103700001D4D05621D4D45621D4D85622C20704387
:103710008446154D2818017261464A512C22944660
:1037200043724760013BDBB2FF2B0CD00798DA00F5
:10373000BA1850606046127807995043A41A0818C6
:103740000790E4B2EEE70120002C0BD12B3046436A
:10375000AE193376737674837461B472F472200098
:1037600000E00120F0BDC04664050020CD36000019
:10377000312E0000192E0000052F0000992E0000A8
:10378000252E00002C235843054B10B51818436A0A
:10379000002B03D0012200201100984710BDC04625
:1037A00064050020F0B52C2485B001930DAB1B8877
:1037B000604302930EAB1B88CD0003931C4B1B1878
:1037C00058684519EE782878771CFFB28742804107
:1037D0000740687884460120BC4526D07443686859
:1037E000022604196270019A032062600A9A20700E
:1037F000A2600B9A2662E2600C9A080022616A4677
:103800009289E2826A461289A2820F9AA261109A74
:10381000E261119A6262129AA262EF705D6A1B6A9B
:10382000984700223100A847206A05B0F0BDC04685
:1038300064050020F0B52C2487B000930CAB1B88E6
:10384000604301930DAB1B88CD0002930EAB1B8828
:1038500003930FAB1B88049310AB1B7805931C4B91
:103860001B1858684519EE782878771CFFB28742F4
:1038700080410740687884460120BC4526D07443C7
:1038800068680226041962706A4612880420A280C1
:103890006A4692882070E2806A46128926622281F6
:1038A0006A469289080062816A46128AA2816A4643
:1038B000127DA273119A6262129AA262EF705D6A1F
:1038C0001B6A984700223100A847206A07B0F0BD64
:1038D00064050020F7B52C2460430193134BCD0001
:1038E0001B1858684519EE782878771CFFB2874274
:1038F00080410740687884460120BC4514D0744359
:1039000068680226041905206270019A20706262BC
:10391000089A2662A262EF705D6A08001B6A9847E7
:1039200000223100A847206AFEBDC0466405002081
:10393000F7B52C2460430193154BCD001B18586834
:103940004519EE782878771CFFB2874280410740FE
:10395000687884460120BC4519D074436868022603
:103960000419FF206260019A6070A260089A2670B4
:10397000E260099A266262620A9A0800A262EF7007
:103980005D6A1B6A984700223100A847206AFEBD85
:1039900064050020F7B52C2460430193124BCD0041
:1039A0001B1858684519EE782878771CFFB28742B3
:1039B00080410740687884460120BC4513D0744399
:1039C0006E68341902266262019A2070FE306070BF
:1039D000A2622662EF705D6A08001B6A98470022A7
:1039E0003100A847206AFEBD640500202C2310B5D5
:1039F00043430548C3185C6A08001B6A98470022C5
:103A00000221A04710BDC0466405002010B5FEF796
:103A100063FD10BD401A0002000A704770B5060031
:103A20000C00002C13D001210A4D4942280005F05A
:103A300051FA20003100FFF747F90400280005F093
:103A4000ABFA002C03D020BF40BF20BFE9E7002025
:103A500070BDC046A802002020BF40BF20BF7047F5
:103A600008607047002804D180230A681B061343AE
:103A70000B607047002803D10B685B005B080B608C
:103A80007047F0B50200461D01270020B24211D058
:103A9000040015780834E4B2A04209D03D4203D0B6
:103AA000002907D00139C9B2431CD8B26D08F3E729
:103AB0000132EBE7F0BD000030B5DB23B6240F493F
:103AC0005B00FF34CB5C0A5D0500934202D30A5DC4
:103AD0009B1A05E0DA2252008A5C085D9B181B1ACB
:103AE000DBB200209D4207D8D8220B5D52008A58D5
:103AF0009B0098580123037130BDC046F405002097
:103B00000300F7B558331E78013301931B78040086
:103B10000120B34247D1230034331D78054014D02F
:103B200058331B78001803423DD023008D331B7897
:103B3000082B38D923008E331B881B4A934232D17D
:103B40002200903212889A422DD12300012784331B
:103B50001F700023E3672300A08C5C331880E28C85
:103B6000FA215A80A38D890058437D235843FCF7DE
:103B7000A1FB2300603318806B425D4102232200C9
:103B80005D1B07212B00853215780B408D431D43AB
:103B9000182300209D43103B1D43019B5A34013ED6
:103BA000157027701E70FEBDFFFF0000F0B50C7889
:103BB00085B00600019102920020944241D0F22388
:103BC0000500214A5B00D258E1008A5A03933280F3
:103BD00003991D4BE2005B5831889B181A8891426B
:103BE0002CD1586801280DD90322010091430ED031
:103BF000011D0CD04179002909D001790A40013A10
:103C0000012A04D801225A60AB18DDB201E0022279
:103C10005A60032302000C4F9A4304D03900D93173
:103C2000FF31FEF7BCFBF4235B000134FB5CE4B224
:103C3000A34200D10024029B9C42C9D12800019BD1
:103C40001C7005B0F0BDC046F4050020C62210B5BA
:103C5000094B52009A5C040082420BD90200C22038
:103C60004000FC211858FEF7B0FB002802D0038C5E
:103C7000A34200D0002010BDF40500200223F0B5BF
:103C800089B0040003910493052806D0062823D1A7
:103C9000714BFC331F6D5B6D2AE06F4B03211A00E3
:103CA00098331B689432029304AB1768002000938A
:103CB000039A6A4BFFF70EFE022803D0049B002BE9
:103CC00006D116E0049B022BF8D1FFF7C5FEF9E7F9
:103CD000049B012B0DD0B0E0062800D8ADE00738DA
:103CE00080B2FFF7B3FF002800D1B2E00768436855
:103CF0000293594DA87BC0B2002800D09DE0574EDA
:103D000004ABAC732200009303213300FFF7E2FD04
:103D1000022805D0049B504D002B00D095E00DE00B
:103D20006B7B9C4204D1012203201100FEF7F6F9BF
:103D3000049B022BEED1FFF78FFEF9E72B7B9C4211
:103D400003D06B7B9C4200D07AE0022300220593D3
:103D500005AB0093032133001000FFF7BBFD0228E1
:103D600007D1012211008018FEF7D8F9059B022B1C
:103D700063D005980223002830D106932B7B002BBB
:103D80005BD006AB28730122009303213300FFF7B9
:103D9000A1FD022807D1012211008018FEF7BEF90B
:103DA000069B022B49D00699002904D1029BBB42F5
:103DB0000CD92B4B0BE0069B012B3ED10022284B4C
:103DC00011000320FEF7CAF9011E36D1254B0A0067
:103DD0000320FEF7C3F9002832D02EE0059C012C09
:103DE0002BD1079307AB0093039A330003210020E4
:103DF000FFF770FD022807D1220021000130FEF7F5
:103E00008DF9079B022B18D0079B002B02D0079B34
:103E1000012B12D1EB7B002B12D00422124B03207A
:103E20009A6000221100FEF799F9002805D1EB7B7A
:103E3000002B05D0FFF710FEF9E762B6042002DF81
:103E4000AB7B002B01D1013304930023AB730498A7
:103E500000E0012009B0F0BDF4050020613A000047
:103E600028020020B8010020C8010020F7B5060094
:103E70000400A4360D003178E834CB0933D1226830
:103E8000002A30D0131D01930B0743D55779002F1B
:103E900040D01779FF43BB0725D1070034373F785F
:103EA000D279BC4663464027DB070CD4394202D1A5
:103EB000022A05D12EE0911E01292BD90B2A29D0E7
:103EC000062A0CD126E0394202D1022A04D121E08F
:103ED000FD27911E39421DD0511F01291AD9FB21FE
:103EE0000D3A0A4216D0802233785242134333707F
:103EF000FEF74CFC0321027803008A4302390A438F
:103F000002700022427020681A780F3100282AD1EE
:103F10008A4329E00100F830F9310A78019B0678DC
:103F20009B18002E01D15E780670002A05D003266A
:103F30001A78B243023E32431A7002781020097890
:103F4000521A1978D2B281435A7019701B2A04D9B7
:103F50001B225A70CAB202431A7022681268002AE1
:103F600003D010211A780A431A701F2219780A40C8
:103F70001A7000229A702B60F7BD0000F0B5160091
:103F8000002293B00993036807900D910A9293421F
:103F900008DA416882685B005B088A4200D20A0046
:103FA0009B1A0A931122FF2300240AA952181370A6
:103FB00012222500521814800F94109408930C9329
:103FC00006940B9402231122119311AB02936F4BB1
:103FD0000AA9019310AB009352180FAB01210020E6
:103FE000FFF7A6FC022803D0119B002B08D015E098
:103FF000119B022BF8D101210020FFF7F7FCF7E716
:1040000011230AAA9B181A78FF2A00D188E00C9B7A
:10401000FF2B06D00B9B0F998B4202D062B6042077
:1040200002DF042A77D9062A74D9089BFF2B77D19F
:1040300057488533073AC05892B2FC21FEF7C5F9BC
:10404000079B0700834266D00D9B002B04D1030021
:1040500034331B78DB075ED4109A0A9B9446634482
:1040600005933B68002B0ADA7968BA688A4200D265
:104070000A005B005B08D31A059AD31805933368CE
:10408000059A9A423AD99D422AD21D0028E0290079
:104090000598FFF7BFFCFB68069A64339B189842AB
:1040A00024D3069B3B4AE81800210723FCF70EFAAD
:1040B0000023394AFCF7EAF93849FCF771F8122174
:1040C0000AABC918099B80B2088098420DD2199B8F
:1040D000600018180222FCF72FFF0134E4B22835E3
:1040E000189B1B78A342D2D800E0002512230AAA0D
:1040F0009B181B88099A3560934211D20F9B0AAA1C
:104100000B9311239B181B78059D0C93FB6864335C
:10411000069300E00892189B1B78A34200D951E750
:1041200011230AAA9B181B78FF2B2AD133689D42C2
:1041300020D21D001EE0069B164AE8180021072326
:10414000FCF7C4F90023144AFCF7A0F91349FCF763
:1041500027F812210AABC918099B80B20880834254
:104160000DD9199B600018180222FCF7E5FE0134F6
:10417000E4B22835189B1B78A342DCD800E0002568
:104180003560189B1C7013B0F0BDC046613A00004A
:10419000F40500208D49FD1A00CA9A3BE204000094
:1041A000F0B50D278BB002ABFF18062305003B705E
:1041B00024230400663528882D4AFF330021FCF7AC
:1041C00085F92C4A0723FCF761F92300069007AA1A
:1041D0005C331B8801210192009706AA2000FFF79B
:1041E000CDFE2300723303930E2602ABF618022293
:1041F00029003000FCF7A0FE3B78328802930023B0
:104200000298D9B2884209D91B498A4204D0590080
:1042100007A8095A8A421FD00133F1E7039B0235F0
:104220009D42E1D1220023005832127859331A708E
:10423000FE230021114A5B00D1500434E36F0331A7
:10424000053B1A7859700A431A701122DA70023A43
:104250001A7111325A7108E0094B04345A43A267AB
:1042600031000222E06FFCF767FE0BB0F0BDC046E4
:104270000054CE098D49FD1AFFFF0000F40500200F
:10428000E20400001FB500230B21039369440633A9
:104290000B70030034331B7803AADB0703D502003D
:1042A000436D783283670300041DE46F5C331B8821
:1042B000009101940021FFF761FE1FBDF0B58FB0A2
:1042C0000992172200241F00FF23089106A9521803
:1042D000079013703C600C940694059302231725F5
:1042E0000D9306ABED180DAB0293324B2A000193F0
:1042F0000CAB00930799099B0020FFF719FB0228DC
:1043000005D00D9B002B0AD062B6042002DF0D9B66
:10431000022BF6D107990020FFF768FBF7E72A7810
:10432000FF2A41D0062AD9D9C220234B073A4000A0
:1043300092B2FC211858FEF748F8051ECED00300B3
:1043400034331B78DB07C9D403680C9E002B08DAD2
:10435000416882688A4200D20A005B0096195B08B5
:10436000F61A059BFF2B08D1172306AA9B181B786A
:10437000EC68059327340696B0E706993000FFF7FE
:1043800049FB089B02331B199842EDD9069B0B4A47
:10439000181900210723FCF799F8094A0023FCF7B4
:1043A00075F82030386002E0059BFF2BEED10FB08E
:1043B000F0BDC046613A0000F40500208D49FD1AA9
:1043C00000CA9A3B73B505000192012016002731FF
:1043D00001AA1C00FFF772FF019886420ED031003F
:1043E000FFF718FB0B4A07230021FCF76FF80023A7
:1043F000094AFCF74BF82368181820602368002B43
:1044000007DB064868432368984202D21B1A2360E0
:10441000F9E773BD8D49FD1A00CA9A3BE20400001A
:1044200037B5030004007C33626FE168808CFFF7CE
:10443000C9FF6B46E06F06499D1DFBF7B1FE0434D2
:10444000288029000222E06FFCF776FD37BDC046C8
:10445000E204000010B5FA21F6240B4B4900FF34AA
:104460005A5C1C5D94420DD15A5CF43252009A1889
:10447000D0805A5C0132D2B2032A00D10022FA2144
:1044800049005A5410BDC046F405002010B5054B34
:104490001B7C002B04D0012100220800FDF73EFE0A
:1044A00010BDC046F40500200022094B10B51A705B
:1044B000084B904202D0012806D11033002211008F
:1044C000FDF74CFE002802D062B6042002DF10BDCA
:1044D0001D0A00200802002070B50D000021040014
:1044E0000800FEF785F82300A4331B780122DB06C1
:1044F00009D51F210820FEF7BDF820002900A530AE
:10450000FEF7D2FA04E008201B21FEF7B3F82800DA
:10451000FEF7CEF870BD70B50D0000210400080054
:10452000FEF766F82300A4331B7801229B0609D509
:104530001F210820FEF79EF820002900C630FEF754
:10454000F1FA04E008201B21FEF794F82800FEF79A
:10455000B7F870BD62B6042002DF000030B5036812
:1045600089B0002B19DA456884685B005B08AC42AF
:1045700000D22C0006900A481B1B059000209BB21D
:10458000019300930490030003900290FFF752F907
:104590000223984301D0FFF7DDFF09B030BDC046CC
:1045A000753A0000030010B598330A001968002915
:1045B00001D1FFF7CFFF008C1A72D8800720094A7B
:1045C0001871E630FF30105CC5321870FF321800E9
:1045D000FDF719FF002802D162B6042002DF03F0C4
:1045E00057FD10BDF405002070B5DB21B624154A37
:1045F000FF344900135D515C994201D1FFF7AAFFD6
:10460000D821135D490051589B005858F623DA25EC
:104610005B00D35C01680370135D6D000133555D71
:10462000DBB29D4200D100231355C532FF32FDF7A6
:10463000EAFE002802D162B6042002DF03F028FD62
:1046400070BDC046F405002070B504000320FFF7DC
:1046500033FA002825D001235B42C3805E23124A2F
:10466000FF33D35C5A070BD05B075B0FDAB2012A2A
:1046700004D0042A05D062B6042002DF032300E040
:104680000223457A037140190A3005007F26002C69
:1046900002D0FEF7A7F806402E70FFF7A5FF002016
:1046A00000E0012070BDC046F405002010B50400F4
:1046B000262805D0272805D00220252C04D107E084
:1046C0001A2005E0502003E00A2C07D8A01C400067
:1046D000FDF7A2FF2000FDF7A7FF10BDE01C272C6F
:1046E000F5D9FFF737FF000070B52C4C23002200EE
:1046F000F433F5321B7812789A4207D00133DBB2DB
:10470000022B00D100232200F4321370A222462192
:104710005200FF31A35C615C994205D00133DBB2EA
:10472000022B00D10023A3542300F4331D78272348
:104730005D43A0356519A81DFDF7C2FF0F23AA79B7
:104740001340022B0AD0072B08D002239620237493
:10475000FEF7C0F80020FEF721F803E003232374DE
:10476000FEF72CF82300A4331B7800201B075B0FF7
:10477000DAB211000125294203D10130C0B2490843
:10478000F9E70E210732A43413405A00237825306C
:104790008B4313432370FFF789FF70BDF40500209E
:1047A00070B5F624F4250F4B64001A5D6D000132DC
:1047B0005D5DD2B2954200D10022EC25FF355D5DF2
:1047C000954201D1FFF7C6FEF2256D005E591D5DD1
:1047D000ED00A853185DC000301841601A5503F071
:1047E00057FC70BDF4050020F7B50090009B002B2E
:1047F00048D0EA27F522244CFF375200E35DA25C43
:104800009A423FD0F023E65D5B00E358F6009E1924
:1048100001930023756832882B608533FF33E0589D
:10482000FC21FDF7D2FD3388028C9A4213D102009D
:104830000300F0321168F433002906D1E830156026
:104840000268002A01D105601A601A68002A00D0A7
:1048500015601D6007E003222B79290093432B711B
:104860003088FFF79DFFF422E35D52000133A25C24
:10487000DBB29A4200D10023E355009F013FFBB217
:104880000093B3E7F7BDC046F4050020F7B5012259
:10489000040011000020FDF741FC0021228C384F5C
:1048A000384B07320093D2B23B000800FFF712F8F2
:1048B0000225A8431BD1344B1A7C1E00052A28D19F
:1048C0001A7B238C07339A4223D1304B0122009369
:1048D00001003B00FEF7FEFFA84308D12C4B02006D
:1048E000009301003B00FEF7F5FFA84311D062B62C
:1048F000042002DF2300F0331B6899421FD00322FB
:104900000B7993430B712B681B682B60208CFFF78E
:1049100047FF25002700E835EC3729683B689942B6
:10492000E8D10CE02300F0331B6898420AD0310034
:104930000368D1312B60FF313B60FDF730FD286803
:104940000028EFD100233B600327296800290CD001
:1049500022000B79F032BB430B712B681B682B6074
:104960001360208CFFF71CFFEFE701235B422384D9
:10497000FE33FF33F258944200D1F150F7BDC046E8
:10498000BD4C0000781C0000F4050020841C0000D1
:104990008B1C0000C0B2031F10B5012B01D9FFF71B
:1049A000D9FD084A137C002B06D0043B012B03D908
:1049B0001074FDF7A1FE03E0FDF7C2FE0028F8D059
:1049C00010BDC046F405002010B50B4B002806D0E2
:1049D0001A780120511C1970002A0CD109E01878AE
:1049E000002801D1FFF7B6FD0138C0B218700028C9
:1049F00001D103F04BFB10BD1C0A002010B50020B4
:104A0000FFF7E2FF10BD0000002210B5044B1100BB
:104A10001000FDF7A3FB002801D0FFF79BFD10BDA0
:104A200088010020002210B5044B11001000FDF792
:104A300095FB002801D0FFF78DFD10BD98010020E7
:104A40001A00064B10B59A60002211001000FDF705
:104A500085FB002801D0FFF77DFD10BDD8010020A7
:104A600037B50022052311001000FFF7E9FF0021F0
:104A7000114B052200930800104BFEF72BFF022379
:104A80009843051E01D0FFF765FD0120FFF714F8DC
:104A9000041E02D162B6042002DF01235B42C38000
:104AA00007332900037118220B30FCF76FFA3C23FF
:104AB000E372FFF799FD37BD55130000BD4C0000B0
:104AC000F0B516008FB00C9314AB04CB34681B7890
:104AD0000B900D930C9B0D001F68002C03DA3C001B
:104AE000974200D21400BC421AD900204D4B0690C8
:104AF00008934D4B049007934C4B03900593E31B95
:104B0000009302900B9B019001220100FEF74AFEE8
:104B10000223984300D07FE003000200010029E057
:104B2000BC421DD200231A0019001800FFF77AFFBB
:104B300000203F4B3C1B08933B4B069007933D4B9B
:104B40000490059303900B9B029001900094012226
:104B50000100FEF727FE022398435DD13C000BE0E5
:104B600000231A0019001800FFF75CFF00231A0049
:104B700019001800FFF748FF00202F4B02009D602E
:104B80002E4B294D0893179B07950693169B04906F
:104B9000059303900B9B0290019000940100FEF797
:104BA00001FE0223984337D1052302000100FFF7DD
:104BB00047FFFC23204A5B00D25897421FD033683E
:104BC0005B005B08934200D213000C990A603268C4
:104BD000002A02DA520052083260002018499AB2C4
:104BE000A3B206910293019200920595049003905E
:104BF0000D9A0100FEF71EFE022398430CD1FF2000
:104C0000FFF7F2FD0D9A0F4B00209A600122110070
:104C1000FDF7A4FA002802D062B6042002DF0FB02C
:104C2000F0BDC04610110000BD4C0000254A000038
:104C300025110000094A0000F40500203D11000084
:104C40006A110000F801002010B5002806D0044BBE
:104C5000C9B29B7B994201D0FFF77CFC10BDC046D6
:104C6000F405002010B5002805D0034B9B7B052BD5
:104C700001D0FFF76FFC10BDF405002010B501282E
:104C800008D1054B9A7B062A02D100229A7301E0D3
:104C9000FFF760FC10BDC046F405002010B50128E8
:104CA00008D1054B9A7B052A02D100229A7301E0B4
:104CB000FFF750FC10BDC046F405002010B50028D9
:104CC00001D0FFF747FC10BD7FB50B4C257BEDB243
:104CD000002D01D0FFF73EFC05262300220026739D
:104CE0000395064D019602959C34246898339432BE
:104CF0000094FFF7E5FE7FBDF4050020C14F0000E2
:104D000013B504000D4B0193FDF762FC0020FDF785
:104D10007BFC0B48FDF744FC01212000FDF768FCFB
:104D2000640001A8FDF788FCE2B225210820FDF708
:104D3000A1FC04490448FDF70DFD13BDD6BE898EC4
:104D40003D5D0000555555005B060000E423F7B5B6
:104D50001F4D5B00EE5C123BEC5C023B0134EB5CF4
:104D6000E4B2A3421CD100241AE0DB23D82207605E
:104D70005B00EB5C5200AA589B009850DB235B0061
:104D8000EC540192023B0134EB5CE4B2A34200D14B
:104D90000024E4225200AB5C013E013BAB54F6B26E
:104DA000002E14D0B623FF33EB5C9C420FD0094891
:104DB000FDF7DCFA071E0AD02800A530FF30FDF70A
:104DC000D5FA0028D1D103493800FDF7E8FAF7BD3C
:104DD000F4050020B0070020C62370B53B4C5B00F3
:104DE000E25C002A0AD02300C22089334000FF334E
:104DF00092B2FC212058FDF793FA02E0C4235B0035
:104E0000E2502300D722D621D020A53352004900FA
:104E10004000FF33A25C615A2058FDF781FADA2383
:104E20002500DC205B00E25C283BE35CBD35FF3500
:104E30004000D21808212B002058FDF771FA2300FA
:104E4000E620D1334000FF33022224212058FDF711
:104E500067FAF4222300EE21EA205200A25CD93343
:104E6000013A490040002058FF3392B2615AFDF7E1
:104E700057FA2800FDF77AFA002802D162B604201A
:104E800002DF22002100C532C131FF32FF31FDF7C0
:104E9000B7FA22003821A43253780B435370CB2247
:104EA000FF235200A3549822FF32A3540132A3548B
:104EB0009A22FF32A3547B3AFF3A9B33E2549C235D
:104EC0000632FF33E254FFF741FF70BDF4050020C6
:104ED000034B10B51868002143681B68984710BD44
:104EE000F4050020034B10B51868002143685B6887
:104EF000984710BDF4050020F7B501930123140075
:104F000003269C46484008230022050A67465200B3
:104F10002F40013B3A43DBB2D2B26D08002BF5D1F2
:104F20000827120212B2C0B265465B000540013F7D
:104F30002B43FFB2DBB24008002FF5D11A4310001B
:104F400011235843013E0818F6B280B2002EDAD180
:104F500041400E0025213000FBF7A8F90722C8B216
:104F6000C308E35C024013410122134205D10199B9
:104F700020007143090CFEF784FDFEBD70B51400DE
:104F80000E000500FEF742FD2100FEF743FDC41CA4
:104F90000020092C10D9094B1B78834201D0FFF760
:104FA00083FA280032000021FFF7D8FAAB6801200D
:104FB000E318262B00D8AB6070BDC0461D0A002048
:104FC00070B5284B0500DA7B1C00D2B2002A44D110
:104FD0001B7BDBB2052B40D126000121A53660608A
:104FE0003078E1734007400F22736373FFF788FE48
:104FF00021000E203378A4319B065B0F5A000B78FA
:10500000834313430B70FFF76FFB3F2233789343C7
:1050100006D003F0E3F8821C41780078FDF7F8FB36
:105020002900A26809310120FDF75CFCFDF71EFD97
:1050300020002A0094300521FFF7A0FF002804D0AB
:1050400004232374FDF758FB0AE00300064A01001D
:10505000FEF7A0FC0223984302D062B6042002DFD0
:1050600070BDC046F40500208D44000010B504005A
:10507000FDF7AEFA0020FDF7C7FA0948FDF790FAF0
:1050800020001030FDF7D8FAA17D637D09041B02D2
:105090001943237D03481943FDF75CFB10BDC0464F
:1050A0003D5D00005B060000F7B51C00544B00900E
:1050B000DE7B1D00F6B2002E00D09AE01B7B228C16
:1050C000DBB20732934200D093E00322DBB2EA73F3
:1050D0002E736B73009B01276B60CA235B00EE5439
:1050E0009623FF33EE54053BEC502F74238D2000A4
:1050F00063852685FFF7BAFF9620FDF7EBFB3100AD
:105100003000FDF753FBB623D8222600FF33EB5CBB
:105110005200AA589B00995820000831FFF7DCF98B
:10512000227F173693069B0E520607D5608CE18BC3
:105130000138320080B2FFF7DFFE19E0608D019385
:10514000A37F01305843E37F2521C018FBF798F96E
:105150000722C8B2E077C308F35C11400B413B4221
:1051600006D10199FBF7A2F83000C9B2FEF789FC1D
:10517000FFF79CFA226C636C9B1800222264E26B9E
:105180006364934200D962640026A26CE36C0099C8
:105190009B180931AA68E364A6643000FDF7A2FBFE
:1051A0000700FDF735FC636C5800E36C6833C318E7
:1051B00030000193FDF790FA019BFF183818FDF7B6
:1051C000FBFBFDF753FC218C009A0731C9B220008C
:1051D000FFF7D4FEB04204D004232B74FDF78CFA01
:1051E0000AE00300074A0100FEF7D4FB02239843BC
:1051F00002D062B6042002DF0220FFF7F5FAF7BD05
:10520000F40500208D4400000300020030B5A433F3
:105210001C78EC32E3091CD10300E8331B68002B37
:1052200017D0240702D51468A34212D10500F03527
:105230002C68A34201D11C682C601468002C0DD08E
:105240002B6822689A4201D01400FAE70B602160B3
:1052500013E01368002B06D10300E8331C680C60D0
:105260001960116009E00200F03212681C68944273
:1052700001D02300FAE70A6019600B68002B01D106
:10528000F430016030BD0000F0B591B00A90BD4827
:105290000E911C00037B0500002B01D000F0EBFBFE
:1052A0002600238C34360733DBB203733378DB07F5
:1052B00009D5A16B531C4B43216C5B18E16B236434
:1052C0008B4200D92164238D2700D218638C92B2BF
:1052D0002285D21893B20B932300593758333A786A
:1052E0001B789A4201D100F0C9FB0022052310006F
:1052F0001100FFF7A5FB23005A3318780138032863
:1053000000D9B8E3FAF742FF0400CA0216034203C9
:10531000FE235B00EA58002A00D1EC502700072347
:10532000853739780B4000D138E1002A02D0944209
:1053300000D0A3E3043B012B00D89FE32800D13029
:10534000FF30FDF713F8051E00D197E33B785B07AC
:105350005B0F032B05D13378DB0700D5BCE08A4F08
:1053600008E0022B57D0032B00D1B5E0012B00D071
:1053700081E3864F012332781A404CD12100072067
:1053800085310B78260083430B70E38C0B99063331
:10539000CB180321643633802B79EA710B432B71D0
:1053A0000C236B71230084331B7879492B72E06FD7
:1053B000FAF7F6FE230080B26872000AA8725C3326
:1053C0001B88EB721B0A2B7323005E331B886B73E5
:1053D0001B0AAB73230060331B88EB731B0A2B740F
:1053E00033886B741B0AAB7422680A9B6367002ABC
:1053F0000ADA6168A3688B4200D20B00520052089F
:105400009B1A0A9A9B1863672A00231D0932DA67E0
:10541000604BDF6056E022000721853213788B4312
:1054200002390B43137003222B79210013432B7194
:1054300018236B71093BEB715C310B8800222B72D6
:105440001B0A6B720B882C21AB721B0AEB722300B8
:105450005E331B882B731B0A6B73230060331B881E
:105460002A74AB731B0AEB736B465B181B7829001D
:105470006B740B9B13311B0AAB7401235B42EA7400
:105480004A706B75AB75EB752B766B76AB76EB76FE
:105490002B776B77AB77238E226863860A9B6367D3
:1054A000002A0ADA6068A368834200D2030052002F
:1054B00052089B1A0A9A9B186367231DD967364ABC
:1054C000344BDA600122002011009C60FCF746FE9C
:1054D000002800D108E2CEE2230058331A780021D8
:1054E0005A70FE23274A5B00D15003222B791343C5
:1054F0002B71182322006B71083BEB715C3213880F
:105500002B721B0A6B721388AB721B0AEB7223009F
:105510005E331B882B731B0A6B73230060331B885D
:10552000AB731B0AEB73230062331B782B742300CD
:1055300064331B886B741B0AAB74230066331B88AF
:10554000EB741B0A2B75230068331B886B751B0AD1
:10555000AB7523006A331B88EB751B0A2B7623007F
:105560006C331B886B761B0AAB7623006E331B886B
:10557000EB761B0A2B77230070331B886B771B0A93
:10558000AB77B1E1F4050020A14100002144000007
:10559000E2040000E801002085420000220064329D
:1055A00012880B998A1A96B2120400D566E222007C
:1055B000583211782B735170FE225200A9588C4238
:1055C00000D1AB502700E36D626A5C3793420DD186
:1055D000230060331D88A08CA38DFA2158437D23BE
:1055E00089005843FAF766FE85421DD00220FEF777
:1055F00063FA002800D13EE2238CC38008230371A4
:105600000023C3723B8803731B0A437323005E337A
:105610001B8883731B0AC373230060331B880374C6
:105620001B0A4374FEF7E0FF2368002B0BDA616866
:10563000A2688A4200D20A005B005B082360D31A8A
:105640000A9AD3180A93A58C3F887543ADB23900E6
:105650002800FAF7A5FD83B21800784380B20B93B7
:1056600085420FD22423401BDD4AFF33C117FAF7CE
:105670002DFF0723DB4AFAF709FF0A9B0002000A05
:10568000C3180EE02423281AD54AFF33C117FAF7AE
:105690001DFF0723D34AFAF7F9FE0A9B0002000A0E
:1056A0001B1A0A93238D0B9A9B1BD31823856268C0
:1056B00023680E929A4200D20E93250001233435BE
:1056C000C9482978474319400C9056D0A36BC74965
:1056D0005E43236CC64A9E1BCE2326645B00CB5CD4
:1056E00029785B00985A0E230B409B5AC149C01879
:1056F0007843C14BC018FAF753FD22007B08963B54
:10570000A063E363843212780C9905004A43A264D3
:1057100000220B98626568433618B34201D32664B1
:1057200000E02364B54A00230021FAF7CFFEAD4A1A
:105730000723FAF7ABFE0A9BAB491B1AE06F0A93EB
:10574000FAF72EFD0C9BAD4A4343002118000023BD
:10575000FAF7BCFEA34A0723FAF798FE0002030AF1
:105760000B93230085331A7818237D1B1340102BCD
:1057700010D12000FEF7C4F90CE0A04A0023E06F2E
:10578000FAF7A4FE0723974AFAF780FE3D000002CD
:10579000030A0B9323005C331B883900A384230086
:1057A0005E331B88E384230060331888944B58438E
:1057B000FAF7F6FC3900A0859248FAF7F1FC2300CD
:1057C00085331A7818232086134000D1E385012100
:1057D000002002F02DFC00220F9001211000FCF7A8
:1057E0009DFC0021228C884B07320093D2B2874B5C
:1057F0000800FEF76FF802239843061E00D03AE136
:105800007E4A002328003100FAF760FE754A07231C
:105810000C900D91FAF73AFE05022D0A714A072302
:1058200028003100FAF752FE0C9A0D9B121A8B4198
:105830001000FA22190092000023FAF727FEE2680E
:10584000278C944622000E9B3432010010780737D3
:105850006344FFB29BB26E4AC00700D46D4A6E48E3
:105860000493089069480B9B0790002005920291D1
:10587000009306940A9B039001953A000100FDF7FE
:1058800091FF0223984300D0F5E00F9B002B00D13D
:1058900033E101221100FCF741FC2EE126005C36C9
:1058A0003378002B25D02800D130FF30FCF75EFD87
:1058B000051E00D1E2E000233370E38C0B9A06331F
:1058C000D3180322F38003792100134303710823C3
:1058D0004371073BC371023208305D31FBF72CFB8B
:1058E000F3886B731B0AAB7329002000FFF78CFC55
:1058F000C4E0230062330B9A1B88D31A474A9BB239
:10590000934200DDBAE023002500210058331B78C4
:1059100017353B7005225D312800FBF70DFB052193
:105920002800FCF791FD3F22237F1040934318434A
:105930002077A3E02800D130FF30FCF717FD051ECB
:1059400000D19BE0230058331B7803223B702700D3
:10595000334B88373B600379134303710923437149
:105960003278013BD20700D506332800EB710021C5
:1059700008300822FBF70AFB3B7829002B723B68B2
:105980001B0A6B723B681B0CAB7222E027000126DE
:105990008C373B78334245D12800D130FF30FCF7BB
:1059A000E5FC011E6AD0230058331A785A7003228E
:1059B0003B781E433E700379134303710623437102
:1059C000DB18C371033B03720A3B43728372C372D9
:1059D00003732000FFF718FC238E63864EE0C04659
:1059E0000054CE098D49FD1AE2040000F4050020A0
:1059F0004C9E000040420F003F420F0000CA9A3BFD
:105A000010270000005A6202DB150000BD4C0000A8
:105A1000155B00000D5B0000EB150000FF7F000030
:105A20000E4000000220034225D0230058331A788C
:105A30005A70FEF741F800281DD00322238C06710E
:105A4000C380037A1343037206234372DB18C372C5
:105A500023008D331B78037323008E331B8843731D
:105A60001B0A8373230090331B88C3731B0A0374C0
:105A7000FEF7BAFD02E062B6042002DF2500260030
:105A8000953594362A7833789A421ED00022052321
:105A900011001000FEF7D4FF1948D130FF30FCF799
:105AA00065FC011E11D0032233782B700379134358
:105AB000037102234371C371230096331B78037271
:105AC0002000FFF7A1FB238E63862000228C343058
:105AD00005780732231DA168D2B20A48ED0700D429
