:10000000802B002029EA000057EA0000C9E8000020
:10001000C9E80000C9E80000C9E80000C9E800001C
:10002000C9E80000C9E80000C9E80000F5E60000E2
:10003000C9E80000C9E8000099E60000C9E800002E
:10004000F1E900003BD30000F1E90000F1E9000014
:10005000F1E90000F1E90000F1E90000F1E9000038
:10006000F1E90000F1E90000F1E90000F1E9000028
:10007000F1E90000F1E90000F1E90000F1E9000018
:10008000F1E90000F1E90000F1E90000F1E9000008
:10009000F1E90000F1E90000F1E90000F1E90000F8
:1000A000F1E90000F1E90000000000006D1400001B
:1000B0000000000041E800000000000041E80000EE
:1000C0000000000041E800000000000041E80000DE
:1000D0000000000041E8000020070020B9110000E6
:1000E0000000000041E800000000000041E80000BE
:1000F0000000000041E800000000000041E80000AE
:1001000000000000F9D200000000000041E80000FB
:100110000000000033D300000000000041E80000B0
:100120000000000041E800000000000041E800007D
:1001300000000000210F00000000000041E8000066
:100140000000000041E800000000000041E800005D
:100150000000000041E800000000000041E800004D
:100160000000000041E800000000000029D300006A
:100170000000000041E8000002B47146490849004F
:10018000095C49008E4402BC7047C04603B4714606
:10019000490840004900095E49008E4403BC70478D
:1001A00003B47146490840004900095A49008E4489
:1001B00003BC704703B4714602318908800089008E
:1001C00008584018864603BCF746C046002243083C
:1001D0008B4274D303098B425FD3030A8B4244D30F
:1001E000030B8B4228D3030C8B420DD3FF22090251
:1001F00012BA030C8B4202D31212090265D0030B10
:100200008B4219D300E0090AC30B8B4201D3CB0305
:10021000C01A5241830B8B4201D38B03C01A524147
:10022000430B8B4201D34B03C01A5241030B8B4249
:1002300001D30B03C01A5241C30A8B4201D3CB0234
:10024000C01A5241830A8B4201D38B02C01A524119
:10025000430A8B4201D34B02C01A5241030A8B421C
:1002600001D30B02C01A5241CDD2C3098B4201D334
:10027000CB01C01A524183098B4201D38B01C01AB2
:10028000524143098B4201D34B01C01A5241030929
:100290008B4201D30B01C01A5241C3088B4201D3D8
:1002A000CB00C01A524183088B4201D38B00C01A85
:1002B000524143088B4201D34B00C01A5241411AAC
:1002C00000D20146524110467047FFE701B50020B9
:1002D00000F0F0F802BDC0460029F7D076E770477D
:1002E00003460B437FD4002243088B4274D3030997
:1002F0008B425FD3030A8B4244D3030B8B4228D338
:10030000030C8B420DD3FF22090212BA030C8B425D
:1003100002D31212090265D0030B8B4219D300E0FD
:10032000090AC30B8B4201D3CB03C01A5241830B82
:100330008B4201D38B03C01A5241430B8B4201D332
:100340004B03C01A5241030B8B4201D30B03C01A5B
:100350005241C30A8B4201D3CB02C01A5241830AD5
:100360008B4201D38B02C01A5241430A8B4201D304
:100370004B02C01A5241030A8B4201D30B02C01A2E
:100380005241CDD2C3098B4201D3CB01C01A524195
:1003900083098B4201D38B01C01A524143098B421E
:1003A00001D34B01C01A524103098B4201D30B0107
:1003B000C01A5241C3088B4201D3CB00C01A52412C
:1003C00083088B4201D38B00C01A524143088B42F1
:1003D00001D34B00C01A5241411A00D2014652418A
:1003E000104670475DE0CA0F00D04942031000D3A9
:1003F0004042534000229C4603098B422DD3030AFE
:100400008B4212D3FC22890112BA030A8B420CD30D
:10041000890192118B4208D3890192118B4204D336
:1004200089013AD0921100E08909C3098B4201D3B6
:10043000CB01C01A524183098B4201D38B01C01AF0
:10044000524143098B4201D34B01C01A5241030967
:100450008B4201D30B01C01A5241C3088B4201D316
:10046000CB00C01A524183088B4201D38B00C01AC3
:100470005241D9D243088B4201D34B00C01A52419A
:10048000411A00D20146634652415B10104601D327
:100490004042002B00D54942704763465B1000D3B1
:1004A000404201B5002000F005F802BD0029F8D057
:1004B00016E770477047C046002B11D1002A0FD1B4
:1004C000002900D1002802D00021C943081C07B42C
:1004D000024802A14018029003BDC046D9FFFFFFA9
:1004E00003B4684601B5029800F056F8019B9E4699
:1004F00002B00CBC7047C046F0B54F464646C0B48B
:100500001604360C9946330005042C0C070C150C08
:1005100063437E436F4365431C0CAD1964199C46CD
:10052000A64203D980235B02984647446346250CC4
:10053000EF191D044B464A4343432D0C2404641910
:100540009918C91920000CBC90469946F0BDC046C8
:1005500010B50023002802D000F0EAF8431C180070
:1005600010BDC046094B42081A40821A1000084BC1
:10057000920818401340C01803091818054B18407A
:10058000030218180304C018000E7047555555553E
:10059000333333330F0F0F0FF0B54D4656464446F5
:1005A0005F46F0B4924683B004000D0099468B423A
:1005B0002FD82CD04946504600F0AEF8290006004E
:1005C000200000F0A9F8331A9846203B9B4600D53E
:1005D00074E053465A4693401F00534642469340A8
:1005E0001E00AF4229D826D05B46A41BBD41002B7C
:1005F00000DA79E0002200230092019301235A4699
:1006000093400193012342469340009319E08242B4
:10061000D0D900220023009201930C9B002B01D023
:100620001C605D600098019903B03CBC90469946FF
:10063000A246AB46F0BDA342D6D9002200230092C9
:1006400001934346002BE8D0FB0772081A43464645
:100650007B080EE0AB4201D1A2420CD8A41A9D4106
:10066000012024196D410021013E24184D41002E26
:1006700006D0AB42EED9013E24196D41002EF8D1CF
:100680005B460098019900196941002B22DB2B0081
:100690005A46D3402A004446E2401C005B461500FF
:1006A000002B2CDB26009E40330026004746BE4030
:1006B0003200801A994100900191AEE74246202312
:1006C0009B1A5246DA40414613004A468A401700B8
:1006D0001F4382E7424620239B1A2A0046469A403F
:1006E0002300F3401343D5E74246202300219B1A01
:1006F0000022009101920122DA40019282E74246F3
:10070000202326009B1ADE402F00B4469740664601
:100710003B003343C9E7C04610B5002903D100F0C0
:1007200027F8203002E0081C00F022F810BDC04677
:10073000414208401C2101231B04984201D3000CB4
:1007400010391B0A984201D3000A08391B09984244
:1007500001D30009043902A2105C401A7047C04658
:100760001B1C1D1D1E1E1E1E1F1F1F1F1F1F1F1FA8
:100770001C2101231B04984201D3000C10391B0AD1
:10078000984201D3000A08391B09984201D3000995
:10079000043902A2105C40187047C04604030202EC
:1007A00001010101000000000000000001394B427E
:1007B0004B41014A137070470E08002002394B422A
:1007C0004B41014A13707047F807002010B50248EA
:1007D00001F0B2F810BDC046CCFF000010B50029F2
:1007E00003D0044801F0A8F802E0034801F0A4F89F
:1007F00010BDC046E6FF00000200010070B586B0E3
:100800000AAC2588162407266C442680053E0296ED
:100810000194009504F00AFC06B070BD30B50125C6
:1008200085B008AC24880295CD680094019504F049
:10083000FDFB05B030BD000030B5050087B00028D5
:1008400002D00100154821E0154801F075F800F0CC
:10085000CDF91449144800F0A3F903AC134804F08F
:10086000EBFC0C222900200000F03FFAA02201231B
:10087000628050322370A2800D490093EE3A0D4BF6
:10088000200002F0D9FA011E03D00B4801F054F801
:1008900002E00A4801F050F807B030BD0D00010039
:1008A0002D000100440001004900010070000020FB
:1008B000BCFF0000B0000100570001007D000100F6
:1008C000F7B51C002D4B05001B78002B51D0002CD8
:1008D00051D01178032916D004292BD002230129E5
:1008E00039D10323052C36D190785778D37800027C
:1008F00038431B04034318001379214A1B060343A2
:1009000013600B0027E00B00022C24D11D4B507804
:100910001E781A00012386421DD000231A4E9F5DC7
:10092000874202D11070012315E00133052BF6D167
:10093000023B10E00323012C0DD16A460D331370E6
:100940006B4651709470D81C05220F4900F0A3F932
:1009500008236A4606E0684610228370027003236B
:100960006A46417009492800B43104F0DFFC2000D8
:1009700003E0812000E00D204042FEBDF80700208A
:1009800010080020F9070020B4010020900000208A
:10099000F0B585B000AF5B4802F0FAF9011E05D052
:1009A000594800F0C9FFBD4605B0F0BD574802F0F8
:1009B00095FBFA2080000EF083FE554B1B78002B30
:1009C00072D000F0E1F9534B05001E78012300249A
:1009D0001E420ED1504B32211C88504BE418FFF7B9
:1009E0007BFC4D4B64181C8001244D4A1368023374
:1009F000136003213000FFF76FFCC9B200295BD1FF
:100A0000FA23484E9B0031882800CB1832217B60A6
:100A1000FFF762FC7B685918318043490B8801332A
:100A20000B80002C43D1230022000C883188796090
:100A300069463960002B48D00726002C4BD1684608
:100A4000F11DC908C900411A8D4600246D46A34214
:100A500044D100202870002C0DD002222B783C813C
:100A600013432B70BB8892187B816B1C18180823CA
:100A7000F91800F010F92D49B3B22A0028310020EE
:100A800004F054FC3B689D46224B1A783F231340E8
:100A900005D1244A1380204A13801E4A13701D4B2F
:100AA0001C4A1B780133137000F0A8F881E71C4B37
:100AB000194A1B681288B8E7002C1BD00024184B79
:100AC000154A1B6812887C60B2E7002C17D082B0F0
:100AD0006D460526BDE784B06D460B260121BB603F
:100AE00008232970BA81681C0622F91800F0D3F88F
:100AF0000620B0E76B4622003B6023007C600126A5
:100B00009DE7C046390800000D0001005400002098
:100B10000E08002018080020160800201A04000003
:100B2000100800201A08002014080020900000205F
:100B3000F0B587B01E000CAB1F880A4B05001C687F
:100B400004912000059200F07CF880B2029001949C
:100B500000973300059A0499280004F067FA07B05B
:100B6000F0BDC0461C080020F0B587B01E000CABDD
:100B70001F880A4B05001C6804912000059200F0B4
:100B800060F880B20290019400973300059A0499AE
:100B9000280004F04BFA07B0F0BDC0462008002042
:100BA00010B5044B1860044B0448196004F044FB72
:100BB00010BDC046200800201C080020EC010020C9
:100BC00001394B424B41014A137070472E080020F7
:100BD00030B5012585B008AC24880295CD68009415
:100BE000019504F023FA05B030BD000010B50248AD
:100BF00004F022FB10BDC046B002002010B5094B26
:100C00001B78002B0DD0084A1378013BDBB2002B78
:100C100000D164230549137028310123002004F01A
:100C200085FB10BD2E080020AC0200205C020020D5
:100C300003000A781A70002A02D001330131F8E764
:100C40007047020003001978981A002901D0013377
:100C5000F9E7704703780A78934205D1002B02D058
:100C600001300131F6E71A00981A7047030000209E
:100C700010B582420ED0013A9A18934203D11B78E4
:100C80000878181A06E01C7808788442F7D10133F6
:100C90000131F2E710BD30B5040003234C401C4283
:100CA00002D00400002319E004001D0023002B40A3
:100CB00007D0002A18D00B78013A23700131013493
:100CC000F4E7D51A032D03D9CD58E5500433F8E7DE
:100CD00093089B00D21AE418C918E3E79A4203D09C
:100CE000CD5CE5540133F9E730BDF0B503000326D0
:100CF000CCB21D00334205D0002A1AD01C70013A34
:100D00000133F6E7FF27CEB23F02090239403143F3
:100D10000E0431431600032E02D902C3043EFAE743
:100D200093089B00EB18AA18934202D01C70013361
:100D3000FAE7F0BD70B50400074D0A2804D1286811
:100D40000D2143685B6898472868E1B243685B6897
:100D50009847200070BDC0463008002010B50248FA
:100D600000F0B2FC10BDC046350D000010B50448BF
:100D70000DF0CCFE034B1860FFF7F0FF002010BD14
:100D8000B80001003008002010B500F041F9034917
:100D9000040003480DF065FE001910BD0DCA9A3B12
:100DA0003408002003689B681B681A00FC32D06876
:100DB000002806D00020D060A322D2009B580B70E0
:100DC00001E00120404270470368064A9B681B68A7
:100DD0009950FC331A6A002AFCD0002208001A62DB
:100DE0007047C0461C050000036800209B681B6814
:100DF0001A00FC32926A824203D09022D2009858A4
:100E000098500F2318407047F8B5036805009B6899
:100E100018481C680DF07AFE436806001F6802231C
:100E20000A22FF330021B847736830001F6800238F
:100E30000B221900B8470A220F4BEB21E2500F4B4F
:100E40000132E250E122AB6852021A602B68490479
:100E50009B6800201A680A4BD1500422243BE250C0
:100E60002300FC331862D8600123A3602360054B84
:100E70006B60F8BDBF0001000C0500001405000008
:100E800024050000E8000100A822084BD200985079
:100E9000074A9B58C01A0002000A064B02389842C3
:100EA00003D98022044B92025A607047001001401F
:100EB00004050000FDFF7F00FCE100E0134B144A35
:100EC00070B5D058A323134D5B002C68001B0002A3
:100ED000000A984213D94821FF31FFF777F90E4BEA
:100EE0001B68984200D918004823FF3343431C195C
:100EF00024020A4B240A2C6018600EF009FD2868B1
:100F00004830FF30FFF7C0FF70BDC0460405000049
:100F100000100140380800203C080020DC060020BA
:100F2000002210B5024B5A64FFF7C8FF10BDC0463F
:100F3000FC100140074B10B5984200D91800064B31
:100F400018604823FF335843044B1B68C018FFF751
:100F50009BFF10BD356400003C08002038080020CD
:100F60000022074B10B580215A64C023054A5B005C
:100F70008902D150FFF7A2FF0122034B1A6010BD76
:100F8000FC10014000E100E03C08002070B51A4868
:100F90000DF0BCFD00282CD000240126436801215F
:100FA0001B689847154B48221C60154B154D1E6059
:100FB000A123DB00EC50FF323833EA508023FE32AD
:100FC0005B02FF32AB50403AAB500F4B80215C6468
:100FD000C0230E4A5B008902D1501120220031004B
:100FE0000DF0FCFB11200DF0D9FBAE6020002E604F
:100FF00001E00120404270BDC60001003808002019
:101000003C08002000100140FC10014000E100E01D
:101010000B490C4A70B58B580B4E3468756888586C
:10102000834201D00300F8E74820FF306043074ABD
:101030001B1A10681B0260431B0A181870BDC046BB
:101040000010014004050000401C0020E0060020C4
:10105000036870B59B6801259A681F268368002085
:10106000DC682300C3402B4208D003004533FF3324
:101070009B009B581B0A33408B4203D0013004284D
:10108000EFD1173870BD30B515000268A220926804
:10109000C00014682258002902D1EA4001310A40F8
:1010A00000201A6030BD00000068806800680029D8
:1010B00009D101319140002B02D0A123DB0000E0D7
:1010C000034BC15001E0034A835000207047C046E3
:1010D0000C0500000405000010B58368002A07D045
:1010E0001A680A605A681960002A19D1596017E015
:1010F0001868002814D081420FD15C680868002A63
:1011000004D11860A14205D1586003E01060A142EB
:1011100000D15A6000230B6002E002000068E8E79B
:10112000002010BDF8B503680C009B6817009D688F
:101130008668002914D11100FFF78AFF021E11DB17
:1011400001231900B940B06893400143B160110018
:10115000C1224031890092004C512000AB5001E087
:1011600023204042F8BDF8B503680C009B681600C8
:101170009F688568002910D11100FFF769FF031EE1
:101180000DDB01231A00B240A96883409143C222BB
:101190009200A960BB50230001E023235B421800AA
:1011A000F8BD10B50022012106200DF017FB062026
:1011B0000DF0F4FA002010BD0368F7B59B68040039
:1011C0009B680127019300231A0085680198990004
:1011D00041180800FC304668002E0AD00026466000
:1011E000A220C00009581F20090A01403800884089
:1011F00002430133042BE9D1AE68062016400DF0FE
:10120000D7FA2D68002D03D106200DF0C7FAF7BDDF
:10121000AB683342F5D03200290020006B68984754
:10122000EFE70000F0B506001400026885B0926890
:10123000B568906817680390002901D0232069E001
:101240000321981308401A130A400190FD31C02071
:101250008C4680001840F439604504D02F4940186E
:10126000414241418900012092000292034213D081
:101270000C2903D1A122A040D20003E0042902D10D
:10128000A040274AB8500298019A82182548920037
:1012900012580320024305E00298019A821821485F
:1012A00092001258114322000220C132FF329200F4
:1012B000D15118402FD09A06C0D55A0603D48027A2
:1012C0005B0703D400E0C027BF0200E07F02E868AC
:1012D000FFF748F904281CD030002100FFF7B8FEC2
:1012E000EE68002803DAF043FFF732F901380122F3
:1012F000130083401E43F82324025B011C40453049
:101300001443FF30039B80002743EE60C75000204A
:1013100001E00520404205B0F0BDC04600FEFFFFE1
:101320000C0500002401010010B5EFF3108172B626
:10133000154A1078002804D1002920D162B645381A
:1013400021E0431EDBB21370002B04D00020814249
:1013500019D162B617E00D4B1C78002C04D0107028
:1013600000290ED162B60CE001221A70002900D1CA
:1013700062B680210020C9054A60187003E045204C
:1013800000E00B20404210BD500800205108002012
:10139000002210B5100001210DF020FA00200DF000
:1013A000FDF9002010BD000070B5EFF3108372B698
:1013B000294A1078441C1470002803D0002B3FD118
:1013C00062B63DE0254C2578002D04D01070002B2E
:1013D0003FD162B63DE001222270002B00D162B6FF
:1013E00080251F4EED05002925D000200DF0E0F9E5
:1013F0000023C122736092000133A958AB502B60C7
:101400007368002B03D120BF40BF20BFF8E7002244
:10141000134B5A600123194204D1C2228021920049
:10142000C9058B50C02301210E4A5B00D15000201A
:101430000DF0B4F902E0012371602B6000232370EA
:101440008022094BD205D3580020DB0303D4443853
:1014500001E00B20404270BD5008002051080020E0
:10146000FC00004000E100E00C040000F7B5244C53
:101470008023E268DB059446C1229200995801223C
:101480000A40204905005E5800926768A0682169FB
:10149000626901926246002A01D00022E260002FB8
:1014A00001D000276760009A002A06D0F20304D515
:1014B000C2260122B6009A511A61002801D00023E9
:1014C000A360002908D0002128002161FFF72CFF2C
:1014D00080230122DB055A61019B002B0ED00021E5
:1014E000C1238022616101249B00D205D4502800D1
:1014F000FFF75AFF002801D1034B5C60F7BDC046DF
:10150000FC0000400C040000FCE100E0F8B5802580
:101510008323ED05DB00EC588023070000205B02ED
:101520000E001C4084424DD120000DF041F9C12233
:101530000220254B92009C60A958A850A322D200FB
:10154000AE5001221C00AA60A368002B03D120BF6B
:1015500040BF20BFF8E700221B4B9A6002231942CC
:1015600004D1C22280219200C9058B50C0230125DD
:10157000164A5B00D55000200DF010F98023C222DE
:1015800018209200DB05985003210022314022618F
:10159000626191420ED1A7221024D2009C50C12238
:1015A000920098509D503800FFF7FEFE002801D1B0
:1015B000074B5D60832380220120DB00D205D358D6
:1015C0001B0C9843F8BDC046FC00004000E100E061
:1015D000FCE100E0002070470B6810B501330B60A0
:1015E000014B1B68984710BDC0020020F0B587B0C2
:1015F00003930C9B07000291002B01DC01230C9349
:1016000020230593039B012B01D12F3305930A233C
:1016100001930023160001241F4D0493049B002B0B
:1016200001D1B5420AD2691C3000FEF7CFFD029904
:101630003030B8470123013404930AE00C9B019A2F
:10164000934206DB039B022B03D802990598B84707
:101650000134019B691C013B30000193FEF73CFE05
:1016600028000E000A21FEF7B1FD019B0500012BA9
:10167000D4D1300002993030B847039B032B08D1F6
:101680000C9B1C1B002C04DD02992020B847013C58
:10169000F8E707B0F0BDC046FFC99A3B0A6830B50D
:1016A0008B68002A02D04C68A34202DB01338B60B6
:1016B00009E0651EAB4203D18C600021D15402E0E9
:1016C0005C1C8C60D05430BD014B18607047C04624
:1016D000C0020020F0B51C0000238DB00593013B33
:1016E0000493002305000E001F0007920393079B3D
:1016F0001878002800D10FE1002F05D1252800D14E
:10170000FBE03100A84703E1642850D016D83928FF
:1017100009D8312836D22D282AD030282AD0252899
:1017200000D0E1E0E5E058287BD0632800D0DBE082
:101730002068271D3100A8473C00DCE0702866D0F7
:1017400007D8692833D06C282DD0682800D0CBE08A
:10175000D9E0752846D005D8732800D0C4E0271DED
:101760002468B7E078285CD07A2800D1CBE0BBE0D1
:101770000323C7E0049B002B07DA039B002B00D157
:10178000C3E006E0049B002B03DB0A23049A5343C7
:101790001818039B303804900127002B00D0B7E0C5
:1017A00002330393B4E0059B01330593ABE0059B43
:1017B000012B02DC2768043406E0073423000722EB
:1017C00093431C001F680834002F06DA31002D20D7
:1017D000A847049B7F42013B0493049B3A0000937B
:1017E000039B0FE0059B012B02DC2268043406E01A
:1017F00007342300072293431C001A680834049B13
:101800000093039B31002800FFF7F0FE73E03100E6
:101810003020A84731007820A84708230493073BCD
:101820000393059B012B03DC23680434099307E031
:1018300007342300072293431C001B6808340993D4
:10184000082306930023082708930B93013F099868
:10185000BB00D8400F23184005D10B9B002B07D1AC
:10186000002F11D104E05723092802D8273B00E0BC
:101870003023C0183100A847089B01330893069B0A
:101880000A9301230B9312E0069B069A013B0A93ED
:10189000049B93420BDB039B012B02D131003020D0
:1018A00004E0039B022B02D131002020A847002F27
:1018B00002D00A9B0693C9E7039B032B28D1049B04
:1018C0005F00089BFF1A002F15DD31002020A8477C
:1018D000013FF8E72078002803D031000134A84701
:1018E000F8E73C00070013E031002520A847079BDC
:1018F00018783100A84700270AE001235B420493CF
:101900003B0005970393012702E001231F00039387
:10191000079B01330793EAE60DB0F0BD07B50B0056
:10192000002102000191034801A9FFF7D3FE0198AD
:101930000EBDC046D91500000FB407B504A901C9F2
:101940000191FFF7EBFF03B008BC04B0184700009B
:101950000CB430B5002585B008AB04CB01900291E2
:10196000040001A9074800930395FFF7B3FE03980D
:10197000029B984200DA255405B030BC08BC02B086
:101980001847C0469D1600007047F0B5CF1C85B0C3
:1019900004000D003800032106F054FA061E1DD184
:1019A0003F236A7939001340402213436B713D3A5B
:1019B0006846FFF770F96B460D223100D81CFFF71F
:1019C00094F920006A46694606F05AFA041E04D1CA
:1019D000032269462800FFF75EF9200005B0F0BD3C
:1019E00070B5037805000C00012B13D0002B07D035
:1019F000022B1CD1010011222000FFF74CF916E048
:101A000011220B492000FFF746F96B8863731B0A0C
:101A1000A3730CE0112206492000FFF73CF96B6824
:101A20001A0A63731B0CE3731B0AA273237470BD41
:101A30007C01010010B502780B788AB00C0093424B
:101A40000CD06946FFF7CCFF05A92000FFF7C8FFBF
:101A500015216B4610226944581C10E0012B0AD056
:101A6000002B05D0022B0DD101310130102206E0F0
:101A70004388488801E043684868181A04E0FFF783
:101A8000F5F801E0162040420AB010BDC389C01825
:101A900003231330984370474B099B0010B5C018BF
:101AA0000C000CF0FFFF1F231C4020411E3B184080
:101AB00010BD00000100002210B5C3787C319342B4
:101AC00000D0024A02480EF0CDF910BD8813000084
:101AD000481C002070B5050088790C000CF074FCDF
:101AE000084B98420CD12000FFF7D0FF4368002B31
:101AF00006D045702000FFF7C9FF40680DF098FE42
:101B000070BDC046B0070020F8B50E0001210500E9
:101B100049420F480CF060FC040000210CF0BCFCB2
:101B20002000FFF7B3FF002707702000FFF7AEFF8C
:101B300045802000FFF7AAFF4760200003210830FE
:101B40000CF0E0FC05702D0A457086702000F8BD91
:101B5000B007002070B50C0086B01500002903D135
:101B6000FFF7D2FF041E29D001AE01220021300070
:101B70000DF056FE2000FFF789FF466020000CF0B4
:101B8000BDFC10482100C4300CF08BFC0E49300025
:101B90000DF08AFE2000FFF779FF4078002804D07E
:101BA00020000CF08DFC052009E0002D01D02C60F8
:101BB00006E020000CF084FC280001E037204042C1
:101BC00006B070BDF802002010270000F8B5144ED2
:101BD00006223700083739000500FFF747F8041ED2
:101BE0001BD006210F48FFF78FFF041E13D00622DB
:101BF000290008300CF08DFC210000220948FFF775
:101C0000A9FF041E09D1062229003800FFF743F876
:101C10000123F37101E0372464422000F8BDC0467F
:101C2000F80200200520000007B50621684606F0EE
:101C300009F9002808D16B465A793F2313406A46B8
:101C400068465371FFF7C2FF0EBD000073B51C4D0F
:101C500007216C352800FFF71FFF00282BD0022139
:101C60001848FFF751FF041E27D0022108300CF05E
:101C700049FC022200210600FFF737F8002301AAE1
:101C80007370337021000F48FFF764FF002816D1EE
:101C9000019B9B681C78002C08D1812128004942B7
:101CA0000CF017FF084928000CF013FF01980CF006
:101CB00007FC200003E0452000E03720404276BDCD
:101CC000F80200200C200000FFFDFFFF70B501218D
:101CD00005001248FFF718FF041E1AD00830012132
:101CE000002D00D129000CF01EFC210000220B4821
:101CF000FFF730FF041E0ED109486C30002D03D0D1
:101D000020210CF0DBFE06E0212149420CF0E1FE2F
:101D100001E037246442200070BDC0460A20000064
:101D2000F8020020F7B50C00202100900192FFF787
:101D3000EBFE061E37D0202108300CF0E3FB2022FA
:101D4000002105000027FEF7D0FF019B9F4224D011
:101D5000287863781B1802331F2B04DD30000CF049
:101D6000AFFB162020E0431CDBB22B7062782918F1
:101D700002300132C0B24A7028702278EB185A70D3
:101D80002818627861680130FEF785FF63782A7849
:101D90000137D3182B700834D7E7002231000098A0
:101DA000FFF7D8FE01E037204042FEBD30B5018884
:101DB000438802000020994219D8052917D9C82163
:101DC00009018B4213D8F4249188FF34A1420ED824
:101DD000D288074D14000A3CA4B2AC4207D80131A6
:101DE0004B43920001219A4200DC011CC8B230BD75
:101DF000760C000010B5094C08216C342000FFF768
:101E00004BFE002801D0002007E007212000FFF74B
:101E100043FE0028F7D0FFF719FF10BDF80200209D
:101E2000012310B5062104000370C01806F00AF85B
:101E3000002804D14022A37952421343A37110BD5C
:101E4000F0B587B004AA0021CA48FFF783FE041E3C
:101E500067D1049B9B681B78002B06D1C648C74AF4
:101E600001216C3013600CF01FFE04980CF028FB6D
:101E700004AA0021C248FFF76DFE0600041E50D1DF
:101E8000BD4D049B28009968082201311630FEF7E9
:101E900002FF04980CF014FB310004AAB948FFF7C4
:101EA00059FE0600041E3CD1049883685A78AA7330
:101EB000DA78997812020A432A821A79EA731A7A2E
:101EC000D97912020A436A825A799B791B02134319
:101ED000AB820CF0F5FA310004AAAB48FFF73AFEEA
:101EE0000600041E1DD1049B06229968681C01315E
:101EF000FEF7D1FE04982E700CF0E2FA04AA31002D
:101F0000A248FFF727FE041E0BD12800049B4022A5
:101F100099681E300131FEF7BEFE04980CF0D0FA2D
:101F200002E0002C00D0D6E1934DAB7E5B0600D4DE
:101F3000E6E002AA00219648FFF70CFE0600041E08
:101F400000D0E0E02800029B08229968703001313F
:101F5000FEF7A1FE02980CF0B3FA02AA31008D48F8
:101F6000FFF7F8FD041E00D0CDE0029B99688B7846
:101F70004A781B0213432A0080321380002B0AD0B8
:101F8000CB78191C022B00D902212800C9B2843059
:101F90000A000DF045FC02980CF092FA2023AC7E6A
:101FA0001C4005D02B003A331B781B073CD515E0AD
:101FB00002217948FFF7A8FD061E00D17CE102212D
:101FC00008300CF09FFA01234470037022003100A6
:101FD0007148FFF7BFFD0028E4D093E002AA00217A
:101FE0006E48FFF7B7FD041E00D08CE002988368AE
:101FF0005F1C59789B78BE781B020B4336041A008D
:102000003300FE78134336067A793C791E43BB7958
:10201000120222431B0413431A00FB79AE671B060E
:102020001343EB670CF04CFA2B0070331B789B06C4
:102030002ED504AA00215A48FFF78CFD041E62D158
:10204000049883689E785A7836021643DA781B79AA
:102050001B02134301930CF033FA04215148FFF79C
:1020600053FD071E00D127E1042108300CF04AFA85
:102070006B461B7906708370019B360A1B0A4670FB
:10208000C370220039004748FFF764FD002839D1AA
:1020900008214548FFF738FD041E00D10CE1082156
:1020A00040180CF02FFA2B0070331A780F23910789
:1020B00000D52033920601D5402213432A00713205
:1020C00011780922114202D08022120113432A0002
:1020D0004032117806220A40062A02D17B32FF32B2
:1020E0001343002203701B0A43708270C270027196
:1020F00042718271C27121002B48FFF72BFD01E074
:102100001324DAE00400002C00D0E4E0AB7E9B0650
:1021100006D508212548FFF7F7FC041E4AD1CBE07D
:102120002E0080363388002BF3D1210004AA2048EA
:10213000FFF710FD041E00D0CDE03388002B14D132
:10214000049B9B689A78597812020A4332801A7964
:102150005B791B021343191C022B00D902212800B2
:1021600089B284300A000DF05BFB04980CF0A8F9EA
:10217000CFE7C046030C0000F8020020A0080020B2
:102180000310000001100000091000000210000000
:1021900003200000022000006D0C00001C20000045
:1021A0002F2000002420000001200000010C00006E
:1021B00005100000082108300CF0A4F910230022BB
:1021C000037078334370863BC3701E338270027194
:1021D00042718271C37121004048FFF7BBFC041EAD
:1021E00079D10100072204A8FEF77FFD072204A988
:1021F0002800FEF73BFD002804D1394E3368002B40
:102200000DD114E00722374902A8FEF744FD07224A
:1022100002A92800FEF72AFD0028EED04FE0002199
:102220001C682A0007230800A04707282FD02E4B40
:1022300019681A004B1C05D12C4B2D491B689BB209
:102240008B4217D02B4B19680123194212D02B70E7
:1022500013681A0AAA7040226B701B0CEB701B0AE1
:102260002B71224B52421B686B719BB21B0A1343AA
:10227000AB710CE02800FFF7D3FD041E2BD13368AF
:10228000002B04D05C682A0007230100A0472B78AC
:10229000012B0FD13F22AB799343C02B0AD1681C8D
:1022A000FFF794FC041E16D1280004216C300CF0BA
:1022B00005FC04E0162400E0372464420BE001F042
:1022C000C3FA041E07D1280002216C300CF0F6FB83
:1022D0002000FFF78FFD200007B0F0BD010C0000CB
:1022E000441B002094FF0000A4000010A800001070
:1022F000FFFF0000A000001010B5FFF7A1FD034B89
:102300001B68002B00D0984710BDC0469C080020D9
:10231000034B10B5D8331B68DB68984710BDC04627
:10232000F802002070B505000C1E03D1FFF7ECFB8E
:10233000041E15D00C4B9D420BD12000FFF7E8FF87
:102340000500002085420DD020000CF0B9F82800CF
:1023500008E006482100C4300CF0A3F8002001E09A
:102360003720404270BDC046350C0000F802002006
:1023700070B5072104000E48FFF7C6FB051E14D0F8
:10238000072108300CF0BEF82388002403701B0AD4
:10239000437002238470C3700371447184712900F7
:1023A0000348FFF7BFFF200001E03720404270BD27
:1023B00032200000F7B5070001AA00211648FFF7F8
:1023C000C9FB002826D1019883689D785A781C792A
:1023D0002D021543DA78240214430CF071F806211B
:1023E0000E48FFF791FB061E12D0062108300CF0B4
:1023F00089F83B88857003702D0A1B0A0471240A32
:102400004370C570447131000448FFF78BFF01E051
:1024100037204042FEBDC0462F2000002220000091
:1024200070B504000E000B480321FFF76DFB051E7D
:102430000CD0032108300CF065F80470240A4470B5
:10244000867029000348FFF76DFF01E03720404206
:1024500070BDC04621200000F7B5364C364B200039
:1024600062680C301340636000F05CFF0122431C83
:1024700052421900200000930CF0CAFD002844D1FC
:1024800008342CE001210198494298300DF00CFAF3
:10249000019FAC373868002802D00CF011F83D607D
:1024A00030000CF02BF8019DAC3528603000FFF7B0
:1024B0002FFF00280FD0019898300DF0B9F90021B6
:1024C0001F20FFF707FB28680BF0FAFF00233000FE
:1024D0002B600BF0F5FF009B0C34013B00932200B6
:1024E000009B083A002B21D05368DB03DB0E082B3E
:1024F000F1D11579002D0BD1104F29003800C430CF
:102500000BF0B2FF0197061EBCD162B6042002DFB9
:10251000012D04D12068183800F05EFEDBE7022DA3
:10252000D9D120682C3801F03FF9D4E70DF0ACF890
:1025300093E7C046C4020020FF0FFEFFF802002010
:10254000F0B5070089B080790BF03EFF438B38006F
:10255000032B4BD9FFF79AFA0378012B26D0032BD4
:1025600043D1BB68DD789A785C7819782D021543E1
:1025700022020A4313051B0D438038000421083052
:1025800014000BF0E0FFBB89AB4229D13800FFF704
:102590007DFA408800F0C4FF051E21D0220B3900CF
:1025A00000F0A4FD280001F02FF81CE0BC682278A0
:1025B000132A07D893408C221203134202D062B62A
:1025C000042002DF3B0008331800022100930BF0C7
:1025D000BAFF2378052B5BD1BD682E78002E0AD078
:1025E00038000BF06DFF00200FE338000BF068FFA0
:1025F0001620404209E3A8786B780002184300F0E7
:102600008FFF041E1DD00300EA784C331A700CF0C3
:10261000C5FA3100200000F0F5FEA5782680002DD7
:1026200032D1201D2900FFF737FA002806D02000FC
:10263000012100F0E7FE2800FFF7DCFB200000F09E
:10264000E3FFC04C06216C342000FFF725FA002878
:10265000C6D005212000FFF71FFA0028C0D10130A5
:10266000FFF734FBBCE7BD682B78002B29D0022193
:10267000002000F0A5FF041EB2D003002A784C33DE
:102680001A70002100F0BEFE200000F0BDFFA7E799
:102690003E2BA5D1BC68012100980BF054FF207897
:1026A00001380B289CD8FDF771FDDEFFF001B60064
:1026B000DC009BFF1C018201BF01E1019BFF9BFF2E
:1026C0009401AA786B7812022E1D1A430221300061
:1026D000009200F075FFEB780400012B0BD1212153
:1026E000984849426C300CF0F4F9002C06D13000C7
:1026F00000F058FE0400002C00D171E76B4620006A
:102700001B880722238031005030FEF7C4FA2B7B50
:10271000EA7A1B021343220066321380AB7B6A7B8A
:102720001B02134322006C3213802B7CEA7B1B02BA
:10273000134322006E321380EB7800936B461B78B4
:10274000E370009B012B19D1200031000722573084
:10275000FEF7A1FA20007B4E072231005E30FEF723
:102760009AFA300006216C30FFF796F9002805D060
:10277000F36F5B0602D50098FFF7A8FA032120004B
:1027800000F040FE23004D331B78032B3CD1EB7847
:10279000002B04D06B4B70331B781B0712D5022122
:1027A0006948FFF7B1F9051E0CD0022108300BF083
:1027B000A9FE2388290003701B0A43706248FFF7B3
:1027C000B1FD21E05F4B1A00713212781D00D30772
:1027D00007D52000FFF7CCFD002802D1201D802165
:1027E0000CE02B0070331B789B060AD52000FFF706
:1027F000E1FD002805D18021201D49000CF05EF983
:1028000002E02000FFF756F9200000F0FDFE002056
:10281000FFF7F0FAE4E6BC68A0786378000218439A
:1028200000F07EFE051E00D1DAE62378002B16D1DB
:102830002379E2781B021343020066321380A379E6
:1028400062791B02134302006C321380237AE2790F
:102850001B02134302006E32138000F003FC2800B9
:1028600013E7BD68A8786B780002184300F058FEA3
:10287000041E00D1B4E62B78002B04D1E91C0822F9
:102880007030FEF708FA2F4B1A00713211780122CE
:102890001D0011420CD0230071331B78134207D066
:1028A0002000FFF765FD002802D1201D802115E0E2
:1028B0002B0070331A7820231A4200D1B0E0220096
:1028C000703212781A4200D1AAE02000FFF772FDA0
:1028D000002800D0A4E08021201D49000CF0EEF873
:1028E000D2E6BB685D781A782D021543DA789978BC
:1028F00012020A4306A90A805A79197912020A4378
:1029000006A94A80DA79997912020A4306A98A80CF
:102910001A7A5B7A28001B021343CB8000F000FE7A
:10292000061E04D102212800FFF77AFD58E606A909
:1029300000F0B2FB002809D11E212800FFF770FD2E
:1029400033E0C046F8020020162000000E21B048F7
:10295000FFF7DAF80090002827D00E2108300BF09E
:10296000D1FD040000210E22FEF7BFF906AB1B7853
:102970002570A37006AB5B782D0AE370657006AB1B
:102980009B780099237106ABDB78A148637106AB95
:102990001B79A37106AB5B79E37106AB9B7923725C
:1029A00006ABDB796372FFF7BDFC30006DE6BA68F9
:1029B000507813780002184300F0B2FD041E00D1D5
:1029C0000EE6043093490CF084F8C30500D45BE6AE
:1029D00026E0BA68907853780002184300F0A0FD12
:1029E000041E00D1FCE58121051D494228000CF0A0
:1029F00070F8030600D447E6874B70331A7820231B
:102A00001A420DD02200703212781A4208D02000EB
:102A1000FFF7D0FC002803D18021280049005DE7A2
:102A20002000FFF747F82FE611217B4DBC686C357D
:102A3000494228000CF04DF82378002B08D1611C86
:102A400040227648FEF727F9082128000CF036F8D6
:102A5000734B1D68002D00D1C2E5002022782B6841
:102A6000824200D1601C98476D68F3E76D4CBA68EC
:102A70002368002B00D1B3E500201178814200D1FA
:102A8000501C984700232360AAE500980BF063FDD3
:102A90000390039B002B00D1A2E5BB68092100989D
:102AA00001930BF050FD019B5F4E0133029333689D
:102AB000002B1CD0019B019A1B7A0098D3185D7AD9
:102AC0000BF05CFDBB8904000493019B69B21B7A87
:102AD0003668BB81019B02981A78009BB0473B0087
:102AE000A4B210331C196B461B8ABC60BB814A4DD3
:102AF000019B2E006C36082130001C78FEF7CCFFBD
:102B0000002877D1012C75D80121029800F058FDDA
:102B1000041E6FD0FFF79AF800285DD10221300023
:102B2000FEF7BAFF002802D0681CFFF74FF8230019
:102B300057330722384918000593FEF7ACF82300F5
:102B40005E330722029918000493FEF7A4F81921B6
:102B50003648FEF7D9FF051E3ED0192108300BF08C
:102B6000D1FC192200210600FEF7BFF860230022E5
:102B70003370B37000237270F37007220499701DD4
:102B8000FEF789F8059B00221B7829003373230088
:102B900068331B88254873731B0AB37323006A3399
:102BA0001B88F3731B0A337423006C331B88737404
:102BB0001B0AB37423006E331B88F3741B0A33752E
:102BC000FEF7C8FF002807D12000022100F01AFC00
:102BD000200000F019FD0DE023001F224C331A7075
:102BE0000021200000F00EFC200000F00DFD002070
:102BF000FFF700F9019B0098197A01310BF0A3FC53
:102C0000039B013BDBB2039343E709B0F0BDC04631
:102C100020200000FFFEFFFFF802002058080020DF
:102C20009808002054080020A00800200D20000073
:102C3000F0B585B004008568FEF728FF0378012B06
:102C400010D1A289012A0DD92A78132A0AD89340D3
:102C50008C221203134205D007E00E2B5DD020001A
:102C60000BF02EFC62B6042002DF2600083602219B
:102C700030000BF068FC2B780F2B10D1A5680421D5
:102C80006F7830000BF05FFC28782100FEF722FF00
:102C9000002F5FD0324898300CF0CAFD5AE0132B59
:102CA000DBD10027A36801931B780293029ABBB281
:102CB0009A424FD9019ABB00D31898785A781E7956
:102CC00000021043DA78360216430396EFF31086BB
:102CD00072B600F025FC051E03D1002E1BD162B692
:102CE00019E0002E00D162B6039E002E10D0EFF343
:102CF000108372B62969002929D00A6868692A6197
:102D0000814200D16A61002B15D162B6002912D12F
:102D1000280000F079FC0137C8E7A36803213000E0
:102D20001D780BF010FCA36821001878FEF7D2FE86
:102D3000002D0FD0AEE7280018300CF00BFB280058
:102D400000F08CF9013E0CF073FDB6B2CDE7002B1C
:102D5000DED1DAE720000BF0B3FB002005B0F0BDB8
:102D6000F8020020094AD8321368002B08D1816884
:102D7000002907D0C168002904D01060180003E0C2
:102D8000452000E0162040427047C046F80200206F
:102D9000F0B5224D89B02F00D8373B680790002B43
:102DA00032D0280001216C300BF088FE0126304023
:102DB000041E2BD11A4B079A1A491A600923A02224
:102DC0005B42059004900393029001900090164B93
:102DD000920016480CF01EFF3B689B68984700283D
:102DE00017D1079B002B02D1FFF72AF811E028002A
:102DF000310068300BF062FE30420BD129000C48E4
:102E000060310CF0A7FA05E0132400E04524644289
:102E100000E00400200009B0F0BDC046F802002028
:102E20009C0800208421002059240000A4080020D0
:102E3000481C002000207047F0B585B00192027850
:102E4000039304000D004388D20707D44B4A927BBA
:102E5000082A03D89F2B01D8162625E0A288934282
:102E6000FAD81F2BF8D98023DB019A42F4D8434FBC
:102E7000052138006C30FEF70FFE061E78D1019A4E
:102E800029003F48FEF74EFF00286FD1039B002B1F
:102E90000CD12378DB0709D40F213A48FEF734FE22
:102EA000019000280AD13726764263E00A9A0399F6
:102EB0003548FEF737FF0028EED057E001980F2184
:102EC00008300BF01FFB05000F220021FDF70DFF5E
:102ED000A3782B70E3786B702379AB706379EB7018
:102EE00007236B732378DB070DD5380002216C3084
:102EF000FEF7D2FD002802D0781CFEF767FE3B7873
:102F00006B7100231CE0A068002806D03F224379A3
:102F10009343A1D1FEF75AFE01E0FEF785FE029031
:102F2000029B002B04D001980BF0CAFA029E21E00C
:102F300001236B71039B002B01D0022300E00323CC
:102F40002B71002201990F48FEF704FE00280DD1D5
:102F50000130FEF7BBFE002808D123789B0709D477
:102F6000380040216C300BF0A9FD03E0060001E0C1
:102F7000452699E7300005B0F0BDC046F8020020B4
:102F800008200000062000000920000070B50500A0
:102F900006480BF021FA041E06D000210BF07CFA43
:102FA0002000FEF773FD0570200070BDD4070020DF
:102FB00010B50100EFF3108272B600200C4BAC3359
:102FC0001C681860824200D162B6002C0BD0200031
:102FD000FEF75CFD0123002103702000A1810BF0AE
:102FE0005BFA200002E00120FFF7D0FF10BDC046D1
:102FF000F802002070B50500074B1C68002C09D0B2
:103000002368002B04D02A004C32117828009847FE
:103010002469F3E770BDC0462809002010B5038974
:103020000400002B05D0C0680BF04AFA0023E360CF
:10303000238110BD10B50400200000212C300BF0BE
:1030400013FA002802D00BF03BFAF5E72000FFF757
:10305000E5FF200048300BF01AFD10BD0048704716
:103060007C03002070B505000A4B1C68002C0FD0B3
:10307000E668002E0AD02B002A0029006E336C323D
:1030800066311B88128809882800B0472469EDE75B
:1030900070BDC04628090020F8B5070008000E00E2
:1030A000FEF784FE051E01D1002513E00A4B1C68C3
:1030B000002C0FD0A368002B01D12469F8E7310060
:1030C000380098470028EFD03000FEF76FFE002848
:1030D000F3D1E9E72800F8BD28090020024B1A685F
:1030E000186002617047C0462809002070B50400CE
:1030F0000D00012A14D0022A32D18B685E781A782A
:10310000038936021643002B01D0FFF787FFAB89F6
:103110000436F31A9BB22381002B25D0E56034E0FE
:103120000389002B1CD08E89B34219D3C0680830A4
:103130000BF029FA864213D8E068AA89A9680830FA
:103140000BF0E7F92389AA8928009B1A23810BF049
:10315000B7F92389002B18D1E5682381E36003E0E8
:103160002000FFF75BFF08E0AB681A785B781B0272
:103170001343AA890433934203D028000BF0A0F92B
:1031800003E02900200000F0B4FC70BD70B505001C
:1031900088790C0016000BF017F9438B032B04D829
:1031A00020000BF08DF9162008E02B004D331A7823
:1031B000032A05D020000BF083F9392040420AE0B1
:1031C0002800E3892C30E318133393431E60210059
:1031D0000BF067F9002070BD70B5050028000021D4
:1031E00018300CF007F9041E0FD06368002B01D0D3
:1031F0002800984700236360044B1A6822605A68CD
:103200001C60002AEAD15C60E8E770BD0409002078
:10321000F0B50F0001210500404C85B04942200067
:10322000029301920CF040FB2800FFF7D5FF2B0022
:103230004D331E780394032E61D1380004210830E9
:103240000BF079F90221019B1C032B881C43A4B2CB
:103250000470240A4470BB89043B9BB283701B0A30
:10326000C370FB89FB181333B3432D4E1A681970D2
:1032700034687168236833608C4200D17360626087
:10328000EFF3108272B6002323606B69002B02D12A
:103290006C612C6101E01C606C61002A00D162B697
:1032A0003800FFF735F801230193002832D0EFF3FF
:1032B000108072B600222B69002B14D09C420FD1D3
:1032C00023686969002A04D12B618C4205D16B61A6
:1032D00003E013608C4200D16A610023236002E0A6
:1032E0001A001B68E8E7002800D162B6002363607B
:1032F0003368236073683460002B00D174600398D6
:103300000CF096FA00230193029B002B02D03800A8
:103310000BF0D6F8019805B0F0BDC0467C03002044
:103320000409002000221D4B70B5012105005A60E0
:103330000BF050FE1A4C200048300BF0B3FB260077
:1033400000280ED023004D331B78002B0BD14121D8
:10335000201D49420BF0BDFB430604D52000FFF7BA
:1033600069FE012019E033004D331C78032CF8D19D
:10337000330028002C330C30002204210BF02AFEED
:10338000022328002B743300183018330022042144
:103390000BF020FE012320002B7770BD0C090020CC
:1033A0002C090020F8B5154C0700260048363000DF
:1033B0000BF078FB05000020002D1DD1A422290070
:1033C0002000FDF792FC012130000BF06DFB200086
:1033D000072239005030FDF75EFC230018226833C5
:1033E0001A80230020006A3310327C30A5701A80C6
:1033F00003490CF0E9FC2000F8BDC0462C09002070
:10340000E936000070B506004D36357804008D426F
:103410007CD03170002D02D148300BF02DFB337879
:10342000002B1AD0032B71D1A378022B6ED0200071
:103430002C300BF043FF200018300BF03FFF002131
:1034400033480BF0A9FE002320002364636400F0DE
:1034500081FA2000FFF7CEFD58E0A378022B37D089
:10346000EB1E012B2FD8200000F0AEFA294B1D686F
:10347000002D21D06B68002B04D022004C32117833
:10348000200098472D69F3E719686069216183423C
:1034900000D16161002A02D162B6002B27D0002240
:1034A0005A601D4A1168196051681360002900D1E3
:1034B00053601A480CF0BCF9EFF3108272B623691E
:1034C000002BE1D111E0022D07D12000FFF792FD82
:1034D000200048300BF0DBFA18E0012D16D1230054
:1034E0004C331B78002BF3D0EFE7002AD4D0A3781D
:1034F000002B03D120007C300CF07CFC4021201DEF
:103500000BF0DCFA002102480BF046FE70BDC0460D
:103510000C09002028090020040900207C03002059
:1035200070B50C4C06002500483528000BF0BAFA9F
:10353000002290420CD023004D331B78033B012B1B
:1035400006D82388B34203D128000BF095FA220055
:10355000100070BD2C09002070B50D0001000400A2
:10356000503107222800FDF781FB00280AD0E378BC
:103570002100002B01D15E3100E0573107222800E5
:10358000FDF774FB70BD000070B50C4C0600250003
:10359000483528000BF086FA00280DD0A378002BC0
:1035A0000AD131002000FFF7D7FF002804D12800FE
:1035B0000BF062FA200000E0002070BD2C09002012
:1035C00070B5104C0500200048300E000BF06AFA70
:1035D000002815D0A378002B12D1002D0AD123008A
:1035E0004D331B78B3420BD1200048300BF044FA26
:1035F000200006E029002000FFF7AEFF0028EED0F3
:10360000002070BD2C09002010B548300BF03FFAA7
:1036100010BD0000F8B507000D0015480E21FEF79B
:1036200073FA061E21D00E2108300AF06BFF040049
:103630000E220021FDF759FB3B78310023707B7887
:103640000B4863702B78A3706B78E370AB782371B1
:10365000EB7863712B79A3716B79E371AB7923728A
:10366000EB796372FEF75EFE01E037204042F8BD61
:1036700013200000030070B566331B880A8804001D
:103680000D009A420ED84A889A420BD303006C333D
:103690001A888B889A4205D103006E331A88CB882A
:1036A0009A421BD020007C300CF0A4FB0D4B7033F1
:1036B0001A7802231A4204D02200703212781A4279
:1036C00002D1E378002B04D129002000FFF7A2FFEC
:1036D00006E02900200000F02BFA01E045204042DE
:1036E00070BDC046F802002007B503006946143BD0
:1036F0001B8802000B800300123B1B887C3A4B8026
:103700000300103B1B888B8003000E3B1B881000BE
:10371000CB80FFF7AFFF07BD70B50C00002800D1CC
:103720000548012149420AF057FE0500211D0AF013
:10373000B3FE280070BDC0468C070020F7B50F000F
:10374000002105000800FFF7E7FF2A780400032A9C
:1037500003D00AF0B5FE002022E0C3890600C3189A
:103760001333934300220F4D1A6080352B8808369F
:10377000300001930AF007FF019B834201D22D889C
:1037800003E030000AF0FFFE85B22A00B96830007D
:103790000AF0BFFE3800290008300AF0D4FE2000ED
:1037A000FEBDC046F8020020F8B507004D373B7853
:1037B0000500002B0AD14121043049420BF089F960
:1037C000430603D52800FFF735FC3AE02800002126
:1037D0002C300AF049FE041E02D162B6042002DF3A
:1037E000184E8289330080331B889A4202D8002306
:1037F0001A001DE001003800FFF7A0FF011E1DD0D8
:10380000012300222800FFF703FD002816D0330013
:103810008033A2891B889A4208D921003800FFF71B
:103820008DFF011E0AD001231A00EBE700230122BD
:1038300021002800FFF7ECFC002802D120000AF04C
:103840003FFEF8BDF80200200C4A0D4B116810B580
:1038500019605168002900D1536051689B6008339A
:103860001360002900D1536001F094F901F0C4FD08
:10387000041E01D100F09AF9200010BD04090020B7
:1038800018090020704700000C20054B40421A68C0
:10389000002A03D10348586010000B607047C046EF
:1038A000D4090020D8030020704700000023020044
:1038B0008360054B08325968002902D15A601A60AA
:1038C00001E00A605A607047640A0020036C30B55A
:1038D000002B20D00022083B002B1CD08B4211D1A2
:1038E0000D008B680835446C002A04D10364A5429E
:1038F00005D1436403E01360A54200D14264002374
:103900008B6008E01A000832002A04D09B68002B64
:1039100001D0083BE0E730BD036810B50400002B80
:1039200006D043685B68002B00D0984700232360D3
:10393000E368002B01D02000984710BD103810B567
:10394000040001000068FFF7C1FF2000FFF7E4FF5B
:1039500010BD00001A4B73B51B6806001C00083C24
:10396000002B2BD0002C29D001A930006368984788
:1039700000281EDB019D23882A00280054322B8753
:103980001049138010300CF01FFA2A000023716CCC
:103990000832AB60994202D17264326401E00A607D
:1039A00072640198EB6043682E601B68002B00D0A6
:1039B0009847A468002C01D0083CD3E773BDC046EB
:1039C000640A00203D390000036C10B5002B15D0AF
:1039D00018000838002811D01B681C00083C002B78
:1039E0000AD0FFF799FF002C08D0A3682000002B15
:1039F00002D0083B1C00F4E7FFF78EFF10BD10B5A6
:103A00000431FFF789FE10BDF8B50600100015005F
:103A10000C00083004211F000AF08DFDAB89847072
:103A2000043B9BB20370240A1B0A4370C4703A0023
:103A300029003000FFF7AAFBF8BDF8B58B89060016
:103A40000C00032B32D908008D680830EF78AB7872
:103A50003F0204211F430AF076FDA389BB4225D112
:103A60006C78002C22D02B78012B1FD0132B1DD06B
:103A7000042100203768FFF74FFE060008360500D6
:103A8000042130000AF03EFD01234470022100248D
:103A900003708170C47030000AF034FD230004709C
:103AA00044702A0005213800FFF7AEFFF8BD036C13
:103AB000181E0DD0083B1800002809D0030054330D
:103AC0001B888B4204D08068002801D00838F3E7B7
:103AD0007047036C181E0BD0083B1800002807D055
:103AE000038F8B4204D08068002801D00838F5E7A6
:103AF000704770B58B8906000C00032B13D920008A
:103B00008A680830D57893782D021D4304210AF085
:103B10001AFD29003000FFF7DCFF002803D04368BE
:103B200021001B69984720000AF0CAFC70BD000004
:103B3000F7B51D4B0C001A780190511CC9B2002931
:103B400001D0197001E002321A70042100201D78A2
:103B5000FFF7E2FD070008370600042138000AF0ED
:103B6000D1FC12234570082100250370C5708170B7
:103B700038000AF0C7FC237832000370637805210F
:103B80004370A3788370E378C370237903716379FA
:103B90004371A3798371E379C3712B000198FFF717
:103BA00033FF2800FEBDC046D009002010B50248F2
:103BB000FFF77CFE10BDC046EC03002006207047D6
:103BC000002310B50849DA00545C844202D18A18F7
:103BD000937806E001331B2BF5D10023420600D475
:103BE0000633180010BDC046900101000C2070B5CE
:103BF0000A4C0E0025684042002D0ED12000084BD3
:103C00002900636090300AF04FFF0222200011006B
:103C1000C8300BF005FE2800346070BD6C0A00202F
:103C20000404002010B504000069002801D00AF047
:103C300047FCA368002B01D02000984714220021E4
:103C40002000FDF752F810BD10B5083108000AF049
:103C50008AFC002010BD0000F0B50E6887B0336804
:103C600000270393A02305000C009B0104A9006812
:103C70000F704B80FDF7DEFEB84218D0304B05A91F
:103C800028680F704B80FDF7D5FEB8420FD023692E
:103C90000120BB4251D0D97898782A8A0902014381
:103CA00001208A4249D99A70120ADA7045E06168A7
:103CB0002868FDF7BFFE002802D0002323613BE007
:103CC000E36856361A78A068002A06D033888189BE
:103CD0005B1A934201DA00202FE0042108300AF039
:103CE00011FC002720612B8AA168DAB21B0A02703E
:103CF00043708270C3708A89338889689B1A9BB22B
:103D00008A18009729006E680398B0470100B842EE
:103D1000E1DBE0680B1D0278BA4201D1037006E0D6
:103D20009A4204D0A2689389043B9381D3E7A368A5
:103D3000083318000AF0E6FB012007B0F0BDC046CA
:103D4000012800008B6870B505000C000E68002B80
:103D50000CD14868012108300AF0D4FB2B68A06020
:103D60001A78534253410222D31A0370A3681B7876
:103D7000012B02D0022B1BD03AE000202B681B78CD
:103D8000834236D16068042108300AF0BBFBE06052
:103D90002B7C563603706B7C43702B689A7882704C
:103DA000DB786268C37033889089181A04231BE09B
:103DB0002B6800201B78022B1BD160681221083071
:103DC0000AF0A0FBE0602B7C296803706B7C10225A
:103DD0004370E3680131981CFCF75DFF626856365A
:103DE00033889089181A122383428041404200E0B0
:103DF000002070BDF0B500270E688BB03368050059
:103E00000393294B0C00006804A90F704B80FDF749
:103E100011FEB84202D10023A36041E0A02305A90E
:103E20009B0128680F704B80FDF704FE00280ED020
:103E3000A3680126002B34D0D97898782A8A090201
:103E400001438A422DD99A70120ADA7029E03300B0
:103E5000626856331B88928906009B1A032B20D96F
:103E6000009006AA1023290003986F68B847021E25
:103E7000D1DB237C9842CED106A9E068FCF7F6FEA0
:103E80000028C8D160686674083004210AF03AFB43
:103E9000A0602B8ADAB21B0A027043708270C37072
:103EA000012630000BB0F0BD0128000002001723EE
:103EB00010B504005632138006494387A0300BF03A
:103EC00083FF2300002298331A605A60206801F0B3
:103ED0004DFA10BD5943000010B50200837CC8079D
:103EE00006D515240220234214D05468002C11D08A
:103EF000880706D52A24032023420BD09268002A83
:103F000008D0194030230520194203D1073008405A
:103F100000D00F2010BDF0B50B6885B002931B6870
:103F200006000C00006849680393FDF783FD012536
:103F3000071E50D115213000FFF7CEFF051E20755A
:103F400006D0E3681D78002D45D027753D0042E07E
:103F50002075A068022108300AF0D4FA2061337C71
:103F6000029F0370737CA168437056378A893B882F
:103F7000896800959B1A8A1871689BB28C460398D1
:103F800031006646B047011E08DA0B00FF330E20F1
:103F9000FE2B01D84942C8B220751CE0E0688B1C9A
:103FA0000278002A01D1037006E09A4204D0A26888
:103FB0009389023B93810EE0A068012508300AF046
:103FC000A1FAA2683B8892899B1AE2681278934210
:103FD00000DC0025EDB2280005B0F0BD10B58B89DE
:103FE0000400022B09D0102B10D1022303708A8900
:103FF00001308968FCF74FFE06E0002308310370AA
:1040000008000AF0B0FA6080012000E0002010BD36
:1040100010B50421FFF74BFD0400C8300BF008FC7D
:10402000230094331B68002B05D02100024AA031E5
:1040300002480BF017FF10BD30750000481C00202F
:1040400010B5036801244D331B78032B04D1903045
:104050000AF028FD80108443200010BD0620704720
:10406000030010B54D331B78032B01D000200AE06C
:104070000421FFF72EFD041EF8D090300AF012FD47
:104080004307F3D4200010BD10B50421FFF70FFD46
:10409000C8300BF0CDFB10BD10B50421FFF707FDB4
:1040A00002210400494290300AF013FD2000C8307C
:1040B0000BF0BEFB10BD10B50421FFF7F8FC032187
:1040C0000400494290300AF004FD2000C8300BF093
:1040D000AFFB10BDF7B50C002A210600FFF7FCFE70
:1040E000051E207519D1628A01900092237CB76861
:1040F000E26831002068B847002802DB237C984240
:1041000008D00300FF330E22FE2B01D84042C2B27A
:10411000227503E02575012500E000252800FEBD7D
:10412000030070B59433050019600E0001210400EE
:10413000C835494228000BF0B7FB2000FFF780FF8D
:10414000002805D128000BF073FB392040421FE006
:104150003569280008300AF011FAB081AB8930695E
:10416000F38124680AF0CAF9336905009B6818785E
:10417000FFF726FD0138C0B2064B042802D8064BD3
:104180008000C35820002A000421FFF73DFC0020D6
:1041900070BDC0468940000068020100F0B504000F
:1041A000250085B0A03094350393029117000BF0E1
:1041B00021FE2B68002B1AD01869002804D00AF0C1
:1041C0007FF900222B681A612B6800265A68206844
:1041D00094465E60029A009303993B006746B84795
:1041E00028684368B34201D1FFF71CFD2E6023000D
:1041F00098331968002908D00A6858681A60814203
:1042000000D15A602000FFF78BFF002005B0F0BD01
:1042100010B500238A898968FFF7C0FF10BD10B56B
:10422000FFF7F6FF10BD10B5FFF7F2FF10BD10B598
:10423000FFF7EEFF10BD10B5FFF7EAFF10BD10B598
:10424000FFF7E6FF10BD10B5FFF7E2FF10BD10B598
:10425000FFF7DEFF10BD10B5FFF7DAFF10BD10B598
:10426000FFF7D6FF10BD10B503000C00002814D0D6
:1042700089684B780A781B021343162B03D8002257
:104280000423110006E002001723563243871380EF
:104290000023A289FFF782FF0300180010BD03006E
:1042A00070B594331A688C680E23002A0AD01369FB
:1042B000002B06D01D009189103569189960D289AC
:1042C0009A81E37800221100FFF768FF70BDF0B516
:1042D00005002C002E0085B00421C83490300AF06F
:1042E000EDFB20000BF0A4FA983620000BF0A0FAAA
:1042F00034680396002C0ED10021039B196059608D
:104300002B0094331B688B4217D00E230A00280021
:10431000FFF744FF11E0276863681E1E05D00023E5
:1043200000941A000E211800B0472000FFF77AFC15
:10433000002FE1D03C003F68EEE705B0F0BD10B5BE
:104340000400FFF7C4FF206801F01CF8DC22002104
:104350002000FCF7CAFC10BDA03810B50400FFF720
:10436000B6FF206801F00EF80023236010BDF0B501
:104370000E680700886833680C0085B0002108309B
:1043800003930AF0BFF80023E0602374152138007E
:10439000FFF7A2FD051E20741ED1A16856368A893A
:1043A000338889689B1A8A18A1889BB200917E681D
:1043B00039000398B047011E08DA0B00FF330E20C6
:1043C000FE2B01D84942C8B2207406E0A06801253E
:1043D00008300AF097F800E00025280005B0F0BD8D
:1043E00070B50D001400FFF73BFE031E0FD05633CF
:1043F0001B88013400209C4209D80100FFF7FFFA16
:104400000121040008300AF07DF80570200070BD1D
:1044100010B50831046808000AF0A5F800221E2132
:104420002000FFF7DDFF021E04D0034B0421200013
:10443000FFF7EAFA002010BDB7400000F8B58B681E
:1044400004001A785B7804201B021343162B1CD936
:104450002768022203213800FFF7C2FF06000E2062
:10446000002E12D03000022108300AF04BF8172538
:1044700000230570437032003800044B0421FFF71D
:10448000C3FA0020658756342580F8BD99400000A6
:10449000F7B50F0014000121042206000193FFF775
:1044A0009FFF051E10D0042108300AF02BF86B4640
:1044B0001B794470240AC37007708470034B2A0070
:1044C00004213000FFF7A0FAF7BDC0469940000074
:1044D000F7B58B8906000F00002B51D038008B6890
:1044E0000830012101930AF02EF8019B254A1C781F
:1044F0000023DD00A95CA14207D1224B5B199C7807
:10450000012C06D0052C0BD111E001331B2BF0D16F
:104510002BE03000210090300AF0D0FA20422FD159
:10452000184BBA895D196B789A4212D307E03000B4
:10453000022190300AF0C2FA8307F1D520E06B68BF
:104540003900300098470300012C19D1002817D0FA
:1045500002E0012C14D10423019A117800290FD014
:1045600000223068FFF794FF0AE02000FFF728FBE5
:10457000002805D0002C03D0062300222100F0E7FC
:10458000F7BDC04690010100F0B58B898FB00700E0
:104590000E00062B02D00425142B79D130003B6885
:1045A00004210193B36808305C781A78240214431C
:1045B0009A78DB780E251B021343009309F0C3FFA2
:1045C000310004A8FFF70AFD002861D0002C07D0B5
:1045D0000025009BAB4202D09C4201D808E0009C21
:1045E0000123220010210198FFF752FF00254FE020
:1045F00002AB1D70A02302AA9B01110004A85380E6
:10460000FDF718FA00280DD0234B03A904A80D705C
:104610004B80FDF70FFA002804D010232200190068
:1046200001982BE03E681422002109A8FCF75DFBED
:10463000012211213000FFF7D3FE0E250B90002838
:1046400026D004AB0121083009970A93002709F00E
:1046500059FF09AB0C90114A0770009920000D9783
:1046600000F07CFD0C9B1D780093BD4209D10B9896
:1046700009F026FF0A23220010213000FFF708FF6F
:1046800006E0074B0B9A04213000FFF7BDF93D000F
:1046900028000FB0F0BDC04601280000593C0000C2
:1046A00099400000F0B587B0056801AC14220600FF
:1046B0000F0020000021FCF718FB00220F2128002A
:1046C000FFF78EFE0E23A060002823D00196BB8941
:1046D000012B18D93800083009F045FF01230F4A93
:1046E000237401002300060000F038FD237C002B1A
:1046F000EDD0A06809F0E4FE237C32000E212800F2
:10470000FFF7C6FE05E0064BA26804212800FFF76C
:104710007BF90023180007B0F0BDC0466F430000CE
:1047200099400000F0B58BB01E0010AB1B880090C4
:104730000191029203930125002E33D0076805AC46
:10474000142200212000FCF7D0FA00220299380040
:10475000FFF746FE0D35A060002823D0009B134ACA
:1047600005936B469B893100A3800123300023749D
:10477000230000F0F3FC257C002D0DD00025A0685F
:1047800009F09EFE019BAB420CD0237C32000199C4
:104790003800FFF77DFE05E0054BA26804213800D4
:1047A000FFF732F928000BB0F0BDC0466F430000A0
:1047B0009940000007B58A68537811781B020B43B3
:1047C0009178D27812020A4300920C210D22FFF751
:1047D000A9FF0EBD07B58B680A211A785B781B020A
:1047E0001343002200920B32FFF79CFF0EBD000026
:1047F000F0B58FB001908B890E00062B02D00425F6
:10480000142B59D13000019B04211F68B368083074
:104810005C781A78240214439A78DB780E251B0200
:104820001343009309F08FFE310003A8FFF7D6FB76
:10483000002841D0002C06D0009B002B02D09C42C7
:1048400001D808E0009C0123220008213800FFF76E
:104850001FFE002530E0019B08AE1F6818220021D2
:104860003000FCF742FA012209213800FFF7B8FDB9
:10487000B060002820D0019B01210893083003ABD1
:10488000736009F03FFE0023F06003700A230C4AB6
:10489000337500993300200000F060FC357D002D59
:1048A00004D0B06809F00CFE337DCDE7054BB2684B
:1048B00004213800FFF7A8F828000FB0F0BDC0466B
:1048C000173F000099400000F0B50D000368070095
:1048D00028008BB001938B6808305C781A7824022A
:1048E0001443DA78997812020A4300925E791A79B1
:1048F00036020621164309F026FE0290002C06D04F
:10490000009B002B02D09C4201D808E0009C0123B0
:10491000220006210198FFF7BBFD002636E0A02308
:104920009B019E4201D00A23F2E7AB8905AD0393B8
:104930003B681422002128000193FCF7D6F90022DD
:1049400007210198FFF74CFD0E26686000281DD056
:10495000029B0597EB606B461B7B00272B740A2399
:104960000C4A6B7400992B002000AF6000F0F6FB3E
:104970006E7CBE4204D0686809F0A2FD6B7CC7E77C
:10498000054B6A6804210198FFF73EF830000BB030
:10499000F0BDC046F53D000099400000F0B58B68C1
:1049A00085B05C781A78240207000668144308D0A2
:1049B000DD789A782D02154302D0AC4201D808E088
:1049C0002C000123220004213000FFF761FD0020AC
:1049D00024E0102200216846FCF787F90022052117
:1049E0003000FFF7FDFC030001900E20002B15D0D6
:1049F00029006B460A4A2000009700F0AFFB029D99
:104A0000002D04D1019809F05BFD0A23DAE7054B7C
:104A1000019A04213000FEF7F7FFD8E705B0F0BD9A
:104A2000453D000099400000F0B58BB0019310ABFC
:104A3000170004CB05001B780E00029200211822FB
:104A400004A80393FCF751F9002F19D104AB1E728F
:104A5000002304AA5382029B0199079313006A461C
:104A6000127B08001A74012304AA13751300194A53
:104A7000049500F073FB04AB1C7D002C0AD11EE0F2
:104A8000002239002800FFF7ABFC0E240590002817
:104A9000DCD11CE0002F0DD0059809F011FD002E8F
:104AA00001D1002413E004AB1B7D019A31002800E2
:104AB000FFF7EEFC182EF4D104AB1C7D07E0059A3D
:104AC000002AEED0044B04212800FEF79DFF2000B1
:104AD0000BB0F0BDD540000099400000F0B50E00CD
:104AE0000C008B6807681A785B7808361B0285B063
:104AF000134301213000039309F01DFD210038000C
:104B000000F077FC05000020854217D1012130001C
:104B100009F019FD0221300009F015FD039B012069
:104B2000002B0BD0A3892A000C3BDBB20193A368B6
:104B3000290000933800039BFFF776FF05B0F0BD16
:104B400037B50568080008300C0009F00CFD0300BB
:104B50000120002B08D0227B28000192A26800923D
:104B600000221100FFF760FF3EBD37B50568080061
:104B700008300C0009F0F7FC03000120002B08D0DE
:104B8000227B12210192A268280000921322FFF7D3
:104B90004BFF3EBD10B50348FEF788FE00F03AFA21
:104BA00010BDC046F803002010B50C0000281CD032
:104BB00000291AD0FFF754FA002818D003009433C4
:104BC0001B68002B0DD00200002398325068236030
:104BD000984202D1546014600BE0046054601800E5
:104BE00007E02100FFF79CFA03E0162000E03920DF
:104BF000404210BD7047086000207047F8B50023A0
:104C00000A261A004D68AA420BD0340054430F689C
:104C10003C1927891C1CBB4200D23C1CA3B20132A8
:104C2000F1E70A899A4203D00B81CA6819009047BC
:104C3000F8BD10B5029B0A009C695969A04710BDD8
:104C400010B502480AF0F4FD10BDC046180500205A
:104C5000F0B585B003910AA9029009880398C56848
:104C600002294ED8C9181E0002294CDC537812784C
:104C70001B021A43170000246B689C4209D20A21C8
:104C800061432B68029859180131FEF765FC002832
:104C900005D16B689C4221D100240A220BE001342B
:104CA000EAE7110061430191019829680818017829
:104CB000002903D001349C42F3D126E0029901304F
:104CC00050310722FBF7E7FF002F03D001232A68AA
:104CD000019953546B689C4206D116E0002F03D112
:104CE0000A2363432A689F540A235C432B681C19D8
:104CF00027812B89BB420AD029000398FFF77EFF4A
:104D000005E0072602E00D2600E01126764230007D
:104D100005B0F0BDF7B5124B8268070001919A42C9
:104D20001CD1C5682C89002C18D16B689C4215D207
:104D30000A2666432B68019899190131FEF70CFC8D
:104D4000002809D12B689E193389002B04D0290033
:104D50003800FFF753FF01E00134E6E70120FEBD14
:104D6000514C000070B51C4A046813688188002B00
:104D700018D05368002B2CD0083B1D002E6814253A
:104D80009B886B43F318143B1B8A0BE000290FD060
:104D9000258A002D09D101339DB225822B000139CE
:104DA000143489B2002CF1D102E0AB42F6D30DE00D
:104DB00000230100836050680831984202D151609D
:104DC000116008E001605160180004E016204042C4
:104DD00001E01B68FFDE70BD6C0B0020F0B585B0F4
:104DE000029103921B219A1C07001E00FFF7F8FA9C
:104DF000051E1ED00300083302211800019309F09C
:104E000081FB6B4604001B7A31000370029B1B0A76
:104E10004370019809F076FB32000399A01CFBF760
:104E20003AFF380000232A000421FEF7EDFD0020A0
:104E300001E00C20404205B0F0BD0000F7B50A8C3F
:104E40000C0002321D210700FFF7CAFA061E27D008
:104E50000300083302211800019309F053FB0500F9
:104E600063691A7C02705B7C4370218C019809F0A5
:104E700049FB228CE169A81CFBF70DFF0A4B266158
:104E8000636000232100A3603800FFF78DFE04005B
:104E90000020844206D0300009F012FB200001E01F
:104EA0000C204042FEBDC046334C0000F0B5002649
:104EB00085B002AB02AA1E70274B05000C000068EB
:104EC00011005380FCF7B6FDB0420AD0234B03A972
:104ED00028684B800E70FCF7ADFD431E9841C0B2B0
:104EE00037E01F4BAA689A4201D0012031E0070049
:104EF000EE6873689F42F8D23289A3889A4226D11D
:104F00000A207843336818180130FEF73DFB051E70
:104F10001DD003004D331B78032B02D0FEF774FB2A
:104F200015E0A388022B03D16169FFF787FF05E035
:104F3000A268238A118AE268FFF750FF01902800D7
:104F4000FEF762FB0020019B834202DB20600137F9
:104F5000CFE705B0F0BDC0460229000003280000DD
:104F6000514C0000F7B52A4B8268070001919A4224
:104F70004CD1C46800262389002B47D063689E4229
:104F800038D20A257543236859190B89002B2FD075
:104F900001310198FEF7E0FA002811D02368581972
:104FA0000130FEF7F1FA002822D003004D331B78C0
:104FB000032B02D1FEF728FB28E0FEF725FB17E0C4
:104FC000019B503318000093FDF734FF011E206849
:104FD00008D14155236802225D1928000830FBF7EB
:104FE00084FE05E04019013007220099FBF753FECB
:104FF0000136C3E72000022200210830FBF775FECE
:10500000E368002B02D02189380098470120FEBDBB
:10501000514C000010B50348FFF7A4FE0248FFF70B
:10502000A1FE10BD4C0500200C05002010B510009D
:1050300002AA118804AA1488A1420AD8641A9C42C0
:1050400000DD1C00039BA4B259182200FBF723FECD
:1050500001E007246442200010BD000070B586B056
:105060000AAC25881624054E6C442680022601943D
:1050700002960095FFF7DAFF06B070BD85040000C8
:10508000F0B50B4C87B005001E0020000CAB1F884C
:1050900004910592FBF7D5FD80B202900194009730
:1050A0003300059A04992800FFF7C0FF07B0F0BD50
:1050B0009F00010070B586B00AAC2588CC682678C0
:1050C000002E07D1648816366E443480022401967F
:1050D000029403E010260134029601940095FFF734
:1050E000A5FF06B070BDF0B506000F0000248BB020
:1050F000069310AB1B88CD68059207936B689C42A2
:1051000016D20A2363430493049A2B68300099183B
:105110000131FEF721FA002801D00134EEE72A68B8
:10512000049B944663441A89162304A95B181A80C9
:1051300016236A6804A95B18944201D100221A80E0
:1051400002220193079B02920093059A069B390065
:105150003000FFF76BFF0BB0F0BD0000F7B5019317
:10516000124B06001B680F001C000092083C002B2D
:105170001BD0002C19D00025A3889D4210DA1420E2
:10518000684323681818038AB34201D20135F3E754
:10519000BB42FBD80199009B98470028F6D104E058
:1051A000A468002C01D0083CE3E7F7BD6C0B00209D
:1051B0007FB539236A465B4200933B339380436952
:1051C0000590188A034A6B460349FFF7C7FF00980A
:1051D00007B000BDAD4E0000FFFF000073B5124CDC
:1051E00006000D00200000210AF05EFB002804D01C
:1051F0000121200049420AF057FB328801AB0B48DD
:105200001A802A88C3615A800423094A03842832F9
:105210004261084A8261FFF7CBFF002802D02000DC
:105220000AF006FB73BDC04618050020480B00209D
:1052300018040020414C000037B503680024050025
:1052400018686B461C70C0236A465B016946538030
:10525000FCF7F0FBA04202D145235B4218E02B682B
:1052600001A918680B4B0C704B80FCF7E3FB00287E
:10527000F2D02800FFF776FD031E09DB1423A9886E
:1052800028685943411804391030FFF7A7FF23005D
:1052900018003EBD01180000002307B50193008AE5
:1052A00001AB013080B20100024AFFF757FF0198BD
:1052B0000EBDC046F74B0000F0B58FB0069314AB9F
:1052C0001B88CD68059007932B7909AE080017005D
:1052D00033700C00FFF7E0FF152304AA9B18002889
:1052E00002D11870587003E0027C1A70427C5A7028
:1052F0001720296804AA0B788018002B05D14B8849
:1053000003701B0A4370052304E001311022FBF7F0
:10531000C2FC13230293079B019600933A00069B5D
:1053200021000598FFF782FE0FB0F0BD10B586B0E2
:105330000C8A002803D02100FFF750FD0FE0392030
:1053400040420090029168460121038281800392CD
:1053500020006B46034A0449FFF700FF009806B09F
:1053600010BDC046AD4E0000FFFF000010B50300A9
:10537000024A03490120FFF7F1FE10BD154D000060
:10538000FFFF000010B50300024A03490120FFF7A8
:10539000E5FE10BD654F0000FFFF00000C20054B2F
:1053A00040421A68002A03D10348586010000B607D
:1053B0007047C046800B0020640500200021F8B52E
:1053C00007680800FEF71BFB0600083604000121F1
:1053D000300009F097F8052501210570300009F02B
:1053E00091F800230570220038000621FEF70CFB1F
:1053F000F8BD23204042704710B50248FEF756FA28
:10540000002010BD5805002070B508300D000221A5
:10541000140009F077F80570447070BD70B5050090
:1054200001204042FDF7C4FD040004220F21FFF7D4
:10543000EBFF20000421083009F064F801234370D9
:10544000034B05701A785B788270C370200070BDC2
:10545000100C002070B5040001200D004042FDF743
:10546000A7FDEA1C2060D2B20E21FFF7CDFF206815
:105470000321083009F046F801230370054B290089
:105480001A785B78427083702068083009F03AF827
:1054900070BDC046100C002070B50400150001322C
:1054A0000E00D2B208343E21FFF7AEFF01212000EA
:1054B00009F028F829000670200009F023F870BDD3
:1054C0000C4B70B51B6804000D0016001B0610D5B0
:1054D000042208213000FFF797FF30000421083034
:1054E00009F010F804706342634145702D0A85701D
:1054F000C37070BD78050020F8B51400104A07008D
:1055000052680E00920019D508250E4A12682A42E8
:1055100014D00B2204211800FFF7BEFF4470EC40AA
:10552000077084700330002F04D1311D2A00FBF76F
:10553000B2FB03E02A000021FBF7D7FBF8BDC04611
:10554000780500208005002070B5037888B004003D
:105550000E0006AD002B03D0012B06D10F4900E051
:105560000F492800FBF764FB04E00E4A07212800DE
:10557000FCF7EEF96278A3790492A278059503927C
:10558000E2781B2102922279300001926279009226
:10559000054AFCF7DDF908B070BDC0468302010082
:1055A0007C0201008A020100910201000F2210B565
:1055B00003788AB01A40072A16D14278002A13D0FD
:1055C0008278920610D0C278D2070DD55B0601AC66
:1055D000DB0F23706B46011D0622581DFBF75BFB9A
:1055E00003A92000FFF7B0FF0AB010BD30B5427824
:1055F00003000478807812022243000411000200A4
:10560000D8780A43000610435A791D799979120215
:105610002A43090414000A00D979224309061143D8
:1056200030BD00000023F0B595B00F9304008089D1
:10563000022801D800205EE3A368BC4D5A7819788F
:1056400012020A432A809B788342F3D82000032168
:10565000083008F078FF2B88980A9D050138AD0DB9
:10566000072800D940E3FAF79BFD08003F031E001E
:1056700045003F033F033F03C700062D0AD01D2D01
:1056800000D031E3A268507813780002184307F085
:10569000CCF9BFE2A26850781378000291781843E1
:1056A00007F0D9F9B6E2032D0CD0632D1DD0012DE2
:1056B00000D019E3A068FFF799FF9D4B186059606F
:1056C000290000E301209B49994B40421860596032
:1056D00000200021984B186059601F200021974B33
:1056E0001860596007F070F8ECE2A068FFF77EFFE1
:1056F000914BD9E0681E082800D9F5E2FAF750FD71
:10570000090018006300F402F402F402F402F40247
:10571000710009210FA8FFF79DFE002309220370E5
:105720008370C370013B427002714371837137E132
:1057300041210FA8FFF78EFE002104000926017009
:1057400040220130FBF7D1FAA57E76423543A5769B
:105750003D254022E17E6D422943E1760E21A37969
:1057600052421343A371E37B68321343E373237CF8
:10577000263A1343627F04200A436277627812312B
:105780000A43627019222374E37D52420343E37596
:10579000237F651D13432377EB7F2618E71CF97FD2
:1057A000F27F28340D932378184320701020404254
:1057B0000143F977072149420A43F2770F220D9BF3
:1057C0001343EB778EE209210FA8FFF743FE002178
:1057D0000400017008220130FBF787FA602363712F
:1057E00080E207210FA8FFF735FE010000200870B6
:1057F000013107F069FE75E2681E4D2800D973E299
:10580000FAF7CEFC4E005500610072027300D10021
:10581000EC00F400FA0000017202720272027202DD
:10582000780083008B008F002A017202720222012D
:105830009E00B10072020F011701BC0072027202D9
:10584000720242015B01760190019A0172027202BA
:10585000110218021C0224022F023E024D025902BC
:10586000A601B201D201EB0172027202720272024F
:105870007202720272027202720272027202720288
:105880007202720272027202720272027202720278
:105890007202720272027202720272027202660274
:1058A000A068FFF7A3FE254B186059600AE20421A7
:1058B0000FA8FFF7CFFD00231B2103708370023375
:1058C0004170C3700EE209210FA8FFF7C3FD002548
:1058D00004000570082201302900FBF706FA7F2337
:1058E00063703F3BA370E570FCE1A168012007F005
:1058F00005FEE7E102210FA8FFF7ACFD00230370CE
:10590000040007F0EBFE6070ECE101210FA8FFF747
:10591000A1FD040007F0E4FECBE1A06807F080FFE2
:10592000DAE1A06807F0FCFED6E1C046100C0020CA
:1059300078050020FF1F0000180C002080050020C3
:10594000A06810AA01000023103100F0F3FF11211C
:105950000FA8FFF77FFD00231022037010A901306C
:10596000FBF799F9BEE109210FA8FFF773FD0023AA
:1059700008210370013002F065FAB3E109210FA894
:10598000FFF768FD8F22002342703D3282709C3AFF
:10599000C270BC3202712C3A4271BF3A03708271FC
:1059A000C37103729EE1A1684A780878120202432B
:1059B00000200B790A9009900890079006900590B6
:1059C0008C7B04944C7B0394CC1D02948C790194C1
:1059D00049790091010008F0DDFA7DE102210FA86C
:1059E000FFF738FD0023037043707BE1A368591C67
:1059F000187808F0DFFB65E1A368591C187808F0F7
:105A00002FFC5FE1A368187808F066FC0121040010
:105A10000FA8FFF71FFD00239C4200D169E10C3362
:105A200067E1A26800215478137824021C430232F3
:105A300006E0A268062113785478002224021C4351
:105A4000200006F095FF5FE0A2685078137800020E
:105A5000184306F0D4FFDDE0A2685379117950783D
:105A60001B020B43117800020843517A147A090291
:105A7000214301919179D27912020A4300920022C6
:105A8000110006F02BFFC5E0A268547813782402B9
:105A90001C43537911791B020B43517A107A090286
:105AA000014301919179D279200012020A430092B8
:105AB0000221002206F012FF26E0A36800245D7890
:105AC0001A782D02154302219A7828000194009437
:105AD000230006F003FF032106000FA8FFF7BAFC1E
