:1000000080350020CD2301001D240100592201006C
:1000100059220100592201005922010059220100F0
:100020005922010059220100592201004D1E0100F0
:100030005922010059220100091E01005922010024
:10004000912301003B0D0100912301009123010048
:1000500091230100912301009123010091230100CC
:1000600091230100912301009123010091230100BC
:1000700091230100912301009123010091230100AC
:10008000912301009123010091230100912301009C
:10009000912301009123010091230100912301008C
:1000A000912301009123010091230100912301007C
:1000B000912301009123010091230100912301006C
:1000C000912301009123010091230100912301005C
:1000D0009123010091230100912301000000000001
:1000E000A10E000000000000C92101000000000076
:1000F000C921010000000000C9210100000000002A
:10010000C921010000000000C921010030070020C2
:10011000110C000000000000C921010000000000D7
:10012000C921010000000000C921010000000000F9
:10013000C921010000000000F90C010000000000CE
:10014000C921010000000000370D0100000000007F
:10015000C921010000000000C921010000000000C9
:10016000C921010000000000ED09000000000000AE
:10017000C921010000000000C921010000000000A9
:10018000C921010000000000C92101000000000099
:10019000C921010000000000C92101000000000089
:1001A000310D010000000000C92101000000000025
:1001B000C921010000000000C92101000000000069
:1001C000C921010000000000C92101000000000059
:1001D000C921010000000000C92101000000000049
:1001E000C921010000000000C92101000000000039
:1001F000C921010000000000C92101000000000029
:10020000C921010000000000C92101000000000018
:10021000C921010053B94AB9002908BF00281CBFF1
:100220004FF0FF314FF0FF3000F092B9ADF1080C04
:100230006DE904CE00F01AF8DDF804E0DDE90223F0
:1002400004B07047430803F05533C01A830803F025
:10025000333300F03330184400EB101000F00F304F
:1002600000EB002000EB0040000E70472DE9F04746
:100270008C460E460446089D002B50D18A421746F4
:100280006CD9B2FA82FEBEF1000F0BD0CEF1200481
:1002900020FA04F401FA0EF644EA060C02FA0EF70C
:1002A00000FA0EF44FEA1749220CBCFBF9F01FFAD2
:1002B00087F809FB10C642EA064600FB08F3B34282
:1002C00009D9F61900F1FF3280F02281B34240F2E1
:1002D0001F8102383E44F61AA2B2B6FBF9F309FBBD
:1002E000136642EA064403FB08F8A04509D9E4195D
:1002F00003F1FF3280F00A81A04540F20781023B02
:100300003C44C8EB040443EA00400021002D62D0C5
:1003100024FA0EF400232C606B60BDE8F0878B425A
:1003200007D9002D55D0002185E841000846BDE8D9
:10033000F087B3FA83F1002940F09080B34202D3F2
:10034000824200F2F880841A66EB03060120B4466C
:10035000002D40D085E81010BDE8F08712B90127C4
:10036000B7FBF2F7B7FA87FEBEF1000F35D1F31BEA
:100370004FEA17481FFA87FC0121B3FBF8F0220C63
:1003800008FB103642EA06460CFB00F3B34207D9DD
:10039000F61900F1FF3202D2B34200F2CE801046CD
:1003A000F61AA2B2B6FBF8F308FB136642EA06445B
:1003B0000CFB03FCA44507D9E41903F1FF3202D278
:1003C000A44500F2B5801346CCEB040443EA004098
:1003D0009CE729462846BDE8F087CEF1200106FAC1
:1003E0000EF307FA0EF720FA01F94FEA1748CE404C
:1003F00049EA0309B6FBF8FA4FEA194408FB1A6602
:100400001FFA87FC44EA06430AFB0CF29A4200FA00
:100410000EF40AD9DB190AF1FF3180F087809A4285
:1004200040F28480AAF1020A3B449B1A1FFA89F920
:10043000B3FBF8F108FB113349EA034301FB0CF667
:100440009E4207D9DB1901F1FF326BD29E4269D976
:1004500002393B449B1B41EA0A418EE7C1F1200E61
:1004600022FA0EF48B40234320FA0EF706FA01F429
:100470004FEA134C26FA0EF63C43B6FBFCF9270C68
:100480000CFB19661FFA83F847EA064609FB08F7D2
:10049000B74202FA01F200FA01FA08D9F61809F196
:1004A000FF3041D2B7423FD9A9F102091E44F61BE1
:1004B000A0B2B6FBFCF40CFB146640EA064704FB52
:1004C00008F8B84507D9FF1804F1FF3028D2B8451D
:1004D00026D9023C1F4444EA0940C8EB0707A0FBA9
:1004E00002894F4544464E4614D329D065B3BAEB32
:1004F000040367EB060707FA0EFECB40CF404EEA37
:10050000030385E888000021BDE8F0871346F8E67C
:100510001046E0E6B8EB020469EB03060138E5E7B4
:100520000446D8E7114695E78146C0E78A467CE74E
:10053000023B3C4448E708460AE702383E442FE7BE
:10054000C245E7D33E46D1E72946BDE8F08700BF64
:10055000704700BF10B5054C054800F091FF2068BA
:1005600018B104F05CF80023236010BD0C210020BA
:10057000403A010008B521B10648BDE8084000F046
:100580007FBF04F045F8044B18600448BDE80840FC
:1005900000F076BF5A3A01000C210020763A0100A3
:1005A00010B5044686B010B10146164821E0164841
:1005B00000F066FF012000F0A5F800F025F91349CE
:1005C000134800F0FFF8A02203940123ADF80E2099
:1005D000F02204948DF80C30ADF8102000930D49F2
:1005E0000D4B0594022203A803F0A8FA014618B1A6
:1005F0000A4800F045FF02E0094800F041FF06B05C
:1006000010BD00BF813A0100A13A0100B83A0100D3
:10061000C53A01008C3B0100843B0100D33A010044
:10062000F93A010030B591B003F0FCFF03780446BD
:1006300007AD1BB1012B06D1114900E01149284635
:1006400000F0D8FC04E0104A0721284600F026FFFD
:10065000A379059562780492A2780392E2780292D7
:1006600022790192627900921B21084A09A800F0C0
:1006700015FF09A9064800F003FF11B030BD00BF07
:10068000223B01001B3B0100293B0100303B0100E4
:10069000533B010008B50C4803F0D2F9014620B1E4
:1006A0000A48BDE8084000F0EBBE094803F07CFCB6
:1006B000084804F025F94FF47A7012F0EFFC00F0CE
:1006C0002BF800F0A7F8F6E7A1050000813A010039
:1006D00010000020400000204B1E59425941014BA0
:1006E00019707047080800201FB501240294044CBB
:1006F0000194BDF81840009405F090FF04B010BDBF
:1007000009080020024B1870024806F083B800BFA9
:1007100009080020400200200A4B1B788BB10A4BCD
:100720001A780132D2B2A02A08BF5A221A70074A98
:100730001B7853700621117002230549002006F032
:10074000F9B8704708080020540000200A0800206B
:10075000140100202DE9FF4198460B4B1C6805460B
:1007600020460E46174600F04FFCBDF82830009397
:1007700080B20290019443463A463146284605F03D
:100780004DFF04B0BDE8F081180800202DE9FF41BD
:1007900098460B4B1C68054620460E46174600F04F
:1007A00033FCBDF82830009380B202900194434698
:1007B0003A463146284605F031FF04B0BDE8F081E5
:1007C0001C080020034B1860034B0448196006F016
:1007D00021B800BF1C080020180800205802002083
:1007E0004B1E59425941014B197070472C0800208B
:1007F0001FB501240294CC680194BDF81840009400
:1008000005F00CFF04B010BD014806F003B800BFAE
:1008100068020020084B1B786BB1084A084913781E
:10082000013B13F0FF0308BF642313700020012372
:10083000024A06F07FB870472C08002064020020AE
:10084000180200200A2838B50446074D04D128684C
:1008500043680D215B68984728684368E1B25B688C
:100860009847204638BD00BF30080020014800F0FE
:10087000CFBC00BF4508000008B5044811F01CFEBD
:10088000034B1860FFF7F2FF002008BD9C3B0100FE
:100890003008002003689B681B68D3F8082132B138
:1008A0000020C3F80801D3F818350B7070474FF0DB
:1008B000FF30704703689B681B68C3F81C15D3F8AA
:1008C0001C21002AFBD00022C3F81C2108467047D7
:1008D00003689B681B68D3F8240118B1D3F880041F
:1008E000C3F8800400F00F0070470000F8B50368FB
:1008F0009B68054618481C6811F0DEFD43680646F3
:100900001F68062240F201130021B84773681F6870
:100910000023194608223046B8470623C4F80C3590
:100920000823C4F81435AB684FF4E1321A602B6821
:100930009B681B684FF0EB72C3F824250423C4F8AE
:10094000003500200123C4F81C01C4F80801A3608D
:100950002360024B6B60F8BDA33B0100CC3B010060
:10096000084BC3F84005D3F80435C01A20F07F4087
:10097000054B0238984282BF044B4FF40032C3F853
:100980000021704700100140FDFF7F0000E100E002
:1009900010B5124B124CD3F804052168401A20F010
:1009A0007F40B0F5A37F11D90E4A126840F2471379
:1009B000B0FBF3F0904228BF104603FB001323F076
:1009C0007F432360084B186012F08CFC2068BDE860
:1009D000104000F24710FFF7C3BF00BF00100140F6
:1009E0003408002038080020E4060020024B0022D2
:1009F000C3F84021FFF7CCBF0010014046F2354359
:100A0000984228BF1846054B1860054B1B6840F2FA
:100A1000471202FB0030FFF7A3BF00BF38080020D9
:100A20003408002008B5074B0022C3F84021064BCC
:100A30004FF40032C3F88021FFF7AAFF034B0122D5
:100A40001A6008BD0010014000E100E038080020F5
:100A500070B5184811F030FD48B34368164D1B6857
:100A600001219847154B00241C60154B01261E6080
:100A700040F24713C5F80845C5F840354FF48033B8
:100A8000C5F84433C5F804330E4BC5F840414FF464
:100A90000032C3F8802131462246112011F07CFB40
:100AA000112011F04FFBAE6020462E6070BD4FF05C
:100AB000FF3070BDAA3B0100001001403408002047
:100AC0003808002000E100E003689B689A688368AA
:100AD00010B5DC68002024FA00F3DB0707D500F529
:100AE000A27352F82330C3F304238B4204D00130A5
:100AF0000828F0D16FF0120010BD0068806800680F
:100B000031B9D0F8101521FA02F202F0010201E029
:100B1000D0F810251A6000207047006880680068CF
:100B200041B90121914013B1C0F8081504E0C0F8A3
:100B30000C1501E0C0F804350020704710B583683B
:100B400032B11A680A605A681960BAB9596015E07A
:100B5000186898B181420ED15C68086822B9A14238
:100B6000186005D1586003E0A142106008BF5A60C8
:100B700000230B6002E002460068EAE7002010BD97
:100B8000F8B514460268876892680D469668A1B960
:100B90002146FFF799FF002811DBBA68012303FA09
:100BA00004F4144300F1400203FA00F0BC6046F87C
:100BB0002250C6F804032846F8BD6FF02200F8BDA5
:100BC000F8B514460268866892680D46976889B938
:100BD0002146FFF779FF00280EDBB268012303FAF4
:100BE00004F403FA00F022EA0404B460C7F808032E
:100BF0002846F8BD6FF02200F8BD08B5002201219B
:100C0000062011F0C9FA062011F09CFA002008BD58
:100C1000F8B5036806469B68B468986800231D46CB
:100C20001F464FF0010E00EB8302D2F8001141B1D4
:100C3000C2F80071D2F81015C1F304210EFA01F1C7
:100C40000D430133082BEED1A36806201D4011F09F
:100C500087FA246824B90620BDE8F84011F072BA7A
:100C6000A3681D42F5D063682A462146304698475E
:100C7000EFE700002DE9F8431446026887689268A0
:100C800080469568106819B16FF02200BDE8F883BE
:100C900003F44071B1F5807FC3F30132C3F38136B1
:100CA00005D0B1F5007F0CBF0421002100E00C212C
:100CB00013F0010FDFF8BC904FEA820204F5E07EEA
:100CC00016D00C2906D14FF0010C0CFA04FCC0F828
:100CD00008C507E0042902BF4FF0010C0CFA04FC20
:100CE000C0F80CC5324459F8222042F0030202E059
:100CF000324459F82220114340F82E1013F002001C
:100D000035D09906C0D55A0607D413F0040F14BF86
:100D10004FF480364FF4003601E04FF44036F86867
:100D2000FFF790FA082820D021464046FFF7CCFE76
:100D30000028FA6808DAD34393FAA3F0002BB0FA3C
:100D400080F008BF4FF0FF302402012304F4F85470
:100D5000834044F0010400F5A27013433443FB6068
:100D600045F820400020BDE8F8836FF00400BDE89E
:100D7000F88300BFE03B010010B54FF02002EFF315
:100D8000118382F3118811490C7824B983F31188F7
:100D90006FF0440010BD621ED2B20A701AB183F324
:100DA0001188002010BD0A4A107828B10C7083F316
:100DB00011886FF00A0010BD0121117083F31188B2
:100DC0004FF080435960107010BD00BF4C080020E8
:100DD0004D08002008B500221046012111F0DCF971
:100DE000002011F0AFF9002008BD0000F8B54FF069
:100DF0002002EFF3118382F31188264A1078441CF5
:100E0000147010B183F3118839E0234D2F782FB17E
:100E1000107083F311886FF00A00F8BD01262E7060
:100E200083F311884FF0804421B3384611F098F9CC
:100E3000C4F80071D4F80433C4F804632660D4F80D
:100E400000114FF0804219B920BF40BF20BFF6E724
:100E500013F0010F4FF000014FF00103C2F8001131
:100E600008BFC2F808330D4A0020C2F8803111F0E3
:100E700069F902E0C4F80011266000232B704FF0DE
:100E80008043D3F80C3413F4803F14BF00206FF07C
:100E90004300F8BD4C0800204D08002000E100E0B0
:100EA000F8B54FF080430546D3F808E1D3F80423A2
:100EB000D3F80C44D3F80071D3F80401D3F80C1123
:100EC000D3F8106102F00102BEF1000F03D04FF021
:100ED000000EC3F808E127B14FF080430027C3F8A4
:100EE00000713AB1E30341BF4FF080430122C3F8E0
:100EF00008231A6120B14FF080430022C3F8042177
:100F000049B14FF080440021C4F80C112846FFF786
:100F100033FF0123636176B14FF080430021012448
:100F2000C3F810112846C3F80443FFF75FFF10B958
:100F3000014BC3F80041F8BD00E100E0F8B54FF007
:100F400080440746D4F8186416F480360D464CD118
:100F5000304611F005F9C4F804610223D4F80423E3
:100F6000C4F804330123C4F81855A360D4F804115D
:100F70004FF0804319B920BF40BF20BFF6E792076A
:100F80001B4E58BF02224FF000014FF00104C3F87E
:100F900004114FF0000058BFC3F80823C6F8804181
:100FA00011F0D0F84FF0804300211822C3F8082335
:100FB000C3F80C11C3F8101115F003010CD1102067
:100FC000C3F83805C3F804233846C3F80443FFF7D1
:100FD0000DFF08B9C6F800414FF08043D3F818045C
:100FE00080F48030C0F30040F8BD0020F8BD00BFA1
:100FF00000E100E00139034611F8012F12B103F8B6
:10100000012BF9E71A70704702460346981A13F845
:10101000011B0029FAD170470138013910F8013F4E
:1010200011F8012F934202D1002BF7D11A46981ADA
:10103000704770B592B1013A024490420C460346A3
:1010400003D11B782278981A70BD1E782578AE429D
:1010500000F1010001F10101EFD0F2E7104670BD8F
:10106000431A934210B500EB020302D30139024642
:1010700007E00A4412F8014D03F8014D8A42F9D104
:1010800010BD9A4204D011F8014F02F8014BF8E765
:1010900010BD81EA000313F0030F70B5034608D0BA
:1010A000013B0A4419E0FAB111F8014B03F8014B76
:1010B000013A9C07F7D11E1F0D46541B0C44032C0C
:1010C00004D955F8044B46F8044FF6E79408A2EB10
:1010D0008402A40023442144E2E7914204D011F8A1
:1010E000014B03F8014FF8E770BD70B50346CCB271
:1010F0009D0704D0D2B103F8014B013AF8E7090289
:1011000001F47F41214341EA01411E46951B1D44E4
:10111000032D02D946F8041BF8E7910803EB81017F
:101120001A44914202D001F8014BFAE770BD002049
:10113000704700000B6801330B60014B1B681847B8
:10114000780200202DE9F74F9B460C9BDFF890A01A
:10115000012BB8BF0123BBF1010F0C930CBF30234F
:101160002023154680468946009301260A2700223F
:101170000AF101040AB9AA4507D2B5FBF4F04946C1
:101180003030C047013601220BE00C9BBB4208DB2C
:10119000BBF1020F05D8494600980192C047019A59
:1011A0000136013F012FB5FBF4F14FF00A0304FBB8
:1011B0001155BAFBF3FADBD1494605F13000C047BF
:1011C000BBF1030F08D10C9B9C1B002C04DD49468E
:1011D0002020C047013CF8E703B0BDE8F08F00BF16
:1011E000FFC99A3B0A688B6830B512B14C68A342BC
:1011F00002DB01338B6030BD651EAB420BBF8C60E0
:101200005C1C00218C600CBFD154D05430BD000058
:10121000014B1860704700BF780200202DE9F04FA5
:1012200087B04FF000091C46531E05460E46029338
:101230004FF0FF384F46CA46029B13F8010F029346
:10124000002800F00A81BAF1000F05D1252800F02E
:10125000FB803146A847EFE764284FD018D83928DB
:101260000AD8312838D22D282BD030282DD0252847
:1012700040F0E0803146E3E0582879D0632840F020
:10128000D980206804F1040A3146A8475446D8E0C2
:10129000702864D005D8692830D06C282BD06828F5
:1012A0000DE0752847D007D8732840F0C38004F1BB
:1012B000040A2468013CB4E0782859D07A2801D087
:1012C000B8E003274FF0010AB6E7B8F1000F09DADA
:1012D000002F00F0BE8002E0B8F1000F02DAA0F1AA
:1012E000300804E00A2303FB0808A8F13008002FA7
:1012F000E8D10227E6E709F10109E3E7B9F1010FB7
:10130000C5BF073424F00703D4F800A0D3F800A029
:10131000D4BF043403F10804BAF1000F06DA3146F1
:101320002D20A847CAF1000A08F1FF38CDF8008047
:101330003B4652460EE0B9F1010FC5BF073424F019
:10134000070322681A68CDF80080CCBF03F10804B7
:1013500004343B4631462846FFF7F4FE71E031463F
:101360003020A84731467820A8474FF008080127C9
:10137000B9F1010FC7BF073424F0070323680393B3
:10138000C8BF03F108044FF00802C4BF1B680393F1
:101390004FF0000AD8BF0434CDF814A093460BF1E7
:1013A000FF3B039B4FEA8B0023FA00F010F00F0085
:1013B00005D1059B53B9BBF1000F12D106E00928F6
:1013C0008CBF4FF0570E4FF0300E01E04FF0300E53
:1013D000314670440492A84701230AF1010A05939B
:1013E0000DE0531E9045049309DB012F02D13146D5
:1013F000302003E0022F02D131462020A847BBF164
:10140000000F01D0049ACAE7032F24D1CAEB480A7F
:10141000BAF1000F15DD31462020A8470AF1FF3A46
:10142000F6E714F8010F10B13146A847F9E7544622
:10143000824601E731462520A847029B18783146AD
:10144000A8474FF0000AF7E6D1464FF0FF3857465D
:1014500038E7012736E7DA46EEE607B0BDE8F08F59
:1014600013B502AC002344F8043D02460B46034882
:101470002146FFF7D3FE019802B010BD35110000E0
:101480000FB407B504A951F8040B0191FFF7E8FF69
:1014900003B05DF804EB04B0704700000CB430B545
:1014A00085B008AB044653F8042B01900291002547
:1014B00001A9074800930395FFF7B0FE0398029B2C
:1014C0009842B8BF255405B0BDE8304002B070471F
:1014D000E511000070478B4238B515461C4605D80B
:1014E0001A462946FFF7D5FD204638BD002038BDF5
:1014F000FFF7FBBDC3095A00134403EBC30383EAA0
:101500004000C0B27047CA780378534003704A88DD
:101510004378534043700A68837883EA12238370C8
:101520000B68C2785340C370CA7903795340037182
:10153000CA884379534043714A68837983EA122306
:1015400083714B68C2795340C371CA7A037A53409E
:1015500003724A89437A534043728A68837A83EAE2
:10156000122383728B68C27A5340C372CA7B037B97
:1015700053400373CA89437B53404373CA68837BD8
:1015800083EA12238373CB68C27B5340C3737047D3
:10159000CA780378534003704A88437853404370B5
:1015A0000A68837883EA122383700B68C2785340F9
:1015B000C370CA79037953400371CA884379534091
:1015C00043714A68837983EA122383714B68C27935
:1015D0005340C371CA7A037A534003724A89437AEB
:1015E000534043728A68837A83EA122383728B683A
:1015F000C27A5340C372CA7B037B53400373CA89C8
:10160000437B53404373CA68837B83EA122383730B
:10161000CB68C27B5340C37370472DE9F04F064639
:1016200085B008780C46FFF765FFFFF763FFFFF70B
:1016300061FF03902078FFF75DFFFFF75BFF0290EB
:101640002078FFF757FF01906078FFF753FFFFF70F
:1016500051FFFFF74FFF83466078FFF74BFF82464D
:10166000A0786578FFF746FFFFF744FFFFF742FFDA
:101670008146A078FFF73EFFFFF73CFF8046A07849
:101680004540E078FFF736FFFFF734FFFFF732FF02
:10169000E7780399029B019A7D404D4083EA05015A
:1016A00051408BEA01028AEA020289EA020388EACF
:1016B0000303584030702078FFF71CFFFFF71AFF34
:1016C000FFF718FF039060782578FFF713FFFFF707
:1016D00011FFFFF70FFF02906078FFF70BFFFFF796
:1016E00009FF01906078FFF705FF8346A078FFF7B8
:1016F00001FFFFF7FFFEFFF7FDFE8246A078FFF730
:10170000F9FE8146A0784540E078FFF7F3FEFFF749
:10171000F1FEFFF7EFFE8046E078FFF7EBFEFFF704
:10172000E9FEE7780399029B019A7D404D4083EAE8
:10173000050151408BEA01028AEA020289EA0203AA
:1017400088EA0303584070702078FFF7D3FEFFF754
:10175000D1FEFFF7CFFE03902078FFF7CBFEFFF717
:10176000C9FE029060782578FFF7C4FEFFF7C2FE3D
:10177000FFF7C0FE019060784540A078FFF7BAFE01
:10178000FFF7B8FEFFF7B6FE8346A078FFF7B2FE7C
:10179000FFF7B0FE8246A078FFF7ACFE8146E07806
:1017A000FFF7A8FEFFF7A6FEFFF7A4FE8046E0784D
:1017B000FFF7A0FEE7780399029B019A7D404D4018
:1017C00083EA050151408BEA01028AEA020289EAB2
:1017D000020388EA03035840B0702078FFF78AFEBE
:1017E000FFF788FEFFF786FE82462078FFF782FE2D
:1017F000054660782778FFF77DFEFFF77BFEFFF751
:1018000079FE81466078FFF775FEFFF773FE627818
:101810008046A0785740FFF76DFEFFF76BFEFFF79D
:1018200069FEA2787A408AEA02036B4089EA0305DE
:1018300088EA05056840C5B2E078FFF75BFEFFF770
:1018400059FEFFF757FE8046E078FFF753FEFFF79B
:1018500051FE0746E078FFF74DFE88EA05057D401A
:101860006840F07005B0BDE8F08FF8B5064608781E
:101870000C46FFF73FFE05466078FFF73BFEA27877
:1018800063785340E27853406B4058403070607842
:101890002778FFF72FFE0546A078FFF72BFEA278EA
:1018A00087EA0203E27853406B40584070706378D7
:1018B0002578A0785D40FFF71DFE0746E078FFF72A
:1018C00019FEE27885EA02037B405840B070207828
:1018D000FFF710FE637825785D40A3785D4068408F
:1018E000C5B2E078FFF706FE6840F070F8BD1FB59E
:1018F00002788DF8002042798DF80120827A8DF8E7
:101900000220C27B8DF8032002798DF80420427AF0
:101910008DF80520827B8DF80620C2788DF807208F
:10192000027A8DF80820427B8DF8092082788DF8A4
:101930000A20C2798DF80B20027B8DF80C204278AA
:101940008DF80D20C37A82798DF80E208DF80F3036
:1019500010236A461946FFF7BEFD05B05DF804FB8B
:10196000F0B5294E07460C460FCE8DB001AD0FC520
:101970000FCE0FC596E8070085E80700002F3DD081
:10198000002C3DD02146381F10344B780A781B04B8
:1019900043EA0263CA7813438A78043143EA022394
:1019A0008C4240F8043FF0D1184907F10C0004259F
:1019B000AA0750F8043B18D14FEA33631A0E8C5C27
:1019C000DAB28A5C42EA0462C3F30744C3F3072332
:1019D0000C5DCB5C42EA044242EA03230CAC25F0E6
:1019E0000302224452F82C2C534050F8102C01359D
:1019F00053402C2D0360DBD1012002E0384600E08B
:101A000020460DB0F0BD00BFC4390100603C0100AC
:101A10002DE9F043144689B0804600285BD00029A8
:101A20005AD0002A5AD010230A4668461946FFF7B2
:101A300052FD21466846FFF7ABFDDFF8A89004F1A0
:101A4000100704F1A00500261DF80630254C19F8F2
:101A500003300DF806300136102EF5D16846FFF739
:101A600046FF694604A8FFF700FF01A905A8FFF794
:101A7000FCFE02A906A8FFF7F8FE03A907A8FFF7D6
:101A8000F4FE334604AA31466846FFF724FD394682
:101A900068461037FFF77CFDBD42D4D100261DF803
:101AA0000630E35C0DF806300136102EF7D168469B
:101AB000FFF71DFF29466846FFF76AFD33466A4671
:101AC00031464046FFF707FD684632460021FFF7E2
:101AD0000FFD012003E002E0084600E0104609B0D7
:101AE000BDE8F083603C010010B591F90030002B97
:101AF00001F10F02B4BF87230023103014788A420B
:101B000083EA440300F8013D03D012F80139DB09F0
:101B1000F4E710BD08B528B158220021FFF7E8FC12
:101B2000012008BD08BD10B5044690B11022002167
:101B3000FFF7DEFC04F1300010220021FFF7D8FC93
:101B40000023636400224FF48033C4E9142301208E
:101B500010BD10BD70B50D461646044618B319B336
:101B600058220021FFF7C4FC2946A6643046FFF73F
:101B7000F7FE204610220021FFF7BAFC04F1100501
:101B8000A26C21462046FFF743FF21462846FFF777
:101B9000ABFF294604F12000FFF7A6FF2046FFF720
:101BA000C2FF012070BD70BD084670BDF8B50D467E
:101BB0001646044600285CD0002A58D0002959D087
:101BC000D0E9142352EA030156D012F1FF3243F157
:101BD000FF33C0E91423406C48B3C0F11007BE4284
:101BE00000F1300008D2334631462A462044FFF740
:101BF00072FC636C1E4439E03B462A463946204459
:101C0000FFF769FC00236364F61B3D44631E04F187
:101C10000F0113F8010F93F830208B4282EA000283
:101C20001A70F6D1A26C21462046FFF7F1FE04F1AE
:101C30000F07102E12D9631E691E13F8010F11F839
:101C4000012FBB4282EA00021A70F6D1A26C214633
:101C50002046FFF7DDFE1035103EEAE73EB1334681
:101C60002A46314604F13000FFF735FC6664012056
:101C7000F8BDF8BD0846F8BD0020F8BD70B50C46AB
:101C8000054678B379B34A6C102A02D101F11002EB
:101C90000EE002F130000021C2F110022044FFF7F3
:101CA00027FC636C2344802283F8302004F1200257
:101CB000631E013A04F10F0613F8010F93F8301078
:101CC000484012F8011F9E4281EA00011970F3D1C9
:101CD000A26C21462846FFF79BFE2046FFF71AFF1D
:101CE000012070BD70BD084670BD000070B54FF09A
:101CF0002003EFF3118583F31188144C144E2378DD
:101D000003EBC312013303F003033244237085F362
:101D10001188402928BF40210E4D0138134602EB9F
:101D20004106B3420DD010F8014F240902332C5D57
:101D300003F8024C047804F00F042C5D03F8014C06
:101D4000EFE7002302F81130104670BD890A002029
:101D500085080020603D010070B5184A18491378C5
:101D60001B2505FB0315013303F0010313700378F2
:101D700088B0044606AE1BB1012B06D1114900E024
:101D800011493046FFF736F904E0104A0721304682
:101D9000FFF784FB62780492A2780392E2780292C1
:101DA0002279019262790092A3790596084A1B2153
:101DB0002846FFF773FB284608B070BD4E08002088
:101DC0004F080020223B01001B3B0100293B010082
:101DD000303B010030B585B0044615466846032205
:101DE000FFF757F90D2200210DF10300FFF77DF9F0
:101DF00020466A46694609F039F9044620B90322AB
:101E000069462846FFF745F9204605B030BD13B5B1
:101E10000C4601AA0331FFF7DDFF40B9032201A9F7
:101E20002046FFF706F9B0FA80F0400900E00020F4
:101E300002B010BD70B5CD1C06460C4628460321E5
:101E400009F0FAF860B9637903F03F0343F0400307
:101E50006371224629463046BDE87040FFF7BABF9D
:101E600070BD0000F0B40278012A04460B461BD076
:101E700007D3022A2FD1014611221846F0BCFFF7E2
:101E800008B9164A0D4602F11007106851682E462F
:101E900003C60832BA423546F7D1127832706288EA
:101EA0005A73120A9A7316E00C4A0D4602F1100793
:101EB000106851682E4603C60832BA423546F7D13B
:101EC0001278327062685A73C2F30721120CDA7307
:101ED000120A99731A74F0BC704700BF3A5F010090
:101EE00010B50C46017822788A428AB00CD0694637
:101EF000FFF7B8FF05A92046FFF7B4FF10220DF148
:101F000015010DF101000FE0012A09D005D3022AC5
:101F10000DD11022611C013006E04388608801E089
:101F200043686068181A04E0FFF783F801E06FF077
:101F300015000AB010BDC3891844133020F0030007
:101F40007047000070B50B4D06460FCD8AB06C4649
:101F50000FC40FCD0FC495E80300092E84E80300D9
:101F60009BBF0AAB03EB8606034856F8280C0AB061
:101F700070BD00BFF0390100AC3D010000B5BFF3FA
:101F80005F8F50E8003F43EA010240E8002EBEF1B7
:101F9000000FF6D1BFF35F8F18465DF804FB4B09C5
:101FA000BFF35F8F50F82300BFF35F8F01F01F0175
:101FB000084100F0010070474B09BFF35F8F50F8F4
:101FC0002300BFF35F8F01F01F01084100F0010003
:101FD000704700B5BFF35F8F50E8003F03EA01028E
:101FE00040E8002EBEF1000FF6D1BFF35F8F184618
:101FF0005DF804FBC378002B41F2883200F18001C8
:1020000008BF0022014811F043BC00BF3822002065
:1020100013B5837A044613B90123037224E0C06F19
:1020200058B100210830FFF7BAFF30B1E36F9B8948
:102030009B064CBF0423032300E002232372627A31
:10204000237A9A4210D9094B0193094B0093094A0C
:10205000094B0A490A48FFF713FA0521204602B046
:10206000BDE8104002F0E0BA02B010BDF43D01003E
:10207000F93D0100B43D0100CB600100BB3D010012
:10208000BE3D0100F0B5054687B090791D4E0F4664
:1020900014460FF021FD864211D0A47920460FF09E
:1020A0001BFD194B0493194B029000930396019466
:1020B000174B184A18491948FFF7E2F920E0204663
:1020C000FFF739FF43889D420BD00F4A02930F4B15
:1020D0000392009301950E4B0E4A0F491048FFF7EB
:1020E000CFF92046FFF727FF43684BB147702046E2
:1020F000FFF721FF406807B0BDE8F04011F078B865
:1021000007B0F0BDC0070020F43D01003F3E0100D4
:1021100012610100013E0100BB3D0100083E0100CB
:10212000473E0100C0F3072310705370000CC1F349
:1021300007231171090C90709171000A090AD0707F
:102140005371D17170470000F8B505460E460F482F
:102150004FF0FF310FF0C8FC002104460FF023FDC3
:102160002046FFF7E8FE002202702046FFF7E3FE5C
:1021700045802046FFF7DFFE0321426004F108009E
:102180000FF044FD867005802046F8BDC007002092
:1021900070B5154686B00C4619B9FFF7D5FF044651
:1021A00040B301AE01220021304611F019F820465B
:1021B000FFF7C1FE466020460FF024FD21460F4880
:1021C0000FF0F6FC42F21071304611F053F8204641
:1021D000FFF7B1FE407828B120460FF0F7FC6FF012
:1021E000040009E00DB12C6006E020460FF0EEFC83
:1021F000284601E06FF0360006B070BD7403002081
:1022000070B5154D062205F108010646FEF711FFCF
:1022100000B3062142F20500FFF796FF0446A8B17D
:102220000622314608300FF0F7FC2146002242F228
:102230000500FFF7ADFF044658B90622314605F107
:102240000800FEF726FF0123EB7102E06FF0360075
:1022500070BD204670BD00BFB002002007B506214A
:10226000684608F0E9FE40B99DF80530684603F07D
:102270003F038DF80530FFF7C3FF03B05DF804FBA3
:1022800037B507211B48FFF78AFE60B3022142F2EF
:102290000C00FFF759FF044640B3022108300FF04D
:1022A000B5FC022205460021FEF71FFF00236B70DC
:1022B0002B7001AA214642F20C00FFF769FFB8B962
:1022C000019B9B681C784CB96FF080010948FFF7AF
:1022D00080FE6FF400710748FFF77BFE01980FF056
:1022E00075FC204604E06FF0440001E06FF036001A
:1022F00003B030BD1C03002038B50121054642F271
:102300000A00FFF721FF0446D8B108300DB10121C2
:1023100000E029460FF089FC2146002242F20A0023
:10232000FFF736FF044678B925B120210748FFF7AB
:1023300025FE09E06FF020010448FFF74AFE284619
:1023400038BD6FF0360038BD204638BD1C03002074
:102350002DE9F8430C46202107469046FFF7F4FE8E
:102360000646002841D0202108300FF04FFC2022E3
:1023700000210546FEF7B9FE4FF00009C1452DD0FA
:1023800063782878034402331F2B04F1080406DD28
:1023900030460FF01BFC6FF01500BDE8F883431CBE
:1023A000DBB22B7014F8072C291802300132C0B2AE
:1023B0004A702B44287014F8082C5A70284414F8DA
:1023C000072C54F8041C0130FEF763FE2A7814F839
:1023D000073C13442B7009F10109CFE73146384619
:1023E0000022BDE8F843FFF7D3BE6FF03600BDE82A
:1023F000F883028843889A4210B518D8052A16D95E
:10240000B3F5486F13D88488B4F5FA7F0FD2C1882A
:10241000A1F10A0292B240F67640824207D804FB4C
:102420000333B3EB810FB4BF0120002010BD0020A7
:1024300010BD000008B508210748FFF7B0FD40B9FE
:1024400007210548FFF7ABFD18B1BDE80840FFF7CD
:1024500017BF002008BD00BF1C030020012310B5DA
:102460000621044600F8013B08F0E6FD18B9A379FF
:1024700063F03F03A37110BD2DE9F04794B00DAE9A
:102480003246002140F60340FFF782FE00286FD15C
:102490000D9B9B681B786BB9AF4A1360AF4BBFF3C2
:1024A0005F8F012253E8001F43E800200028F9D184
:1024B000BFF35F8F0D980FF089FB3246002141F288
:1024C0000300FFF765FE0446002852D10D9BA44D82
:1024D00099680822013105F11600FEF7DAFD0D9822
:1024E0000FF074FB2146324641F20100FFF750FE27
:1024F000044600283DD10D9883685A78AA73D9788C
:102500009A7842EA01222A821A79EA73197ADA79E8
:1025100042EA01226A825A799B7942EA0323AB821A
:102520000FF054FB2146324641F20900FFF730FE1E
:102530000446F0B90D9B996806220131681CFEF72C
:10254000A8FD0D982C700FF041FB3246214641F258
:102550000200FFF71DFE58B90D9B9968402201311A
:1025600005F11E00FEF795FD0D980FF02FFB03E01F
:102570000446002C40F03D82794DAB7E5A060CD4C7
:10258000784B0193784B0093784A794B79497A4894
:10259000FEF776FF6FF012042BE20BAF3A460021F4
:1025A00042F20300FFF7F4FD0446002840F0C28029
:1025B0000B9B99680822013105F17000FEF769FD57
:1025C0000B980FF003FB3A46214642F20200FFF758
:1025D000DFFD002840F0AD800B9B9B68B3F8012025
:1025E000A5F8802042B1DA78022A28BF02221146DB
:1025F00005F1840010F0F4FD0B980FF0E7FAAB7EC4
:1026000003F0200303F0FF082BB195F83A30544C47
:102610001B072BD519E0022140F66D40FFF794FD12
:102620000446002800F0E381022108300FF0EEFAA2
:102630000123037080F801804246214640F66D4038
:10264000FFF7A6FD0028E0D073E03A46002142F2F1
:102650001C00FFF79DFD00286BD10B98836853F891
:10266000012F5B68E367A2670FF0B0FA95F870304E
:10267000980628D53246002142F22F00FFF788FD48
:102680000446002856D10D988368B3F801A0B3F82A
:1026900003900FF09BFA042142F22400FFF754FD4F
:1026A0008046002800F0A381042108300FF0AEFA24
:1026B0002246A0F800A0A0F80290414642F2240071
:1026C000FFF766FDA8BB082142F20100FFF73CFDC1
:1026D0000446002800F08B81082108440FF096FA88
:1026E00095F8703095F871E0990702464CBF2F209D
:1026F0000F2013F0200F18BF40F040001EF0090F0C
:1027000018BF40F40060DB0795F8403003F0060383
:1027100048BF40F01000062B4FF0000108BF40F406
:10272000C070FFF7FFFC0022214642F20100FFF7D4
:102730002FFD0446002C40F05C81AB7EDFF820804A
:1027400098061BD5082140F60140FFF7FDFC044622
:10275000002838D14BE100BF380B00201C030020BB
:10276000B0020020F43D0100F93D0100B43D01003C
:1027700001600100BB3D01008A3E0100B8F88030D5
:10278000002BDFD13246214641F20500FFF700FD64
:10279000B8B9B8F8803083B90D9B9B6899785A789E
:1027A00042EA0122A8F880209A88022A28BF022241
:1027B000114608F1840010F013FD0D980FF006FA91
:1027C000C0E7044615E1082108440FF01FFA95F808
:1027D0007030D907024603D5A4A1D1E9000102E077
:1027E00087484FF00051FFF79DFC2146002240F63C
:1027F0000140FFF7CDFC0446002840F0FA80099024
:102800000722CDF8270009A97E48FEF712FC18B967
:102810007D4C23688BB919E07C4B18689A88079027
:102820009B79ADF8202007A9072276488DF8223041
:10283000FEF7FFFB0028EBD072E00021D3F8008008
:10284000704A07230846C047072849D04FF08053F5
:10285000D3F8A420013206D1D3F8A8304FF6FF7286
:102860009BB293421AD04FF08052D2F8A030DB07CF
:1028700014D501232B70D2F8A4306B70C3F3072159
:102880001B0CEB701B0AA9702B71D2F8A8306B716E
:10289000C3F3072363F03F03AB7121E05948FFF70F
:1028A000DDFD0146002840F09480236873B15C6828
:1028B000544A0723A047072812D0554B0193554B84
:1028C0000093554A554B5649564807E0504B0193E3
:1028D000554B0093554A514B51495548FEF7D0FD91
:1028E0002B78484C012B04D1A37903F0C003C02BF3
:1028F0000CD0474B0193474B0093474A474B4849FD
:102900004C48FEF7BDFD6FF0150465E0601CFFF755
:1029100077FC00285FD1042104F16C00FFF72EFB47
:102920002B781BB1012B06D1434900E043493846BF
:10293000FEF760FB04E0424A07213846FEF7AEFD91
:102940006A780492AA780392EA7802922A793D4C36
:1029500001926A79AB7900921B213B4A0597304678
:10296000FEF79CFD8DE85000384B394A2C49029403
:102970003848FEF785FDAE7B3046FFF7E3FAAB8AB9
:1029800004932B8A324A26490594039302962F4BCF
:10299000019000943048FEF773FDEE7B3046FFF760
:1029A000D1FA6B8A0494039301900094274B284A30
:1029B0001B4902962948FEF763FD01F0B5FF044666
:1029C000B8B902212648FFF7D9FA2046FFF732FDB1
:1029D0000FE0044600E004460D4B01930D4B0093BD
:1029E0000D4A204B0E492048FEF74AFD01E06FF0EA
:1029F0003604204614B0BDE8F08700BFAFF3008076
:102A000010880002B002002024210020183A0100A2
:102A1000F43D0100F93D0100B43D010050600100AA
:102A2000BB3D0100BE3E01003F3E0100013E0100F2
:102A3000ED3E0100233F0100223B01001B3B010052
:102A4000293B0100A03A0100303B0100BD600100BC
:102A5000643F01006B3F0100883F0100D63F010049
:102A60001C030020096101000D4001009088000254
:102A70000080002010B5FFF7FFFC034B1B6813B16B
:102A8000BDE81040184710BDF40A0020024BD3F8EF
:102A9000D830DB68184700BFB002002030B50446CC
:102AA00085B00D4619B9FFF74FFB0546E8B140F672
:102AB00035439C4213D12846FFF7E8FF0446B8B1DE
:102AC0000D4B02930D4B019000930D4A0D4B0E4997
:102AD0000E48FEF7D5FC28460FF078F808E00C48C1
:102AE00029460FF065F8002003E06FF0360000E0A3
:102AF000204605B030BD00BFF43D0100F93D0100A6
:102B0000B43D0100F15F0100BB3D01003C4001000C
:102B10007403002038B50721044642F23200FFF763
:102B200013FB054698B1072108300FF06FF8238892
:102B30000380002402238470C37003714471847184
:102B4000294642F23200FFF7A9FF204638BD6FF058
:102B5000360038BDF7B5074601AA002142F22F0022
:102B6000FFF716FBF0B901988368B3F80160B3F87A
:102B700003500FF02BF8062142F22200FFF7E4FA8F
:102B8000044668B1062108300FF040F83B88038006
:102B900046808580214642F22200FFF77FFF01E058
:102BA0006FF0360003B0F0BD70B506460D4642F238
:102BB00021000321FFF7C8FA044660B10321083061
:102BC0000FF024F885700680214642F22100BDE80E
:102BD0007040FFF763BF6FF0360070BD2DE9F04F16
:102BE000DFF85881534D85B0D8F8043052486FF360
:102BF0001033C8F8043001F05DFB471C4FF0FF3282
:102C000039464E480FF0D0FE18B94C4CDFF86C91A5
:102C10004CE04B4B01934B4B00934B4A4B4B4C4975
:102C20004C485FE04FF0FF310BF1980010F022FBB1
:102C3000D5F8AC307BB1424B0193424B0093424AF2
:102C4000454B43494548FEF71BFCD5F8AC000EF058
:102C5000BDFFC5F8AC6050460EF0D4FFCBF8AC0019
:102C60005046FFF713FFF8B1354B0293354B364A08
:102C70003749019000933A48374BFEF701FC394839
:102C800010F0B6FA5046FFF756F900221F2140888F
:102C9000FFF7F8F9D5F8AC000EF098FF0023504686
:102CA000C5F8AC300EF092FF0C34013F002F3DD040
:102CB0006368C3F30433022BF6D0082B1AD12679AC
:102CC00036BB314648460EF055FFDFF868B0824605
:102CD0000028A7D11A4B01931A4B00931A4A1E4B96
:102CE0001B492148FEF7CCFB404080F311884FF090
:102CF000040002DF002BD7D0114A01931B4B029234
:102D000000931B4A1B4B12491B48FEF7B9FBCBE74C
:102D1000012E04D1A0681C3801F03CFAC4E7022E51
:102D2000C2D1A068303801F077FDBDE710F098F906
:102D30005AE700BFB0020020880200207C02002079
:102D4000F43D0100F93D0100B43D0100A75F010021
:102D5000BB3D01006E4001001F610100BD4001004C
:102D60003C40010048030020984001003F3E010024
:102D7000013E0100635F0100E84001007403002090
:102D80002DE9F04F04468FB080790EF0A5FE438BFD
:102D9000032B0AD8A24B0193A24B0093A24AA34B48
:102DA000A349A448FEF76CFB82E02046FFF7C3F876
:102DB0000378012B42D0032B6FD12346042153F813
:102DC000082F16885588C6F30B02428018460EF06D
:102DD0003CFFA3899D420CD0914A0193914B0392F1
:102DE00000930295944B904A91499448FEF748FB12
:102DF0004DE02046FFF79FF8408801F099FB05461B
:102E0000A0B92046FFF797F8854B029343880193BA
:102E1000844B0093844A884B85498948FEF730FBF0
:102E200020460EF0D3FE284600F0E7BC320B2146C8
:102E300001F0C2F8284601F0F2FB2BE0A5682A78E1
:102E4000132A13D8934013F40C2F0FD0744B019313
:102E5000744B0093744A7B4B75497B48FEF710FB1B
:102E6000404080F311884FF0040002DF04F10807AE
:102E7000022138460EF0E9FE2D78082D1FD03AD8F1
:102E8000052D40F0B380A7683E78002E76D020460E
:102E90000EF09CFE002000F0B0BC614A0193614B33
:102EA00002920093604A614B61496848FEF7E8FA74
:102EB00020460EF08BFE6FF0150000F09EBCA66859
:102EC000B6F80170384601F033FB054630B9544B73
:102ED0000293544B009301975D4B1EE03378827848
:102EE00023B1002A3AD1037A437237E0F378837230
:102EF00002BBE3B119E0302D76D1A668B6F80170B7
:102F0000384601F015FB0546002840F08280444B0E
:102F10000293444B00934F4B0197434A44494E4818
:102F2000FEF7AEFAB3E7837823B905F0CBF828466D
:102F3000FFF76EF82846317801F0FEFD284601F0D3
:102F400005F80BE0FB7880F850300FF0FFFA3146BF
:102F5000284601F02FFA2E80AE7826B328460AE0E4
:102F60000AA900F0B9FF002840F0E8811E21284698
:102F7000FFF71AFE404601F052FB88E7B7F80180E0
:102F8000404601F0D5FA05460028DBD1244B0293D8
:102F9000244B0093CDF80480304B234A24492E481B
:102FA000FEF76EFA0EE03146281DFEF7F8FF30B14D
:102FB0002846012101F0FEF93046FFF73BFA28468A
:102FC00001F02DFB06212648FEF7E9FF00283FF41B
:102FD0005EAF05212248FEF7E2FF00287FF457AFDD
:102FE0000120FFF789F952E73E2D41D0A689A0685C
:102FF0003146FEF77BFE0A4B04931A4B0390009375
:10300000194A104B0A49194802960195FEF738FAF9
:103010003DE73178002986D001F08EFD37E700BF0B
:10302000F43D0100F93D0100B43D0100B55F010030
:10303000BB3D010019410100DC600100424101007B
:1030400076410100D05F0100F9420100D542010044
:10305000F660010009600100A8410100925F0100D3
:103060001C0300203F3E0100013E0100A34201007D
:10307000A568012138460EF0E8FD2D786B1E0B2B5C
:1030800000F2A883DFE813F00C00E802C600E800B5
:10309000DD0128017F01A102C002A603A603B00141
:1030A000A668337873B10221002001F08FFA05463B
:1030B00000283FF4ECAE337880F85030002101F066
:1030C00079F94BE706F104084046B6F8019005F09F
:1030D000F9F8002814BF074647460221384601F098
:1030E00075FAF378012B1FFA89FA054609D16FF0BA
:1030F0002001B048FEF76DFF7DB9384601F022F996
:10310000054655B9AC4B0293AC4B0093CDF804A0E7
:10311000AB4BAC4AAC49AD4802E72846394620F8EB
:10312000549B0722FDF7B5FFB6F80B30A5F86A30BF
:10313000B6F80D30A5F87030B6F80F30A5F872303B
:10314000F778EF70012F1ED14146DFF88482072205
:1031500005F15B00FDF79DFF4146072205F1620086
:10316000FDF797FF062108F16C00FEF718FF50B13C
:10317000D8E91E23002003F0400150EA010302D0E9
:103180003846FFF7B9F80321284601F013F995F8FE
:103190005130032B37D1F37823B18D4B93F8703036
:1031A0001F0712D5022142F21600FEF7CDFF064698
:1031B00058B1022108300EF029FD2B8803803146DA
:1031C00042F21600FFF76AFC1DE0814B93F8712074
:1031D00012F0010F1E4605D02846FFF79BFC08B9E8
:1031E000802109E096F870309E0609D52846FFF741
:1031F000B1FC28B94FF48071281DFEF7BFFE02E034
:103200002846FEF7F7FE284601F009FA0020FFF7EE
:1032100011F93CE6A568B5F80170384601F088F967
:10322000064630B9644B0293644B00930197694B97
:1032300020E02B78002B40F0C681B5F80330A0F8D1
:103240006A30B5F80530A0F87030B5F80730A0F84E
:10325000723000F02DFEB6E1A668B6F8017038466F
:1032600001F066F9054648B9534B0293534B00935E
:10327000594B0197534A5449584851E6337823B97A
:103280000822F11C7430FDF704FF514B93F87120B4
:1032900012F0010F1E4609D095F87530D80705D5F4
:1032A0002846FFF737FC08B9802111E096F8703006
:1032B000990640F1C28095F874309A0640F1BD80BD
:1032C0002846FFF747FC002840F0B7804FF4807194
:1032D000281DFEF753FE41E6A368D9789A781F8827
:1032E00042EA0122ADF8282059791A7942EA0122EE
:1032F000ADF82A209A79D97942EA0122ADF82C203A
:103300001A7A5B7ABDB242EA03232846ADF82E3022
:1033100001F00EF9804600287FF422AE264B02937E
:10332000264B009301952E4B264A27492B48FEF742
:10333000A7F802212846FFF737FCA8E50E2142F244
:103340002000FEF701FF064600283FF413AE0E21D1
:1033500008300EF05BFC0E2205460021FDF7C5FE8D
:10336000BDF828306B80BDF82A30AB80BDF82C301A
:10337000EB80BDF82E302F802B81314642F22000A9
:10338000FFF78CFBF6E5A3681E88304601F0D0F805
:10339000054630B9084B0293084B00930196114B38
:1033A00068E76FF480710430FEF713FEC3057FF504
:1033B000D5AD42E01C030020F43D0100F93D0100C1
:1033C000815F0100B43D0100BB3D0100DE41010011
:1033D000B00200204B5F01008B600100134201002E
:1033E00079600100BD5F0100A368B3F80160304659
:1033F00001F09EF8054630B98B4B02938B4B00933E
:1034000001968B4B36E7061D6FF080013046FEF7C4
:10341000E0FD07067FF5A2AD864B93F87030980665
:103420000BD595F87430990607D52846FFF792FB1F
:1034300018B94FF4807130464BE72846FEF7DAFDA5
:103440008CE5A5682F88384601F072F8064630B939
:10345000754B0293754B00930197774B0AE7D5F8AC
:103460000220D5F80630134323D16B890BBB0AA980
:1034700004F0A8FEE8B1122142F21A00FEF764FE41
:10348000074650B9684B0193684B00936B4A6A4BEF
:103490006B496C48FDF7F4FF95E0122108300EF0FF
:1034A000B5FB2B8820F8023B10220AA9FDF7F1FD9D
:1034B00071E0F36F002B40F09E8106F1540739460E
:1034C000202004F0DFFEF067002840F094813946A8
:1034D000012004F0D7FEF067002860D081898A06B9
:1034E00028D5D5F80220D5F80630134322D1B5F8F7
:1034F0000A80B8F1000F1DD1122142F21A00FEF726
:1035000023FE07460028BDD0122108300EF07EFBB6
:103510002B88054625F8023BF16F2846CA791A31F7
:10352000FDF7B7FDF36FD8790F2834D8C0F110023A
:1035300041462DE0CB0732D5D0E91223D5F80690CD
:10354000D5F802804B4508BF424528D1B0F850203D
:103550006B899A4223D1122142F21A00FEF7F4FD40
:10356000074600288ED0122108300EF04FFB2B8822
:10357000054625F8023BF16F2846CA795231FDF71E
:1035800088FDF36FD8790F2805D8C0F1100200210B
:103590002844FDF7AAFD394642F21A0011E0022143
:1035A00042F21B00FEF7D0FD074600283FF46AAF49
:1035B000022108300EF02AFB2B880380394642F2A4
:1035C0001B00FFF76BFA3046D5E4A6681E486FF083
:1035D0001001FEF7FEFC337843B9711C40221B48F2
:1035E000FDF757FD08211848FEF7C8FC184B1D6869
:1035F000002D3FF44CAC32782B680AB9701C00E007
:10360000002098476D68F3E7124BA0681A681D46C2
:10361000002A3FF43CAC03780BB9013000E00020F5
:10362000904700232B6032E4F43D0100F93D010096
:10363000DA5F0100B0020020725F0100B43D0100BA
:10364000BB3D0100474201001C030020F80A002096
:103650003C0B0020400B002038460EF0FEFADFF84D
:10366000C4A10790079B002B3FF411ACD4F808804D
:10367000092138460EF0E9FA98F8083008F10106F9
:103680004344304693F8099004F01CFEDAF8003009
:10369000002814BF8346B346DBB138460EF0EDFA7E
:1036A000A389099398F80830A38108903B4698F8BD
:1036B0000020DAF800504FFA89F15846A847BDF8C3
:1036C000202007F1080313FA82F3A360BDF8243029
:1036D000A38108214A4898F80050FEF760FC0028B2
:1036E0006DD1012D6BD80121584600F06FFF0546C2
:1036F000002864D0FEF7C4FD002853D102214048C1
:10370000FEF74DFC10B13F48FEF77AFD07223E4917
:1037100005F15B0005F1620BFDF7BBFC07223146AA
:103720005846FDF7B6FC192142F20D00FEF70CFDDC
:103730008146B8B3192108300EF068FA19220646FE
:103740000021FDF7D2FC0023602232707370B2704A
:10375000F37007225946701D0893FDF79AFC95F8FF
:103760005B203273B5F86C20A6F80D20B5F86E20FA
:10377000A6F80F20B5F87020A6F81120089BB5F820
:103780007220A6F8132049461A4642F20D00FEF7B1
:10379000FFFC38B92846022100F00CFE284600F054
:1037A0003EFF0CE01F2385F850300021284600F032
:1037B00001FE284600F033FF0020FEF73BFE98F89C
:1037C0000810384601310EF040FA079B013BDBB28E
:1037D000079347E7A689A0683146FEF787FA0B4BA7
:1037E00004930B4B0390009302960195094B0A4AF0
:1037F0000A490B480AE4F06F70E60FB0BDE8F08F9D
:103800001C030020B1020020B0020020F43D0100A2
:103810003F3E0100E4600100013E0100BB3D0100AC
:103820006E420100380B00202DE9F04F87B00446AE
:103830008668FEF780FB0378012B08D0694B019363
:10384000694B0093694A6A4B6A496B480AE0A2894E
:10385000012A0FD8634B0193634B0093634A644B77
:1038600064496648FDF70CFE404080F311884FF034
:10387000040002DF3278132A03D8934013F40C2F8C
:1038800008D1584B0193584B0093584A584B59490B
:103890005B48E7E704F10805022128460EF0D5F958
:1038A00033780F2B13D1A668B6F8028077780421FD
:1038B00028460EF0CAF9224631784046FEF7E2FB70
:1038C000002F00F087804F480FF092FC82E0132B0E
:1038D00062D1D4F80880DFF80C9198F800B0DFF8D6
:1038E00008A10027BBB25B4574D208EB8702B2F88F
:1038F0000130B2F8032005924FF02001EFF311865A
:1039000081F311881846049300F012FE049B059A77
:10391000054668B90193CDF80890CDF800A03A4B60
:10392000324A34493948FDF7ABFD86F3118831E05E
:1039300086F31188164600F11C0346B34FF02002AF
:10394000EFF3118E82F31188696929B1AA690868B9
:103950006861914208BFA8618EF31188013EB6B23A
:1039600051B9CDF80490CDF800A0274B1F4A21494A
:103970002748FDF785FD0AE0184604930FF0CAF9C1
:10398000284600F091FA0FF033FC049BD5E7284657
:1039900000F045FE0137A5E70E2B0FD1A3680321E8
:1039A0002846B3F801701E780EF04FF9A36822463E
:1039B00019783846FEF766FB66B184E720460EF0BC
:1039C00005F9084B0193084B0093084A084B094935
:1039D000104847E720460EF0F9F8002007B0BDE890
:1039E000F08F00BFF43D0100F93D0100B43D01003E
:1039F00034600100BB3D0100384301007C430100FD
:103A00002C44010048030020A3600100B6430100DC
:103A1000E243010009440100084AD2F8D8303BB91A
:103A2000816841B1C16831B1C2F8D8001846704709
:103A30006FF0440070476FF015007047B00200202F
:103A4000F0B52B4DD5F8D83087B0074663B9294B70
:103A50000193294B0093294A294B2A492A48FDF70B
:103A60000FFD6FF0120440E0012105F16C00FEF73C
:103A700085FA10F0010436D1244B25491F606FF000
:103A8000080303934FF46B72224B05940494029441
:103A90000194009420480FF0B3FDD5F8D8309B680E
:103AA0009847064660B1134B0293134B0190009365
:103AB000124A134B13491948FDF7E2FC344614E04F
:103AC00027B907B0BDE8F040FEF7D6BC012105F1EB
:103AD0006800FEF753FAC30707D405F160011048E8
:103AE0000FF018F901E06FF04404204607B0F0BD74
:103AF000B0020020F43D0100F93D0100B43D010099
:103B00002A600100BB3D01006A440100F40A002064
:103B1000C8290020DD2B00008C0A002093440100FE
:103B20003822002008B504F001FC18B1808900306B
:103B300018BF012000F0010008BD0000F8B51F46C5
:103B4000037813F0010F04460D46438808D142491B
:103B5000897B082904D89F2B02D86FF01500F8BD87
:103B6000A1888B42F9D81F2BF7D9B1F5804FF4D833
:103B700005213A48FEF713FA002868D1294642F297
:103B80000800FEF7E5FB002864D157B92378DA076F
:103B900007D40F2142F20600FEF7D6FA064648B9CE
:103BA00050E0069A394642F20900FEF7D1FB0028A0
:103BB000EFD0F8BD0F2108300EF028F80F2205468F
:103BC0000021FDF792FA63882B80A3886B8007237E
:103BD0006B732378DB070CD5022120481E4CFEF7BF
:103BE000DEF910B1601CFEF70BFB23786B7100232C
:103BF00016E0A06830B1437913F0C00FADD1FEF7E5
:103C0000FFFA01E0FEF72AFB044618B130460DF03A
:103C1000DDFF1AE001236B710FB1022300E00323E3
:103C20002B710022314642F20600FEF7B1FA88B944
:103C30000120FEF761FB044638B940210748FEF732
:103C40009DF902E06FF03600F8BD2046F8BD6FF038
:103C50004400F8BDF8BD00BFB00200201C030020E6
:103C600038B5054606480DF03FFF044630B1002147
:103C70000DF099FF2046FEF75EF90570204638BD2D
:103C8000E407002010B501464FF02003EFF3118048
:103C900083F311880C4B0022D3F8AC40C3F8AC205E
:103CA00080F3118824B90120BDE81040FFF7D8BF88
:103CB0002046FEF740F90123037011462046A281F9
:103CC0000DF071FF204610BDB00200202DE9F34138
:103CD000284E96F8403003F00603062B07460CD01A
:103CE000254B0193254B0093254A264B264927480F
:103CF000FDF7C6FB6FF0220039E0254D2B684360CD
:103D00002860102106F16C00FEF738F910F0100859
:103D100001D000202BE06FF0080106F16C00FEF7E7
:103D200058F94246414642F22500FEF731FA044670
:103D300098B1114B0193174B0093174A114B12493D
:103D40001648FDF79DFB6FF0100106F16C00FEF7C1
:103D500040F9C5F80080204609E02C68002CD8D036
:103D6000BC4202D02368002098476468F6E702B09E
:103D7000BDE8F081B0020020F43D01003F3E0100AB
:103D8000013E010041600100BB3D0100BF44010054
:103D90003C0B0020F93D0100B43D0100EE44010060
:103DA000F8B51A4C236807460A4613B16FF00F00A6
:103DB000F8BD04211648FEF7F2F806460028F5D1B2
:103DC00003211348FEF7EBF8E0B1402142F2260050
:103DD0002260FEF7B9F9054618B920606FF0360089
:103DE000F8BD402108300DF011FF40223946FDF7A3
:103DF00050F93246294642F22600FEF7C9F918B1B9
:103E00002660F8BD6FF03000F8BD00BF400B002009
:103E10001C03002038B5064B1C6805463CB12368DE
:103E20001BB195F8501028469847A469F6E738BDAD
:103E3000680B0020838910B504462BB100690DF092
:103E4000C5FE00232361A38110BDBFF35F8F50E83F
:103E5000003F5A1E40E800210029F8D1BFF35F8FD0
:103E60001846704738B5044600F130050021284651
:103E70000DF080FE10B10DF0A9FEF7E72046FFF728
:103E8000D9FF04F14C00BDE83840FFF7DEBFBFF3B7
:103E90005F8F50E8003F5A1C40E800210029F8D10C
:103EA000BFF35F8F18467047004870473403002007
:103EB000084B70B51C6805465CB1E6683EB1B5F8C4
:103EC0007230B5F87020B5F86A102846B047A4697A
:103ED000F2E770BD680B0020F8B5074608460E46AD
:103EE000FEF787FA054608B9002511E0094B1C6862
:103EF00074B1A3680BB9A469FAE73146384698470C
:103F00000028F1D03046FEF774FA0028F3D1EBE731
:103F10002846F8BD680B0020F8B5C378044613B9ED
:103F200000F1620601E000F15B06074B1D6804F139
:103F300054073DB12B691BB13A463146204698479C
:103F4000AD69F6E7F8BD00BF680B002038B5064B39
:103F50001C68054634B1636913B1297A284698472D
:103F6000A469F7E738BD00BF680B002090F8513016
:103F7000032B10B5044614D1037A8B4201D30020E1
:103F800010BD437A8B42FAD2C3784172012B03D120
:103F900004F02EF810B9F2E76FF01500237A63727F
:103FA00010BD6FF0380010BD024B1A6882611860B6
:103FB000704700BF680B0020012A7FB504460D46FC
:103FC0001BD0022A5DD18B681E88838963B1414B67
:103FD0000193414B0093414A414B42494248FDF70E
:103FE0004FFA2046FFF726FFAB890436F31A9BB23F
:103FF000A381002B51D0256169E0838943B9354BFA
:104000000193354B0093354A354B364937480AE022
:104010008E89B34212D22F4B01932F4B00932F4A1C
:104020002F4B30493248FDF72BFA2046FFF702FFAD
:10403000284604B0BDE870400DF0C8BD00690830E6
:104040000DF020FE864208D9224B0193224B0093AB
:10405000224A234B23492748E5E72069AA89A96812
:1040600008300DF0D9FDA389AA899B1AA38128469F
:104070000DF0ACFDA389002B29D12569A381236113
:104080000BE0144B0293144B01920093134A144B10
:1040900014491948FDF7F4F9C7E7AB68AA891B88EA
:1040A000191D91420CD00B4901930B4B03910292C5
:1040B00000930A4A0A4B0B491048FDF7E1F9B7E7AC
:1040C0002946204604B0BDE8704000F001BE04B0AF
:1040D00070BD00BFF43D0100F93D0100B43D010099
:1040E00078610100BB3D0100514501007E450100A2
:1040F000AC450100D04501000746010035460100EE
:1041000073B5054688790C4616460DF0E5FC438BE1
:10411000032B0FD8184B0193184B0093184A194BD7
:1041200019491A48FDF7ACF920460DF04FFD6FF024
:1041300015001FE095F85130032B0FD00E4B019363
:104140000E4B00930E4A0F4B0F491148FDF798F99B
:1041500020460DF03BFD6FF038000BE0E38923446F
:10416000133323F0030305F130001E6021460DF0E8
:104170001FFD002002B070BDF43D0100F93D0100BB
:10418000B43D010028610100BB3D0100194101005F
:10419000614601002DE9F0410E4D064600F11C0775
:1041A0004FF00008002138460EF004FE044670B1BE
:1041B00063680BB1304698472B6823606B68C4F87E
:1041C00004802C60002BEDD1024B5C60E8E7BDE879
:1041D000F08100BF440B0020F0B5044685B00E46C8
:1041E0002C484FF0FF311D4617460FF043F820468C
:1041F000FFF7D0FF94F85130032B3FD1042106F193
:1042000008000DF01AFD228842EA07320280B389C5
:10421000043B4380F3893344133323F00303022226
:104220001F681A703046FEF731FC58B11A4B0293E2
:104230001A4B019000931A4A1A4B1B491B48FDF771
:104240001FF91BE01A4A136850681968116083420D
:1042500008BF51605F604FF02002EFF3118182F3DD
:10426000118800221A60A26912B9A361636101E09A
:104270001360A36181F31188012009E005480EF065
:10428000B7FF25B130460DF0A1FC002000E0284624
:1042900005B0F0BD34030020F43D0100F93D0100FC
:1042A000B43D01006E610100BB3D01003C400100D6
:1042B000440B002038B51F4B002201215A600546EF
:1042C0000EF05CFBBFF35F8F1B48C36CBFF35F8FC7
:1042D0000246A3B190F851309BB9BFF35F8F031D25
:1042E00053E8001F21F0400443E8004EBEF1000FE8
:1042F000F6D1BFF35F8F4B0603D5FFF7B3FD012067
:1043000038BD92F85140032CF9D105F10C000B4B4C
:10431000002204210EF032FB02232B7405F1180059
:10432000074B002204210EF029FB01232B772046A6
:1043300038BD00BF4C0B00206C0B00209C0B0020F4
:10434000880B0020F8B5194CBFF35F8FE56CBFF305
:104350005F8F07460DB10020F8BDA82229462046F0
:10436000FCF7C3FEBFF35F8F04F14C03012653E853
:10437000002F43E800610029F9D1BFF35F8F0722C6
:10438000394604F15400FCF784FE1823A4F86C307D
:10439000282304F1800026726672A570A4F86E309E
:1043A00003490FF01FFA2046F8BD00BF6C0B002038
:1043B000554700007FB590F851508D4204460E4697
:1043C0000AD1504B0193504B0093504A504B5149E6
:1043D0005148FDF755F893E084F8511015B94C3069
:1043E000FFF755FD94F85130042B7ED8DFE803F039
:1043F0001F8888038800A378022B00F0818004F1D5
:1044000030000EF03BFC04F11C000EF037FC0021E4
:1044100042480EF0A7FB002320466364A36400F02B
:104420003BFB204604B0BDE87040FFF7F3BCA37827
:10443000022B4CD0EB1E012B44D8204600F064FB2D
:10444000374B1D683DB16B681BB194F85010204686
:104450009847AD69F6E7334E4FF02003EFF3118133
:1044600083F3118863692BB1A0691A686261834282
:1044700008BFA26181F3118853B132681A60726873
:104480005D60336002B9736027480EF0B1FEE3E768
:10449000A3781BB904F180000FF0C2F9BFF35F8F5E
:1044A000043454E8003F43F0400344E80032002A5B
:1044B000F7D1BFF35F8F1948002104B0BDE8704009
:1044C0000EF050BB022D09D12046FFF7A3FC04F1EA
:1044D0004C0004B0BDE87040FFF7B7BC012D0FD110
:1044E00094F85030002BF2D0EEE7064B0293064BC7
:1044F00000930196064B054A06490C48FCF7C0FF9D
:1045000004B070BDF43D01003F3E0100013E0100DA
:104510005C610100BB3D0100804601004C0B0020A6
:10452000680B0020440B0020340300209E4601004D
:1045300010B50C4CBFF35F8FE36CBFF35F8F6BB1B3
:1045400094F85130033B012B0AD82388834207D1CA
:1045500004F14C00FFF79BFC204610BD184610BD2F
:10456000002010BD6C0B002038B50D46044600F14C
:10457000540107222846FCF75CFD60B1E37807226E
:1045800013B904F1620101E004F15B012846BDE8C2
:104590003840FCF74EBD38BD10B50B4CBFF35F8FF4
:1045A000E36CBFF35F8F01465BB1A3784BB9204644
:1045B000FFF7DAFF28B904F14C00FFF768FC20464A
:1045C00010BD002010BD00BF6C0B002038B50E4C94
:1045D000BFF35F8FE36CBFF35F8F0D468BB1A378A2
:1045E0007BB940B994F85130AB420AD10748FFF784
:1045F0004EFC054838BD01462046FFF7B5FF0028B0
:10460000F0D0002038BD00BF6C0B0020B80B00209C
:1046100010B504464C30FFF73AFC204610BD4C3034
:10462000FFF713BC5430704790F85130013B70B520
:1046300005460E46032B03D8DFE803F005280E28B5
:104640006FF0380070BD85F850100021FFF7B2FE02
:104650000020FDF7EFFE19E0032140F20640FDF7D0
:1046600073FD0446A0B1032108300DF0CFFA2B886A
:1046700003808670214640F20640FEF70FFA04469A
:1046800048B904212846FFF795FE04E0002070BDDC
:104690006FF0360070BD204670BDF8B507460D4678
:1046A00042F213000E21FDF74FFD0646C8B10E2160
:1046B00008300DF0ABFA002104460E22FCF715FD80
:1046C0003B8823802B8863806B88A380AB88E38042
:1046D000EB882381314642F21300BDE8F840FEF733
:1046E000DDB96FF03600F8BD38B50A88B0F86A3029
:1046F0009A4204460D460CD84A889A4209D3B0F82B
:1047000070208B889A4204D1B0F87220CB889A42EC
:104710001AD004F180000FF083F80D4B93F870303D
:104720009A0703D594F874309B0701D4E3782BB92A
:1047300029462046BDE83840FFF7AFBF294620464E
:10474000BDE8384000F00ABB6FF0440038BD00BF40
:10475000B002002007B530F8143CADF8003030F856
:10476000123CADF8023030F8103CADF80430694628
:1047700030F80E3CADF806308038FFF7B5FF03B0D7
:104780005DF804FB38B5074B0D46002808BF1846F6
:104790004FF0FF310DF0A8F9291D04460DF003FA82
:1047A000204638BD9C0700202DE9F04106460D4605
:1047B00000210846FFF7E6FF3378032B044604D0B8
:1047C0000DF004FA0020BDE8F081C389114E0344C6
:1047D000133323F00303002200F108071A60384660
:1047E000B6F880800DF04EFA804502D2B6F88060AF
:1047F00003E038460DF046FA86B255F8081F3246F7
:1048000038460DF009FA314628460DF01EFA2046CA
:10481000BDE8F081B002002090F85130F7B50546B0
:104820009BB9BFF35F8F031D53E8002F22F04001B7
:1048300043E80014002CF7D1BFF35F8F530604D573
:1048400003B0BDE8F040FFF70DBB002105F13000DB
:104850000DF090F9044678B9224B0193224B009356
:10486000224A234B23492448FCF70AFE404080F3A8
:1048700011884FF0040002DF204B8189B3F88020BB
:1048800091421E4602D800231A461DE005F1510749
:1048900001463846FFF788FF0146D0B101230022C8
:1048A0002846FFF799FCA0B1A289B6F880309A4259
:1048B00008D921463846FFF777FF014648B1012362
:1048C0001A46EDE70023012221462846FFF784FC23
:1048D00028B9204603B0BDE8F0400DF077B903B029
:1048E000F0BD00BFF43D0100F93D0100B43D010001
:1048F00038610100BB3D010098400100B00200207A
:1049000010B9084B18607047C3682BB1054A13688B
:104910002BB91060184670476FF0150070476FF0A4
:1049200044007047102100200C4B0D4A196810B547
:104930001160596801B95A6092600A4A1A605B684E
:104940000BB9064B5A6001F0BBFB03F061FC044657
:1049500008B900F039FA204610BD00BF440B002012
:10496000580B0020600B0020704700001FB50C4A58
:10497000136823B90B4850600A6018460CE00A4BD4
:1049800002930A4B01900093094A0A4B0A490B48CB
:10499000FCF776FD6FF00B0005B05DF804FB00BF7F
:1049A0001C0C00209C030020F43D0100F93D010097
:1049B000B43D010085610100BB3D0100CA46010014
:1049C0007047000000238360054B596800F108021E
:1049D00011B95A601A6070470A605A60704700BF88
:1049E000140C0020436C30B5E3B1083B0022CBB17E
:1049F0008B4210D101F108058B68846C22B9A54265
:104A0000436405D1836403E0A542136008BF826458
:104A100000238B6030BD13F1080203D09B680BB1FB
:104A2000083BE4E730BD036810B504462BB143688A
:104A30005B6803B1984700232360E3681BB12046FD
:104A4000BDE81040184710BD30B585B00C4B02933F
:104A5000A0F1100405460B4B00930B4A0B4B01943D
:104A60000B490C48FCF70CFD55F8100C2146FFF7DC
:104A7000B9FF204605B0BDE83040FFF7D4BF00BF06
:104A8000F43D0100F93D0100B43D01009D610100CC
:104A9000BB3D010001470100194B2DE9F3411C68A2
:104AA00006464CB30027083CB8462CB3636801A9FE
:104AB0003046984700281BDB019D23882B87A5F8EB
:104AC0005430104905F110000EF08CFEB26CAF604E
:104AD00005F1080312B9B364736401E01360B364B1
:104AE00001982E604368C5F80C801B6803B1984795
:104AF000A4680CB1083CD8E702B0BDE8F08100BF63
:104B0000140C0020494A0000436C10B59BB1B3F16E
:104B1000080000D110BD1C684CB1083CFFF783FFB2
:104B20004CB1A368204613B1A3F10804F6E7BDE831
:104B30001040FFF778BF10BD38B5446C0D464CB13E
:104B4000083C3CB163689B6813B1294620469847EE
:104B5000A468F4E738BD0431FFF714BEF8B5144675
:104B600005460F4602F1080004211E460DF065F8C7
:104B7000A189478004390180324621462846BDE894
:104B8000F840FFF7BDBA0000F0B58B89032B85B064
:104B900007460E4608D8364B0193364B0093364AEB
:104BA000364B3749374830E00846042150F8084F63
:104BB00065880DF04AF8B3899D420CD02C4A0193C8
:104BC0002C4B0392009302952C4B2B4A2C492E48D8
:104BD000FCF756FC49E0637843B9254B0193254B1C
:104BE0000093254A254B264928480EE02378012BBF
:104BF0003BD0132B0CD1012D37D81D4B01931D4BEE
:104C000000931D4A224B1E492248FCF739FC2CE038
:104C10000193174A204B02920093204A174B1849E0
:104C20001F48FCF72DFC042100203F686478FFF743
:104C3000A9FD00F108060546042130460CF0E6FF08
:104C4000012344700221002403708170C470304637
:104C50000CF0DCFF2346047044702A4605213846D8
:104C600005B0BDE8F040FFF779BF05B0F0BD00BF6B
:104C7000F43D0100F93D0100B43D010092610100E5
:104C8000BB3D0100214701004F4701008047010063
:104C9000CD610100B14701003F3E0100013E01002E
:104CA000DD470100406C38B1083828B1B0F8543005
:104CB0008B4201D08068F6E77047406C30B108380D
:104CC00020B1038F8B4201D08068F7E77047000066
:104CD0007FB58B89032B06460C460AD8164B0193E9
:104CE000164B0093164A174B17491848FCF7C8FB98
:104CF0001BE00846042150F8083F5D880CF0A5FF32
:104D000029463046FFF7D9FF58B90B4B0293104B99
:104D1000009301950B4B0F4A0B490F48FCF7B0FB72
:104D200003E0436821461B699847204604B0BDE86C
:104D300070400CF04BBF00BFF43D0100F93D010095
:104D4000B43D0100BF610100BB3D01000B48010003
:104D50003F3E0100013E0100384801002DE9F041CD
:104D6000184B1A780C46511C11F0FF010ABF023291
:104D700019701A700546042100201E78FFF702FD05
:104D800000F108080746042140460CF03FFF1223BB
:104D900046700821002603708170C67040460CF0F2
:104DA00035FF2388038063884380A3888380E3885A
:104DB000C3803A46284633460521FFF7CFFE3046EA
:104DC000BDE8F081AC0C00200148FFF7FBBD00BF3F
:104DD000900300200620704710B50A49002311F8FF
:104DE000334084424FEAC30203D1064B1344987800
:104DF00010BD01331B2BF2D110F0400F14BF002067
:104E0000062010BD0C62010010B50446006908B10F
:104E10000CF0DCFEA3680BB1204698472046182210
:104E20000021BDE81040FCF760B908B501F10800A9
:104E30000CF01BFF002008BD2DE9FF410D68064660
:104E40000C464FF000084FF4205302A900682F6869
:104E50008DF80880ADF80A30FDF742F898B142F6B7
:104E6000010303A930688DF80C80ADF80E30FDF712
:104E700037F840B12369002B43D0328A59889142D8
:104E80003FD25A803DE061683068FDF729F810B1E3
:104E90000023236135E0E368A0681A783AB1B5F8D9
:104EA000563081895B1A934201DA00202AE00421FE
:104EB00008300CF0ABFE338AA16820610380438088
:104EC0008A89B5F856308968D6F804809B1A00257F
:104ED0000A44009531469BB23846C047011EE4DBC8
:104EE000E06802780B1D0AB9037006E09A4204D00C
:104EF000A2689389043B9381D7E7A06808300CF03F
:104F000085FE012004B0BDE8F0818B6870B50546D0
:104F10000C460E6863B94868012108300CF076FE33
:104F20002B68A0601B78002B0CBF012302230370A9
:104F3000A3681B78012B02D0022B16D032E02B681D
:104F40001B78002B2ED16068042108300CF05EFE27
:104F5000E0602B8A03802B6862685B8843809089BD
:104F6000B6F85630181A042818E02B681B78022B64
:104F700018D16068122108300CF048FEE0602B8ADE
:104F800003802968E068102201310230FCF781F8C3
:104F90006268B6F856309089181A122894BF00201B
:104FA000012070BD002070BD2DE9F0410E6888B071
:104FB00005460C46002742F6010302A90068D6F810
:104FC00000808DF80870ADF80A30FCF789FF10B941
:104FD0000023A36036E04FF4205303A928688DF81E
:104FE0000C70ADF80E30FCF77BFF38B1A3684BB303
:104FF0002A8A5988914225D25A8023E06268B6F8FD
:10500000563092899B1A032B1DD9102300900DEB6B
:1050100003026E6829464046B047021ED8DB237C57
:105020009A42D5D104A9E068FCF703F80028CFD153
:1050300060746068042108300CF0E8FD2B8AA060E1
:1050400003804380012008B0BDE8F08110B517232C
:105050000446A0F8563043870649A0300EF0C2FB44
:105060000023C4F89830C4F89C302068BDE8104094
:1050700001F080BC4955000010B512F0010F8B7C87
:1050800004D013F0150F18D04C68B4B1940704D5B0
:1050900013F02A0F13D0896889B11A4012F0300F2B
:1050A00002D0037A022B0CD912F00C020AD0837AB8
:1050B000002B14BF00220F2204E0022202E0032290
:1050C00000E00522104610BD2DE9F7430F680646A3
:1050D0000C4600684968D7F80090FCF701FF80464D
:1050E00000284ED1152231464846FFF7C5FF054638
:1050F000207538B1E3681D78002D43D084F8148002
:1051000045463FE02075A068022108300CF07EFD86
:10511000338AA168206103808A89B7F8563089688C
:10512000D6F8048000959B1A9BB20A444846314643
:10513000C047011E08DA01F1FF03FE2B9ABF494266
:10514000C9B20E2121751DE0E06802788B1C0AB9F6
:10515000037006E09A4204D0A2689389023B9381CF
:1051600010E0A06808300CF051FDA268B7F8563086
:105170009589E2685B1B1578AB42D4BF00250125F9
:1051800000E00125284603B0BDE8F08308B50078AB
:10519000FFF722FE0138C0B204289ABF024B53F831
:1051A0002000024808BD00BFF8610100355600002C
:1051B00010B58B89022B044609D0102B10D1022385
:1051C00000F8013B8A898968FBF763FF06E000234A
:1051D000037001F108000CF048FD6080012010BD53
:1051E000002010BD10B50421FFF75CFD0446C83057
:1051F0000DF0FEFFD4F8943043B104F1A00147F262
:1052000030520348BDE810400EF042BB10BD00BF55
:10521000382200207FB5154D2C680E46B4B9144BCA
:105220006B6005F19003BFF35F8F53E8002F43E8F5
:1052300000410029F9D1BFF35F8F022205F1C800B8
:1052400011460DF0CDFF356020460CE0094B02936E
:10525000094B01900093094A094B0A490A48FCF797
:105260000FF96FF00B0004B070BD00BFB00C002050
:10527000BC030020F43D0100F93D0100B43D0100F4
:10528000B9630100BB3D01006D480100036893F85C
:105290005130032B0AD1BFF35F8FD0F89000BFF3DA
:1052A0005F8FC0F3800080F00100704701207047DD
:1052B00073B5054600F1C806C5F894100C46304693
:1052C0004FF0FF310DF0D6FF2846FFF7DFFF78B92A
:1052D000144B0193144B0093144A154B154916486F
:1052E000FCF7CEF830460DF083FF6FF0380017E082
:1052F000266906F108000CF0C0FCB389A081E381A7
:1053000020692D680CF07EFC236906469868FFF73B
:105310003DFF3246034604212846FFF71FFC0020CC
:1053200002B070BDF43D01003F3E0100013E0100AE
:10533000DF610100BB3D0100A24801002DE9F743F8
:105340000446A0301E460F4690460EF069FAD4F887
:10535000943053B91C4B01931C4B00931C4A1D4BBA
:105360001D491E48FCF78CF81BE0186928B10CF0A9
:105370002DFCD4F8943000221A61D4F894302068BF
:10538000D3F8049000255D603A46009331464346C9
:10539000C847D4F8940043680BB9FFF735FDC4F84B
:1053A0009450D4F8981059B1D4F89C200B68C4F8E4
:1053B0009830914208BFC4F89C302046FFF778FF30
:1053C000002003B0BDE8F083F43D01003F3E010042
:1053D000013E010069630100BB3D0100BF480100BF
:1053E0008A8989680023FFF7A9BFFFF7F9BFFFF794
:1053F000F7BFFFF7F5BFFFF7F3BFFFF7F1BFFFF709
:10540000EFBFFFF7EDBFFFF7EBBFFFF7E9BF10B44A
:105410000A4690B189680B88162B03D80022042312
:10542000114607E0412B28BF41234387A0F856309F
:105430009289002310BCFFF781BF10BC704770B584
:1054400004468868D4F8942042B3136933B1918933
:1054500003F1100529449960D1899981137DC5789C
:10546000EBB9052D206805D00F2D18D1037A012B3B
:1054700009D914E0037A012B05D9022B05D0032B9F
:105480000DD1042102E0022100E00321FEF76EFDB0
:1054900028B9D4F8943001221A7570BD0E25002267
:1054A0002B4620461146BDE87040FFF747BFF7B5D1
:1054B00000F190030446BFF35F8F53E8002F42F0E2
:1054C000040243E800210029F7D1BFF35F8F04F104
:1054D000C80528460DF08CFE28460DF089FED4F84C
:1054E00098507DB9D4F894300022C4F89820C4F8BC
:1054F0009C20C3B10E231146204603B0BDE8F04006
:10550000FFF71CBF2E686F682FB1002300951A4665
:105510000E211846B8472846FFF776FC002EE1D04A
:1055200035463668EFE703B0F0BD10B50446FFF727
:10553000BEFF206801F028FA2046DC220021BDE8E9
:105540001040FBF7D2BD000013B50C4B01930C4B80
:105550000C4A0D49009304460C4B0D48FBF790FF95
:10556000A4F1A000FFF7A3FF54F8A00C01F00CFA7F
:10557000002344F8A03C02B010BD00BFF43D010080
:10558000F93D0100B43D0100BB3D0100786301001D
:10559000E6480100F7B504460D4639B1002205235F
:1055A000114603B0BDE8F040FFF7C8BE0668337A85
:1055B000012B2ED0D0F894305BB31B7D4BB300F1A0
:1055C000C8074FF0FF3138460DF054FE2046FFF774
:1055D0005DFE78B9104B0193104B0093104A114BAC
:1055E00011491248FBF74CFF384603B0BDE8F040C4
:1055F0000DF0FEBDD4F894301F69B868FFF7C6FD02
:105600003A46034604213046FFF7A8FAD4F894300E
:105610001D6103B0F0BD00BFF43D01003F3E01003D
:10562000013E010096630100BB3D0100A24801005C
:105630000620704708B50421FFF734FBBDE8084099
:10564000C8300DF0D5BD08B50421FFF72BFBBFF323
:105650005F8F00F1900353E8002F22F0010243E82E
:1056600000210029F7D1BFF35F8FC830BDE80840A3
:105670000DF0BEBD08B50421FFF714FBBFF35F8F2B
:1056800000F1900353E8002F22F0020243E80021CA
:105690000029F7D1BFF35F8FC830BDE808400DF097
:1056A000A7BD000090F85130032B13B508D0184B5C
:1056B0000193184B0093184A184B194919481FE0D9
:1056C0000421FFF7FAFA044650B9114B0193164B27
:1056D0000093164A114B12491548FBF7D1FE13E00F
:1056E000BFF35F8FD0F89030BFF35F8F5B070BD5B0
:1056F000074B0193074B0093074A084B08490D4895
:10570000FBF7BEFE002000E0204602B010BD00BF47
:10571000F43D01003F3E0100013E0100AC63010089
:10572000BB3D010002490100F93D0100B43D01000B
:10573000204901004B4901002DE9F3410F680C4657
:10574000064601462A223846FFF796FC0546207594
:10575000D0B9628A01900092237CD6F80880E26872
:1057600031463846C047002802DB237C984208D0E7
:1057700000F1FF03FE2B9ABF4042C0B20E202075FD
:1057800003E02575012500E00025284602B0BDE8AC
:10579000F0812DE9F74306468868D1F800900C4661
:1057A00008300021D9F800800CF030FA0027E060C2
:1057B0002774152231464046FFF75EFC05462074EB
:1057C000F0B9A168B9F856308A898968A088009034
:1057D0009B1A77680A449BB231464046B847011E7F
:1057E00008DA01F1FF03FE2B9ABF4942C9B20E212C
:1057F000217406E0A06808300CF008FA012500E0EA
:105800003D46284603B0BDE8F083000030B585B0C2
:105810000D461446FFF746FFE8B1B0F85630621C5B
:105820009A420DD90D4901930D4B039102920093B9
:105830000C4A0D4B0D490E48FBF722FE00200AE0F2
:1058400000210846FFF787F90121044608300CF0D3
:10585000DDF90570204605B030BD00BFF43D010004
:105860003F3E0100013E010084630100BB3D010099
:105870007F49010010B5046801F108000CF0F5F94A
:1058800000221E212046FFF7C1FF024620B1034B34
:1058900004212046FFF762F9002010BD7556000074
:1058A0002DE9F0418B681D88162D06461FD9D0F8CA
:1058B0000080022203214046FFF7A8FF0746C8B137
:1058C000022108300CF0A2F9002441230370447037
:1058D0000A4B40463A460421FFF740F9412D28BFC4
:1058E00041257587A6F856502046BDE8F081042072
:1058F000BDE8F0810E20BDE8F08100BF47560000F2
:105900002DE9F041884617460121042205461E462E
:10591000FFF77CFF044680B1042108300CF076F9D3
:1059200080F80080C670A0F8017022462846044B1B
:105930000421BDE8F041FFF711B9BDE8F08100BFD7
:1059400047560000F0B58B8985B004460F4643B931
:105950004C4B01934C4B00934C4A4D4B4D494E4898
:1059600032E00846012150F8085F4C4E0CF06DF90A
:105970002878002216F832E0484986454FEAC203EB
:105980008E4608D119448E78012E20D1BFF35F8F47
:1059900004F1900203E001321B2AEBD15AE052E8F5
:1059A000001F41F0010042E8000CBCF1000FF6D1ED
:1059B000BFF35F8FC90726D5324B0193384B009355
:1059C000384A334B33493848FBF75AFD57E0052E28
:1059D00019D1BFF35F8F04F1900252E8001F41F02C
:1059E000020042E8000CBCF1000FF6D1BFF35F8F5C
:1059F0008A0708D5234B0193294B0093294A244B4E
:105A000024492A48E0E77344BA895978914210D969
:105A10001C4B03932B7802931B4B019200931B4A60
:105A20001B4B1C492248FBF72BFD012E27D10423D9
:105A300007E05B68394620469847012E03461ED191
:105A4000E8B12978D9B10022206805B0BDE8F0405E
:105A5000FFF756BF0B4B0293114B01900093114A75
:105A60000B4B0C491348FBF70BFD2D782846FFF72D
:105A7000B3F920B11DB1062300222946E4E705B0A1
:105A8000F0BD00BFF43D0100F93D0100B43D01004F
:105A9000EC610100BB3D0100B44901000C62010052
:105AA0003F3E0100013E0100DF4901000B4A0100B9
:105AB0003A4A0100694A01002DE9F0438B89062B1F
:105AC0008DB080460C4601D0142B15D12046042100
:105AD00050F8083FD8F800901D885E8802AF0CF09F
