:100000000C300020E90A0100170B010089090100EA
:100010008909010089090100890901008909010094
:10002000890901008909010089090100B50701005A
:1000300089090100890901005907010089090100A6
:10004000B10A010033F20000B10A0100B10A010057
:10005000B10A0100B10A0100B10A0100B10A0100B0
:10006000B10A0100B10A0100B10A0100B10A0100A0
:10007000B10A0100B10A0100B10A0100B10A010090
:10008000B10A0100B10A0100B10A0100B10A010080
:10009000B10A0100B10A0100B10A0100B10A010070
:1000A000B10A0100B10A010000000000C9130000FC
:1000B000000000000109010000000000010901002A
:1000C000000000000109010000000000010901001A
:1000D0000000000001090100BC050020151100000E
:1000E00000000000010901000000000001090100FA
:1000F00000000000010901000000000001090100EA
:1001000000000000F1F10000000000000109010002
:10011000000000002BF200000000000001090100B7
:1001200000000000010901000000000001090100B9
:1001300000000000BD0E00000000000001090100E9
:100140000000000001090100000000000109010099
:100150000000000001090100000000000109010089
:1001600000000000010901000000000021F2000071
:10017000000000000109010002B47146490849006D
:10018000095C49008E4402BC7047C04603B4714606
:10019000490840004900095E49008E4403BC70478D
:1001A00003B47146490840004900095A49008E4489
:1001B00003BC7047002243088B4274D303098B426F
:1001C0005FD3030A8B4244D3030B8B4228D3030C27
:1001D0008B420DD3FF22090212BA030C8B4202D3C9
:1001E0001212090265D0030B8B4219D300E0090AF1
:1001F000C30B8B4201D3CB03C01A5241830B8B42FA
:1002000001D38B03C01A5241430B8B4201D34B03E2
:10021000C01A5241030B8B4201D30B03C01A524147
:10022000C30A8B4201D3CB02C01A5241830A8B42CC
:1002300001D38B02C01A5241430A8B4201D34B02B5
:10024000C01A5241030A8B4201D30B02C01A524119
:10025000CDD2C3098B4201D3CB01C01A52418309CD
:100260008B4201D38B01C01A524143098B4201D307
:100270004B01C01A524103098B4201D30B01C01A32
:100280005241C3088B4201D3CB00C01A52418308AC
:100290008B4201D38B00C01A524143088B4201D3D9
:1002A0004B00C01A5241411A00D201465241104639
:1002B0007047FFE701B5002000F0F0F802BDC0462E
:1002C0000029F7D076E7704703460B437FD400221E
:1002D00043088B4274D303098B425FD3030A8B42DA
:1002E00044D3030B8B4228D3030C8B420DD3FF2244
:1002F000090212BA030C8B4202D31212090265D012
:10030000030B8B4219D300E0090AC30B8B4201D3C4
:10031000CB03C01A5241830B8B4201D38B03C01A0B
:100320005241430B8B4201D34B03C01A5241030B82
:100330008B4201D30B03C01A5241C30A8B4201D333
:10034000CB02C01A5241830A8B4201D38B02C01ADE
:100350005241430A8B4201D34B02C01A5241030A55
:100360008B4201D30B02C01A5241CDD2C3098B423A
:1003700001D3CB01C01A524183098B4201D38B01B7
:10038000C01A524143098B4201D34B01C01A52415A
:1003900003098B4201D30B01C01A5241C3088B429F
:1003A00001D3CB00C01A524183088B4201D38B008A
:1003B000C01A524143088B4201D34B00C01A52412C
:1003C000411A00D201465241104670475DE0CA0F03
:1003D00000D04942031000D34042534000229C46C3
:1003E00003098B422DD3030A8B4212D3FC228901CD
:1003F00012BA030A8B420CD3890192118B4208D3A3
:10040000890192118B4204D389013AD0921100E004
:100410008909C3098B4201D3CB01C01A5241830918
:100420008B4201D38B01C01A524143098B4201D345
:100430004B01C01A524103098B4201D30B01C01A70
:100440005241C3088B4201D3CB00C01A52418308EA
:100450008B4201D38B00C01A5241D9D243088B4240
:1004600001D34B00C01A5241411A00D201466346E3
:1004700052415B10104601D34042002B00D5494247
:10048000704763465B1000D3404201B5002000F086
:1004900005F802BD0029F8D016E770477047C0463E
:1004A000002B11D1002A0FD1002900D1002802D041
:1004B0000021C943081C07B4024802A14018029059
:1004C00003BDC046D9FFFFFF03B4684601B50298DB
:1004D00000F056F8019B9E4602B00CBC7047C04627
:1004E000F0B54F464646C0B41604360C9946330064
:1004F00005042C0C070C150C63437E436F436543C6
:100500001C0CAD1964199C46A64203D980235B02DA
:10051000984647446346250CEF191D044B464A4351
:1005200043432D0C240464199918C91920000CBCEC
:1005300090469946F0BDC04610B50023002802D071
:1005400000F0EAF8431C180010BDC046094B4208F1
:100550001A40821A1000084B920818401340C01825
:1005600003091818054B1840030218180304C01893
:10057000000E704755555555333333330F0F0F0F5A
:10058000F0B54D46564644465F46F0B4924683B0B9
:1005900004000D0099468B422FD82CD04946504676
:1005A00000F0AEF829000600200000F0A9F8331A88
:1005B0009846203B9B4600D574E053465A469340EC
:1005C0001F005346424693401E00AF4229D826D012
:1005D0005B46A41BBD41002B00DA79E0002200231A
:1005E0000092019301235A4693400193012342460E
:1005F0009340009319E08242D0D900220023009258
:1006000001930C9B002B01D01C605D600098019948
:1006100003B03CBC90469946A246AB46F0BDA3420F
:10062000D6D900220023009201934346002BE8D044
:10063000FB0772081A4346467B080EE0AB4201D125
:10064000A2420CD8A41A9D41012024196D41002119
:10065000013E24184D41002E06D0AB42EED9013E9A
:1006600024196D41002EF8D15B46009801990019BC
:100670006941002B22DB2B005A46D3402A00444616
:10068000E2401C005B461500002B2CDB26009E4040
:10069000330026004746BE403200801A9941009040
:1006A0000191AEE7424620239B1A5246DA4041466A
:1006B00013004A468A4017001F4382E74246202320
:1006C0009B1A2A0046469A402300F3401343D5E77D
:1006D0004246202300219B1A002200910192012210
:1006E000DA40019282E74246202326009B1ADE4030
:1006F0002F00B446974066463B003343C9E7C046E7
:1007000010B5002903D100F027F8203002E0081CC2
:1007100000F022F810BDC046414208401C210123D0
:100720001B04984201D3000C10391B0A984201D3D4
:10073000000A08391B09984201D30009043902A2B2
:10074000105C401A7047C0461B1C1D1D1E1E1E1E3D
:100750001F1F1F1F1F1F1F1F1C2101231B04984247
:1007600001D3000C10391B0A984201D3000A083942
:100770001B09984201D30009043902A2105C4018F9
:100780007047C0460403020201010101000000009D
:100790000000000010B51300426854680A000021F0
:1007A000A04710BD70B502000D00174C012803D002
:1007B000022807D1002206E01C212068FFF7EAFF8B
:1007C000002205E001221C212068FFF7E3FF01223F
:1007D00019212068FFF7DEFF012D04D00022022D31
:1007E00008D0012206E02A0018212068FFF7D2FF76
:1007F000002204E018212068FFF7CCFF0122172116
:100800002068FFF7C7FF70BDC006002010B50C00C0
:10081000054B002218680721FFF7BCFF21000348A1
:1008200001F038F810BDC046C0060020E6200100E7
:1008300070B50D00110004AA108805AA12780024D2
:10084000D20718D41C00C318022B12DCED6822005A
:10085000281800F0FCF92D78084B2A00142118689C
:10086000FFF798FF0648002D00D0064801F012F867
:1008700001E007246442200070BDC046C00600208D
:10088000002101001021010070B50D00110004AA23
:10089000108805AA12780024D20718D41C00C318A7
:1008A000022B12DCED682200281800F0D0F92D7818
:1008B000084B2A0013211868FFF76CFF0648002D2B
:1008C00000D0064800F0E6FF01E007246442200063
:1008D00070BDC046C0060020212101003121010069
:1008E00070B50D00110004AA108805AA1278002422
:1008F000D20718D41C00C318022B12DCED682200AA
:10090000281800F0A4F92D78084B2A001121186846
:10091000FFF740FF0648002D00D0064800F0BAFF60
:1009200001E007246442200070BDC046C0060020DC
:10093000422101005221010070B50D00110004AAEE
:10094000108805AA12780024D20718D41C00C318F6
:10095000022B12DCED682200281800F078F92D78BF
:10096000084B2A0011211868FFF714FF0648002DD4
:1009700000D0064800F08EFF01E00724644220000A
:1009800070BDC046C0060020632101007321010034
:1009900070B50E00110004AA108805AA157800246D
:1009A00001221540A54232D11C00C318022B2CDCB9
:1009B000F6682200301800F04AF930780138032830
:1009C0001BD8FFF7D9FB02080E1401210800FFF71E
:1009D000E9FE104816E002210800FFF7E3FE0E488A
:1009E00010E002200121FFF7DDFE0C480AE00120A3
:1009F0000221FFF7D7FE0A4804E028002900FFF78C
:100A0000D1FE084800F046FF01E0072464422000C0
:100A100070BDC04684210100902101009921010090
:100A2000A6210100B421010010B5002903D0074818
:100A300000F030FF08E0064B012207211868FFF79D
:100A4000A9FE044800F026FF10BDC046BA210100EF
:100A5000C0060020D621010030B5050087B000286F
:100A600002D0010012481BE0124800F013FF03AC53
:100A7000114805F0D1FA0C222900200000F011F9EC
:100A8000A0220123628050322370A2800B49009380
:100A9000ED3A0B4B200002F0A9FC011E03D00948DF
:100AA00000F0F8FE02E0084800F0F4FE07B030BDA8
:100AB000E1210100012201004C00002090200100F2
:100AC000BC200100182201003E22010010B543683D
:100AD0000A001C6800210123A04710BD10B538484A
:100AE00010F06AF8374C07212060FFF7EFFF1C2158
:100AF0002068FFF7EBFF19212068FFF7E7FF1821B7
:100B00002068FFF7E3FF17212068FFF7DFFF1621BA
:100B10002068FFF7DBFF15212068FFF7D7FF0921C9
:100B20002068FFF7D3FF10212068FFF7CFFF1121C6
:100B30002068FFF7CBFF12212068FFF7C7FF1321C2
:100B40002068FFF7C3FF14212068FFF7BFFF0021D3
:100B50000800FFF727FE1C4800F09CFE012211212F
:100B60002068FFF717FE194800F094FE01221121BA
:100B70002068FFF70FFE164800F08CFE01221321BB
:100B80002068FFF707FE134800F084FE14210122BD
:100B90002068FFF7FFFD104800F07CFE0F4802F0D0
:100BA000ADFB011E03D00E4800F074FE10BD0D48D1
:100BB00002F06EFDFA20800010F0D8FDFAE7C04682
:100BC00060220100C0060020B42101007321010051
:100BD000522101003121010010210100590A0000B9
:100BE000E12101002800002003000A781A70002A81
:100BF00002D001330131F8E7704702000300197891
:100C0000981A002901D00133F9E7704703780A7870
:100C1000934205D1002B02D001300131F6E71A00D2
:100C2000981A70470300002010B582420ED0013A96
:100C30009A18934203D11B780878181A06E01C789A
:100C400008788442F7D101330131F2E710BD30B5A5
:100C5000040003234C401C4202D00400002319E08E
:100C600004001D0023002B4007D0002A18D00B7869
:100C7000013A237001310134F4E7D51A032D03D969
:100C8000CD58E5500433F8E793089B00D21AE418D6
:100C9000C918E3E79A4203D0CD5CE5540133F9E784
:100CA00030BDF0B503000326CCB21D00334205D0A1
:100CB000002A1AD01C70013A0133F6E7FF27CEB2A2
:100CC0003F020902394031430E0431431600032E1E
:100CD00002D902C3043EFAE793089B00EB18AA1856
:100CE000934202D01C700133FAE7F0BD70B50400E6
:100CF000074D0A2804D128680D2143685B6898478E
:100D00002868E1B243685B689847200070BDC04620
:100D1000C806002010B5024800F084FC10BDC04693
:100D2000ED0C000010B504480FF046FF034B1860AF
:100D3000FFF7F0FF002010BD92220100C80600203E
:100D400003689B681B681A00FC32D068002806D034
:100D50000020D060A322D2009B580B7001E001203C
:100D6000404270470368064A9B681B689950FC33F1
:100D70001A6A002AFCD0002208001A627047C04696
:100D80001C050000036800209B681B681A00FC32E9
:100D9000926A824203D09022D200985898500F2332
:100DA00018407047F8B5036805009B6818481C6830
:100DB0000FF002FF436806001F6802230A22FF3378
:100DC0000021B847736830001F6800230B22190008
:100DD000B8470A220F4BEB21E2500F4B0132E25091
:100DE000E122AB6852021A602B6849049B6800201C
:100DF0001A680A4BD1500422243BE2502300FC33F2
:100E00001862D8600123A3602360054B6B60F8BDB6
:100E1000602201000C0500001405000024050000FC
:100E2000BC220100A822084BD2009850074A9B58C8
:100E3000C01A0002000A064B0238984203D98022E9
:100E4000044B92025A6070470010014004050000F4
:100E5000FDFF7F00FCE100E0134B144A70B5D05851
:100E6000A323134D5B002C68001B0002000A98426C
:100E700013D94821FF31FFF79DF90E4B1B689842AB
:100E800000D918004823FF3343431C1924020A4B9E
:100E9000240A2C60186010F091FD28684830FF305B
:100EA000FFF7C0FF70BDC046040500000010014000
:100EB000CC060020D00600207C050020002210B5C2
:100EC000024B5A64FFF7C8FF10BDC046FC1001403A
:100ED000074B10B5984200D91800064B18604823FC
:100EE000FF335843044B1B68C018FFF79BFF10BD2E
:100EF00035640000D0060020CC0600200022074BFD
:100F000010B580215A64C023054A5B008902D15084
:100F1000FFF7A2FF0122034B1A6010BDFC10014035
:100F200000E100E0D006002070B51A480FF044FE42
:100F300000282CD000240126436801211B68984713
:100F4000154B48221C60154B154D1E60A123DB007C
:100F5000EC50FF323833EA508023FE325B02FF321E
:100F6000AB50403AAB500F4B80215C64C0230E4A1B
:100F70005B008902D1501120220031000FF08EFC5D
:100F800011200FF06BFCAE6020002E6001E001200C
:100F9000404270BD99220100CC060020D0060020FE
:100FA00000100140FC10014000E100E0036870B552
:100FB0009B6801259A681F2683680020DC6823004F
:100FC000C3402B4208D003004533FF339B009B589E
:100FD0001B0A33408B4203D001300428EFD117386D
:100FE00070BD30B515000268A2209268C000146878
:100FF0002258002902D1EA4001310A4000201A603B
:1010000030BD0000006880680068002909D1013106
:101010009140002B02D0A123DB0000E0034BC15024
:1010200001E0034A835000207047C0460C050000D1
:101030000405000010B58368002A07D01A680A600A
:101040005A681960002A19D1596017E018680028F9
:1010500014D081420FD15C680868002A04D118605E
:10106000A14205D1586003E01060A14200D15A604E
:1010700000230B6002E002000068E8E7002010BDDA
:10108000F8B503680C009B6817009D688668002906
:1010900014D11100FFF78AFF021E11DB0123190092
:1010A000B940B06893400143B1601100C1224031A2
:1010B000890092004C512000AB5001E023204042B7
:1010C000F8BDF8B503680C009B6816009F6885683A
:1010D000002910D11100FFF769FF031E0DDB01236A
:1010E0001A00B240A96883409143C2229200A960CD
:1010F000BB50230001E023235B421800F8BD10B56C
:101100000022012106200FF0C9FB06200FF0A6FBEC
:10111000002010BD0368F7B59B6804009B68012799
:10112000019300231A00856801989900411808006E
:10113000FC304668002E0AD000264660A220C0007F
:1011400009581F20090A0140380088400243013332
:10115000042BE9D1AE68062016400FF089FB2D68FC
:10116000002D03D106200FF079FBF7BDAB683342A9
:10117000F5D03200290020006B689847EFE70000A7
:10118000F0B506001400026885B09268B5689068F2
:1011900017680390002901D0232069E003219813E8
:1011A00008401A130A400190FD31C0208C4680008F
:1011B0001840F439604504D02F494018414241415C
:1011C0008900012092000292034213D00C2903D11E
:1011D000A122A040D20003E0042902D1A040274A66
:1011E000B8500298019A821825489200125803209C
:1011F000024305E00298019A821821489200125891
:10120000114322000220C132FF329200D151184016
:101210002FD09A06C0D55A0603D480275B0703D483
:1012200000E0C027BF0200E07F02E868FFF78EF908
:1012300004281CD030002100FFF7B8FEEE6800281B
:1012400003DAF043FFF778F90138012213008340F5
:101250001E43F82324025B011C4045301443FF3039
:10126000039B80002743EE60C750002001E005206B
:10127000404205B0F0BDC04600FEFFFF0C05000077
:10128000F822010010B5EFF3108172B6154A1078FC
:10129000002804D1002920D162B6453821E0431E40
:1012A000DBB21370002B04D00020814219D162B64A
:1012B00017E00D4B1C78002C04D0107000290ED1C3
:1012C00062B60CE001221A70002900D162B68021BA
:1012D0000020C9054A60187003E0452000E00B209B
:1012E000404210BDE4060020E5060020002210B5B3
:1012F000100001210FF0D2FA00200FF0AFFA002009
:1013000010BD000070B5EFF3108372B6294A107853
:10131000441C1470002803D0002B3FD162B63DE07E
:10132000254C2578002D04D01070002B3FD162B6DB
:101330003DE001222270002B00D162B680251F4EB5
:10134000ED05002925D000200FF092FA0023C122DC
:10135000736092000133A958AB502B607368002B67
:1013600003D120BF40BF20BFF8E70022134B5A60D3
:101370000123194204D1C22280219200C9058B5059
:10138000C02301210E4A5B00D15000200FF066FA05
:1013900002E0012371602B60002323708022094B3F
:1013A000D205D3580020DB0303D4443801E00B20DE
:1013B000404270BDE4060020E5060020FC0000402D
:1013C00000E100E00C040000F7B5244C8023E26843
:1013D000DB059446C1229200995801220A40204917
:1013E00005005E5800926768A068216962690192F1
:1013F0006246002A01D00022E260002F01D00027BF
:101400006760009A002A06D0F20304D5C2260122A2
:10141000B6009A511A61002801D00023A360002968
:1014200008D0002128002161FFF72CFF8023012232
:10143000DB055A61019B002B0ED00021C1238022C5
:10144000616101249B00D205D4502800FFF75AFFA8
:10145000002801D1034B5C60F7BDC046FC00004092
:101460000C040000FCE100E0F8B580258323ED05C5
:10147000DB00EC588023070000205B020E001C40BC
:1014800084424DD120000FF0F3F9C1220220254BF8
:1014900092009C60A958A850A322D200AE5001220D
:1014A0001C00AA60A368002B03D120BF40BF20BF4F
:1014B000F8E700221B4B9A600223194204D1C22292
:1014C00080219200C9058B50C0230125164A5B007C
:1014D000D55000200FF0C2F98023C22218209200BC
:1014E000DB05985003210022314022616261914264
:1014F0000ED1A7221024D2009C50C12292009850F5
:101500009D503800FFF7FEFE002801D1074B5D60BB
:10151000832380220120DB00D205D3581B0C984383
:10152000F8BDC046FC00004000E100E0FCE100E046
:10153000002070470B6810B501330B60014B1B682E
:10154000984710BD64010020F0B587B003930C9B51
:1015500007000291002B01DC01230C93202305934B
:10156000039B012B01D12F3305930A230193002301
:10157000160001241F4D0493049B002B01D1B5429A
:101580000AD2691C3000FEF715FE02993030B847C8
:101590000123013404930AE00C9B019A934206DB79
:1015A000039B022B03D802990598B8470134019B8D
:1015B000691C013B30000193FEF782FE28000E00FB
:1015C0000A21FEF7F7FD019B0500012BD4D1300065
:1015D00002993030B847039B032B08D10C9B1C1B8E
:1015E000002C04DD02992020B847013CF8E707B041
:1015F000F0BDC046FFC99A3B0A6830B58B68002A27
:1016000002D04C68A34202DB01338B6009E0651E07
:10161000AB4203D18C600021D15402E05C1C8C6091
:10162000D05430BD014B18607047C04664010020A3
:10163000F0B51C0000238DB00593013B04930023FB
:1016400005000E001F0007920393079B18780028DF
:1016500000D10FE1002F05D1252800D1FBE031009A
:10166000A84703E1642850D016D8392809D8312872
:1016700036D22D282AD030282AD0252800D0E1E0E3
:10168000E5E058287BD0632800D0DBE02068271DE8
:101690003100A8473C00DCE0702866D007D86928F4
:1016A00033D06C282DD0682800D0CBE0D9E0752845
:1016B00046D005D8732800D0C4E0271D2468B7E0C1
:1016C00078285CD07A2800D1CBE0BBE00323C7E0C8
:1016D000049B002B07DA039B002B00D1C3E006E03C
:1016E000049B002B03DB0A23049A53431818039B23
:1016F000303804900127002B00D0B7E00233039369
:10170000B4E0059B01330593ABE0059B012B02DCA4
:101710002768043406E007342300072293431C00A3
:101720001F680834002F06DA31002D20A847049BDB
:101730007F42013B0493049B3A000093039B0FE01C
:10174000059B012B02DC2268043406E007342300E9
:10175000072293431C001A680834049B0093039BE0
:1017600031002800FFF7F0FE73E031003020A84779
:1017700031007820A84708230493073B0393059B77
:10178000012B03DC23680434099307E007342300AA
:10179000072293431C001B6808340993082306930F
:1017A0000023082708930B93013F0998BB00D840FA
:1017B0000F23184005D10B9B002B07D1002F11D10F
:1017C00004E05723092802D8273B00E03023C01843
:1017D0003100A847089B01330893069B0A93012315
:1017E0000B9312E0069B069A013B0A93049B9342DB
:1017F0000BDB039B012B02D13100302004E0039B63
:10180000022B02D131002020A847002F02D00A9BD2
:101810000693C9E7039B032B28D1049B5F00089B19
:10182000FF1A002F15DD31002020A847013FF8E7FF
:101830002078002803D031000134A847F8E73C00A5
:10184000070013E031002520A847079B18783100D6
:10185000A84700270AE001235B4204933B00059759
:101860000393012702E001231F000393079B013329
:101870000793EAE60DB0F0BD07B50B0000210200AA
:101880000191034801A9FFF7D3FE01980EBDC046A0
:10189000351500000FB407B504A901C90191FFF780
:1018A000EBFF03B008BC04B0184700000CB430B51F
:1018B000002585B008AB04CB01900291040001A97A
:1018C000074800930395FFF7B3FE0398029B9842E5
:1018D00000DA255405B030BC08BC02B01847C04639
:1018E000F915000070470000F0B5EFF3108372B6F1
:1018F0008122134E134D34786243AA180325013414
:101900002C403470002B00D162B6402900D9402110
:1019100003000F2710000C4D5E18B3420AD01C784C
:1019200024092C5D04701C7801333C402C5D44700C
:101930000230F2E70023490010008B54F0BDC0468E
:10194000EA080020E606002050230100F0B5CF1C75
:1019500085B004000D003800032107F0AFFB061E20
:101960001DD13F236A7939001340402213436B7124
:101970003D3A6846FFF76BF96B460D223100D81CE3
:10198000FFF78FF920006A46694607F0B5FB041E91
:1019900004D1032269462800FFF759F9200005B059
:1019A000F0BD000070B5037805000C00012B13D0CA
:1019B000002B07D0022B1CD1010011222000FFF7C1
:1019C00046F916E011220B492000FFF740F96B8819
:1019D00063731B0AA3730CE0112206492000FFF772
:1019E00036F96B681A0A63731B0CE3731B0AA27344
:1019F000237470BD2643010010B502780B788AB0BD
:101A00000C0093420CD06946FFF7CCFF05A92000DB
:101A1000FFF7C8FF15216B4610226944581C10E0DF
:101A2000012B0AD0002B05D0022B0DD10131013042
:101A3000102206E04388488801E043684868181A85
:101A400004E0FFF7EFF801E0162040420AB010BDB5
:101A5000C389C018032313309843704770B58AB008
:101A60006A46094B694670CB70C270CB70C270CBAE
:101A700070C21B681360054B092801D880004358C9
:101A800018000AB070BDC04640200100D4230100F8
:101A90004B099B0010B5C0180C000FF058F81F231D
:101AA0001C4020411E3B184010BD000001000022D8
:101AB00010B5C3787C31934200D0024A024810F03E
:101AC00027FA10BD88130000F81C0020F0B50500AF
:101AD00087B090790E0014000EF0D6FC1A4FB84271
:101AE00011D0A47920000EF0CFFC184B0290049383
:101AF000174B039700930194164B174A1749184840
:101B0000FFF7C8FE1EE02000FFF7A2FF43889D42BA
:101B10000BD00E4A02930E4B0392009301950D4B8E
:101B20000D4A0E490F48FFF7B5FE2000FFF790FF62
:101B30004368002B06D046702000FFF789FF4068FD
:101B40000FF0CCFE07B0F0BD4C0600201D240100B4
:101B50002224010047440100DC230100E3230100AB
:101B6000E62301002A240100F8B50E00012105003A
:101B700049420F480EF090FC040000210EF0ECFCEE
:101B80002000FFF765FF002707702000FFF760FFC8
:101B900045802000FFF75CFF4760200003210830EC
:101BA0000EF010FD05702D0A457086702000F8BDFE
:101BB0004C06002070B50C0086B01500002903D13A
:101BC000FFF7D2FF041E29D001AE01220021300010
:101BD0000FF07CFE2000FFF73BFF466020000EF078
:101BE000EDFC10482100C4300EF0BBFC0E49300063
:101BF0000FF0B0FE2000FFF72BFF4078002804D044
:101C000020000EF0BDFC052009E0002D01D02C6065
:101C100006E020000EF0B4FC280001E0372040422E
:101C200006B070BD9801002010270000F8B5144ED2
:101C300006223700083739000500FEF7F3FF041EBF
:101C40001BD006210F48FFF78FFF041E13D006227A
:101C5000290008300EF0BDFC210000220948FFF7E2
:101C6000A9FF041E09D1062229003800FEF7EFFF64
:101C70000123F37101E0372464422000F8BDC0461F
:101C8000980100200520000007B50621684607F0EE
:101C900015FA002808D16B465A793F2313406A464B
:101CA00068465371FFF7C2FF0EBD000073B51C4DAF
:101CB00007216C352800FFF7EBFE00282BD002210E
:101CC0001848FFF751FF041E27D0022108300EF0FC
:101CD00079FC022200210600FEF7E3FF002301AA9F
:101CE0007370337021000F48FFF764FF002816D18E
:101CF000019B9B681C78002C08D181212800494257
:101D00000EF03CFF084928000EF038FF01980EF055
:101D100037FC200003E0452000E03720404276BD3C
:101D2000980100200C200000FFFDFFFF70B501218D
:101D300005001248FFF718FF041E1AD008300121D1
:101D4000002D00D129000EF04EFC210000220B488E
:101D5000FFF730FF041E0ED109486C30002D03D070
:101D600020210EF000FF06E0212149420EF006FF7F
:101D700001E037246442200070BDC0460A20000004
:101D800098010020F7B50C00202100900192FFF788
:101D9000EBFE061E37D0202108300EF013FC202267
:101DA000002105000027FEF77CFF019B9F4224D005
:101DB000287863781B1802331F2B04DD30000EF0E7
:101DC000DFFB162020E0431CDBB22B706278291861
:101DD00002300132C0B24A7028702278EB185A7073
:101DE0002818627861680130FEF731FF63782A783D
:101DF0000137D3182B700834D7E700223100009840
:101E0000FFF7D8FE01E037204042FEBD30B5018823
:101E1000438802000020994219D8052917D9C82102
:101E200009018B4213D8F4249188FF34A1420ED8C3
:101E3000D288074D14000A3CA4B2AC4207D8013145
:101E40004B43920001219A4200DC011CC8B230BD14
:101E5000760C000010B5094C08216C342000FFF707
:101E600017FE002801D0002007E007212000FFF71F
:101E70000FFE0028F7D0FFF719FF10BD98010020D2
:101E8000012310B5062104000370C01807F016F9ED
:101E9000002804D14022A37952421343A37110BDFC
:101EA000F0B597B00FAE32000021D048FFF782FEA8
:101EB000041E67D10F9B9B681B78002B06D1CC4872
:101EC000CC4A01216C3013600EF043FE0F980EF0E7
:101ED00057FB32000021C848FFF76CFE0700041EC4
:101EE00050D1C34D0F9B280099680822013116304C
:101EF000FEF7ADFE0F980EF043FB39003200BF48ED
:101F0000FFF758FE0700041E3CD10F9883685A78EB
:101F1000AA73DA78997812020A432A821A79EA7344
:101F20001A7AD97912020A436A825A799B791B027A
:101F30001343AB820EF024FB39003200B048FFF7A8
:101F400039FE0700041E1DD10F9B06229968681CEC
:101F50000131FEF77CFE0F982F700EF011FB32005E
:101F60003900A848FFF726FE041E0BD128000F9B5E
:101F7000402299681E300131FEF769FE0F980EF07D
:101F8000FFFA02E0002C00D06DE2994DAB7E5B06BB
:101F90000BD49D4B9D4A01939D4B9E4900939E48B7
:101FA0009E4BFFF777FC13245CE20DAA00219C48AE
:101FB000FFF700FE0700041E00D0E1E028000D9BA3
:101FC0000822996870300131FEF741FE0D980EF03D
:101FD000D7FA0DAA39009348FFF7ECFD041E00D094
:101FE000CEE00D9B99688B784A781B0213432A0038
:101FF00080321380002B0AD0CB78191C022B00D919
:1020000002212800C9B284300A000FF05FFC0D984D
:102010000EF0B6FA2023AC7E1C4005D02B003A33DC
:102020001B781B073CD515E002217F48FFF79CFD7C
:10203000071E00D115E2022108300EF0C3FA012379
:1020400044700370220039007748FFF7B3FD002881
:10205000E4D094E00DAA00217448FFF7ABFD041E04
:1020600000D08DE00D9883685C1C59789B78A77828
:102070001B020B433F041A003B00E77813433F0663
:1020800062791F43237912021A43A3791B04134375
:102090001A00E379AF671B061343EB670EF070FA83
:1020A0002B0070331B789B0632D53200002160482C
:1020B000FFF780FD041E63D10F9883689A785978E2
:1020C00012020A430692DA781B791B021343079324
:1020D0000EF056FA04215748FFF746FD071E00D1BF
:1020E000BFE1042108300EF06DFA6B461B7E220022
:1020F0000370069B39001B0A43706B461B7F83707D
:10210000079B1B0AC3704B48FFF754FD002836D1CC
:1021100008214948FFF728FD041E00D1A1E108214C
:1021200040180EF04FFA2B0070331A780F239107E6
:1021300000D52033920601D5402213432A00713284
:1021400011780922114202D08022120113432A0081
:102150004032117806220A40062A02D17B32FF3231
:102160001343002203701B0A43708270C270027115
:1021700042718271C27121002F48FFF71BFD0400DC
:10218000002C00D06FE1AB7E9B0606D508212B48C2
:10219000FFF7EAFC041E55D163E12F0080373B882E
:1021A000002BF3D1210032002548FFF703FD041E68
:1021B00000D058E13B88002B14D10F9B9B689A7884
:1021C000597812020A433A801A795B791B02134349
:1021D000191C022B00D90221280089B284300A0080
:1021E0000FF074FB0F980EF0CBF9CFE7030C000053
:1021F00098010020340900200310000001100000A5
:1022000009100000021000001D2401006D240100CF
:10221000A8240100E32301007424010037430100D6
:1022200003200000022000006D0C00001C200000B4
:102230002F2000002420000001200000010C0000DD
:1022400005100000082108300EF0BCF91023002210
:10225000037078334370863BC3701E338270027103
:1022600042718271C37121008048FFF7A3FC041EF4
:1022700000D0F8E0010007220BA8FEF712FD0722AC
:102280000BA92800FEF7CEFC002805D1784B794F2A
:102290001B68002B0ED115E077490722283109A8C9
:1022A000FEF7D5FC072209A92800FEF7BBFC002891
:1022B000ECD06DE000211C682A0007230800A0472D
:1022C000072846D06D4B19681A004B1C05D16C4B82
:1022D0006C491B689BB28B4217D06B4B196801236A
:1022E000194212D02B7013681A0AAA7040226B7020
:1022F0001B0CEB701B0A2B71614B52421B686B71FC
:102300009BB21B0A1343AB7123E02800FFF7B8FD13
:10231000002800D099E0564B1B68002B0FD05C685A
:102320002A0007230100A047072812D0574B584A1C
:102330000193584B390000935748584B07E0390038
:10234000524B574A0193574B57480093534BFFF753
:10235000A1FA2B78012B04D13F22AB799343C02BF8
:102360000CD01624494B4A4A01934A4B390000933A
:102370004E484A4BFFF78EFA644267E0681CFFF74D
:1023800055FC041E62D1280004216C300EF0EBFBDA
:102390002B78002B03D0012B06D1454900E045499D
:1023A0000DA8FEF721FC04E0434A07210DA8FFF722
:1023B0007DFA0DAAAB7905926A781B210492AA785E
:1023C00030000392EA7802922A7901926A790092A7
:1023D0003A4AFFF76BFA3A4C3A4F3B4A3B002549E1
:1023E0000294019600943948FFF754FAAE7B30000E
:1023F000FFF734FB0594AB8A334A04932B8A1D49BB
:10240000039302963B00019000943148FFF742FA93
:10241000EE7B3000FFF722FB04946B8A2A4A039379
:10242000019000943B00134902962A48FFF732FAC4
:1024300001F0B0FD041E16D1280002216C300EF010
:1024400092FB2000FFF706FD0DE004000F4B104A41
:102450000193104B390000931F48204BFFF71AFAE5
:1024600001E037246442200017B0F0BD010C0000E9
:10247000F41B0020E323010040200100A400001011
:10248000A8000010FFFF0000A00000101D240100A4
:102490006D240100A8240100B0240100F0430100D4
:1024A000DC23010022240100DF24010015250100A6
:1024B000862301007F2301008D2301009423010066
:1024C000002201003F430100562501005D25010067
:1024D0007A250100C8250100FF25010055430100B0
:1024E00010B5FFF7DDFC034B1B68002B00D09847AD
:1024F00010BDC046F0080020034B10B5D8331B6850
:10250000DB68984710BDC0469801002030B5050033
:1025100085B00C1E03D1FFF727FB041E20D0124B01
:102520009D4216D12000FFF7E7FF050000208542FD
:1025300018D00E4B0E4A02930E4B0F490093019593
:102540000E4B0F48FFF7A6F920000EF019F82800EF
:1025500008E00C482100C4300EF003F8002001E030
:102560003720404205B030BD350C00001D2401006D
:102570006D240100A8240100E32301003744010079
:102580002E2601009801002070B5072104000E4896
:10259000FFF7EAFA051E14D0072108300EF012F8F2
:1025A0002388002403701B0A437002238470C370C5
:1025B00003714471847129000348FFF7A7FF2000CD
:1025C00001E03720404270BD32200000F7B507001F
:1025D00001AA00211648FFF7EDFA002826D101983C
:1025E00083689D785A781C792D021543DA78240285
:1025F00014430DF0C5FF06210E48FFF7B5FA061E7D
:1026000012D0062108300DF0DDFF3B888570037085
:102610002D0A1B0A0471240A4370C57044713100ED
:102620000448FFF773FF01E037204042FEBDC0467B
:102630002F2000002220000070B504000E000B487F
:102640000321FFF791FA051E0CD0032108300DF08D
:10265000B9FF0470240A4470867029000348FFF70C
:1026600055FF01E03720404270BDC04621200000E8
:10267000F0B587B0534C544B200062680C301340C7
:10268000636001F0B3F90122431C5242190020009B
:1026900005930EF013FD002801D108344FE04B4B99
:1026A0004B4A01934B4B4C4900934C484C4B65E0D3
:1026B0002800012198304942AC350FF04BF92B68C6
:1026C000002B0DD0414B424A0193424B42490093AB
:1026D0004448454BFFF7DEF828680DF051FF2E60A7
:1026E00038000DF06BFF414E3500AC3528603800E6
:1026F000FFF702FF00281ED0344B354A0293354BBA
:102700003549019000933A48374BFFF7C3F8300042
:1027100098300FF0E3F83800FFF79AF9002240886C
:102720001F21FFF7D3F928680DF02AFF0023380096
:102730002B600DF025FF059B0C34013B0593220017
:10274000059B083A002B3AD05368DB03DB0E022BC3
:10275000F1D0082B17D11679002E22D1234D31004C
:102760002800C4300DF0E0FE071EA1D1174B184A17
:102770000193184B184900931E481B4BFFF78AF82A
:1027800062B6042002DF002BD5D0104A01931A4B09
:1027900002920093194A1A4B0F491A48FFF77AF828
:1027A000C9E7012E04D12068183801F067F8C2E7A4
:1027B000022EC0D120682C3801F086FBBBE70EF05A
:1027C000B9FF57E768010020FF0FFEFF1D2401003D
:1027D0006D240100A8240100E3230100602601000C
:1027E000AD430100AF2601000A440100980100201A
:1027F0002E2601008A26010022240100DC2301008C
:1028000013440100DA260100F0B507008FB080798B
:102810000DF03AFE438B032B0AD8CB4BCB4A0193E6
:10282000CB4BCC490093CC48CC4BFFF733F883E03B
:102830003800FFF70DF90378012B48D0032B70D136
:10284000BB68DC789A785D781978240214432A02F0
:102850000A4313051B0D438038000421083015007E
:102860000DF0D1FEBB899C420CD0B74A0193B84B06
:10287000039200930294BA4BB44AB649B948FFF7A1
:1028800009F849E03800FFF7E3F8408801F0D8F98B
:10289000041E14D13800FFF7DBF8AB4BAB4A0293B0
:1028A0004388AC490193AA4BAF480093AC4BFEF769
:1028B000F1FF38000DF064FE200000F0F3FB2A0B5E
:1028C000390000F0EDFE200001F02EFA27E0BC6890
:1028D0002278132A11D893408C22120313420CD071
:1028E000994B9A4A01939A4B9A4900939F48A04B5F
:1028F000FEF7D0FF62B6042002DF3B00083302215E
:10290000180006930DF07FFE2478052C76D1BD6863
:102910002B780693002B15D038000DF031FE0020E7
:10292000C0E3894A01938A4B02920093874A8B4BFA
:1029300088499048FEF7AEFF38000DF021FE1620C2
:102940004042AFE3AE786B7836021E43300001F0B0
:1029500077F9041E0BD17C4B019602937C4B7B4A8A
:1029600000937C49844B8548FEF794FF1FE00300E9
:10297000EA784C331A700EF067F90699200001F0DE
:10298000A5F86B46A5781B8B2380002D32D1201D26
:102990002900FFF77DF8002806D02000012101F072
:1029A00095F82800FFF756FA200001F0BDF9744CA5
:1029B00006216C342000FFF76BF80028ACD005210D
:1029C0002000FFF765F80028A6D10130FFF7AEF927
:1029D000A2E7BD682B78002B2BD00221002001F04C
:1029E0007FF9041E98D003002A784C331A70002116
:1029F00001F06CF8200001F097F98DE73E2C00D033
:102A00003DE3BC68012106980DF0FDFD2478601EB1
:102A10000B2800D922E3FDF7B9FBDCFF6102E400DB
:102A2000110121035801BC010F02310221032103CE
:102A3000D801AA786B7812022E1D1A4302213000A9
:102A4000069201F04DF9EB780400012B0BD1212106
:102A50004B4849426C300EF091F8002C10D13000F8
:102A600001F004F80400002C0AD1374B374A0293D6
:102A7000069B38490193364B42480093424BB7E1DD
:102A80006B4620001B8B0722238031005030FEF75D
:102A9000DEF82B7BEA7A1B02134322006632138096
:102AA000AB7B6A7B1B02134322006C3213802B7CAE
:102AB000EA7B1B02134322006E321380EB780693ED
:102AC0006B461B7EE370069B012B19D12000310061
:102AD00007225730FEF7BBF82000294E07223100AD
:102AE0005E30FEF7B4F8300006216C30FEF7D0FF00
:102AF000002805D0F36F5B0602D50698FFF716F99C
:102B00000321200000F0E2FF23004D331B78032B4C
:102B100060D1EB78002B04D0194B70331B781B0766
:102B200036D502211948FFF71FF8051E30D00221C3
:102B300008300DF047FD2388290003701B0A4370FD
:102B40001248FFF7E3FC45E01D2401006D2401005D
:102B5000A8240100E32301000B2701005E430100CC
:102B60004D4301003427010068270100C4280100FB
:102B7000D3430100A0280100224401009A2701004C
:102B800098010020D02701007D430100162000009D
:102B9000C24B1A00713212781D00D30707D52000EE
:102BA000FFF7F2FC002802D1201D80210CE02B0051
:102BB00070331B789B060AD52000FFF707FD00281D
:102BC00005D18021201D49000DF0CDFF02E020003D
:102BD000FEF76CFF200001F0A7F80020FFF73AF99C
:102BE0009AE6BC68A37866781B021E43300001F0A9
:102BF00027F8051E06D1AA4B01960293A94B009314
:102C0000A94BF2E02378002B00D0DCE02379E278B6
:102C10001B021343020066321380A37962791B0200
:102C2000134302006C321380237AE2791B021343B0
:102C300002006E32138000F0EFFCC4E0BD68AB7898
:102C40006E781B021E43300000F0FAFF041E06D10E
:102C5000934B01960293934B0093944BC5E02B78D2
:102C6000002B04D1E91C08227030FDF7F0FF8B4BDC
:102C70001A007132117801221D0011420CD023007C
:102C800071331B78134207D02000FFF77DFC00282A
:102C900002D1201D802115E02B0070331A782023EB
:102CA0001A4200D1C4E02200703212781A4200D1D8
:102CB000BEE02000FFF78AFC002800D0B8E08021A9
:102CC000201D49000DF04FFF94E6BB680CAC5E7808
:102CD0001A7836021643DA78997812020A4322806B
:102CE0005A79197912020A436280DA7999791202C3
:102CF0000A43A2801A7A5B7A30001B021343E380F6
:102D000000F09EFF069000280FD1654B01960293BC
:102D1000644B674A00936749674B6848FEF7BAFD02
:102D200002213000FFF788FCF6E52100069800F04C
:102D30008DFC002804D11E213000FFF77DFC26E029
:102D40000E215F48FEF710FF079000281FD00E21CC
:102D500008300DF037FC050000210E22FDF7A1FF21
:102D600023782E70AB706378360A6E70EB70A378A0
:102D700007992B71E37852486B712379AB716379B2
:102D8000EB71A3792B72E3796B72FFF7BFFB0698A7
:102D900031E6BA685478137824021C43200000F00E
:102DA0004FFF051E06D13E4B019402933D4B00930D
:102DB000444B1AE0043044490DF0E0FEC30502D54F
:102DC0002800FEF773FE280015E6BA689578537858
:102DD0002D021D43280000F033FF041E0BD1304BA1
:102DE000019502932F4B0093384B314A31493348B8
:102DF000FEF750FD90E58121051D494228000DF0A8
:102E0000BDFE030600D4F5E5244B70331A78202369
:102E10001A420DD02200703212781A4208D02000D7
:102E2000FFF7D4FB002803D180212800490049E79F
:102E30002000FEF73BFEDDE51121184DBC686C3526
:102E4000494228000DF09AFE2378002B08D1611C1E
:102E500040221F48FDF7FBFE082128000DF083FEED
:102E60001C4B1D68002D00D156E5002022782B68F0
:102E7000824200D1601C98476D68F3E7164CBA682F
:102E80002368002B00D147E500201178814200D152
:102E9000501C9847002323603EE5C046980100205F
:102EA0001D240100A824010080440100BB4301004F
:102EB0006D240100E32301005444010005280100B2
:102EC00020200000DD430100FFFEFFFF66430100FC
:102ED000F4080020EC0800203809002006980DF0C6
:102EE0009AFB0990099B002B00D115E5BB680921CD
:102EF000069807930DF087FB079B6B4E01330893F1
:102F00003368002B1CD0079B079A1B7A0698D318AE
:102F10005D7A0DF093FBBB8904000A93079B69B2AD
:102F20001B7A3668BB81079B08981A78069BB047C6
:102F30003B00A4B210331C196B461B8DBC60BB81D7
:102F40005A4D079B2E006C36082130001C78FEF786
:102F50009FFD002877D1012C75D80121089800F039
:102F6000BFFE041E6FD0FEF7A1FE00285DD1022136
:102F70003000FEF78DFD002802D0681CFEF756FEDB
:102F8000230057330722494918000B93FDF75FFED2
:102F900023005E330722089918000A93FDF757FEB5
:102FA00019214348FEF7E0FD051E3ED019210830E7
:102FB0000DF008FB192200210600FDF772FE6023C8
:102FC00000223370B37000237270F37007220A99E5
:102FD000701DFDF73CFE0B9B00221B78290033730C
:102FE000230068331B88324873731B0AB3732300B2
:102FF0006A331B88F3731B0A337423006C331B88FA
:1030000073741B0AB37423006E331B88F3741B0A9A
:103010003375FEF7CFFD002807D12000022100F014
:1030200055FD200000F080FE0DE023001F224C33F0
:103030001A700021200000F049FD200000F074FE0D
:103040000020FEF707FF079B0698197A01310DF063
:10305000DAFA099B013BDBB2099343E7BD89B86803
:103060002900FEF741FC134B03900493124B029589
:1030700000930194114B124A124913480FE0BD8985
:10308000B8682900FEF730FC0A4B039004930A4B02
:103090000B4A00930B490D4B0D4802950194FEF726
:1030A000F9FB39E40FB0F0BD34090020980100208D
:1030B0000D2000001D240100222401009B4301007B
:1030C000DC230100E323010039280100D343010080
:1030D0006E280100F0B589B004008568FEF7B8FCE1
:1030E0000378012B08D06D4B6D4A01936D4B6E49EF
:1030F00000936E486E4B0AE0A289012A0CD8674BF8
:10310000674A0193674B684900936A48684BFEF72A
:10311000C1FB62B6042002DF2A78132A04D8934048
:103120008C221203134208D15C4B5D4A01935D4B24
:103130005D49009360485E4BE9E7260008360221AE
:1031400030000DF060FA2B780F2B18D1A568042100
:10315000EF78AB783F021F436B78300004930DF09B
:1031600052FA297822003800FEF7B0FC049B002BAD
:1031700000D18DE0514898300EF0B0FB88E0132B61
:1031800057D1A36805931B780693002304936B46DD
:10319000069A1B8A934200D37AE0049B059A9B000F
:1031A000D3189F785A781D793F021743DA782D0299
:1031B00015430795EFF3108572B6380000F040FD17
:1031C000061E0ED1354B01970293364B344A0093BD
:1031D00035493B4B3B48FEF75DFB002D26D162B6DF
:1031E00024E0002D00D162B6079D002D1BD0EFF327
:1031F000108372B63169002906D00A68706932619D
:10320000814237D1726135E0002B02D162B60029CC
:1032100032D1224B224A0193224B234900932A4860
:10322000274BFEF737FB300000F07EFD049B013397
:10323000ACE70E2B12D1A36803219D785A782D029A
:10324000300015431F780DF0DEF9A36822001978CD
:103250002800FEF73BFC002F1AD08BE720000DF072
:103260008FF90E4B0E4A01930E4B0F4900931748EE
:103270000F4B4CE7002BC9D0300018300EF0C0F8CF
:10328000300000F0C5F9013D0EF028FBADB2ACE70F
:1032900020000DF075F9002009B0F0BD1D240100DB
:1032A0006D240100A8240100E3230100032901008B
:1032B0008E43010047290100F729010098010020F1
:1032C0006644010081290100AD290100D4290100D3
:1032D000094AD8321368002B08D18168002907D029
:1032E000C168002904D01060180003E0452000E008
:1032F000162040427047C04698010020F0B52D4D81
:1033000089B02E00D83633680790002B0BD12A4B9A
:103310002A4A01932A4B2B4900932B482B4BFEF74B
:10332000B9FA132441E0280001216C300DF01BFC98
:1033300001273840041E37D1254B079A25491A60CA
:103340000923EB225B4205900490039302900190C5
:103350000090214B920021480EF0B2FC33689B682C
:103360009847061E0CD0144B01900293144B134A3D
:1033700000931449154B1A48FEF78CFA340015E0F7
:10338000079B002B03D1FEF78BFD04000EE0280005
:10339000390068300DF0E7FB384207D129001148A9
:1033A00060310EF02DF801E045246442200009B0A0
:1033B000F0BDC046980100201D2401006D240100CD
:1033C000A8240100E3230100352A01000044010084
:1033D000F00800206C1D0020712600003C09002030
:1033E0005E2A0100F81C002000207047F0B585B06F
:1033F00001920278039304000D004388D20707D49A
:103400004B4A927B082A03D89F2B01D8162625E029
:10341000A2889342FAD81F2BF8D98023DB019A4265
:10342000F4D8434F052138006C30FEF731FB061EFF
:1034300078D1019A29003F48FEF7A4FC00286FD1FB
:10344000039B002B0CD12378DB0709D40F213A48CA
:10345000FEF78AFB019000280AD13726764263E006
:103460000A9A03993548FEF78DFC0028EED057E004
:1034700001980F2108300DF0A5F805000F2200215A
:10348000FDF70FFCA3782B70E3786B702379AB709A
:103490006379EB7007236B732378DB070DD5380056
:1034A00002216C30FEF7F4FA002802D0781CFEF7F7
:1034B000BDFB3B786B7100231CE0A068002806D0A0
:1034C0003F2243799343A1D1FEF7B0FB01E0FEF721
:1034D000DBFB0290029B002B04D001980DF050F80A
:1034E000029E21E001236B71039B002B01D002237C
:1034F00000E003232B71002201990F48FEF75AFBCD
:1035000000280DD10130FEF711FC002808D12378E6
:103510009B0709D4380040216C300DF024FB03E0F8
:10352000060001E0452699E7300005B0F0BDC04631
:10353000980100200820000006200000092000005B
:1035400070B5050006480CF0A7FF041E06D0002148
:103550000DF002F82000FEF77BFA0570200070BD28
:103560007006002010B50100EFF3108272B6002043
:103570000C4BAC331C681860824200D162B6002C40
:103580000BD02000FEF764FA012300210370200015
:10359000A1810CF0E1FF200002E00120FFF7D0FF45
:1035A00010BDC0469801002070B50500074B1C688F
:1035B000002C09D02368002B04D02A004C3211784B
:1035C000280098472469F3E770BDC046640A0020CC
:1035D00010B503890400002B05D0C0680CF0D0FFA3
:1035E0000023E360238110BD10B5040020000021FA
:1035F0002C300CF099FF002802D00CF0C1FFF5E749
:103600002000FFF7E5FF200048300DF095FA10BDCF
:10361000004870471C02002070B505000A4B1C686A
:10362000002C0FD0E668002E0AD02B002A002900BB
:103630006E336C3266311B88128809882800B047C7
:103640002469EDE770BDC046640A0020F8B50700A4
:1036500008000E00FEF7DAFB051E01D1002513E07D
:103660000A4B1C68002C0FD0A368002B01D12469E1
:10367000F8E73100380098470028EFD03000FEF717
:10368000C5FB0028F3D1E9E72800F8BD640A002053
:10369000024B1A68186002617047C046640A002035
:1036A0007FB504000D00012A1FD0022A5AD18A6872
:1036B0005678137836021E430389002B0CD0404BFA
:1036C000404A0193404B414900934148414BFEF72A
:1036D000E1F82000FFF77CFFAB890436F31A9BB2B8
:1036E0002381002B4DD0E56068E00389002B08D1D1
:1036F000334B344A0193344B344900933648354BAD
:103700000AE08E89B3420AD22D4B2E4A01932E4BEA
:103710002E49009331482F4BFEF7BCF82DE0C068CE
:1037200008300CF090FF864208D9254B254A0193BA
:10373000254B264900932A48264BEDE7E068AA89E5
:10374000A96808300CF045FF2389AA8928009B1A34
:1037500023810CF015FF2389002B2FD1E5682381ED
:10376000E3600EE0164B01920293174B154A00934B
:103770001649184B1B48FEF78DF82000FFF728FF6D
:1037800014E0AB681A785B781B021343AA89191DF1
:1037900091420FD00A4901930B4B0391029200937F
:1037A000084A0C4B09491048FEF774F828000CF041
:1037B000E7FE03E02900200000F0C6FD7FBDC04603
:1037C0001D2401006D240100A8240100E323010051
:1037D0001C2B0100B5440100492B0100772B01008F
:1037E0009B2B0100D22B0100002C010073B50500BA
:1037F00088790C0016000CF047FE438B032B0ED883
:10380000174B184A0193184B184900931848194B45
:10381000FEF740F820000CF0B3FE162012E02B005B
:103820004D331A78032A0FD00D4B0E4A01930E4BDD
:103830000E49009310480F4BFEF72CF820000CF0B7
:103840009FFE392040420AE02800E3892C30E3182B
:10385000133393431E6021000CF083FE002076BDDD
:103860001D2401006D240100A8240100E3230100B0
:103870000B270100C24401002C2C010070B505008B
:103880002800002118300DF00BFE041E0FD06368D5
:10389000002B01D02800984700236360044B1A686E
:1038A00022605A681C60002AEAD15C60E8E770BDBB
:1038B000AC090020F0B50E000121050087B0494297
:1038C0004248059317000EF045F82800FFF7D6FF91
:1038D0002B004D331C78032C6BD1300004210830B1
:1038E0000CF089FE02222B883F031F43BFB20770F2
:1038F0003F0A4770B389043B9BB283701B0AC370B5
:10390000F389F3181333A34319681A70304B1C68FA
:10391000586822681A60844200D15A606160EFF3EF
:10392000108272B6002323606B69002B02D16C6198
:103930002C6101E01C606C61002A00D162B630008D
:10394000FEF7DAFD012700283DD0224B01900293BB
:10395000214B224A00932249224B2348FDF79AFF2C
:10396000EFF3108072B600222B69002B14D09C421A
:103970000FD123686969002A04D12B618C4205D1DB
:103980006B6103E013608C4200D16A610023236005
:1039900002E01A001B68E8E7002800D162B60023A5
:1039A00063600B4B1A6822605A681C60002A00D1C1
:1039B0005C60002705480DF091FF059BBB4202D0DB
:1039C00030000CF0DDFD380007B0F0BD1C02002017
:1039D000AC0900201D240100A82401006D24010071
:1039E000E3230100AB4401002E26010000221D4B01
:1039F00070B5012105005A600DF042FB1A4C200001
:103A000048300DF0A4F8260000280ED023004D33D6
:103A10001B78002B0BD14121201D49420DF0AEF83F
:103A2000430604D52000FFF7DFFD012019E0330035
:103A30004D331C78032CF8D1330028002C330C3084
:103A4000002204210DF01CFB022328002B743300FC
:103A500018301833002204210DF012FB012320003E
:103A60002B7770BDB4090020C0090020F8B5154CB3
:103A700007002600483630000DF069F805000020E8
:103A8000002D1DD1A42229002000FDF70AF90121F3
:103A900030000DF05EF82000072239005030FDF7AD
:103AA000D6F82300182268331A80230020006A33D6
:103AB00010327C30A5701A8003490EF0DBF920002B
:103AC000F8BDC046C0090020093E0000F0B507005F
:103AD0004D373D7885B004000E008D420AD14D4B24
:103AE0004D4A01934D4B4E4900934E484E4BFDF7C6
:103AF000D1FE8DE03970002D02D148300DF011F863
:103B00003878042865D8FCF737FB1C8383038300CF
:103B1000A378022B7CD020002C300DF025FC200057
:103B200018300DF021FC002140480DF08BFB0023E4
:103B300020002364636400F0E3FA2000FFF734FD03
:103B400066E0A378022B37D0EB1E012B2FD8200084
:103B500000F010FB364B1D68002D1BD06B68002B4E
:103B600004D022004C321178200098472D69F3E7E9
:103B7000002A3AD162B6002B37D000225A602D4A73
:103B80001168196051681360002900D153602A48F8
:103B90000DF0A4FEEFF3108272B62369002BE7D07C
:103BA00019686069216183422FD161612DE0022D86
:103BB00007D12000FFF7F8FC200048300CF0BCFFD4
:103BC00026E0012D24D123004C331B78002BF3D0A9
:103BD000EFE7104B01960293104B0F4A00931049E8
:103BE000114B1648FDF756FE12E0A378002B03D1C7
:103BF00020007C300EF054F9201D40210CF0B3FF62
:103C000000210A480DF01EFB02E0002AB5D1B1E701
:103C100005B0F0BD1D240100DC23010022240100B9
:103C2000E32301004B2C0100D2440100B409002021
:103C3000640A0020AC0900201C020020692C01004D
:103C400070B50C4C06002500483528000CF07FFFAD
:103C5000002290420CD023004D331B78033B012BF4
:103C600006D82388B34203D128000CF05AFF220063
:103C7000100070BDC009002070B50D0001000400E7
:103C8000503107222800FCF7CDFF00280AD0E37846
:103C90002100002B01D15E3100E0573107222800BE
:103CA000FCF7C0FF70BD000070B50C4C060025008D
:103CB000483528000CF04BFF00280DD0A378002BCE
:103CC0000AD131002000FFF7D7FF002804D12800D7
:103CD0000CF027FF200000E0002070BDC00900208C
:103CE00070B5104C0500200048300E000CF02FFF7E
:103CF000002815D0A378002B12D1002D0AD1230063
:103D00004D331B78B3420BD1200048300CF009FF33
:103D1000200006E029002000FFF7AEFF0028EED0CB
:103D2000002070BDC009002010B548300CF004FF21
:103D300010BD0000F8B507000D0015480E21FDF775
:103D400013FF061E21D00E2108300CF03BFC0400AE
:103D50000E220021FCF7A5FF3B78310023707B7811
:103D60000B4863702B78A3706B78E370AB7823718A
:103D7000EB7863712B79A3716B79E371AB79237263
:103D8000EB796372FEF7C2FB01E037204042F8BDD9
:103D900013200000030070B566331B880A880400F6
:103DA0000D009A420ED84A889A420BD303006C3316
:103DB0001A888B889A4205D103006E331A88CB8803
:103DC0009A421BD020007C300EF06AF80D4B703305
:103DD0001A7802231A4204D02200703212781A4252
:103DE00002D1E378002B04D129002000FFF7A2FFC5
:103DF00006E02900200000F0EFFA01E045204042F3
:103E000070BDC0469801002007B503006946143B09
:103E10001B8802000B800300123B1B887C3A4B80FE
:103E20000300103B1B888B8003000E3B1B88100097
:103E3000CB80FFF7AFFF07BD70B50C00002800D1A5
:103E40000548012149420CF027FB0500211D0CF01B
:103E500083FB280070BDC04628060020F7B50F0080
:103E6000002105000800FFF7E7FF2A780400032A75
:103E700003D00CF085FB002022E0C3890600C318A4
:103E80001333934300220F4D1A6080352B88083678
:103E9000300001930CF0D7FB019B834201D22D88A7
:103EA00003E030000CF0CFFB85B22A00B968300087
:103EB0000CF08FFB3800290008300CF0A4FB200028
:103EC000FEBDC04698010020F7B507004D373B788E
:103ED0000500002B0AD14121043049420CF04EFE6E
:103EE000430603D52800FFF77FFB44E028000021AC
:103EF0002C300CF019FB041E0CD11F4B1F4A0193F0
:103F00001F4B204900932048204BFDF7C3FC62B6AD
:103F1000042002DF1E4E8289330080331B889A42C0
:103F200002D800231A001DE001003800FFF796FFB9
:103F3000011E1DD0012300222800FFF7BBFC002832
:103F400016D033008033A2891B889A4208D92100F9
:103F50003800FFF783FF011E0AD001231A00EBE7A8
:103F60000023012221002800FFF7A4FC002802D131
:103F700020000CF005FBF7BD1D2401006D2401009D
:103F8000A8240100E32301008A26010098440100CF
:103F9000980100200C4A0D4B116810B5196051684A
:103FA000002900D1536051689B60083313600029D9
:103FB00000D1536001F070FC02F024F9041E01D11D
:103FC00000F048FA200010BDAC0900209C09002038
:103FD000704700001FB50C4A1368002B04D10B4832
:103FE00050600A6018000CE0094B01900293094BE5
:103FF000094A009309490A4B0A48FDF74BFC0C207B
:10400000404205B000BDC046740A00208402002072
:104010001D240100A82401006D240100E3230100F8
:104020000F450100952C010070470000002302009D
:104030008360054B08325968002902D15A601A6022
:1040400001E00A605A607047680A0020036C30B5CE
:10405000002B20D00022083B002B1CD08B4211D11A
:104060000D008B680835446C002A04D10364A54216
:1040700005D1436403E01360A54200D142640023EC
:104080008B6008E01A000832002A04D09B68002BDD
:1040900001D0083BE0E730BD036810B50400002BF9
:1040A00006D043685B68002B00D09847002323604C
:1040B000E368002B01D02000984710BD1FB51038D1
:1040C0000400094B094A0293094B019000930949E6
:1040D000094B0A48FDF7DEFB21002068FFF7B6FF19
:1040E0002000FFF7D9FF1FBD1D2401006D24010032
:1040F000A8240100E32301001C450100CC2C010091
:104100001A4B73B51B6806001C00083C002B2BD013
:10411000002C29D001A930006368984700281EDBD5
:10412000019D23882A00280054322B8710491380D0
:1041300010300DF09FFE2A000023716C0832AB6036
:10414000994202D17264326401E00A60726401989B
:10415000EB6043682E601B68002B00D09847A46872
:10416000002C01D0083CD3E773BDC046680A00208C
:10417000BD400000036C10B5002B15D018000838A6
:10418000002811D01B681C00083C002B0AD0FFF748
:1041900083FF002C08D0A3682000002B02D0083B2E
:1041A0001C00F4E7FFF778FF10BD10B50431FFF7EE
:1041B00043FE10BDF8B50600100015000C000830D5
:1041C00004211F000CF017FAAB898470043B9BB2EA
:1041D0000370240A1B0A4370C4703A00290030009F
:1041E000FFF704FBF8BD0000F0B58B8985B0070030
:1041F0000E00032B08D8364B364A0193364B37490D
:1042000000933748374B34E008008C680830E57875
:10421000A3782D0204211D430CF0F5F9B3899D42CA
:104220000CD02B4A01932C4B0392009302952D4BFB
:10423000284A2A492C48FDF72DFB47E06378002BDC
:1042400008D1234B234A0193234B24490093274849
:10425000244B0EE02378012B38D0132B0CD1012DE9
:1042600034D81B4B1B4A01931B4B1C49009320481D
:10427000204BFDF70FFB29E0154A01931E4B0292DC
:1042800000931E4A174B15491D48FDF703FB0421F7
:1042900000203E686478FFF7CFFD0700083705006F
:1042A000042138000CF08EF901234470022100240F
:1042B00003708170C47038000CF084F9230004701E
:1042C00044702A0005213000FFF774FF05B0F0BDEF
:1042D0001D2401006D240100A8240100E323010036
:1042E000EC2C0100044501001A2D01004B2D0100AA
:1042F0007C2D0100F244010022240100DC23010096
:10430000A82D0100036C181E0DD0083B18000028D2
:1043100009D0030054331B888B4204D080680028E6
:1043200001D00838F3E77047036C181E0BD0083B28
:104330001800002807D0038F8B4204D08068002823
:1043400001D00838F5E770477FB58B8906000C006F
:10435000032B0AD8174B184A0193184B184900939E
:104360001848194BFDF796FA1FE020008B680830BB
:10437000DD789A782D02154304210CF044F92900C8
:104380003000FFF7D1FF00280BD10A4B01950293B3
:104390000E4B0F4A00930A490B4B0E48FDF77AFA71
:1043A00003E0436821001B69984720000CF0E8F8FF
:1043B0007FBDC0461D2401006D240100A82401001A
:1043C000E3230100D62D0100E44401002224010072
:1043D000DC230100032E0100F7B51D4B0C001A78F9
:1043E0000190511CC9B2002901D0197001E00232BC
:1043F0001A70042100201D78FFF71EFD0700083702
:104400000600042138000CF0DDF812234570082165
:1044100000250370C570817038000CF0D3F8237844
:1044200032000370637805214370A3788370E378CA
:10443000C3702379037163794371A3798371E3793D
:10444000C3712B000198FFF7B5FE2800FEBDC046E2
:10445000700A002010B50248FFF7E8FD10BDC04605
:1044600078020020002310B50849DA00545C844229
:1044700002D18A18937806E001331B2BF5D1002373
:10448000420600D40633180010BDC0466045010046
:104490007FB5124D0E002C68002C0FD12800104B58
:1044A00021006B6090300CF054FB022228001100B8
:1044B000C8300DF00BFA356020000CE0094B01907C
:1044C0000293094B094A009309490A4B0A48FDF730
:1044D000E1F90C20404204B070BDC046040B00203E
:1044E000A40200201D240100A82401006D24010065
:1044F000E323010050450100382E010010B50400EF
:104500000069002801D00CF03BF8A368002B01D013
:1045100020009847142200212000FCF7C2FB10BDA8
:1045200010B5083108000CF07EF8002010BD8B6833
:1045300070B505000C000E68002B0CD148680121F5
:1045400008300CF03FF82B68A0601A7853425341B2
:104550000222D31A0370A3681B78012B02D0022B0E
:104560001BD03AE000202B681B78834236D160686C
:10457000042108300CF026F8E0602B7C56360370DE
:104580006B7C43702B689A788270DB786268C370AA
:1045900033889089181A04231BE02B6800201B78AD
:1045A000022B1BD16068122108300CF00BF8E06080
:1045B0002B7C296803706B7C10224370E368013107
:1045C000981CFCF744FB6268563633889089181AA9
:1045D000122383428041404200E0002070BD000071
:1045E000F0B50E6887B0336800270393A023050059
:1045F0000C009B0104A900680F704B80FDF7FCF9CB
:10460000B84218D0304B05A928680F704B80FDF7D1
:10461000F3F9B8420FD023690120BB4251D0D978B9
:1046200098782A8A0902014301208A4249D99A705E
:10463000120ADA7045E061682868FDF7DDF90028A4
:1046400002D0002323613BE0E36856361A78A06865
:10465000002A06D0338881895B1A934201DA002050
:104660002FE0042108300BF0ADFF002720612B8ADA
:10467000A168DAB21B0A027043708270C3708A8923
:10468000338889689B1A9BB28A18009729006E6844
:104690000398B0470100B842E1DBE0680B1D0278E7
:1046A000BA4201D1037006E09A4204D0A26893890D
:1046B000043B9381D3E7A368083318000BF082FF13
:1046C000012007B0F0BDC04601280000F0B500276A
:1046D0000E688BB0336805000393294B0C0000680B
:1046E00004A90F704B80FDF787F9B84202D100236F
:1046F000A36041E0A02305A99B0128680F704B80AF
:10470000FDF77AF900280ED0A3680126002B34D0DB
:10471000D97898782A8A090201438A422DD99A7059
:10472000120ADA7029E03300626856331B889289D6
:1047300006009B1A032B20D9009006AA10232900FB
:1047400003986F68B847021ED1DB237C9842CED114
:1047500006A9E068FCF766FA0028C8D160686674AC
:10476000083004210BF02EFFA0602B8ADAB21B0A5E
:10477000027043708270C370012630000BB0F0BD30
:104780000128000010B50400DC300CF0EDFD220023
:10479000172320005632138006496387A0300DF09E
:1047A00069FB2300002298331A605A60206801F0E8
:1047B000C9FC10BD0D4D000010B50200837CC80778
:1047C00006D515240220234214D05468002C11D0A1
:1047D000880706D52A24032023420BD09268002A9A
:1047E00008D0194030230520194203D10730084072
:1047F00000D00F2010BDF0B50B6885B002931B6888
:1048000006000C00006849680393FDF7F5F80125E0
:10481000071E50D115213000FFF7CEFF051E207571
:1048200006D0E3681D78002D45D027753D0042E095
:104830002075A068022108300BF0C4FE2061337C93
:10484000029F0370737CA168437056378A893B8846
:10485000896800959B1A8A1871689BB28C460398E8
:1048600031006646B047011E08DA0B00FF330E2008
:10487000FE2B01D84942C8B220751CE0E0688B1CB1
:104880000278002A01D1037006E09A4204D0A2689F
:104890009389023B93810EE0A068012508300BF05C
:1048A00091FEA2683B8892899B1AE2681278934233
:1048B00000DC0025EDB2280005B0F0BD10B58B89F5
:1048C0000400022B09D0102B10D1022303708A8917
:1048D00001308968FCF7BBF906E00023083103705A
:1048E00008000BF0A0FE6080012000E0002010BD59
:1048F00010B50421FFF706FD0400C8300CF0EEFFF0
:10490000230094331B68002B05D02100024AA031FC
:1049100002480DF0FDFA10BD30750000F81C0020B3
:1049200010B5036801244D331B78032B04D190305C
:104930000CF00DF980108443200010BD10B5042147
:10494000FFF7E0FCC8300CF0C9FF10BD030013B541
:104950004D331B78032B08D0154B164A0193164B89
:10496000164900931648174B1CE00421FFF7DCFCA6
:10497000041E0AD10E4B144A0193144B0F490093A5
:104980001348104BFCF786FF0FE090300CF0DFF877
:1049900043070AD5064B074A0193074B0749009383
:1049A0000C48084BFCF776FF0024200016BDC046DB
:1049B0001D240100DC23010022240100E323010067
:1049C0006D2E0100474601006D240100A82401005E
:1049D0008B2E0100B62E010010B50421FFF792FCCA
:1049E00002210400494290300CF0C8F82000C83081
:1049F0000CF074FF10BD10B50421FFF783FC0321F8
:104A00000400494290300CF0B9F82000C8300CF096
:104A100065FF10BDF7B50C002A210600FFF7CCFE9C
:104A2000051E207519D1628A01900092237CB76817
:104A3000E26831002068B847002802DB237C9842F6
:104A400008D00300FF330E22FE2B01D84042C2B231
:104A5000227503E02575012500E000252800FEBD34
:104A6000030073B59433050019600E0001210400A2
:104A7000C835494228000CF06DFF2000FFF750FFB9
:104A800000280FD1184B194A0193194B194900936B
:104A900019481A4BFCF7FEFE28000CF01FFF3920C6
:104AA00040421FE03569280008300BF0C7FDB08197
:104AB000AB893069F38124680BF080FD3369050010
:104AC0009B681878FFF7CEFC0138C0B20C4B042865
:104AD00002D80C4B8000C35820002A000421FFF7A5
:104AE00069FB002076BDC0461D240100DC230100C7
:104AF00022240100E3230100EA2E01002E450100DB
:104B00003D49000080460100F0B50400250085B055
:104B1000A03094350393029117000DF0C1F92B6872
:104B2000002B0AD11B4B1C4A01931C4B1C490093C0
:104B30001C481D4BFCF7AEFE1AE01869002804D093
:104B40000BF01EFD00222B681A612B6800265A68A4
:104B5000206894465E60029A009303993B00674682
:104B6000B84728684368B34201D1FFF7C7FC2E60FD
:104B7000230098331968002908D00A6858681A6019
:104B8000814200D15A602000FFF76AFF002005B083
:104B9000F0BDC0461D240100DC23010022240100D9
:104BA000E3230100072F01003846010010B5002360
:104BB0008A898968FFF7A8FF10BD10B5FFF7F6FFD7
:104BC00010BD10B5FFF7F2FF10BD10B5FFF7EEFFF7
:104BD00010BD10B5FFF7EAFF10BD10B5FFF7E6FFF7
:104BE00010BD10B5FFF7E2FF10BD10B5FFF7DEFFF7
:104BF00010BD10B5FFF7DAFF10BD10B5FFF7D6FFF7
:104C000010BD10B503000C00002814D089684B7843
:104C10000A781B021343162B03D800220423110029
:104C200006E0020017235632438713800023A2892F
:104C3000FFF76AFF0300180010BD030070B594333E
:104C40001A688C680E23002A0AD01369002B06D03C
:104C50001D009189103569189960D2899A81E3788D
:104C600000221100FFF750FF70BDF0B5050085B0C0
:104C700028000021DC300CF013FC002802D00BF0DF
:104C80007FFCF5E728002C002E000421C83490306A
:104C90000BF069FF20000CF021FE983620000CF08C
:104CA0001DFE34680396002C0ED10021039B196071
:104CB00059602B0094331B688B4217D00E230A00D7
:104CC0002800FFF721FF11E0276863681E1E05D04A
:104CD000002300941A000E211800B0472000FFF7AF
:104CE0000DFC002FE1D03C003F68EEE705B0F0BDC1
:104CF00010B50400FFF7B9FF206801F02FFAF02289
:104D000000212000FBF7CDFF10BD000013B504000B
:104D1000094B0A4A01930A4B0A49A03C00930A48EE
:104D20000A4BFCF7B7FD2000FFF79FFF206801F05A
:104D300015FA0023236013BD1D2401006D2401001A
:104D4000A8240100E32301002E2F01007246010078
:104D5000F7B50C002A210600FFF72EFD051E207472
:104D600034D1B37C5B0601D403231CE00122019201
:104D7000E289237B00923100A2682068B768B847B7
:104D8000002808D00300FF330E22FE2B01D840423A
:104D9000C2B222741BE029000E480BF07DFB60605C
:104DA000002802D10923237411E00322C389A168DA
:104DB000C31813339343328A08301A80E2895A8029
:104DC000227B0BF006FC2574012500E0002528005D
:104DD000FEBDC04694060020F0B50E680700886846
:104DE00033680C0085B00021083003930BF0EAFB18
:104DF0000023E060237415213800FFF7DDFC051E59
:104E000020741ED1A16856368A89338889689B1A16
:104E10008A18A1889BB200917E6839000398B04738
:104E2000011E08DA0B00FF330E20FE2B01D8494289
:104E3000C8B2207406E0A068012508300BF0C2FB60
:104E400000E00025280005B0F0BD000030B585B0B9
:104E50000D001400FFF77AFD031E1DD056331B888A
:104E6000621C9A420DD90D4901930D4B0391029298
:104E700000930C4A0C4B0D490D48FCF70BFD00202C
:104E80000AE000210800FFF790F901210400083032
:104E90000BF098FB0570200005B030BD1D2401000B
:104EA00022240100DC23010060460100E32301000D
:104EB0004A2F010010B50831046808000BF0B3FB5D
:104EC00000221E212000FFF7C1FF021E04D0034B69
:104ED00004212000FFF76EF9002010BDF749000003
:104EE000F8B58B6804001A785B7804201B02134322
:104EF000162B1CD92768022203213800FFF7A6FFD2
:104F000006000E20002E12D03000022108300BF0D7
:104F100059FB172500230570437032003800044BFD
:104F20000421FFF747F90020658756342580F8BD36
:104F3000D9490000F7B50F00140001210422060032
:104F40000193FFF783FF051E10D0042108300BF0FA
:104F500039FB6B461B794470240AC3700770847058
:104F6000034B2A0004213000FFF724F9F7BDC046A7
:104F7000D9490000F0B58B8987B005000E00002BE1
:104F800008D1444B444A0193444B4549009345485A
:104F9000454B38E030008F68083001210BF033FBBF
:104FA00000223978414BD0000590C05C884205D181
:104FB000059A9B189C78012C14D103E001321B2A1E
:104FC000F1D14DE02800210090300BF0CCFD2042C3
:104FD0001CD0304B364A0193364B3149009336484A
:104FE000314B10E0052C11D12800022190300BF03C
:104FF000BAFD83070AD5274B2D4A01932D4B28492B
:1050000000932E48284BFCF745FC40E02749059BC0
:105010008C466344B2895978914210D91D4B20497E
:1050200003933B78264802931C4B019200931A4A43
:105030001D4BFCF72FFC012C29D1042308E05B68F1
:105040003100280098470300012C20D100281ED0F1
:10505000397800291BD000222868FFF76BFF16E083
:105060000C4B01910293134B114A00930C490E4BC8
:105070001448FCF70FFC3C782000FFF7F3F90028F8
:1050800005D0002C03D0062300222100E4E707B05E
:10509000F0BDC0461D2401006D240100A8240100BC
:1050A000E32301007F2F0100544601006045010009
:1050B000DC23010022240100AA2F0100D62F0100C9
:1050C0000530010034300100F0B58BB0019310AB16
:1050D0001B881700029312AB1B7805000E001822E4
:1050E000002104A80393FBF7DCFD002F19D16A46C9
:1050F000128904AB5A826A461E72119B127B079377
:1051000004AB1A740123019904AA13750800130053
:10511000194A049500F012FF04AB1C7D002C0AD143
:105120001EE0002239002800FFF790FE0E240590B3
:105130000028DCD11CE0002F0DD005980BF020FAE0
:10514000002E01D1002413E004AB1B7D019A310035
:105150002800FFF7EFFE182EF4D104AB1C7D07E00A
:10516000059A002AEED0054B04212800FFF722F80B
:1051700020000BB0F0BDC046154A0000D949000020
:1051800030B50568080085B008300C000BF04BFA0C
:1051900003000120002B09D00021227B0091029204
:1051A000A268280001920A00FFF78EFF05B030BD0B
:1051B00030B50568080085B008300C000BF033FAF4
:1051C00003000120002B0AD0227B12210292A26848
:1051D00028000192002200921332FFF775FF05B0FC
:1051E00030BD0000F0B50E000C008B6807681A781F
:1051F0005B7808361B0287B013430121300005930A
:105200000BF0F9F92100380000F0F9FF051E0BD072
:10521000134B144A0193144B144900931448154B33
:10522000FCF738FB002018E0012130000BF0EBF90F
:10523000022130000BF0E7F9059B0120002B0CD078
:10524000A38900950C3BDBB20293A3682A0001936B
:105250002900059B3800FFF737FF07B0F0BDC046B7
:105260001D2401006D240100A8240100E323010096
:105270005C3001003B450100F0B500258B6889B02A
:105280001B7806680790069307980021DC300BF026
:105290004BF9041E28D0002D22D1069B012B1FD1D3
:1052A0000322E389069FE3181333934305931B8876
:1052B000002B0DD0227B18210292A26830000192AF
:1052C000059A528800922A00FFF7FEFE071E07D0BB
:1052D000059B18211A8830003B00FFF72BFE3D008C
:1052E00020000BF04DF9CFE7002D0ED1020019215F
:1052F0003000FFF7ABFD02000E20002A05D0300081
:10530000034B0421FEF756FF280009B0F0BDC0464C
:10531000D9490000F0B5070008008B688BB05D78B4
:105320001A782D0215439A78DB780C001B02134380
:1053300008300421019301260BF065F9002D54D0AB
:10534000A36814220393237B05AC02933B680021DE
:1053500020000093FBF7A5FC009B254A05936B46B4
:105360009B882900E381039B2800A3606B461B7A7E
:1053700026742373230000F0E1FD267C002E07D065
:1053800033002A0016210098FFF7D4FD00262CE0F8
:1053900038006168DC300BF0E4F832001721009827
:1053A000FFF754FD606000281ED0042108300BF088
:1053B00009F96B4607001B7905708370019B2D0A64
:1053C0001B0AC37045706068029908300BF0FAF848
:1053D000029A0399381DFBF73AFC064B62680421D8
:1053E0000098FEF7E7FE00E00E2630000BB0F0BD9F
:1053F000514D0000D9490000F0B58B898FB00700EE
:105400000E00062B02D00425142B79D130003B6806
:1054100004210193B36808305C781A78240214439D
:105420009A78DB780E251B02134300930BF0EBF800
:10543000310004A8FFF742FA002861D0002C07D001
:105440000025009BAB4202D09C4201D808E0009CA2
:105450000123220010210198FFF76CFD00254FE089
:1054600002AB1D70A02302AA9B01110004A8538067
:10547000FCF7C2FA00280DD0234B03A904A80D7035
:105480004B80FCF7B9FA002804D010232200190041
:1054900001982BE03E681422002109A8FBF701FCCB
:1054A000012211213000FFF7D1FC0E250B900028BE
:1054B00026D004AB0121083009970A9300270BF08E
:1054C00081F809AB0C90114A0770009920000D97E4
:1054D00000F034FD0C9B1D780093BD4209D10B9860
:1054E0000BF04EF80A23220010213000FFF722FDB6
:1054F00006E0074B0B9A04213000FEF75BFE3D00EF
:1055000028000FB0F0BDC04601280000E1450000B2
:10551000D9490000F0B587B0056801AC1422060037
:105520000F0020000021FBF7BCFB00220F21280008
:10553000FFF78CFC0E23A060002823D00196BB89C6
:10554000012B18D9380008300BF06DF801230F4AF1
:10555000237401002300060000F0F0FC237C002BE4
:10556000EDD0A0680BF00CF8237C32000E2128004F
:10557000FFF7E0FC05E0064BA26804212800FEF7D7
:1055800019FE0023180007B0F0BDC046D94D000039
:10559000D9490000F0B58BB01E0010AB1B880090FD
:1055A0000191029203930125002E33D0076805ACC8
:1055B000142200212000FBF774FB0022029938001E
:1055C000FFF744FC0D35A060002823D0009B134A50
:1055D00005936B469B893100A3800123300023741F
:1055E000230000F0ABFC257C002D0DD00025A06829
:1055F0000AF0C6FF019BAB420CD0237C320001991C
:105600003800FFF797FC05E0054BA268042138003D
:10561000FEF7D0FD28000BB0F0BDC046D94D00000C
:10562000D949000007B58A68537811781B020B43EB
:105630009178D27812020A4300920C210D22FFF7D2
:10564000A9FF0EBD07B58B680A211A785B781B028B
:105650001343002200920B32FFF79CFF0EBD0000A7
:10566000F0B58FB001908B890E00062B02D0042577
:10567000142B59D13000019B04211F68B3680830F6
:105680005C781A78240214439A78DB780E251B0282
:10569000134300930AF0B7FF310003A8FFF70EF998
:1056A000002841D0002C06D0009B002B02D09C4249
:1056B00001D808E0009C0123220008213800FFF7F0
:1056C00039FC002530E0019B08AE1F68182200213C
:1056D0003000FBF7E6FA012209213800FFF7B6FB9C
:1056E000B060002820D0019B01210893083003AB53
:1056F00073600AF067FF0023F06003700A230C4A0E
:10570000337500993300200000F018FC357D002D22
:1057100004D0B0680AF034FF337DCDE7054BB268A2
:1057200004213800FEF746FD28000FB0F0BDC0464A
:10573000F7470000D9490000F0B50D0003680700E5
:1057400028008BB001938B6808305C781A782402AB
:105750001443DA78997812020A4300925E791A7932
:105760003602062116430AF04EFF0290002C06D0A6
:10577000009B002B02D09C4201D808E0009C012332
:10578000220006210198FFF7D5FB002636E0A02372
:105790009B019E4201D00A23F2E7AB8905AD03933A
:1057A0003B681422002128000193FBF77AFA0022BB
:1057B00007210198FFF74AFB0E26686000281DD0DC
:1057C000029B0597EB606B461B7B00272B740A231B
:1057D0000C4A6B7400992B002000AF6000F0AEFB08
:1057E0006E7CBE4204D068680AF0CAFE6B7CC7E7D4
:1057F000054B6A6804210198FEF7DCFC30000BB011
:10580000F0BDC046CD460000D9490000F0B58B6818
:1058100085B05C781A78240207000668144308D023
:10582000DD789A782D02154302D0AC4201D808E009
:105830002C000123220004213000FFF77BFB002015
:1058400024E0102200216846FBF72BFA00220521F4
:105850003000FFF7FBFA030001900E20002B15D05B
:1058600029006B460A4A2000009700F067FB029D62
:10587000002D04D101980AF083FE0A23DAE7054BD4
:10588000019A04213000FEF795FCD8E705B0F0BD81
:105890002F450000D949000010B50348FEF7C6FBAC
:1058A00000F0A8FA10BDC0469802002010B50C0008
:1058B00000281CD000291AD0FFF748F8002818D07B
:1058C000030094331B68002B0DD002000023983294
:1058D00050682360984202D1546014600BE0046069
:1058E0005460180007E02100FFF7BAF803E0162023
:1058F00000E03920404210BD70470860002070472A
:10590000F8B500230A261A004D68AA420BD03400CD
:1059100054430F683C1927891C1CBB4200D23C1C15
:10592000A3B20132F1E70A899A4203D00B81CA6817
:1059300019009047F8BD10B5029B0A009C6959698F
:10594000A04710BD10B502480BF0C8FF10BDC046FF
:10595000B8030020F0B587B005910CA90490098820
:105960000598C568022959D8C9181E00022957DCB4
:10597000537812781B021A43170000246B689C426C
:1059800009D20A2161432B68049859180131FEF7A6
:1059900073F9002805D16B689C422CD100240A229F
:1059A0000BE00134EAE71100614303910398296891
:1059B00008180178002903D001349C42F3D10EE08D
:1059C0000499013050310722FBF741F9002F03D031
:1059D00001232A68039953546B689C4211D1134BDD
:1059E000134A0193134B144900931448144BFBF7CB
:1059F00051FF112615E0002F03D10A2363432A68C3
:105A00009F540A235C432B681C1927812B89BB42B6
:105A100008D029000598FFF773FF03E0072600E090
:105A20000D267642300007B0F0BDC0461D240100AF
:105A3000DC23010022240100E3230100A430010043
:105A4000B7460100F7B5124B8268070001919A42F0
:105A50001CD1C5682C89002C18D16B689C4215D2CA
:105A60000A2666432B68019899190131FEF704F95B
:105A7000002809D12B689E193389002B04D02900F6
:105A80003800FFF73DFF01E00134E6E70120FEBDED
:105A9000555900007FB5224A046813688188002B9D
:105AA00018D05368002B36D0083B1D002E681425F3
:105AB0009B886B43F318143B1B8A0BE000291CD016
:105AC000258A002D09D101339DB225822B00013991
:105AD000143489B2002CF1D10FE0AB42F6D3114B54
